:020000022000DC
:10600000000004205D630200456302004763020054
:10601000496302004B6302004D6302000000000070
:106020000000000000000000000000004F630200BC
:106030005163020000000000536302005563020038
:1060400049820200576302009185020057630200F3
:106050005763020057630200E583020057630200A2
:106060005763020057630200576302005763020040
:106070005763020057630200576302005763020030
:1060800057630200AD6F02005763020057630200BE
:10609000497002005763020095B002005763020086
:1060A0005763020057630200576302005763020000
:1060B0005763020057630200000000000000000068
:1060C00057630200576302005763020057630200E0
:1060D00057630200576302005763020057630200D0
:1060E000576302005763020057630200000000007C
:1060F0000000000057630200000000005763020028
:10610000000000000000000000000000000000008F
:10611000000000000000000000000000000000007F
:10612000000000000000000000000000000000006F
:10613000000000000000000000000000000000005F
:10614000000000000000000000000000000000004F
:10615000000000000000000000000000000000003F
:10616000000000000000000000000000000000002F
:10617000000000000000000000000000000000001F
:10618000000000000000000000000000000000000F
:1061900000000000000000000000000000000000FF
:1061A00000000000000000000000000000000000EF
:1061B00000000000000000000000000000000000DF
:1061C00000000000000000000000000000000000CF
:1061D00000000000000000000000000000000000BF
:1061E00000000000000000000000000000000000AF
:1061F000000000000000000000000000000000009F
:10620000314932480A1A02D0072291438D4630495B
:1062100030480A1A06D00722914381F309880222E6
:1062200082F314882C482D492D4A00F03CF82D4863
:106230002D492E4A00F037F82D482E492E4A00F0FD
:1062400032F82E482E492F4A00F02DF82E482F49BB
:106250002F4A00F028F82F482F49304A00F023F841
:106260002F483049304A00F01EF8304830490022AB
:1062700000F024F82F483049002200F01FF82F4A80
:1062800090471F481F49884205D00268043003B474
:10629000904703BCF7E700208646EC46002000212B
:1062A000274A9047FEE7884207D0521A05D0037864
:1062B00001300B700131013AF9D17047884202D0A8
:1062C00002700130FAE770470000042000E003206C
:1062D00000000420000004202CC90200288F0020A8
:1062E000DCA50020BC630200BC63020022B70200F0
:1062F0002CC90200288F0020288F0020ACB8020093
:10630000ACB80200ACB80200ACB80200ACB80200F5
:10631000ACB80200ACB80200ACB802002CC9020054
:10632000E0DF0200DCA50020DCA50020DCA50020C9
:10633000C8BA0020C8BA0020C8BA0020856302008D
:1063400099980200FEE7FEE7FEE7FEE7FEE7FEE7BC
:10635000FEE7FEE7FEE7FEE7704700BF1048804714
:1063600010484FF00701884385460F4880470F4883
:10637000016841F470010160BFF34F8FBFF36F8F6D
:10638000FFF73EBF0A480B490B4A884207D0521A12
:1063900005D0037801300B700131013AF9D1704713
:1063A00059630200000004201D7D020088ED00E01A
:0C63B000ACB80200288F0020288F0020CD
:1063BC007047000007B5044B0093044A402300F0DB
:1063CC0032F803B05DF804FBDD630200DDA50020AC
:1063DC002DE9F84389461446B2B10F4B0F4E0325F5
:1063EC00002743F00108224609EB0701002003F0C7
:1063FC008BFB0744241A48B933782BB14FF47A40FD
:10640C00C047013D02D13570BDE8F88301233370DC
:10641C00002CE8D1F8E700BFB0B80200DCA50020E2
:10642C00704703F0A5BBF0B595B01C461646084660
:10643C000D4601F021FB1A9B0D93CDE90864002455
:10644C002346082205A928460A948DF82C400C9462
:10645C0001F02FFB079B0293069B03939DF81430CE
:10646C008DF8114003F00302012A1DD1BDF8144030
:10647C00059EC3F3C203C4F383148DF81030A2003D
:10648C0008230EA9284601F014FBC6F3952608AB89
:10649C000093224602AB0EA9304600F0E5FB2846DD
:1064AC0001F0EEFA15B0F0BD022AF8D1BDF8164095
:1064BC00C3F3C203A4098DF810300827082C264614
:1064CC0028BF08263B4632460EA9284601F0F1FAB1
:1064DC00A41B08AB02AA31460EA8374400F028FCD6
:1064EC00002CEBD1DBE7704707B5044B0093044A53
:1064FC004023FFF798FF03B05DF804FB51650200E1
:10650C001EA6002030B50C4D0FCD89B06C460FC4C3
:10651C0095E80F0084E80F0006230022694607481F
:10652C00009301F023FE08B100F08CFC044B002218
:10653C001A7009B030BD00BFC4B80200288F00200B
:10654C001DA6002038B50D4B0D4D002018700D48C0
:10655C0004782D5DD2B21C4665B1043002F0FAFC11
:10656C0008B100F06FFC084B1A7812B12378002B9D
:10657C00FBD038BD0C3002F05FFAF1E75EA60020CC
:10658C0080AD0020288F00201DA6002008B50848EB
:10659C00084A0378D35C33B1043002F085FCBDE8C3
:1065AC000840FFF7AFBF0C3002F0F0F9F7E700BF7F
:1065BC00288F002080AD0020FFF7A4BF38B50A4D0E
:1065CC00FFF72FFF0421284600F0BCFA074B0124EB
:1065DC005C71FFF7F1FF042105F1100000F0B2FA35
:1065EC00034B5C7138BD00BF8CB802003C8F00209F
:1065FC00448F0020037813F0040216D003F0030339
:10660C00012B03D0022B09D0012070470A680088A7
:10661C000232C0F3831002440A60F5E70B6842882B
:10662C00023303EB92130B60EEE710467047000049
:10663C002DE9F04F87B000230446851C0DF10700AF
:10664C000F4690468DF8073000F0D8FE4548066896
:10665C003E60D0E90132134401339B1B824600F2A9
:10666C001C4600F5836900F21447AB421BD3002291
:10667C00B8F1000F70D0052363F3070264F389129D
:10668C00DAF80010DAF808309DF807000B400333F5
:10669C000D444AF82320CAF8005000F0D3FE012024
:1066AC0007B0BDE8F08F0121304600F028FF4846C6
:1066BC0000F03BFF384600F038FFDAF80400DAF857
:1066CC0008B0029000EA0B0003300AEB800002A92C
:1066DC00FFF790FF029B50BB0BEA03020AEB82020E
:1066EC0003F1020CD2680392013303EA0B0B0AEBA1
:1066FC008B0B02F00302012ACDF808C0DBF80C105A
:10670C0022D0022A16D08346384600F011FF10B171
:10671C00029BCAF804305946304600F0F0FEDAE924
:10672C0001231344DAF8002001339B1A9DE70BEA8E
:10673C000300C9E7BDF80E309B0903334FEA114B38
:10674C000CEB93030293DFE7BDF80C30C3F3831318
:10675C004FEA114B6344F5E7062363F3070264F336
:10676C009F528DE730A700200B4B0C48FF2210B531
:10677C009A600022C3F81824C3E90022C3F8142439
:10678C00012283F8202401F030F9044610B90448A2
:10679C0001F0D8F9204610BD30A7002060B80200E7
:1067AC0014B9020030B50A4C71B10A4A0A49121BDD
:1067BC00D20800239A4201D1002030BD31F8235079
:1067CC00854202D00133F5E7034654F83300F4E771
:1067DC00E0B7020060B80200288F0020094B013995
:1067EC0003EBC000032909D8DFE801F00A02040614
:1067FC00042070470079704740797047002070473B
:10680C0002207047E0B70200034BD3E90030C31AF3
:10681C0058425841704700BF30A700202DE9F04383
:10682C0087B0FFF7F1FF0646002840F0FB807E4D55
:10683C00C5F81804BFF34F8F6868AC68029020400D
:10684C00033005EB800002A9FFF7D4FE029B18B1C0
:10685C00D5F81824002A5FD004EA0302991C0133EE
:10686C0005EB8202234005EB8303D268DB680493BB
:10687C0002F00303022B0392029162D1BDF80E3099
:10688C006A484FEA9318B8F1500FC14628BF4FF031
:10689C00500969F38F1309F10801ADF80E3001F0BE
:1068AC00BCF80746002800F0A88001F0E5F803A921
:1068BC0000230822384601F0F2F8029924EA010676
:1068CC000136B600B14535D95FFA89F97EB3F6B217
:1068DC00A9EB0609214003315FFA89F4B146544E05
:1068EC0005EB810108234A46384601F0D8F836B149
:1068FC0009F1080322463146384601F0D0F8029BD4
:10690C0008F1030803EB98030293D5F81834002B15
:10691C004BD1D5F810445BE02A689A4204D86A60DF
:10692C00304607B0BDE8F08304EA030088E740492D
:10693C003446D7E72140033108234A4605EB810151
:10694C00DAE7012B59D1BDF80C303848C3F3831169
:10695C00062928BF062161F3891302318900ADF89D
:10696C000C3001F05AF80746002846D001F084F8A4
:10697C000023082203A9384601F091F80026BDF83F
:10698C000C20C2F38312B300964203F10803BCD26D
:10699C0002994A1C21400331029205EB8101042229
:1069AC00384601F07CF80136E9E7384601F068F822
:1069BC00FFF72AFF80F00100C6B2B1E7E3685B790C
:1069CC0023B1236839461B6820469847E3681C6846
:1069DC00002CF3D1384601F053F80DF107008DF877
:1069EC00074000F00BFDD5F818340BB9029B6B6017
:1069FC009DF8070000F026FDDAE7D5F8104454B9ED
:106A0C000C4B0D480D49C01AC008000440F00200A0
:106A1C0000F06EF8CCE7236820469B689847E36843
:106A2C001C68ECE700267BE730A7002060B802006A
:106A3C003CA70020E0B7020008B8020020B9020011
:106A4C002DE9F74F284C80460F46924601A90122AA
:106A5C0018469B46D4F80890FFF7EAFD80B3019DD9
:106A6C000026A91C5E4506EB010233D100211F480C
:106A7C0000F01AFD80F310006A1C02EA090204EB14
:106A8C008202000405EA0903033340EA1840D0608F
:106A9C0014F8232068F3C50204F8232034F82320CB
:106AAC0066F3891224F8232054F8232067F39F22DD
:106ABC0044F8232002F0F80242F0010204F82320EB
:106ACC0094F820341BB1FFF7A9FE0028FBD103B0CA
:106ADC00BDE8F08F09EA020204EB82025AF8263074
:106AEC00D3600136BEE700BF30A700204CAB0020BE
:106AFC0000231A46FFF7A4BF07B50123019201AA90
:106B0C00FFF79EFF03B05DF804FB07B5CDE900234A
:106B1C0002236A46FFF794FF03B05DF804FB7FB5D0
:106B2C00CDE90023089B0293099B03930A9B0493D2
:106B3C000B9B05936A460623FFF782FF07B05DF8AF
:106B4C0004FB000030B50F49D1F810240023144683
:106B5C003CB9C468237152B9C1F8100422601846BC
:106B6C0030BDE46825799D4206D02468F0E7D268F0
:106B7C00116821601060F2E701330A2BE7D14FF066
:106B8C00FF33ECE730A70020094A38B50123D2F8CF
:106B9C00104482F820341D4604B938BDE3685D7199
:106BAC00236820465B689847E3681C68F4E700BFDD
:106BBC0030A70020037A052B10B50C460FD0437A72
:106BCC0023B1084A0849204600F015FD0749204624
:106BDC0000F011FD2046BDE8104000F001BD002A78
:106BEC00F8D0F3E76BB9020070B9020090B902005B
:106BFC00C38873B504460D4633B1144A0092144948
:106C0C00144A284600F0F7FC217A05291CD0637A37
:106C1C004BB1A088FFF7E2FD0F4B104953F8202031
:106C2C00284600F0E8FC227A0D4BA08853F822602D
:106C3C000021FFF7B7FD0B4903463246284602B048
:106C4C00BDE8704000F0D7BC02B070BD6BB902005B
:106C5C007BB9020073B9020038B9020070B90200A6
:106C6C00A0B9020093B902002DE9F04385B01F468C
:106C7C000C9D002306460C46904695F80C902B7301
:106C8C0029463846FFF7B4FFB8F1060F09D8DFE8FC
:106C9C0008F00412181F283340003146284600F033
:106CAC00AAFC002229463846FFF784FF85F80C9091
:106CBC0005B0BDE8F08322683146284600F09BFC05
:106CCC00EFE7D4E900233146284600F094FCE8E7CE
:106CDC00A36800933146D4E90023284600F08BFCCE
:106CEC00DFE7E3680193A36800933146D4E90023FE
:106CFC00284600F080FCD4E723690293E3680193F3
:106D0C00A36800933146D4E90023284600F073FCB5
:106D1C00C7E76369039323690293E3680193A3684C
:106D2C0000933146D4E90023284600F064FCB8E710
:106D3C0008292DE9F84F80460E4617461C463AD8CE
:106D4C00002593F80C901D7319461046FFF750FF61
:106D5C00DFF884A0DFF884B0AE422ED918F80520F5
:106D6C005946204600F047FC0135082DF4D118494E
:106D7C00DFF86CB0204600F03EFC4FF0000A5645A0
:106D8C0020D918F80A507E2D03D8284604F0AEFB03
:106D9C0000B92E252A465946204600F02CFC0AF153
:106DAC00010ABAF1080FEAD1012221463846FFF751
:106DBC0001FF84F80C90BDE8F88F5146204600F096
:106DCC001AFCD1E70349204600F015FCE7E700BFA9
:106DDC0066B9020064B9020062B902005CB9020033
:106DEC0068B9020070B5084D084E00242B789C42FF
:106DFC0001D3002070BD3368012113F8340001F079
:106E0C007FFA0134F2E700BFECAB002010AC00209D
:106E1C0070B5094D094E00242B789C4204D30848C8
:106E2C00BDE8704000F0DABA336813F8340001F0B2
:106E3C00B1FA0134F0E700BFECAB002010AC00203D
:106E4C00F0AB00201FB50021039001AA44F2010011
:106E5C00CDE9011100F004F805B05DF804FB000069
:106E6C0010B572B6FFF790FEFFF7D8FC0028FBD1E7
:106E7C00104B114C1149E41AE408240444F00100AD
:106E8C00FFF736FE0E4B1B68DB0700D500BE0D4925
:106E9C0044F00200FFF72CFEBFF34F8F0A490B4B57
:106EAC00CA6802F4E0621343CB60BFF34F8F00BF9C
:106EBC00FDE700BFE0B7020008B80200FFB902000E
:106ECC00F0ED00E00BBA020000ED00E00400FA0562
:106EDC00094A537891780133DBB2994208BF0023F9
:106EEC00117899421FBF03705078182303FB0020C0
:106EFC0014BF04300020704714AC002073B5054655
:106F0C0000240DF107000E468DF8074000F076FACC
:106F1C000DF10600FFF7DCFF90B10670094B9DF8F0
:106F2C00062045605A709DF8070000F08BFA24B9D2
:106F3C00054B4FF48012C3F80021204602B070BDFF
:106F4C000424F0E714AC002000E100E0024B4FF405
:106F5C003C6043F00103184720BA020038B50C4BD3
:106F6C000C4C4FF40032C3F8802001254FF48033D1
:106F7C00C4F84833C4F808336560FFF7E7FF064BE5
:106F8C00A56000241C60FFF7E1FF044B1C7038BDAA
:106F9C0000E100E00010014030AD002021AD0020E8
:106FAC00F8B51F4B1F491B680025C1F84051C1F8AB
:106FBC004451C1F84851C1F84C51C1F80051C1F8C5
:106FCC0004514BB3D1F8044517490968641A24F0ED
:106FDC007F442F461A68A24209D8A41A15441A7C79
:106FEC00DE691AB11F74D3E905209047AEB90F4A78
:106FFC000F4B11781B788B4205D10133DBB2022B7E
:10700C0008BF0023137012780A4B43F822500A4B26
:10701C004FF48012C3F80021F8BD3346DAE700BF05
:10702C0034AD00200010014030AD00202DAD00200B
:10703C002CAD002024AD002000E100E02DE9F04F44
:10704C00A04AA14913780978A04D994285B03CD04B
:10705C000133DBB2022B08BF002313709C4912785A
:10706C009C4B0F6853F822003B1823F07F430022FF
:10707C000B602B6816461446944613B942B12B602C
:10708C0006E0196881420ED902B12B60091A196009
:10709C004FF001082B68DFF844A201930027BEB91A
:1070AC00DFF840B266E0401A0C44D968C3F800C05F
:1070BC00D3F81CE031B13A1922F07F42C3E9012127
:1070CC00DE611E4601227346D7E70026B046E1E793
:1070DC003446F6697E4A63681268DFF80CC2A06811
:1070EC00991A21F07F41614500F2A580014421608D
:1070FC00012222742A680023C4E90133E361002AC7
:10710C0040F0A2802C60CAE75A1C9BF80210D2B245
:10711C0091428BF8002004BF00228BF8002018222B
:10712C0002FB03B31A799C68022A1CD0032A12D0E2
:10713C00012A1FD1207CE8B9D3E90312A2605A6955
:10714C00E2609A69644BA2611B78002B0CBF0B4662
:10715C0003466360BEE700222B681146002B66D104
:10716C0042B12B6006E029680A468946002A59D1AB
:10717C00002323749BF800309BF801209A42C3D162
:10718C002B682FB9019A9A4202D1B8F1000F43D063
:10719C00002B73D0D3F800A0504D4D4BD5F804758F
:1071AC001C68DFF848813E1B98F8003026F07F46BB
:1071BC0003369BB94FF48033C5F84433C5F8043318
:1071CC00474B4FF400324FF00109C3F880211A608D
:1071DC00C5F80090FFF7BAFE88F80090B2452CBFB6
:1071EC005444A41924F07F44C5F84045D5F804351F
:1071FC00DB1B23F07F43E41B033324F07F44A342C7
:10720C000AD9D5F80435C5F84035FFF79FFE344B45
:10721C004FF40032C3F800212F4B00221A7005B036
:10722C00BDE8F08F94422CD09146D2699EE7197438
:10723C000122DB6992E7D31A23F07F43834234BFE8
:10724C00C31A0023236053E721681368994213D8AB
:10725C00591A1160E26155E7091AD8691A4638B112
:10726C00034618688842F7D3401A1860184613462C
:10727C002160E061DC6112E71346F2E7FFF76EFE76
:10728C00CAE74C4511D1CB692B6073B9DFF840E0EC
:10729C000120CDE90212CAF80800CEF800300E4BDE
:1072AC001870FFF753FEDDE902121368D269C9F8B2
:1072BC001C2012B11068034413602B68994218BF4C
:1072CC00012755E72CAD00202DAD002034AD00205A
:1072DC0030AD002024AD002020AD00200010014076
:1072EC0000E100E014AC0020FEFF7F0021AD002087
:1072FC0008B5FFF733FE104B00200B2218809A7054
:10730C000E4B18600E4B18700E4B18700E4B4FF442
:10731C008012C021C3F8802183F814131A6002F183
:10732C008042A2F56F22C2F8080583F81113074BAF
:10733C00D2F804251A6008BD14AC002034AD00202E
:10734C002CAD00202DAD002000E100E030AD002080
:10735C002DE9F7431E4FBB7805460E469046A3B366
:10736C0098B304292FD943697BB3437C0024012BA8
:10737C000DF107000CBF8946A1468DF8074000F0BF
:10738C003DF80DF10600FFF7A3FDD0B1012303700A
:10739C00104B4560D3F80435C0E90498C0E90236B7
:1073AC009DF806307B709DF8070000F04BF824B96F
:1073BC00094B4FF48012C3F80021204603B0BDE8FE
:1073CC00F0830424EFE70724F7E70824F5E700BF70
:1073DC0014AC00200010014000E100E0064A927855
:1073EC003AB130B1426922B1002202740221FFF796
:1073FC0085BD0820704700BF14AC002070B5EFF3BA
:10740C00108672B60C4A946801239CB993600B4B9E
:10741C000B4DD3F8801029401160C3F88050D3F87D
:10742C00841051604FF0FF32C3F88420047006B909
:10743C0062B670BD0370FAE738AD002000E100E0E1
:10744C00FC06FFBD084B9A6810B55AB150B9EFF362
:10745C00108172B6054A1C6814605C6854609860B0
:10746C0001B962B610BD00BF38AD002000E100E0EC
:10747C0001F01F024B090121914000EB830000F049
:10748C001DB801F01F0301229A404B0900EB830049
:10749C00D14300F029B84B0901F01F0150F823002B
:1074AC00C84000F00100704750E8002F0B4640E840
:1074BC00003C9CF0000FF7D11046704750E8003F9D
:1074CC0043EA010240E8002C9CF0000FF6D1104674
:1074DC00704750E8002F02EA010340E8003C9CF0A2
:1074EC00000FF6D11046704750E8003F03EA010246
:1074FC0040E8002C9CF0000FF6D11046704750E885
:10750C00003F03EB010240E8002C9CF0000FF6D189
:10751C001046704750E8003FA3EB010240E8002CF6
:10752C009CF0000FF6D1104670470121FFF7C6BF43
:10753C000021FFF7CEBF10B590B1D0E9012301684F
:10754C009B1ADBB20A60013BDBB2FF2B026802D153
:10755C000020107110BD11684C1C14600B70F2E708
:10756C000E20F7E737B5054600240DF107008DF81E
:10757C000740FFF743FF2A686B68116899420ED9E0
:10758C00481E106011F8014CEB68298A01FB043489
:10759C00AB6811791B1ADBB2994238BF13719DF895
:1075AC000700FFF74FFF204603B030BD37B5054647
:1075BC0000230DF107000C468DF80730FFF71EFF76
:1075CC002A681368591C1160E968641A298AB4FB8B
:1075DC00F1F41C709DF80700FFF734FF03B030BDC9
:1075EC00826810B504462AB143690168006998475E
:1075FC000023A36010BD0EB403B5039921B104ABF5
:10760C0001AA019300F074F802B05DF804EB03B02A
:10761C0070470A2938B504460D4602D10D21FFF7F3
:10762C00F8FFA3682268591CA160D554D4E9013233
:10763C009A4204D32046BDE83840FFF7D1BF38BD8D
:10764C002DE9F84F9946DDE90A43174682468846EC
:10765C000A460126BA420FD24E4538BF4E4613F0A9
:10766C00010B01D164B900240125B9F1010F1AD91C
:10767C0009F1FF397D43F8E7B2FBF7F20136E9E790
:10768C009B070ED5B9F1000F0CBF30252025A64263
:10769C00EAD2013C29465046FFF7BBFF002CF6D13D
:1076AC00E1E72025F3E7B8FBF5F39F42E2D9DFF8D9
:1076BC003C90B8FBF5F3504619F8031005FB138802
:1076CC00FFF7A7FFB5FBF7F3BD4207D2BBF1000FE5
:1076DC0002D00CB1A64203D3BDE8F88F1D46E8E7F3
:1076EC0020215046013CFFF794FFF2E726BA020036
:1076FC002DE9F74F054617468846002900F03181E1
:10770C0018F8011B49B92B7B002B00F02A81284665
:10771C0003B0BDE8F04FFFF763BF252940F0C080F0
:10772C00002698F800302D2B424608F1010823D092
:10773C00302B24D02B2B25D000242A2B02F1010135
:10774C0023D13B681A1D1B683A601C440A46137807
:10775C002E2B26D101324FF0000A104610F8011BD7
:10776C00A1F1300CBCF1090F1DD80A2303FB0A133D
:10777C00A3F1300A0246F0E746F00106D1E746F0E5
:10778C000206CEE746F00406CBE711F8013CA3F164
:10779C0030000928DBD80A2202FB0434303C0A46AC
:1077AC00CBE74FF0000A12F8011B01F0FB00682830
:1077BC009046F8D069290ED04AD8582964D006D8FA
:1077CC0025296DD098F80030002B99D19BE76329BF
:1077DC0062D06429F6D13A68D2F80090111D89EA7A
:1077EC00E9723960A2EBE9724FF0010B092A5BDCFC
:1077FC00D34538BFD3462CB1B9F1000F01DB71076B
:10780C0000D5013CB20702D5BAF1000F04D0F30742
:10781C0002D4002C4ED10024B9F1000F52DAC9F178
:10782C0000092D212846FFF7F4FE06F00302022A78
:10783C0005D1BAF1000F02D1002C47D10024CDE9BB
:10784C00004653460A2249462846FFF7F9FEB9E797
:10785C0073294CD014D87029B4D13B681A1D3A60E6
:10786C00302128461C68FFF7D4FE78212846FFF704
:10787C00D0FE00220823CDE9003221461022E3E796
:10788C0075292BD078299DD139680A1D3A60CDE92C
:10789C0000465346102228E03B681A1D19783A60BE
:1078AC002846FFF7B6FE8DE70A230BF1010BB2FB5E
:1078BC00F3F29BE7A345AFD220212846013CFFF70A
:1078CC00A8FEA6E77007B0D52B21ABE7A345B6D22F
:1078DC0030212846013CFFF79CFEADE73968CDE925
:1078EC0000460A1D3A6053460A220968ACE73B6819
:1078FC001A1D3A60F107D3F8009020D4B9F1000FAB
:10790C0025D0484603F0D7FE0646B44200D9C4B988
:10791C0009F1FF3920E028460136FFF77AFE19F805
:10792C0006100029F7D1A642BFF44CAF002C3FF44F
:10793C0049AF20212846013CFFF76BFEF3E70026F8
:10794C00EDE720212846013CFFF763FEDDE74E46BC
:10795C00DBE72846FFF75DFE19F8011F0029F8D177
:10796C0030E703B0BDE8F08F2DE9F047B0F8069092
:10797C004479D2F800A09DF8208009FB04F4043C63
:10798C0006460AEB0300A0420F4688BFA4EB030A8D
:10799C00191DC2F800A0B1FBF9F509FB15114DB981
:1079AC00A9EB0104544528BF5446BAF1000F04D189
:1079BC00BDE8F0873668013DF1E704317B1970189A
:1079CC002246B8F1000F0ED001461846AAEB040A65
:1079DC0003F0CCFDD145254436684C464FF00001F0
:1079EC0028BF5446E1E71946F0E7FFF7A4BDF8B508
:1079FC0046790146721E0546002393422D6803D337
:107A0C000024A64202D8F8BD0133F6E70F682846D9
:107A1C00FFF7CCFD01343946F3E72DE9F843068A2C
:107A2C00CD1C0746FFF79EFD043E35440446B5FBCE
:107A3C00F6F5F0B14FF48073EDB28380C680013D52
:107A4C00076081464FF00008A84512D23846FFF770
:107A5C0089FD064648B163790133637108F1010869
:107A6C00C9F8000007608146EEE72046FFF7BFFF2C
:107A7C0034462046BDE8F88301210430FFF73FBDB2
:107A8C0010B5012104460430FFF744FD10F0FF0F40
:107A9C0004D12046BDE81040FFF7A9BF10BD1FB5AB
:107AAC0003920022009203AAFFF75EFF05B05DF877
:107ABC0004FB1FB503920122009203AAFFF754FFA7
:107ACC0005B05DF804FB41DF70470000064B10B5B4
:107ADC0000241C70054B1C60BFF35F8F04490548E4
:107AEC0000F039F8204610BD4CAD002050AD002000
:107AFC0038BA020044AD002007B500230DF1070091
:107B0C008DF80730FFF77AFCF1EE103A23F09F0363
:107B1C00E1EE103ABFF35F8F094B4022C3F884218A
:107B2C009DF80700FFF78EFC03F094FA20B1FFF7E5
:107B3C00CAFF03B05DF804FB20BF40BF20BFF8E7CD
:107B4C0000E100E0836800225A609A60C3E90422D5
:107B5C00DA601A6070470B684A684360934208BF4A
:107B6C000023016008BF43607047436843B102685B
:107B7C00916852680B449342436004BF00234360F6
:107B8C007047000010B50D49A1F59472914201D8CF
:107B9C0000200FE08B1ADB1003EBD3735B1002EBAE
:107BAC00C30452F83330834205D802D204F10802E0
:107BBC00ECE7606810BD2146E8E700BF88BB020017
:107BCC0008B5FFF7DFFF024B002808BF184608BDB9
:107BDC004DBA02000648074A03780749D35C0122D4
:107BEC0013B1043001F0FAB90C3000F06FBF00BFD4
:107BFC004C8F002080AD002058AD002013B50478C8
:107C0C00012C10D104238DF8003043681B788DF8BB
:107C1C000430FFF7DFFF0B4B1C700B4B68461B68E7
:107C2C00984702B010BD022C06D1C3688DF80040F5
:107C3C000193FFF7CFFFF0E7002CF2D103238DF86F
:107C4C000030EAE759AD002054AD0020F0B51B4DD3
:107C5C00064617469C460FCD89B06C460FC495E876
:107C6C000F0084E80F0073690693337C8DF81CC0F9
:107C7C00003318BF01238DF81430737C1048002B8F
:107C8C0014BF0E2300238DF81530F3680293B368EC
:107C9C00039333680193736800930A4B1F600A4B7C
:107CAC0000221A706946094A00F060FA20B933685C
:107CBC00013301D0FFF78EFF09B0F0BD44BF0200C5
:107CCC004C8F002054AD002059AD0020097C0200DF
:107CDC00054B1A782AB1054A1278027000201870E8
:107CEC0070470520704700BF59AD002058AD0020EB
:107CFC00054B1B68082B01BF044B1868B0FA80F0C9
:107D0C00400918BF002070473001001034010010EA
:107D1C0008B54FF080430022C3F80C21C3F81021A2
:107D2C00C3F838254FF0805203F54043D2F80414C1
:107D3C00C3F82015D2F80814C3F82415D2F80C1483
:107D4C00C3F82815D2F81014C3F82C15D2F8141453
:107D5C00C3F83015D2F81814C3F83415D2F81C1423
:107D6C00C3F84015D2F82014C3F84415D2F82414E3
:107D7C00C3F84815D2F82814C3F84C15D2F82C14B3
:107D8C00C3F85015D2F83014C3F85415D2F8341483
:107D9C00C3F86015D2F83814C3F86415D2F83C1443
:107DAC00C3F86815D2F84014C3F86C15D2F8442403
:107DBC00C3F87025FFF79CFF10B1354B354A1A609C
:107DCC00FFF796FF48B13449344B0A681B6822F020
:107DDC000F0203F00F0313430B60FFF789FF18B179
:107DEC002F4B4FF400721A604FF08043D3F80024ED
:107DFC00D20744BF6FF00102C3F80024294AD2F81D
:107E0C00883043F47003C2F88830BFF34F8FBFF350
:107E1C006F8F4FF01023D3F80022002A03DBD3F826
:107E2C000432002B2FDA204B0122C3F80425D3F89F
:107E3C000024002AFBD04FF010221221C2F80012AD
:107E4C00D3F80024002AFBD04FF010231222C3F8E1
:107E5C000422154B1A46D3F800140029FBD000213C
:107E6C00C3F80415D2F80034002BFBD0BFF34F8FAE
:107E7C000C490E4BCA6802F4E0621343CB60BFF3AB
:107E8C004F8F00BFFDE70A4B0A4A1A6008BD00BFBE
:107E9C008C56004048810300E40E0040580200104C
:107EAC004096024000ED00E000E001400400FA05BD
:107EBC00608F00200090D003074B185C1F288ABFEE
:107ECC00064B4FF0A04300F01F00D3F8043523FA03
:107EDC0000F000F00100704768BF02000003005082
:107EEC00074B1B5C1F2B86BF03F01F0305494FF08C
:107EFC00A041012202FA03F3C1F80835704700BF14
:107F0C0068BF020000030050074B1B5C1F2B86BF91
:107F1C0003F01F0305494FF0A041012202FA03F3BD
:107F2C00C1F80C35704700BF68BF02000003005059
:107F3C0008B50020FFF7E8FF0120FFF7E5FF02205E
:107F4C00FFF7E2FF0320BDE80840FFF7DDBF08B5EF
:107F5C000020FFF7C5FF0120FFF7C2FF0220FFF74B
:107F6C00BFFF0320BDE80840FFF7BABF0A4B185CFF
:107F7C001F288ABF094B4FF0A04300F01F00D3F815
:107F8C0004250121814021EA02000A40C3F80805BA
:107F9C00C3F80C25704700BF68BF020000030050F7
:107FAC00014B185C704700BF64BF0200C20710B5DC
:107FBC0004460CD54FF0A0430322C3F83427C3F872
:107FCC003827C3F83C27C3F84027FFF7B1FFA307B6
:107FDC000AD54FF0A0430C22C3F82C27C3F8302746
:107FEC00C3F86027C3F8642710BD000038B5074CF0
:107FFC00051E04F1080318BF1C4623682BB11A6830
:10800C0022605B6828469847F7E738BD64AD0020CE
:10801C0020B9054B01225A70FFF7E8BF012802D1A5
:10802C00014A9070F8E770475CAD002020B9034B13
:10803C0001225A70FFF7DABF704700BF5CAD002019
:10804C0038B50B4C237883B90A486360A36023616D
:10805C00E36000F0C9F8054602F0FCFF08B900F037
:10806C00CFF801232370284638BD8525FBE700BFD8
:10807C005CAD00201D80020037B50B4C00230DF1C8
:10808C0007008DF80730FFF7B9F9E368013BE360AF
:10809C00E56815B900F0C6F8A5709DF80700FFF764
:1080AC00D1F903B030BD00BF5CAD0020012813B581
:1080BC0009D018B103281CD002B010BD0F4B0122FF
:1080CC00C3F88020F8E70E4C00230DF107008DF863
:1080DC000730FFF793F923780BB9FFF7B1FFE3688B
:1080EC009DF807000133E3600123A370FFF7AAF9A1
:1080FC00E2E700F085F8FFF7BFFFDDE700E100E005
:10810C005CAD00201FB503788DF8003043680193F7
:10811C0083688DF80830C3680393054A054B68469D
:10812C0053F8213052F82110984705B05DF804FB44
:10813C0070AD002078AD00201FB503788DF80030AD
:10814C004368019383688DF80830C3680393054A2C
:10815C00054B684653F8213052F82110984705B06A
:10816C005DF804FB70AD002078AD0020F0B5194B24
:10817C000678DFF870E043F82620174B94460A691E
:10818C0043F826204B7F0EF806300C4607460FCCE2
:10819C0089B06D460FC594E80F0085E80F001EF8F6
:1081AC000630049653B1BCF1000F0C4A694608BF67
:1081BC000022381D00F09CFD09B0F0BDBCF1000F91
:1081CC00074A694608BF002207F10C0000F00AFBC1
:1081DC00F2E700BF78AD002070AD002011810200E5
:1081EC004581020080AD0020044A137923B9012196
:1081FC0010609180184670478520704784AD002030
:10820C00074B1A68D2075FBFC02283F800230122F4
:10821C001A604FF080430122C3F81825704700BF45
:10822C0000E100E0044B01221A604FF08042D2F8CA
:10823C001834DB03FBD470470C000040154B07B51A
:10824C001A687AB100221A601B680093009B4FF0E9
:10825C0080430122C3F808230F4B587910B95A7187
:10826C001B6898470D4B1A6882B100221A601B6874
:10827C000193019B4FF080430222C3F80823064B65
:10828C001B68012003B05DF804EB184703B05DF8E0
:10829C0004FB00BF0001004084AD0020040100403D
:1082AC0000F1804000F5C040002382B003600368F9
:1082BC000193019B02B0704703681F2B83BF03F02F
:1082CC001F03036001484FF0A040704700030050AB
:1082DC0007B5019001A8FFF7EFFF019B00EB8300AE
:1082EC00D0F8002722F44032C0F80027D0F800372D
:1082FC0043EA0143C0F8003703B05DF804FB00000B
:10830C0073B5224C2518064695F93020072A19DD3D
:10831C00224492F858309B09032B0FD1019001A8ED
:10832C00FFF7CAFF019AD0F81035D340DB0707D40A
:10833C0002213046FFF7CCFF02B070BD012BF7D005
:10834C000321F6E7D3B2072BF6D8930003F1804351
:10835C0003F5C043D3F8100540F00100C3F8100535
:10836C0002F14000800080B2FFF79AFF0029E3D0B1
:10837C0095F9303054F82330002BDDD0012303FA6B
:10838C0002F2034BC3F80423D6E700BF8CAD0020E8
:10839C00006000400E4B034493F93020072A02DDA5
:1083AC000021FFF795BFD3B2072B10D8930003F130
:1083BC00804303F5C043D3F8101521F00101C3F835
:1083CC001015012303FA02F2024BC3F8082370477D
:1083DC008CAD0020006000402DE9F04F002489B0E6
:1083EC00CDE90244624D4FF48072012102F18043C9
:1083FC0003F5C04390B21B68012B06D1D5F80433AA
:10840C000B4202D0FFF74CFF0C430432B2F5907FC5
:10841C004FEA4101EAD1574B1B68012B0ED14FF4A7
:10842C00BE70FFF73DFF4FF0A04344F00044D3F87B
:10843C0010350293504BD3F81035039314F0FF0F03
:10844C001AD04E4F00250126344210D0AB0003F158
:10845C00804303F5C043D3F81005D3F8101557F833
:10846C00253023B1C1F30141C0F3052098470135F4
:10847C00082D4FEA4606E7D1002C75DA0DF11008ED
:10848C0000230493C8F804304FF0FF33CDE90633D2
:10849C00DFF8E8A0DFF8E89000273D4619F9014B1A
:1084AC00631C48D0E4B2012324F0C00604F0070298
:1084BC0003FA02F2F00808AB191811F8083C134241
:1084CC0039D00AEB0603A40993F930305AF823B0DB
:1084DC00BBF1000F08D1032C2DD118F800C04CEAC9
:1084EC00020C08F800C001E0032CF6D001A801969C
:1084FC00FFF7E2FE019B11F8181C03F5E07C11421A
:10850C0050F82C00C0F3014005D0022813D1032CE5
:10851C000BD1214604E003280DD1032C05D10221F7
:10852C003046FFF7D5FE0135EDB2BBF1000F02D09E
:10853C0021463046D8470137042FAFD1A5B14FF0B3
:10854C00A0430299D3F8102503F540739142D3F858
:10855C00103502D10399994206D002920393049AE2
:10856C00059B0692079395E709B0BDE8F08F00BF15
:10857C00006000407C610040000300508CAD002086
:10858C00ECAD0020014B1B68184700BFF8AD002074
:10859C000E4B984237B50D4602D0002003B030BDCB
:1085AC0000230DF107008DF80730FEF727FF084B6D
:1085BC001C7914B901221D601A719DF80700FEF791
:1085CC0041FF002CE9D01120E8E700BF002000405B
:1085DC00F8AD0020034B984201BF034B00221A60F8
:1085EC001A71704700200040F8AD00200023435062
:1085FC0082B043580193019B02B070470A4610B5F4
:10860C004FF48E71FFF7F2FF136A9168C95C136A1D
:10861C0001331362C0F81C1510BD024608B54FF4A7
:10862C0092710068FFF7E2FF4FF484711068FFF756
:10863C00DDFF136801221A6008BD8B690A4610B56C
:10864C004FF4847123B9FFF7D1FFD0F8183510BD62
:10865C00FFF7CCFF536AD168D0F81805C854536A99
:10866C0001335362F3E700001FB501238DF800308E
:10867C00044BCDE90110D3E900126846904705B0D0
:10868C005DF804FB00AE002030B54C4AD2F8043340
:10869C0013F4007F85B015464FD0D2F82431002B4F
:1086AC004BD04FF492711046FFF7A0FF4FF40173BB
:1086BC00C2F80833424B93F8291009B901215160D3
:1086CC003E4902228DF80020D1F88024C1F8802484
:1086DC0003929A690292DA6801920022C3E9062297
:1086EC006846D3E9001290473448D0F81C315BB18E
:1086FC0033490A6A4B699A420A464BD291F82830A0
:10870C00002B47D1FFF77AFF2C4AD2F8443193B1B2
:10871C004FF4A2711046FFF769FF294B93F829100B
:10872C0009B1012111609A692AB100229A61586A33
:10873C00D968FFF799FF05B030BDD5F804335B0756
:10874C00D2D5D5F80831002BCED01D4C1B48214674
:10875C00FFF773FF636AA2699A422346C4D1E269A8
:10876C00E1684AB12369E3600023606AA261E361B6
:10877C006362FFF779FFB7E794F829200AB9012261
:10878C006A600E4A4FF40170C2F8080300229A6125
:10879C00586AEEE74FF48E710848FFF727FF5169CE
:1087AC000029B1D00023029191688DF8003001911D
:1087BC0053616846D2E900139847A5E700200040B2
:1087CC0000AE00201F2886BF00F01F00044B4FF0A6
:1087DC00A04300F5E070022243F82020704700BF50
:1087EC00000300502DE9F843624F047991462C2286
:1087FC0002FB0472064692F82A200D46002A40F02D
:10880C00B3805D490068FFF7C3FE8046002840F046
:10881C00AE8029684A1C10D01F2987BF01F01F03A6
:10882C00564A0B464FF0A0420120984003F5E073E6
:10883C00C2F80805032042F823006868431C0DD0D9
:10884C001F288BBF00F01F0303464C4A4FF0A04279
:10885C0003F5E0734FF0000C42F823C03368AA69AB
:10886C0095F814C0C3F824256A7DBCF1010F4CEABD
:10887C000202C3F86C25C3F81405C3F80C152BD1F0
:10888C00A968481C0DD01F298BBF01F01F020A4696
:10889C003A484FF0A04002F5E0724FF0000C40F85F
:1088AC0022C0E868421C13D01F2887BF00F01F0CA1
:1088BC00324A84464FF0A0424FF0010E0EFA0CFEE5
:1088CC000CF5E07CC2F808E54FF0030E42F82CE002
:1088DC00C3F80805C3F810152C236343FA18C2F823
:1088EC0004902A69FA50B9F1000F2AD04FF48E7116
:1088FC0030682D7FFFF77AFE30684FF4A271FFF7D6
:10890C0075FE32681E4BC2F80433120B51B20029AB
:10891C00A8BF01F160404FEA4513BABF194802F0F5
:10892C000F0500F56140DBB2B4BF435580F800334E
:10893C0002F01F02012303FA02F24909124B43F819
:10894C00212033680422C3F800252C2303FB047375
:10895C000022C3E9062283F829205A61012283F8F8
:10896C002A204046BDE8F8834FF00808F9E74FF09D
:10897C001108F6E700AE00209586020000030050B7
:10898C008000020014ED00E000E100E02DE9F04170
:10899C0003680479254D0022C3F800252C2202FB24
:1089AC0004520646526872B1214AC3F80823190BC7
:1089BC004AB20120520901F01F0100FA01F12032E4
:1089CC001C4840F82210D3F80C05D3F81485D3F8C2
:1089DC000815D3F810754FF0FF329042C3F81425E8
:1089EC00C3F80C25C3F80825C3F8102501D0FFF7F0
:1089FC00E9FEB8F1FF3F02D04046FFF7E3FE7A1CD8
:108A0C0002D03846FFF7DEFE4B1C02D00846FFF7BB
:108A1C00D9FE3068FFF7DEFD2C2303FB0454002342
:108A2C0084F82A306360BDE8F08100BF00AE0020FE
:108A3C008402020000E100E02DE9F843224F0679A0
:108A4C004FF02C0909FB067480466569002D37D15F
:108A5C006261A16025624FF48E71006884F8285021
:108A6C00FFF7C4FDD8F80000012383602146FFF70F
:108A7C00C5FD6368A1462BBBD8F80050226A636918
:108A8C009A4212D3D8F80030D3F81C21002AFBD01C
:108A9C000122DA6000202C2303FB0676002373618D
:108AAC00BDE8F88394F8283043B9D5F81C31002B75
:108ABC00F8D049462846FFF7A1FDDFE70F20EAE78B
:108ACC001120EDE72846EBE700AE00202DE9F84336
:108ADC00384E05792C2303FB056307465C6824B1EB
:108AEC0003684FF40170C3F808032C2303FB0563E0
:108AFC00986950B1D86900283ED024B13B684FF436
:108B0C000172C3F80423112034E09A61D9605862D1
:108B1C00D8612C2303FB056393F829301BB910B9DA
:108B2C003846FFF77AFD4FF02C0909FB05683868C9
:108B3C00D8F80430002B34D14FF4A271FFF756FD56
:108B4C00C1463868D0F82431D0F80821D0F8444117
:108B5C00B2B90CB9002BF4D02C2202FB0565002213
:108B6C00AA611BBB24BB95F829103B680122B1B14B
:108B7C001A600020BDE8F8831961DA610120C8E7AA
:108B8C00002BE9D1002CE7D14946FFF756FDD8F868
:108B9C002430D8F818209A42D3D82346DCE75A6000
:108BAC00E7E74FF40173C0F80433E2E70320E1E791
:108BBC000F20DFE700AE00200023435082B0435863
:108BCC000193019B02B070471FB501238DF8003053
:108BDC00044BCDE90110D3E900126846904705B06B
:108BEC005DF804FB2CAE00207FB5374AD2F8246127
:108BFC00002E48D010464FF49271FFF7DDFF022390
:108C0C008DF80030D2F88034C2F880340393D2F857
:108C1C003C3502932D4BDA6801920022C3E90622FF
:108C2C006846D3E900129047274AD2F844317BB109
:108C3C004FF4A2711046FFF7BFFF244B996939B16D
:108C4C000021C3E90611D968D2F83C05FFF7BCFF37
:108C5C001D4AD2F82031A3B14FF490711046FFF7A2
:108C6C00ABFF1A4B596961B1D2F84C150291002235
:108C7C0099688DF8002001915A616846D3E9001279
:108C8C00904704B070BDD2F81031002BCCD04FF40B
:108C9C0088711046FFF790FF0C4BD2F83C05996990
:108CAC008842C1D1DC69D96864B1D2F8005225F090
:108CBC002005C2F800521A699C61DA60DE61FFF788
:108CCC0083FFB1E79C61FAE7002000402CAE002046
:108CDC001F2886BF00F01F00044B4FF0A04300F587
:108CEC00E070022243F82020704700BF00030050C0
:108CFC002DE9F843664F06799146242202FB067251
:108D0C00044692F820200D46002A40F0BB806149B1
:108D1C000068FFF73DFC8046002840F0B6802868CC
:108D2C00421C10D01F2887BF00F01F035A4A03466D
:108D3C004FF0A0420121994003F5E073C2F80815E9
:108D4C00032142F8231069684B1C0DD01F298BBFDF
:108D5C0001F01F030B46504A4FF0A04203F5E0739D
:108D6C004FF0000C42F823C02368AA6995F814C090
:108D7C00C3F824256A7DBCF1010F4CEA0202C3F84A
:108D8C006C25C3F80C05C3F814152BD1A968481C25
:108D9C000DD01F298BBF01F01F020A463E484FF031
:108DAC00A04002F5E0724FF0000C40F822C0E868D9
:108DBC00421C13D01F2887BF00F01F0C364A844674
:108DCC004FF0A0424FF0010E0EFA0CFE0CF5E07CB9
:108DDC00C2F808E54FF0030E42F82CE0C3F8080582
:108DEC00C3F8101524237343FA18C2F804902A69A7
:108DFC00FA50B9F1000F34D04FF4887120682D7FF0
:108E0C00FFF7DAFE4FF490712068FFF7D5FE4FF4B0
:108E1C0092712068FFF7D0FE20684FF4A271FFF723
:108E2C00CBFE22681D4BC2F80433120B51B2002941
:108E3C00A8BF01F160404FEA4513BABF184802F0D1
:108E4C000F0500F56140DBB2B4BF435580F8003329
:108E5C0002F01F02012303FA02F24909114B43F8F5
:108E6C00212023680822C3F80025242303FB067362
:108E7C000022C3E906225A61012283F820204046D1
:108E8C00BDE8F8834FF00808F9E74FF01108F6E752
:108E9C002CAE0020F58B02000003005010030200E2
:108EAC0014ED00E000E100E02DE9F04103680479E5
:108EBC00254D0022C3F80025242202FB045206464D
:108ECC00526872B1214AC3F80823190B4AB2012027
:108EDC00520901F01F0100FA01F120321C4840F840
:108EEC002210D3F80C05D3F81485D3F80815D3F851
:108EFC0010754FF0FF329042C3F80C25C3F81425BF
:108F0C00C3F80825C3F8102501D0FFF7E1FEB8F12E
:108F1C00FF3F02D04046FFF7DBFE7A1C02D03846FA
:108F2C00FFF7D6FE4B1C02D00846FFF7D1FE306887
:108F3C00FFF750FB242303FB0454002384F8203058
:108F4C006360BDE8F08100BF2CAE0020100302006E
:108F5C0000E100E001F06043B3F1005F2DE9F04166
:108F6C00074632D11C4B0679242505FB063598465D
:108F7C006C6964BB6A61A96000684FF49071FFF77B
:108F8C001BFE4FF4AC713868FFF716FE3B686A693C
:108F9C00A968C3F84415C3F8482501229A606A6889
:108FAC00BAB9D3F82011D3F8582149B9002AF8D00E
:108FBC000F20242303FB068600237361BDE8F08198
:108FCC00002A14BF0F200020F3E71020F6E7112031
:108FDC00F4E72046F2E700BF2CAE0020F8B501F014
:108FEC006043B3F1005F04460F465FD10379304D07
:108FFC00242101FB0351486820B121684FF4047609
:10900C00C1F80863242101FB03539E6956B1D96949
:10901C0000293AD020B123684FF40472C3F804231A
:10902C00112031E09A61DF60DE614FF488712068B5
:10903C00FFF7C2FD4FF4A2712068FFF7BDFD236856
:10904C00C3F83475C3F838251EBB01221A60217988
:10905C00242202FB0152526812BBD3F81001D3F840
:10906C004421D3F82441104302D1002CF5D0024600
:10907C00242303FB015500239C4214BF03201846F4
:10908C009A42AB6118BF0F20F8BD1F61DA6101264F
:10909C00CBE7D3F8002242F02002C3F80022D6E737
:1090AC004FF40472C3F804230020EDE71020EBE723
:1090BC002CAE002008B5094B1B7853B10020FEF7ED
:1090CC0023FF0120FEF720FF0320BDE80840FEF738
:1090DC001BBFBDE80840FEF72BBF00BF50AE002001
:1090EC00F8B57B4C237805461BB100232370FFF7A2
:1090FC00E1FF172D00F28880DFE805F00C1717430D
:10910C0054657680888D888D959A9A9A9A9AC4C956
:10911C00D1D9E4E4FFF7CEFF6E48FEF75FF96E4B52
:10912C00002204461A702046F8BD0020FEF7C4FE4B
:10913C00F8B10020FEF7E8FE022D0CBF4FF4E16100
:10914C004FF47A61644B1D704FF400404FF4FA7485
:10915C000025E0FB01454FF47A7200232046294696
:10916C0002F004F9002201465A48BDE8F840FEF727
:10917C00EFB8FEF7B5FE022D0CBFC8214FF4C87135
:10918C00E0E70020FEF798FE40B10020FEF7BCFEA1
:10919C004FF44871504B03221A70D5E7FEF7A0FE2E
:1091AC00C821F7E70020FEF787FE38B10020FEF754
:1091BC00ABFE4FF47A61484B0422EDE7FEF790FECC
:1091CC004FF4C871F7E70020FEF776FE48B1002097
:1091DC00FEF79AFE404B05221A7041F69A110022B6
:1091EC00C2E7FEF77DFEF5E70020FEF7BFFE3A4B27
:1091FC0006221A70002240F6CD41B5E70020FEF79A
:10920C006FFE354B07221A7000248CE7012020706A
:10921C00FEF7ACFEEEE701202070FEF7A7FE002261
:10922C004FF48041A0E7FEF792FE2B4B0C22EAE7AD
:10923C002A482B4EFEF7D2F8D5F1110504461CD066
:10924C00D8B9012D13D0C8235D434FF400474FF418
:10925C00FA7000214FF47A720023C7FB050102F06B
:10926C0085F8224601461D48FEF772F80446022096
:10927C00FEF736FE0123337055E70220FEF744FE5D
:10928C000023F8E7FFF716FF134B1222BBE7FFF79B
:10929C0011FF0020FEF724FE0F4B1322B3E7FFF75C
:1092AC0009FF0120FEF71CFE0B4B1422ABE7FFF766
:1092BC0001FF0020FEF714FE0120FEF711FE064B05
:1092CC001522A0E7FEF743FE034B1D709CE700BF81
:1092DC00A4AE002074AE0020A5AE002054AE002039
:1092EC0050AE0020002910B514BF03240024FEF753
:1092FC0057FE1F288ABF0A4B4FF0A04300F01F00F7
:10930C0003EB8000D0F8002722F44032C0F800278D
:10931C00D0F8003743EA0443C0F80037002010BDF2
:10932C0000030050044B1B6813F0010301D0FFF73E
:10933C00D7BE1846704700BFA0AE0020032813D834
:10934C00012A0BD1012908D100F10E02D2B200EB97
:10935C0040000C4B1A540020704700220129F6D013
:10936C004BB24BB1022901D007207047054B00EBE3
:10937C00400018444270EEE7024900EB40000844FC
:10938C008270E8E794AE0020032802D80121FFF791
:10939C00A9BF0620704708B5012202210020FFF763
:1093AC00CDFF08B1072810D1072202210120FFF7B9
:1093BC00C5FF08B1072808D100210A220846FFF78B
:1093CC00BDFF10B1072808BF002008BD0388102B73
:1093DC0010B502D0112B1ED010BD1A4C2168B1B99A
:1093EC0001220846FFF7AAFF08B1072824D107225B
:1093FC0002210120FFF7A2FF08B107281CD104228B
:10940C0002210020FFF79AFF08B1072814D1236826
:10941C0001332360E0E70B4A1368013B1360002B18
:10942C00DAD1FFF7B8FF0028D6D0074B1B68002B0A
:10943C00D2D0BDE810401847034B1B68002BE6D078
:10944C009847E4E7ACAE0020A8AE002008B5002099
:10945C00FFF79AFF08B1062806D10120FFF794FF09
:10946C0010B1062808BF002008BD75DF704776DFF5
:10947C0070477FDF70478FDF7047000010B5074BD8
:10948C0004464088214603EB001001F03DFB2146C9
:10949C000348BDE8104001F033BC00BF04B000200D
:1094AC00A8AF002008B50021074800F0E9FF08B17B
:1094BC00FDF7C8FCF721044800F0FDFF18B1BDE82A
:1094CC000840FDF7BFBC08BDB8AF002008B50B487D
:1094DC000B4B0C4A0C49C01AC008000440F00300A6
:1094EC00FDF70AFB094801F0B5F908B1FDF7AAFC34
:1094FC000020BDE80840FEF7F3BC00BF08B802002E
:10950C00E0B702009FC00200FEC0020084B0002041
:10951C0003881F2B37B5044600F085804DD8112BDE
:10952C006AD0132B5DD0102B59D1444B4448A288E0
:10953C004449C01AC008000440F00300FDF7DCFAEF
:10954C00A388072B02D90020FDF77CFCA1883E489C
:10955C00002200EB011001F0C3FB08B1FDF772FC17
:10956C000022A188394801F0DFFC08B1FDF76AFC44
:10957C000720FFF7D7FE08B1FDF764FC344D4FF41C
:10958C00B3520021284602F01AF8A1884FF4337028
:10959C0000FB015000F0D6FD112802D008B1FDF7F8
:1095AC0051FC0120FEF79CFC00F010FC08284FF049
:1095BC00000010D1FEF7A8FC11E03B2B39D0562B44
:1095CC0037D0212B0BD1002301A98088ADF80430B2
:1095DC00FFF751FF0BE0FEF783FCFFF777FF03B0BB
:1095EC0030BD00231A4685218088FFF742FF0028F2
:1095FC00F5D0FDF727FCF2E7104B1148A28815496E
:10960C00C01AC0080004237A40F00300FDF77DFA6D
:10961C0000F0DCFB0028E2D1FDF7FAFB08B1FDF706
:10962C0011FC0120C6E700F108018088FFF71DFF3F
:10963C00DDE71321A088FFF71AFFD8E7E0B7020097
:10964C0008B80200A8BF020004B00020A8AF002098
:10965C00668F0020DCBF02000378012B70B5044636
:10966C0036D013B1022B24D070BD1D4C1D4D20885B
:10967C002844FEF72DFB238801339BB21D44238025
:10968C0015F8012C0A2A03D0174A12889A42EBD8F3
:10969C00144D164E22882946304601F007FC082846
:1096AC0004D01328F6D008B1FDF7CCFB002323809F
:1096BC00DAE70F480F4B1049C01AC008000440F0FD
:1096CC000100FDF715FA6068BDE87040FDF7BABB04
:1096DC000748084B0949C01AC0080004EFE700BF4F
:1096EC00A4AF0020B0AE0020648F0020A8AF0020F3
:1096FC0008B80200E0B7020021C1020053C1020009
:10970C0010B504460020FFF70DFE08B1FDF79AFBDB
:10971C0024B9FFF79BFE08B1FDF794FB012010BDA7
:10972C000B78012B10B5044617D10C4B0C484A880A
:10973C000C49C01AC008000440F00300FDF7DCF926
:10974C00FDF750FB08B1FDF77DFB204601F09CFABC
:10975C0018B1BDE81040FDF775BB10BDE0B70200B5
:10976C0008B802006DC002000B78012B70B50646DC
:10977C000D4620D013B1022B2ED070BD1D4B1E4CAC
:10978C001E49E41AE408240444F003042046FDF7BF
:10979C00AFF905F10E026988304601F0C5FB08B13E
:1097AC00FDF750FB304601F05FFB20461449BDE845
:1097BC007040FDF79DB90F4B0F481249C01AC008F5
:1097CC00000440F00300FDF793F9AA89A9680E483C
:1097DC00BDE8704001F0CABE064B07480B49C01AE1
:1097EC00C008000440F00300FDF782F9BDE87040AA
:1097FC00FFF76CBEE0B7020008B802000EC0020012
:10980C0022C0020050C00200F4B000205FC0020071
:10981C001FB50378062B12D0072B17D0042B2AD197
:10982C00164B17481749C01AC008000440F0030033
:10983C00FDF75EF904B0BDE81040FFF747BE406885
:10984C00C8B104B0BDE81040FDF7FCBA41680B4C40
:10985C000B488B784A78001B8C7903944C790294D2
:10986C000C790194C008C97800910004064940F0B5
:10987C000300FDF754F904B010BD00BFE0B70200BF
:10988C0008B80200EEC00200C0C0020000B54FF4E0
:10989C0000418BB00020FCF767FF08B1FDF7D2FA4E
:1098AC00FCF78CFEFDF724FD08B1FDF7CBFA012087
:1098BC00FEF77CFBFEF70AF908B1FDF7C3FA01F0DD
:1098CC008BFB08B1FDF7BEFA002304A90120049319
:1098DC0001F010FC08B1FDF7B5FA04A801F0DCFCAE
:1098EC0008B1FDF7AFFA384DFFF7DCFD0FCD04AC36
:1098FC000FC495E80300354B354A00934FF4807341
:10990C0084E80300CDE902230193324A0723694618
:10991C0004A8FEF79BF9304800F0DAFB08B1FDF71C
:10992C0091FA2E4B2E4D0493002404A9284601F0E5
:10993C0043F908B1FDF786FA0134082C05F110053E
:10994C00F3D100F041FAFFF7ADFD264B2648049306
:10995C0004A901F025FA08B1FDF774FA10220021D0
:10996C000DEB020001F02BFE0123204A20488DF85C
:10997C00143004A98DF81C3000F016FF08B1FDF767
:10998C0061FA1C4A1A48002100F0AFFE08B1FDF73D
:10999C0059FA00220121164800F0E6FE08B1FDF745
:1099AC0051FA154B15481649C01AC008000440F06E
:1099BC000300FDF79DF8FFF789FDFCF72FFF00284A
:1099CC00FBD1FEF799F8F8E790BF0200F3B1002045
:1099DC00F3B2002065960200899402002D970200D4
:1099EC0004B0002075970200A8AF00201D9802005B
:1099FC0084B000209FC00200E0B7020008B802004B
:109A0C00A5C002000369C1688B429DBF8268D21851
:109A1C0002F1FF3203F1FF3394BF501A581A70470A
:109A2C002DE9F041D0E9027405463E1B4068964290
:109A3C0020448846144404D901F098FDEC60BDE83C
:109A4C00F0813246E41B01F091FD224608EB060141
:109A5C006868F1E72DE9F843C5680646894617465C
:109A6C004FF000083469B3687068A54228BFE41849
:109A7C00013C621B5C1BBC4228BF3C46944228BF85
:109A8C00144649462844224601F070FDB36825442B
:109A9C00AB4208BF00253F1BA044A144F560E1D1B7
:109AAC004046BDE8F883000010B5114C114AA26184
:109ABC000223C4E90433104BE361A2644FF4007336
:109ACC000E4A2362E264002310220D49A362E01DBA
:109ADC006362E362A3656365E365226501F0A2FD41
:109AEC000849204601F09EFD2023A37110BD00BF44
:109AFC00F4B300207FC102007CB400206CB40020C1
:109B0C0088C102008CC10200F8B5184C182300FB68
:109B1C00033503FB00402544C46A012C0F4616464E
:109B2C0011D024B1022C1BD000242046F8BD2846AD
:109B3C00FFF768FFB042F8D3324639462846FFF7A4
:109B4C006FFF3446F1E72846FFF75CFF8642344648
:109B5C0028BF0446224639462846FFF761FFE4E752
:109B6C002846BDE8F840FFF775BF00BFF4B30020EE
:109B7C00FFF79ABF64DF704770B5C0B14AB1168861
:109B8C000024B44203D305196D789D4208D0A1423C
:109B9C0001D800200BE0055D01352C44A4B2F0E7A0
:109BAC00A142F6D9A31C1380005D013880B270BDB0
:109BBC00F7B500230746ADF80630144612B900205D
:109BCC0003B0F0BD09230DF10602FFF7D5FFBDF878
:109BDC0006500646002DF2D00028F0D0204601F0A9
:109BEC006AFDB0420246EAD17919204601F083FCA5
:109BFC00B0FA80F04009E3E7F0B587B000230646E1
:109C0C000D461046ADF8063002AA10230DF10501E1
:109C1C008DF80530FFF7AEFF16B9002007B0F0BD88
:109C2C000028FAD19DF80530042B2CD0102B2DD008
:109C3C00022BF3D11C460323BDF806207AB90DF193
:109C4C00060229463046FFF797FFBDF806302BB9C0
:109C5C0023460DF106023046FFF78EFF0546BDF890
:109C6C000670002FD9D00024A542D6D9E0199DF852
:109C7C00052002A9304401F03EFC50B19DF805309E
:109C8C001C44A4B2F0E71C460523D5E706240723A1
:109C9C00D2E70120C2E7000078220021014801F040
:109CAC008EBC00BF7CB6002073B50191019C0646AA
:109CBC006CB100252C46294601A8FDF7ECFB18B128
:109CCC0006EB440301349D800135142DF3D130464D
:109CDC00346002B070BD00002DE9F0470388848821
:109CEC00112B8CB006463CD01A2B3FD0102B17D121
:109CFC00274DAB68DB43009369686846FDF7F4FBBE
:109D0C00009901A8FFF7D0FF0DF108094FF00008EA
:109D1C00019B984507D3132C13D90420FDF792F817
:109D2C000CB0BDE8F08739F802AB0027013751467B
:109D3C0005EB8700FDF7A5FB1D2FF7D108F10108F6
:109D4C00E6E721461348FDF793FB21461248FDF741
:109D5C008FFBF37B012BE3D010482146FDF788FBEA
:109D6C00DEE70C482146FDF78CFBD9E7057A0C4859
:109D7C002D09012D214606D9FDF77AFB022D21462E
:109D8C000848F0D0EAE7FDF77CFB21460548EAE7F6
:109D9C007CB6002084B6002080B6002088B6002057
:109DAC008CB6002090B6002037B5002401902546D3
:109DBC00214601A8FDF76FFB00B101350134142CCD
:109DCC00F6D1284603B030BDFFF766BF07B5064B8A
:109DDC00DA680192996801A8FDF786FB0198FFF7F4
:109DEC00E3FF03B05DF804FB7CB600209BDF7047FB
:109DFC009DDF70479EDF704730B50B4B19680B4BDE
:109E0C000022914201D1002009E09D788478A5427E
:109E1C0006D11D880488A54202D1054B186830BDB7
:109E2C0001320433EDE700BFFCB6002004BA002079
:109E3C00F4B6002070B590F8C63216467622A0B063
:109E4C0002FB03000D46FFF7D7FF044660B17C22EE
:109E5C00002101A801F0B3FB01238DF80430ADF80B
:109E6C000660029501A8A04720B070BD2DE9F74F00
:109E7C008B4690F8C61201927623804601FB0300B4
:109E8C000091FFF7B9FF814670B3194E3568052D67
:109E9C002AD8184C0099019A4FEAC51A04EB0A0704
:109EAC00762303FB01817A80381D1A4601F05EFB94
:109EBC00BBF1000F14BF0023022304F80A300E4B31
:109ECC00C7F87C901A680135954235601D460BD158
:109EDC000027E36F204698472B6801379F4204F117
:109EEC008004F6D30023336003B0BDE8F08F00BFCD
:109EFC0000BA002000B70020FCB6002037B590F85F
:109F0C00C53290F8C6220C46C3B1013B7621DBB2B8
:109F1C005143122505FB031303445B8A01339BB2A7
:109F2C00ADF80430762303FB020201A91389ADF8C6
:109F3C0006302046FFF75CFF03B030BD762303FBF1
:109F4C000203DB88ECE7000038B54FF433720D46A2
:109F5C000021044601F033FB114AA4F8CA52002335
:109F6C001360104A84F8C9321268226084F8C63231
:109F7C0084F8C532224601212846FFF737FF112805
:109F8C0006D020B9012384F8C73284F8C80238BD42
:109F9C00012284F8C72284F8C8221846F7E700BFCC
:109FAC0000BA002004BA002070B50C4690F8C92203
:109FBC00174901320968D2B28A42034680F8C92295
:109FCC004FF0000521D290F8C61280F8C55201312D
:109FDC00C9B280F8C612762011FB00F00D4E1A188B
:109FEC0056F821101950012115712046FFF7FEFE7D
:109FFC00014648B183F8C75222461846FFF71AFFAC
:10A00C00054B03221A705C8070BD80F8C752F7E7CD
:10A01C00FCB6002004BA002000B700202DE9F3475D
:10A02C0090F8C65290F8C542762315FB03F54619F5
:10A03C00122796F804E017FB045304F1010C0A33C1
:10A04C00F445034411D000F11C0A06F122080EF16C
:10A05C00FF39AA44E5B2AE450BD9A1451D891AD1E9
:10A06C0033899D4226D100231DE01B893089834210
:10A07C0005D101230B70002002B0BDE8F08701333D
:10A08C00ADF80430ADF8060000230B70104601A9A2
:10A09C00FFF7B0FEF0E707FB04F3013538F803C017
:10A0AC0065450DD1534490F8C552013580F8C55221
:10A0BC000134CFE70135ADF80450ADF80630E3E7D5
:10A0CC000CF1FF3CADF80450ADF806C0DCE7000025
:10A0DC0058B1074A00231360064A01211170064A41
:10A0EC001360064A1060184670470E20704700BF78
:10A0FC00FCB60020F8B6002000BA0020F4B6002010
:10A10C0010B5044680B10C4B1B787BB1FFF774FE85
:10A11C0070B90A4A1368052B0CD80949246841F810
:10A12C0023400133136010BD0E20FCE70820FAE732
:10A13C000020F8E70420F6E7F8B60020FCB6002073
:10A14C0004BA002050B1084A12784AB1074A126882
:10A15C0032B190F8C7322BB9FFF7F6BE0E2070471C
:10A16C000820704711207047F8B60020FCB600207C
:10A17C002DE9F7430C460546C8B1C1B1974B1B7886
:10A18C00ABB10388302B35D014D8112B00F01581CE
:10A19C0094F8C8325BB12B88303B1F2B07D8B4F82E
:10A1AC00CA32A988994202D12046FFF7CDFE03B0EE
:10A1BC00BDE8F083322B3FD0332BE9D18288B1F844
:10A1CC00CA329342E4D1C68891F8C6C291F8C572DE
:10A1DC00002E00F0BC80762101FB0C4C7B1C9CF803
:10A1EC00041000268B428DF8076000F0E08084F8A4
:10A1FC00C5329DE08388B1F8CA229A42C8D1C6887C
:10A20C008EB991F8C632762101FB03430169C3F87C
:10A21C00061020461146FFF771FE01460028B7D004
:10A22C0084F8C7624CE000212046FFF71FFEA98886
:10A23C002046FFF7B9FEABE78288B1F8CA329A42E2
:10A24C00A6D1C388002B6FD191F8C662762316FB7A
:10A25C0003F701EB0709837A99F804603344062B62
:10A26C0038DC89F8043006EBC60307EB430305F131
:10A27C000C0C2344002299F8040086420CF10A0CC1
:10A28C0003F112033DD31223013E03FB064694F85F
:10A29C00C632762202FB03433E441B89728A9A42E1
:10A2AC0042D2062840D0A98884F8C5022046FFF780
:10A2BC0025FE014600283FF46BAF002384F8C7321B
:10A2CC00AA882046FFF7B6FD454B03221A70AA88D0
:10A2DC005A805DE7062389F80430424A424BA3EBCF
:10A2EC0002084FEAD8084FEA084848F00208CA5B4F
:10A2FC003E494046FCF700FC3D494046FCF7F8FB64
:10A30C00B1E76046A3F1080150F80AED43F808ECF8
:10A31C00D0F804E043F804EC0089088101365A8037
:10A32C009A80DA801A81A6E7002684F8C562AA888A
:10A33C000DF107012046FFF771FE014600287FF45E
:10A34C006FAF9DF80730002B3FF422AF32E076233D
:10A35C0003FB0CF1122303FB0713B0F80AE02344B0
:10A36C007645BFF438AFC189A1F52451082908D826
:10A37C00DFE801F014170507070707071A008189A2
:10A38C009982998A39B1D98A29B1198B19B1598B0A
:10A39C0000297FF420AF01360630E1E78189D982AC
:10A3AC00EFE781891983ECE781895983E9E7012378
:10A3BC008DF80730AA88012136E78288B1F8CA32B5
:10A3CC009A427FF4E5AE002381F8C73281F8C83297
:10A3DC004FF6FF73A1F8CA32DAE600BFF8B60020D8
:10A3EC0000B70020E0B7020010B8020093C10200D1
:10A3FC00D9C1020090DF7047A5DF7047B5DF704709
:10A40C007FB50023ADF80810ADF80A106A4602A912
:10A41C00064603930093ADF80430FFF7EBFF0546B7
:10A42C0000B3124B124CE41AE408FDF7C9FB2404E8
:10A43C0044F00104034632460E492046FCF765FB06
:10A44C00BDF80020BDF8023052EA030103D00A49DE
:10A45C002046FCF75AFBBDF804201AB107492046E8
:10A46C00FCF74AFB284604B070BD00BFE0B7020001
:10A47C0038B802003FC2020089C20200C8C2020002
:10A48C0070B5B0B14FF0F7130360FB238164037117
:10A49C0000F14001F726172500221B24C6800581F8
:10A4AC008272C2720373447308308842F6D1002062
:10A4BC0070BD0E20FCE730B1A1F11703E02B04D8DE
:10A4CC004180002070470E20704707207047000025
:10A4DC00F7B58588072D0C4617D80388232B4FEA30
:10A4EC00C50700F0B88012D8102B28D0112B58D0EB
:10A4FC003C44A37A4BB1E1882846FFF77DFF002846
:10A50C0040F0B0800123A072E37203B0F0BD3A2B8F
:10A51C0052D0552B6DD0242BEAD1CB19027A5A7319
:10A52C008B6C002BE4D00021ADF804104DF67A2191
:10A53C00ADF80010ADF802508DF8042087E0CE196C
:10A54C000B793373C37B012B13D0022B14D0F188FE
:10A55C0033898B4205D22846FFF74EFF70B9012391
:10A56C00F372317B737B8B42C2D22846FFF748FFD4
:10A57C00BEE70B88F380EAE74B88FBE7112802D192
:10A58C000123B372EDE7FDF71BFB3F4A3F4B4049FC
:10A59C009B1ADB081B04024643F00100FCF7ACFAE3
:10A5AC00DFE7CB19F722DA8017221A8100225A81B1
:10A5BC0041F6FB329A819BE7CE194389F28893428C
:10A5CC0028BF1346172B8A6C38BF1723338162B10F
:10A5DC00F17A51B140F67721ADF80010ADF8025088
:10A5EC00ADF804306946204690470023F372B372ED
:10A5FC007EE7C388CE19172BF18838BF17238B42FF
:10A60C0028BF0B4633810023B3722846FFF7F6FEB2
:10A61C0060B1FDF7D5FA1C4A1C4B1E499B1ADB088E
:10A62C001B04024643F00100FCF766FAF37A002B98
:10A63C007FF45EAFA36C002B3FF45AAF40F6772249
:10A64C00ADF800203289ADF80250ADF8042069460F
:10A65C00204698474CE7CB19017A1B7B994228BFBF
:10A66C00194682E711283FF450AFFDF7A9FA064AC4
:10A67C00064B07499B1ADB081B04024643F00100FA
:10A68C00FCF73AFA41E700BFE0B7020038B8020025
:10A69C001EC302004FC302008ADF70478BDF704776
:10A6AC008CDF704770B590F82A3086B004460D46A2
:10A6BC00CBB190F83460FFF7F1FF1422002101A810
:10A6CC0000F07DFF334604F12C0204F13601A81C86
:10A6DC00FFF7E6FF06238DF80430029018B1636C87
:10A6EC000BB101A8984706B070BD70B5164605466B
:10A6FC00B0B3AAB319B1032923D0072070BD1046FB
:10A70C0000F0D9FF0138C0B21F282BD895F8204093
:10A71C000CB10420F2E73146284600F0A5FF70B1D9
:10A72C0095F82000431C85F8203005EB4015304689
:10A73C0000F0C1FF31460246284600F017FF00200A
:10A74C00DCE790F826000028E3D16A8C33889A4223
:10A75C00F5D0012385F826303368C5F82230CDE7D3
:10A76C000E20CBE70C20C9E7A0B1CB0614D00023F8
:10A77C0080F8213080F82730CB0744BF012380F8C4
:10A78C0021304B0744BF012380F8273080F8282064
:10A79C00002070470E2070470720704790F8360055
:10A7AC00C0F3C0007047000038B50D4604460028C1
:10A7BC0049D0426400212A2200F001FF95B32B7985
:10A7CC0084F82A302B7B84F834302B68D3B104F115
:10A7DC00360203F10C0153F8040B42F8040B8B42C4
:10A7EC00F9D11B881380AA68B2B11068516804F1C2
:10A7FC002C0303C304F14803A3661F23A4F86C3095
:10A80C00002038BDE28EA38702F0E30242F482728C
:10A81C00E2860E4AA263E6E70D494FF0C873C4E91D
:10A82C000B13E7E7E38E0A4AA58703F0E30343F42F
:10A83C008273E386054BA3634FF0C873C4E90B2303
:10A84C0084F82A50D6E70E20DBE700BFA0005000AA
:10A85C000600180010B5044686B048B31422002137
:10A86C0001A800F0ACFEFFF719FF2046FFF796FF9A
:10A87C0030B1636C23B101228DF8042001A89847F4
:10A88C0004F1680104F13600FFF706FF044630F0CE
:10A89C0008000BD0074B08480849C01AC008000430
:10A8AC0040F001002246FCF727F9204606B010BD07
:10A8BC000E20FBE7E0B7020028B802008BC30200B1
:10A8CC002DE9F04F05468DB035F8083B1B2B804623
:10A8DC000C4600F0C48005D8102B00F0D8800DB0C9
:10A8EC00BDE8F08F1D2B17D0202BF8D1142200219E
:10A8FC0007A800F064FE626C002AF0D02868696832
:10A90C0005238DF81C3008AB03C33634297A0B941D
:10A91C00197007A89047E2E71422002107A800F05D
:10A92C004EFE04F1360320460B93FFF737FF04F17C
:10A93C0068030293814678B102238DF81C3007A876
:10A94C00636C0895984702990020FFF7A5FE2946ED
:10A95C002046FFF7A7FEC2E794F82830009394F83E
:10A96C00213094F827A0ABB394F82070B8F824B039
:10A97C00264604EB4717BE421AD100260127BAF12E
:10A98C00000F4BD094F826200192B8F824200392A3
:10A99C00019A94F82830013704EB8202FFB2A346E7
:10A9AC0004924FF0000A049A5A4516D14BBB23E08F
:10A9BC0032465946D8F82000FFF7FAF8203600281E
:10A9CC00D9D09DF8243043F001038DF82430814612
:10A9DC000126D3E706460746D1E70BF1220203997D
:10A9EC00D8F820000593FFF707F9059B40B10AF151
:10A9FC00010A5FFA8AFA33BBBAF1000F0ED003E0FA
:10AA0C000BB3019B534509D19DF82430013643F01B
:10AA1C000403F6B28DF824304FF00109009B089521
:10AA2C00A3B1B74217D10023294620468DF81C301C
:10AA3C00FFF738FE636C0BB107A89847029900200A
:10AA4C00FFF72AFE4BE70BF1040BACE7B9F1000F53
:10AA5C0001D0009BE8E703238DF81C30EAE71422B1
:10AA6C00002107A800F0ABFD98F80820012A7FF41C
:10AA7C0036AF636C002B3FF432AF042136348DF8C3
:10AA8C001C100B948DF8202007A8984727E7142258
:10AA9C00002107A800F093FD07238DF81C30B8F8AF
:10AAAC000430ADF8243004F136030B93636C089535
:10AABC00002BE9D113E7A1DF7047A3DF704762DFFA
:10AACC007047000070B50D4A0D4D12682B6893420B
:10AADC000ED00C4914245C430E19085BB27842B9B1
:10AAEC00B188FFF7E8FF18B9013303F007032B60B7
:10AAFC0070BD08342144FFF7E0FFF4E7C0BA002032
:10AB0C00BCBA00201CBA00202DE9FF470B78024686
:10AB1C00002B3DD18C8841F22350844238D18C7962
:10AB2C00107B844234D101208DF8040091F8088008
:10AB3C004888BDF80C70BDF80A50BDF80840ADF857
:10AB4C0006001E469C46184641F2245941F2255AED
:10AB5C00804520D8BCF1000F01D0ADF80C700EB1BF
:10AB6C00ADF80A500BB1ADF8084011884FF6FF73E1
:10AB7C00994209D053683BB953882BB90298BDF858
:10AB8C000C30C2F80200D380936801A91046984794
:10AB9C0004B0BDE8F087B1F80EE0CE4507D0D6453D
:10ABAC0002D1CF8A4FF0010C01301231D0E70123D2
:10ABBC00CD8A0C8B1E46F7E7F0B5174A87B002AC6E
:10ABCC0003460E4602F1100C2746106851682546C4
:10ABDC0003C5083262452C46F7D1D3B1CEB13268E9
:10ABEC00BAB14FF6FF700021C3E900019A6003F17E
:10ABFC000C013846FFF763FF48B91B7B8DF8063014
:10AC0C0001A841F22353ADF80430FFF779FA07B0ED
:10AC1C00F0BD0E20FBE700BFB8C302001FB50B460A
:10AC2C0041B338B30288382A26D0392A0BD0112ADE
:10AC3C0020D181881A88914202BF4FF6FF71002201
:10AC4C00C3E9001216E0098882888A4212D144892D
:10AC5C0099888C420ED1C18901290BD10221ADF802
:10AC6C000620027C8DF804108DF8082001A99A6842
:10AC7C001846904704B010BD0A8883889A42F9D1CF
:10AC8C00FFF720FFF6E7000038B508B305884FF64C
:10AC9C00FF739D421ED0104A448811680F484B1C0C
:10ACAC0003F00703136014224A4383180221D9814D
:10ACBC00111D01445C8119610024012185529C8184
:10ACCC00197219715C719970FFF7FCFE204638BD42
:10ACDC000E20FCE70820FAE7C0BA00201CBA0020BE
:10ACEC0040B1018022B11368C0F802309388C38050
:10ACFC00002070470E207047A3DF704762DF70475B
:10AD0C002DE9F0410C4686B005461422002101A81D
:10AD1C0000F055FC23785BBBA288012A28D1A179CD
:10AD2C002A78914224D1277ABDF81260BDF814001C
:10AD3C00BDF816C0122111FB074122461F469E4644
:10AD4C00914218D1BEF1000F01D0ADF816C00FB171
:10AD5C00ADF812600BB1ADF81400EB6843B162882A
:10AD6C00ADF8062000228DF8042001A9284698474A
:10AD7C0006B0BDE8F081B2F80E80B8F1020F04D035
:10AD8C00B8F1030F06D01232DAE7B2F816C04FF062
:10AD9C00010EF8E70123D68A108B1F46F3E700005B
:10ADAC00F0B5154A87B002AC03460E4602F1100C02
:10ADBC00274610685168254603C5083262452C4663
:10ADCC00F7D1BBB1B6B119463846FFF797FF78B942
:10ADDC001A788DF806200122ADF804204FF6FF7288
:10ADEC005A803268DA609880188101A8FFF788F9D8
:10ADFC0007B0F0BD0E20FBE7D2C302007FB50346BF
:10AE0C000846F9B1F3B14A884FF6FF718A4202D075
:10AE1C009988914216D11988112916D0392911D146
:10AE2C0082887AB1598991420CD1C26852B1012100
:10AE3C008DF8041003F11001DB890391ADF810308B
:10AE4C0001A9904707B05DF804FB9B889342F9D1A8
:10AE5C00C368002BF6D002228DF804204FF6FF7247
:10AE6C00428001A99847EDE71FB50346D0B1408851
:10AE7C004FF6FF72904217D0DB88ABB10122ADF8D0
:10AE8C000020ADF8063040F201124FF4003301A956
:10AE9C00ADF804200293CDF80CD0FFF72DFF05B0D0
:10AEAC005DF804FB0E20FAE70820F8E71FB503460F
:10AEBC0080B3F42A0CD9184B18481949C01AC00889
:10AECC00000440F00200FBF713FE072004B010BD95
:10AEDC0040884FF6FF74A0420BD10F4B0F4811491D
:10AEEC00C01AC008000440F00200FBF701FE082065
:10AEFC00ECE71B89ADF806304FF481740023039105
:10AF0C0001A9ADF80440ADF80830ADF80A20FFF700
:10AF1C00F3FEDBE70E20D9E7E0B7020020B8020011
:10AF2C00E2C30200F4C3020048B141802AB1538845
:10AF3C00C3801388838093880381002070470E2080
:10AF4C00704710DF7047000013B504460949684686
:10AF5C00FCF701FE019808B902B010BDD0E9003130
:10AF6C002046984718B16846FCF7FFFDF2E7112020
:10AF7C00F2E700BF20C4020013B504460749684637
:10AF8C00FCF7E9FD019B0BB902B010BD2046D3E9DB
:10AF9C00002190476846FCF7E8FDF3E738C402004F
:10AFAC000B4991F816335A09EC231341DB0706D5EC
:10AFBC00084B9A683AB94FF480030B60704742F221
:10AFCC000200FBF73FBF1A6842F480021A60704718
:10AFDC0000E100E038AD0020F7B5194F3C7864BBB8
:10AFEC00184E012520463570FFF7AEFF112821D0F1
:10AFFC002046FFF7C1FF144B8DF8034018680190F1
:10B00C000DF10300FCF7FAF9104901A8FFF799FFBD
:10B01C000446B0FA80F0400938709DF80300FCF744
:10B02C0011FA3CB90A4B34701C70FFF7B9FF284673
:10B03C00FFF7A2FF204603B0F0BD0824FAE700BFDB
:10B04C00C5BA0020C4BA002019C402006D6E0200FB
:10B05C00C6BA0020014B1878704700BFC5BA002053
:10B06C0007B508496846FCF776FD019B13B903B098
:10B07C005DF804FBD3E9002090476846FCF775FDAA
:10B08C00F3E700BF2CC40200FFF7EABF60DF704794
:10B09C0069DF704761DF704730B5114DADF5017D4B
:10B0AC004FF4FA740DF1020103A8ADF80240FFF75A
:10B0BC00F1FF70B9294601A8FCF74DFD029B002B4E
:10B0CC00F0D003A8D3E90021904701A8FCF74DFD6F
:10B0DC00F4E7052801D0FBF7B5FE0DF5017D30BD79
:10B0EC00BCC60200024B1B780BB1FFF7D5BF7047F3
:10B0FC00C7BA002030B5054685B00C46002900F0D3
:10B10C00B6805C4B0B600C22002101A800F057FAB2
:10B11C0008238DF8063022688DF804504FF4C8735C
:10B12C0001A92020ADF80830FFF7B2FF60B1FCF7A1
:10B13C0047FD514A514B52499B1ADB081B040246EE
:10B14C0043F00100FBF7D8FC0C22002101A800F011
:10B15C0036FA00238DF8053022684FF4847301A968
:10B16C004020ADF80630FFF793FF60B1FCF728FDE7
:10B17C00414A424B43499B1ADB081B04024643F0ED
:10B18C000100FBF7B9FC0C22002101A800F017FA12
:10B19C00F72322688DF8045001A92320ADF806305E
:10B1AC00FFF776FF60B1FCF70BFD334A334B3649A2
:10B1BC009B1ADB081B04024643F00100FBF79CFCC6
:10B1CC000C22002101A800F0FAF9022322688DF864
:10B1DC00043001A90120FFF75BFF60B1FCF7F0FC24
:10B1EC00254A264B29499B1ADB081B04024643F0CF
:10B1FC000100FBF781FC0C22002101A800F0DFF913
:10B20C004FF4B0632268019301A9A120FFF740FF1E
:10B21C0060B1FCF7D5FC184A184B1D499B1ADB088A
:10B22C001B04024643F00100FBF766FC0C220021D4
:10B23C0001A800F0C4F99DF8043022686FF30003F4
:10B24C0001A9A0208DF80430FFF722FF68B1FCF7AC
:10B25C00B7FC094A094B0F499B1ADB081B04024631
:10B26C0043F00100FBF748FC002005B030BD0E2078
:10B27C00FBE700BF288F0020E0B7020048B80200AF
:10B28C004CC4020092C40200DEC4020025C50200B8
:10B29C0071C50200C2C50200F8B506460768FFF783
:10B2AC00F5FE3368BB4205461DD9194B194C1A499A
:10B2BC00E41AE408240444F002042046FBF718FCCA
:10B2CC00336816493A462046FBF71FFC4FF0805373
:10B2DC003268D3F80C3112499B0203F100539A1ACD
:10B2EC002046FBF709FC25B90E4B01221A702846A3
:10B2FC00F8BD2846FCF764FC054A064B0A499B1A24
:10B30C00DB081B04024643F00100FBF7F5FBEEE7FC
:10B31C00E0B7020048B8020015C6020044C602009D
:10B32C0075C60200C7BA00209FC602004BDF7047EB
:10B33C001FB50D4C01A8FFF7F9FF70B9214602A803
:10B34C00FCF709FC039B002BF4D00198D3E90021F6
:10B35C00904702A8FCF709FCF4E7052801D0FBF79D
:10B36C0071FD04B010BD00BFD4C6020053EA020C3C
:10B37C0061D02DE9F04BB3FA83F51E0007BFB2FA8A
:10B38C0082F502FA05F403FA05F41646C5F1200518
:10B39C001EBF22FA05F73C43203556EA044C4FEA0F
:10B3AC00144418BF0134A3464FF00009C84690421C
:10B3BC0071EB030C39D3094207BFB0FA80F700FADE
:10B3CC0007F6B1FA81F701FA07F6C7F120071EBF9D
:10B3DC0020FA07FC46EA0C062037B6FBFBFC7F1B69
:10B3EC00103F07F01F04C4F120060CFA04F42CFAE9
:10B3FC0006F644BF34460026202FA4BF2646002460
:10B40C0054EA060C08BF012418EB040849EB0609A2
:10B41C00A4FB027CC01B06FB02CC04FB03CC71EB2F
:10B42C000C01904271EB030CC5D20B460246494607
:10B43C004046BDE8F08BB2FBF3F200007F2805D844
:10B44C00034B185C034B5B5C184070470020704743
:10B45C00ECC602006CC70200A0F16103192B98BF67
:10B46C0020387047A0F14103192B98BF203070474A
:10B47C007F2805D8034B185C034B5B5C1840704766
:10B48C0000207047ECC602006CC70200A0F16103FB
:10B49C00192B98BF20387047A0F14103192B98BF86
:10B4AC00203070477F299ABF017001206FF02E0069
:10B4BC0070475AB10A787F2A0AD800B1026000217D
:10B4CC0019605960501A18BF01207047002070474E
:10B4DC006FF02E007047000008B5034B5B689B684B
:10B4EC001B68984708BD00BFC8A5002008B50921F6
:10B4FC00FFF7F2FF08BD002A36D070B413460F2AAE
:10B50C001AD940EA010212F0030F01D05A1E15E0BD
:10B51C0004680A689442F9D1043B041D0A1D1146C3
:10B52C0020460434043206680D68AE42EED1204643
:10B53C001146043B042BF2D85A1E10D004780B7819
:10B54C009C420CD1431C4C1C02441846214693428D
:10B55C0005D00133013406780D78AE42F5D0007871
:10B56C000B78C01A70BC704700207047844640EAC4
:10B57C00010313F0030F18D18446202A0BD32DE9B5
:10B58C00F007B1E8F807A0E8F807A2F12002202A9A
:10B59C00F7D2BDE8F007042A07D351F8043B40F872
:10B5AC00043BA2F10402042AF7D2002A05D011F8B8
:10B5BC00013B00F8013B013AF9D1604670478446E3
:10B5CC00002A2DD010F0030F04D000F8011B013A13
:10B5DC0026D0F7E7C9B241EA012141EA0141202A0C
:10B5EC0012D3A2F120022DE9F0030B460C460D46B6
:10B5FC000E460F4688468946A0E8FA03203AFBD24D
:10B60C00BDE8F00320320BD0042A05D340F8041B0C
:10B61C00043A05D0042AF9D200F8011B013AFBD1F7
:10B62C0060467047024610F0030F16D111F0030F5D
:10B63C0013D12DE9F0004FF001374FF0803351F862
:10B64C00044BA4EB070525EA04051D4002D142F882
:10B65C00044BF4E7A1F10401F0BC11F8013B02F832
:10B66C00013B002BF9D1704710F0030F19D111F0E9
:10B67C00030F16D12DE970004FF001364FF08033D7
:10B68C0050F8044B51F8045BAC4205D1A4EB060511
:10B69C0025EA04051D40F3D0A0F10400A1F104013A
:10B6AC0070BC10F8012B11F8013BD21A01D1002B00
:10B6BC00F7D11046704700F1010110F0030F11D0C3
:10B6CC0010F8012B002A23D010F0030F0AD010F829
:10B6DC00012B002A1CD010F0030F03D010F8012B03
:10B6EC00002A15D02DE970004FF001324FF0803355
:10B6FC0050F8044BA4EB020525EA04051D4000D1CB
:10B70C00F6E7A0F1040070BC10F8012B002AFBD165
:06B71C00A0EB01007047E4
:08B72400398002000000000062
:04B72C000D97020073
:10B73000E59C020000000000D99302000000000018
:10B74000CDA8020084B000207DA10200668F0020F9
:10B750007DA10200329200207DA10200FE94002013
:10B760007DA10200CA9700207DA10200969A0020C8
:10B770007DA10200629D00207DA102002EA000207C
:10B780007DA10200FAA20020DDA40200B8AF0020D3
:10B7900009AE0200A8AF002029AC020004B00020CE
:10B7A00029AC020014B0002029AC020024B0002013
:10B7B00029AC020034B0002029AC020044B00020C3
:10B7C00029AC020054B0002029AC020064B0002073
:10B7D00029AC020074B000201D950200000000009A
:10B7E00072BF02000000000078BF020000000000ED
:10B7F0007FBF02000000000083BF020000000000C5
:10B8000088BF02000000000031B9020000000303FD
:10B8100033C2020000000303C8C302000000030398
:10B820000FC4020000000303AFC3020000000303C3
:10B830006CBF0200000000007EC302000000030392
:10B8400044C4020000000303C8C602000000030352
:10B85000E0C602000000030344BA0200000000003A
:10B8600060A6002028A7002030A7002068A600209E
:04B8700018000000BC
:08B87400B98002000000000091
:10B87C00F1B00200000000003DB302000000000027
:10B88C00B8B802000000000001B902003C8F002093
:10B89C00E4B8020000000000F0B80200448F002061
:10B8AC00000000000338FDD870470000C16302009F
:10B8BC002D640200BD630200FFFFFFFFFFFFFFFFCF
:10B8CC00FFFFFFFFFFFFFFFF000000000000000074
:10B8DC000000D60106010000F56402009965020023
:10B8EC00F3640200756172745F6C6F675F62616311
:10B8FC006B656E64007274745F6C6F675F6261631A
:10B90C006B656E640000000054AB00207F000000EB
:10B91C00D4AB00204261636B656E647320666C75FA
:10B92C007368656400617070000000006BB9020000
:10B93C00B4B9020073B90200BCB90200C4B9020068
:10B94C00CCB90200D4B90200DCB90200E4B902009F
:10B95C00202530327800202020007C002563001B3D
:10B96C005B306D002573001B5B313B33316D002563
:10B97C00734C6F67732064726F7070656420282538
:10B98C00642925730D0A003C25733E2025733A204B
:10B99C00000000000000000005BA0200ECB9020033
:10B9AC00F4B90200F9B902001B5B313B33306D0076
:10B9BC001B5B313B33326D001B5B313B33336D0012
:10B9CC001B5B313B33346D001B5B313B33356D00FE
:10B9DC001B5B313B33366D001B5B313B33376D00EA
:10B9EC007761726E696E6700696E666F006465627E
:10B9FC00756700466174616C206572726F720053DA
:10BA0C00797374656D2072657365740000000000B5
:10BA1C00000000000338FDD8704730313233343524
:10BA2C003637383941424344454600002CB70200B2
:10BA3C0030B70200040000007077725F6D676D74A0
:10BA4C0000556E6B6E6F776E206572726F7220632D
:10BA5C006F6465000000000088BB0200010000005C
:10BA6C0094BB020002000000B2BB02000300000005
:10BA7C00D3BB020004000000E6BB0200050000007E
:10BA8C00F7BB0200060000000BBC02000700000020
:10BA9C0023BC0200080000003BBC020009000000AF
:10BAAC0053BC02000A0000006CBC02000B0000003A
:10BABC0084BC02000C0000009BBC02000D000000C6
