:020000022000DC
:10600000000004205D630200456302004763020054
:10601000496302004B6302004D6302000000000070
:106020000000000000000000000000004F630200BC
:106030005163020000000000536302005563020038
:106040005763020057630200FD9402006DA0020036
:106050005763020057630200519302005763020026
:106060005763020057630200576302005763020040
:106070005763020057630200576302005763020030
:106080005763020019700200576302005763020051
:10609000B5700200576302008DC902005763020009
:1060A0005763020057630200576302005763020000
:1060B0005763020057630200000000000000000068
:1060C00057630200576302005763020057630200E0
:1060D00057630200576302005763020057630200D0
:1060E000576302005763020057630200000000007C
:1060F0000000000057630200000000005763020028
:10610000000000000000000000000000000000008F
:10611000000000000000000000000000000000007F
:10612000000000000000000000000000000000006F
:10613000000000000000000000000000000000005F
:10614000000000000000000000000000000000004F
:10615000000000000000000000000000000000003F
:10616000000000000000000000000000000000002F
:10617000000000000000000000000000000000001F
:10618000000000000000000000000000000000000F
:1061900000000000000000000000000000000000FF
:1061A00000000000000000000000000000000000EF
:1061B00000000000000000000000000000000000DF
:1061C00000000000000000000000000000000000CF
:1061D00000000000000000000000000000000000BF
:1061E00000000000000000000000000000000000AF
:1061F000000000000000000000000000000000009F
:10620000314932480A1A02D0072291438D4630495B
:1062100030480A1A06D00722914381F309880222E6
:1062200082F314882C482D492D4A00F03CF82D4863
:106230002D492E4A00F037F82D482E492E4A00F0FD
:1062400032F82E482E492F4A00F02DF82E482F49BB
:106250002F4A00F028F82F482F49304A00F023F841
:106260002F483049304A00F01EF8304830490022AB
:1062700000F024F82F483049002200F01FF82F4A80
:1062800090471F481F49884205D00268043003B474
:10629000904703BCF7E700208646EC46002000212B
:1062A000274A9047FEE7884207D0521A05D0037864
:1062B00001300B700131013AF9D17047884202D0A8
:1062C00002700130FAE770470000042000E003206C
:1062D0000000042000000420DCF90200288F0020C8
:1062E000F4A50020BC630200BC6302007EE402004F
:1062F000DCF90200288F0020288F002010E6020021
:1063000010E6020010E6020010E6020010E60200AD
:1063100010E6020010E6020010E60200DCF90200BE
:10632000A8100300F4A50020F4A50020F4A5002087
:10633000A2D00020A4D00020A4D0002085630200B9
:1063400041AE0200FEE7FEE7FEE7FEE7FEE7FEE7FE
:10635000FEE7FEE7FEE7FEE7704700BF1048804714
:1063600010484FF00701884385460F4880470F4883
:10637000016841F470010160BFF34F8FBFF36F8F6D
:10638000FFF73EBF0A480B490B4A884207D0521A12
:1063900005D0037801300B700131013AF9D1704713
:1063A00059630200000004209D8E020088ED00E089
:0C63B00010E60200288F0020288F00203B
:1063BC007047000007B5044B0093044A402300F0DB
:1063CC0032F803B05DF804FBDD630200F5A5002094
:1063DC002DE9F84389461446B2B10F4B0F4E0325F5
:1063EC00002743F00108224609EB0701002005F0C5
:1063FC0091F80744241A48B933782BB14FF47A40FA
:10640C00C047013D02D13570BDE8F88301233370DC
:10641C00002CE8D1F8E700BF10E60200F4A500203C
:10642C00704705F0ABB8F0B595B01C46164608465B
:10643C000D4601F0A5FB1A9B0D93CDE908640024D1
:10644C002346082205A928460A948DF82C400C9462
:10645C0001F0B3FB079B0293069B03939DF814304A
:10646C008DF8114003F00302012A1DD1BDF8144030
:10647C00059EC3F3C203C4F383148DF81030A2003D
:10648C0008230EA9284601F098FBC6F3952608AB05
:10649C000093224602AB0EA9304600F0FDFB2846C5
:1064AC0001F072FB15B0F0BD022AF8D1BDF8164010
:1064BC00C3F3C203A4098DF810300827082C264614
:1064CC0028BF08263B4632460EA9284601F075FB2C
:1064DC00A41B08AB02AA31460EA8374400F040FCBE
:1064EC00002CEBD1DBE7704707B5044B0093044A53
:1064FC004023FFF798FF03B05DF804FB59650200D9
:10650C0036A6002030B50D4D0FCD89B06C460FC4AA
:10651C0095E80F0084E80F0006230022694608481E
:10652C00009302F057FE18B1064A432100F0B4FC68
:10653C00054B00221A7009B030BD00BF24E60200E2
:10654C00288F002050E6020035A6002038B50E4BEF
:10655C000E4D002018700E4804782D5DD2B21C46EA
:10656C0075B1043003F0ACFC18B10A4A532100F0A9
:10657C0093FC094B1A7812B12378002BFBD038BD51
:10658C000C3003F00FFAEFE776A6002014AE0020D3
:10659C00288F002050E6020035A6002008B50848D8
:1065AC00084A0378D35C33B1043003F033FCBDE804
:1065BC000840FFF7A7BF0C3003F09EF9F7E700BFC8
:1065CC00288F002014AE0020FFF79CBF38B50A4D71
:1065DC00FFF727FF0421284600F0CCFA074B0124D3
:1065EC005C71FFF7F1FF042105F1100000F0C2FA15
:1065FC00034B5C7138BD00BFF0E502003C8F0020FE
:10660C00448F0020037813F0040216D003F0030328
:10661C00012B03D0022B09D0012070470A68008897
:10662C000232C0F3831002440A60F5E70B6842881B
:10663C00023303EB92130B60EEE710467047000039
:10664C002DE9F04F87B000230446851C0DF107009F
:10665C000F4690468DF8073000F018FF4548066845
:10666C003E60D0E90132134401339B1B824600F299
:10667C001C4600F5836900F21447AB421BD3002281
:10668C00B8F1000F70D0052363F3070264F389128D
:10669C00DAF80010DAF808309DF807000B400333E5
:1066AC000D444AF82320CAF8005000F013FF0120D3
:1066BC0007B0BDE8F08F0121304600F0A3FF48463B
:1066CC0000F0B6FF384600F0B3FFDAF80400DAF851
:1066DC0008B0029000EA0B0003300AEB800002A91C
:1066EC00FFF790FF029B50BB0BEA03020AEB8202FE
:1066FC0003F1020CD2680392013303EA0B0B0AEB91
:10670C008B0B02F00302012ACDF808C0DBF80C1049
:10671C0022D0022A16D08346384600F08CFF10B1E6
:10672C00029BCAF804305946304600F06BFFDAE998
:10673C0001231344DAF8002001339B1A9DE70BEA7E
:10674C000300C9E7BDF80E309B0903334FEA114B28
:10675C000CEB93030293DFE7BDF80C30C3F3831308
:10676C004FEA114B6344F5E7062363F3070264F326
:10677C009F528DE748A700200B4B0C48FF2210B509
:10678C009A600022C3F81824C3E90022C3F8142429
:10679C00012283F8202401F0ACF9044610B9044816
:1067AC0001F054FA204610BD48A70020BCE50200B9
:1067BC00BCE6020030B50A4C71B10A4A0A49121BF8
:1067CC00D20800239A4201D1002030BD31F8235069
:1067DC00854202D00133F5E7034654F83300F4E761
:1067EC003CE50200BCE50200288F0020094B013972
:1067FC0003EBC000032909D8DFE801F00A02040604
:10680C00042070470079704740797047002070472A
:10681C00022070473CE50200034BD3E90030C31A59
:10682C0058425841704700BF48A700202DE9F0435B
:10683C0087B0FFF7F1FF0646002840F0FB807E4D45
:10684C00C5F81804BFF34F8F6868AC6802902040FD
:10685C00033005EB800002A9FFF7D4FE029B18B1B0
:10686C00D5F81824002A5FD004EA0302991C0133DE
:10687C0005EB8202234005EB8303D268DB680493AB
:10688C0002F00303022B0392029162D1BDF80E3089
:10689C006A484FEA9318B8F1500FC14628BF4FF021
:1068AC00500969F38F1309F10801ADF80E3001F0AE
:1068BC0038F90746002800F0A88001F061F903A917
:1068CC0000230822384601F06EF9029924EA0106E9
:1068DC000136B600B14535D95FFA89F97EB3F6B207
:1068EC00A9EB0609214003315FFA89F4B146544EF5
:1068FC0005EB810108234A46384601F054F936B1BC
:10690C0009F1080322463146384601F04CF9029B46
:10691C0008F1030803EB98030293D5F81834002B05
:10692C004BD1D5F810445BE02A689A4204D86A60CF
:10693C00304607B0BDE8F08304EA030088E740491D
:10694C003446D7E72140033108234A4605EB810141
:10695C00DAE7012B59D1BDF80C303848C3F3831159
:10696C00062928BF062161F3891302318900ADF88D
:10697C000C3001F0D6F80746002846D001F000F99B
:10698C000023082203A9384601F00DF90026BDF8B2
:10699C000C20C2F38312B300964203F10803BCD25D
:1069AC0002994A1C21400331029205EB8101042219
:1069BC00384601F0F8F80136E9E7384601F0E4F81A
:1069CC00FFF72AFF80F00100C6B2B1E7E3685B79FC
:1069DC0023B1236839461B6820469847E3681C6836
:1069EC00002CF3D1384601F0CFF80DF107008DF8EB
:1069FC00074000F04BFDD5F818340BB9029B6B60C7
:106A0C009DF8070000F066FDDAE7D5F8104454B99C
:106A1C000C4B0D480D49C01AC008000440F0020090
:106A2C0000F06EF8CCE7236820469B689847E36833
:106A3C001C68ECE700267BE748A70020BCE50200B9
:106A4C0054A700203CE5020064E50200C8E6020001
:106A5C002DE9F74F284C80460F46924601A901229A
:106A6C0018469B46D4F80890FFF7EAFD80B3019DC9
:106A7C000026A91C5E4506EB010233D100211F48FC
:106A8C0000F095FD80F310006A1C02EA090204EB89
:106A9C008202000405EA0903033340EA1840D0607F
:106AAC0014F8232068F3C50204F8232034F82320BB
:106ABC0066F3891224F8232054F8232067F39F22CD
:106ACC0044F8232002F0F80242F0010204F82320DB
:106ADC0094F820341BB1FFF7A9FE0028FBD103B0BA
:106AEC00BDE8F08F09EA020204EB82025AF8263064
:106AFC00D3600136BEE700BF48A7002064AB00207E
:106B0C0000231A46FFF7A4BF07B50123019201AA7F
:106B1C00FFF79EFF03B05DF804FB07B5CDE900233A
:106B2C0002236A46FFF794FF03B05DF804FB7FB5C0
:106B3C00CDE90123089B0393099B04930A9B0593BE
:106B4C0001AA0523FFF784FF07B05DF804FB7FB5AE
:106B5C00CDE90023089B0293099B03930A9B0493A2
:106B6C000B9B05936A460623FFF772FF07B05DF88F
:106B7C0004FB000030B50F49D1F810240023144653
:106B8C003CB9C468237152B9C1F81004226018468C
:106B9C0030BDE46825799D4206D02468F0E7D268C0
:106BAC00116821601060F2E701330A2BE7D14FF036
:106BBC00FF33ECE748A70020094A38B50123D2F887
:106BCC00104482F820341D4604B938BDE3685D7169
:106BDC00236820465B689847E3681C68F4E700BFAD
:106BEC0048A70020037A052B10B50C460FD0437A2A
:106BFC0023B1084A0849204600F080FD0749204689
:106C0C0000F07CFD2046BDE8104000F06CBD002A71
:106C1C00F8D0F3E713E7020018E7020038E70200A8
:106C2C00C38873B504460D4633B1144A0092144917
:106C3C00144A284600F062FD217A05291CD0637A9B
:106C4C004BB1A088FFF7D2FD0F4B104953F8202011
:106C5C00284600F053FD227A0D4BA08853F8226091
:106C6C000021FFF7A7FD0B4903463246284602B028
:106C7C00BDE8704000F042BD02B070BD13E70200E9
:106C8C0023E702001BE70200E0E6020018E702001F
:106C9C0048E702003BE702002DE9F04385B01F46B0
:106CAC000C9D002306460C46904695F80C902B73D1
:106CBC0029463846FFF7B4FFB8F1060F09D8DFE8CC
:106CCC0008F00412181F283340003146284600F003
:106CDC0015FD002229463846FFF784FF85F80C90F5
:106CEC0005B0BDE8F08322683146284600F006FD69
:106CFC00EFE7D4E900233146284600F0FFFCE8E733
:106D0C00A36800933146D4E90023284600F0F6FC32
:106D1C00DFE7E3680193A36800933146D4E90023CD
:106D2C00284600F0EBFCD4E723690293E368019357
:106D3C00A36800933146D4E90023284600F0DEFC1A
:106D4C00C7E76369039323690293E3680193A3681C
:106D5C0000933146D4E90023284600F0CFFCB8E775
:106D6C0008292DE9F84F80460E4617461C463AD89E
:106D7C00002593F80C901D7319461046FFF750FF31
:106D8C00DFF884A0DFF884B0AE422ED918F80520C5
:106D9C005946204600F0B2FC0135082DF4D11849B3
:106DAC00DFF86CB0204600F0A9FC4FF0000A564505
:106DBC0020D918F80A507E2D03D8284607F0EAF996
:106DCC0000B92E252A465946204600F097FC0AF1B8
:106DDC00010ABAF1080FEAD1012221463846FFF721
:106DEC0001FF84F80C90BDE8F88F5146204600F066
:106DFC0085FCD1E70349204600F080FCE7E700BFA3
:106E0C000EE702000CE702000AE7020004E70200AA
:106E1C0010E7020070B5084D084E00242B789C42F8
:106E2C0001D3002070BD3368012113F8340002F047
:106E3C003FFA0134F2E700BF04AC002008AC00209C
:106E4C0082B001238DF807309DF80730114B186084
:106E5C00596044F2010188429A6012D044F2020156
:106E6C00884206D1DA60DA6812889A61DA68526868
:106E7C00DA6172B69DF80730002BFBD162B602B016
:106E8C0070471A611A6992685A611A6912689A6194
:106E9C001A69ECE70CAC002000B583B002900091AD
:106EAC00019244F2010071466A4600F003F803B007
:106EBC0000BD00002DE9FF4106460F46154672B68F
:106ECC00FFF77AFEFFF7B2FC0028FBD1234B244CD2
:106EDC00E41AE40841F2010324049E4244F0010444
:106EEC0028D007D8012E14D03A461E492046FFF769
:106EFC000BFE12E044F201039E421DD044F2020349
:106F0C009E42F1D12B886A6817492046FFF705FE8F
:106F1C0003E016492046FFF7F3FD154B1B68DB0712
:106F2C0000D500BE2A463946304604B0BDE8F041D3
:106F3C00FFF786BF0F49EDE7D5F80880404600F013
:106F4C00C3FE2B68029701936B6800930A490346B2
:106F5C0042462046FFF7EBFD0849DBE73CE5020023
:106F6C0064E5020040E80200ECE70200ADE7020035
:106F7C00F0ED00E0CAE7020006E802002CE802008F
:106F8C00094A537891780133DBB2994208BF002348
:106F9C00117899421FBF03705078182303FB00200F
:106FAC0014BF0430002070472CAC002073B505468C
:106FBC0000240DF107000E468DF8074000F066FA2C
:106FCC000DF10600FFF7DCFF90B10670094B9DF840
:106FDC00062045605A709DF8070000F07BFA24B932
:106FEC00054B4FF48012C3F80021204602B070BD4F
:106FFC000424F0E72CAC002000E100E0024B4FF43D
:10700C003C6043F00103184760E80200F8B51F4BE1
:10701C001F491B680025C1F84051C1F84451C1F803
:10702C004851C1F84C51C1F80051C1F804514BB34F
:10703C00D1F8044517490968641A24F07F442F4697
:10704C001A68A24209D8A41A15441A7CDE691AB12E
:10705C001F74D3E905209047AEB90F4A0F4B117836
:10706C001B788B4205D10133DBB2022B08BF002306
:10707C00137012780A4B43F822500A4B4FF48012CB
:10708C00C3F80021F8BD3346DAE700BF4CAD002051
:10709C000010014048AD002045AD002044AD00205B
:1070AC003CAD002000E100E02DE9F04F9F4AA049E3
:1070BC00137809789F4D994285B03CD00133DBB2EF
:1070CC00022B08BF002313709B4912789B4B0F684F
:1070DC0053F822003B1823F07F4300220B602B68EF
:1070EC0016461446944613B942B12B6006E0196853
:1070FC0081420ED902B12B60091A19604FF00108B8
:10710C002B68DFF840A201930027BEB9DFF83CB230
:10711C0066E0401A0C44D968C3F800C0D3F81CE0F0
:10712C0031B13A1922F07F42C3E90121DE611E46DA
:10713C0001227346D7E70026B046E1E73446F669EC
:10714C007D4A63681268DFF808C2A068991A21F0BA
:10715C007F41614500F2A580014421600122227427
:10716C002A680023C4E90133E361002A40F0A280BD
:10717C002C60CAE75A1C9BF80210D2B291428BF8D1
:10718C00002004BF00228BF80020182202FB03B35E
:10719C001A799C68022A1CD0032A12D0012A1FD10A
:1071AC00207CE8B9D3E90312A2605A69E2609A69BB
:1071BC00634BA2611B78002B0CBF0B46034663602C
:1071CC00BEE700222B681146002B66D142B12B6022
:1071DC0006E029680A468946002A59D100232374FF
:1071EC009BF800309BF801209A42C3D12B682FB931
:1071FC00019A9A4202D1B8F1000F43D0002B41D032
:10720C00D3F800A04F4D4C4BD5F804751C68DFF833
:10721C0044813E1B98F8003026F07F4603369BB91C
:10722C004FF48033C5F84433C5F80433464B4FF460
:10723C0000324FF00109C3F880211A60C5F80090A4
:10724C00FFF7DCFE88F80090B2452CBF5444A4191B
:10725C0024F07F44C5F84045D5F80435DB1B23F0FA
:10726C007F43E41B033324F07F44A3420AD9D5F8AF
:10727C000435C5F84035FFF7C1FE334B4FF40032EF
:10728C00C3F800212E4B00221A7005B0BDE8F08F18
:10729C00944229D09146D2699EE719740122DB6988
:1072AC0092E7D31A23F07F43834234BFC31A0023DF
:1072BC00236053E721681368994213D8591A116057
:1072CC00E26155E7091AD8691A4638B103461868BD
:1072DC008842F7D3401A1860184613462160E061C3
:1072EC00DC6112E71346F2E74C4511D1CB692B60F8
:1072FC0073B9DFF844E00120CDE90212CAF80800A6
:10730C00CEF800300E4B1870FFF778FEDDE9021254
:10731C001368D269C9F81C2012B1106803441360B9
:10732C002B68994218BF012758E700BF44AD0020D5
:10733C0045AD00204CAD002048AD00203CAD0020F8
:10734C0038AD00200010014000E100E02CAC002022
:10735C00FEFF7F0039AD0020F8B5194E194D1A4FBC
:10736C004FF40033C6F8803001244FF48033C5F855
:10737C004833C5F808336C60FFF740FEAC6000245E
:10738C003C60FFF73BFE114B1C70114B0B221C8019
:10739C009A70104B1C60104B1C70104B4FF48012E9
:1073AC001C70C023C6F8802186F814333260C5F8EF
:1073BC00084586F81133D5F804353B602046F8BDF6
:1073CC0000E100E00010014048AD002039AD002084
:1073DC002CAC00204CAD002044AD002045AD00206D
:1073EC002DE9F7431E4FBB7805460E469046A3B3D6
:1073FC0098B304292FD943697BB3437C0024012B18
:10740C000DF107000CBF8946A1468DF8074000F02E
:10741C003DF80DF10600FFF7B3FDD0B10123037069
:10742C00104B4560D3F80435C0E90498C0E9023626
:10743C009DF806307B709DF8070000F04BF824B9DE
:10744C00094B4FF48012C3F80021204603B0BDE86D
:10745C00F0830424EFE70724F7E70824F5E700BFDF
:10746C002CAC00200010014000E100E0064A9278AC
:10747C003AB130B1426922B1002202740221FFF705
:10748C0095BD0820704700BF2CAC002070B5EFF301
:10749C00108672B60C4A946801239CB993600B4B0E
:1074AC000B4DD3F8801029401160C3F88050D3F8ED
:1074BC00841051604FF0FF32C3F88420047006B979
:1074CC0062B670BD0370FAE750AD002000E100E039
:1074DC00FC06FFBD084B9A6810B55AB150B9EFF3D2
:1074EC00108172B6054A1C6814605C685460986020
:1074FC0001B962B610BD00BF50AD002000E100E044
:10750C0037B550E8023F1FFAA3F5C488A54202BF65
:10751C00BFF32F8F00220DE0C48925448489A54236
:10752C0028BF2D1BC3EA054540E80254002CE8D1C6
:10753C004FF001028DF803200193019B9DF803206D
:10754C000B6002F0FF0322B14B880068184403B0B3
:10755C0030BD1846FBE70A884B889A4209D150E89F
:10756C00022FC2EA224240E80223002BF7D101206D
:10757C0070470020704701F01F024B090121914018
:10758C0000EB830000F01DB801F01F0301229A40AC
:10759C004B0900EB8300D14300F029B84B0901F0F3
:1075AC001F0150F82300C84000F00100704750E85C
:1075BC00002F0B4640E8003C9CF0000FF7D1104622
:1075CC00704750E8003F43EA010240E8002C9CF071
:1075DC00000FF6D11046704750E8002F02EA010365
:1075EC0040E8003C9CF0000FF6D11046704750E884
:1075FC00003F03EA010240E8002C9CF0000FF6D19A
:10760C001046704750E8003F03EB010240E8002CA5
:10761C009CF0000FF6D11046704750E8003FA3EBEA
:10762C00010240E8002C9CF0000FF6D11046704788
:10763C000121FFF7C6BF0021FFF7CEBF10B590B1F7
:10764C00D0E9012301689B1ADBB20A60013BDBB273
:10765C00FF2B026802D10020107110BD11684C1C68
:10766C0014600B70F2E70E20F7E737B505460024DF
:10767C000DF107008DF80740FFF708FF2A686B68CB
:10768C00116899420ED9481E106011F8014CEB6834
:10769C00298A01FB0434AB6811791B1ADBB29942BD
:1076AC0038BF13719DF80700FFF714FF204603B095
:1076BC0030BD37B5054600230DF107000C468DF89B
:1076CC000730FFF7E3FE2A681368591C1160E9685C
:1076DC00641A298AB4FBF1F41C709DF80700FFF7BB
:1076EC00F9FE03B030BD826810B504462AB1436977
:1076FC000168006998470023A36010BD0EB403B560
:10770C00039921B104AB01AA019300F075F802B002
:10771C005DF804EB03B070470A2938B504460D46F2
:10772C0002D10D21FFF7F8FFA3682268591CA16054
:10773C00D554D4E901329A4204D32046BDE83840EE
:10774C00FFF7D1BF38BD00002DE9F84F9946DDE9B0
:10775C000A431746824688460A460126BA420FD289
:10776C004E4538BF4E4613F0010B01D164B90024CD
:10777C000125B9F1010F1AD909F1FF397D43F8E759
:10778C00B2FBF7F20136E9E79B070ED5B9F1000F12
:10779C000CBF30252025A642EAD2013C2946504692
:1077AC00FFF7BAFF002CF6D1E1E72025F3E7B8FB91
:1077BC00F5F39F42E2D9DFF83C90B8FBF5F3504665
:1077CC0019F8031005FB1388FFF7A6FFB5FBF7F3B9
:1077DC00BD4207D2BBF1000F02D00CB1A64203D3BD
:1077EC00BDE8F88F1D46E8E720215046013CFFF725
:1077FC0093FFF2E766E802002DE9F74F05461746BE
:10780C008846002900F0318118F8011B49B92B7BFF
:10781C00002B00F02A81284603B0BDE8F04FFFF79B
:10782C0062BF252940F0C080002698F800302D2B2F
:10783C00424608F1010823D0302B24D02B2B25D025
:10784C0000242A2B02F1010123D13B681A1D1B686D
:10785C003A601C440A4613782E2B26D101324FF085
:10786C00000A104610F8011BA1F1300CBCF1090FF5
:10787C001DD80A2303FB0A13A3F1300A0246F0E7D2
:10788C0046F00106D1E746F00206CEE746F00406C4
:10789C00CBE711F8013CA3F130000928DBD80A2210
:1078AC0002FB0434303C0A46CBE74FF0000A12F8D6
:1078BC00011B01F0FB0068289046F8D069290ED016
:1078CC004AD8582964D006D825296DD098F80030AC
:1078DC00002B99D19BE7632962D06429F6D13A68D1
:1078EC00D2F80090111D89EAE9723960A2EBE972B5
:1078FC004FF0010B092A5BDCD34538BFD3462CB1C2
:10790C00B9F1000F01DB710700D5013CB20702D5BC
:10791C00BAF1000F04D0F30702D4002C4ED100248E
:10792C00B9F1000F52DAC9F100092D212846FFF7F1
:10793C00F3FE06F00302022A05D1BAF1000F02D1C0
:10794C00002C47D10024CDE9004653460A22494673
:10795C002846FFF7F9FEB9E773294CD014D87029E3
:10796C00B4D13B681A1D3A60302128461C68FFF7D9
:10797C00D3FE78212846FFF7CFFE00220823CDE95D
:10798C00003221461022E3E775292BD078299DD1AE
:10799C0039680A1D3A60CDE900465346102228E0AA
:1079AC003B681A1D19783A602846FFF7B5FE8DE73B
:1079BC000A230BF1010BB2FBF3F29BE7A345AFD209
:1079CC0020212846013CFFF7A7FEA6E77007B0D59B
:1079DC002B21ABE7A345B6D230212846013CFFF75B
:1079EC009BFEADE73968CDE900460A1D3A60534667
:1079FC000A220968ACE73B681A1D3A60F107D3F814
:107A0C00009020D4B9F1000F25D0484606F001FDB6
:107A1C000646B44200D9C4B909F1FF3920E0284622
:107A2C000136FFF779FE19F806100029F7D1A642A6
:107A3C00BFF44CAF002C3FF449AF20212846013C49
:107A4C00FFF76AFEF3E70026EDE720212846013C0C
:107A5C00FFF762FEDDE74E46DBE72846FFF75CFEEC
:107A6C0019F8011F0029F8D130E703B0BDE8F08FF9
:107A7C002DE9F047B0F806904479D2F800A09DF8B3
:107A8C00208009FB04F4043C06460AEB0300A042E8
:107A9C000F4688BFA4EB030A191DC2F800A0B1FB66
:107AAC00F9F509FB15114DB9A9EB0104544528BF93
:107ABC005446BAF1000F04D1BDE8F0873668013D99
:107ACC00F1E704317B1970182246B8F1000F0ED083
:107ADC0001461846AAEB040A06F01DFCD1452544C4
:107AEC0036684C464FF0000128BF5446E1E7194672
:107AFC00F0E7FFF7A3BDF8B546790146721E0546BF
:107B0C00002393422D6803D30024A64202D8F8BD6B
:107B1C000133F6E70F682846FFF7CBFD01343946F1
:107B2C00F3E72DE9F843068ACD1C0746FFF79DFDC8
:107B3C00043E35440446B5FBF6F5F0B14FF48073C2
:107B4C00EDB28380C680013D076081464FF000088E
:107B5C00A84512D23846FFF788FD064648B163792E
:107B6C000133637108F10108C9F800000760814610
:107B7C00EEE72046FFF7BFFF34462046BDE8F8830A
:107B8C0001210430FFF73EBD10B50121044604303D
:107B9C00FFF743FD10F0FF0F04D12046BDE8104065
:107BAC00FFF7A9BF10BD1FB503920022009203AAD4
:107BBC00FFF75EFF05B05DF804FB1FB503920122D1
:107BCC00009203AAFFF754FF05B05DF804FB41DFF8
:107BDC0070470000064B10B500241C70054B1C6050
:107BEC00BFF35F8F0449054800F039F8204610BDFB
:107BFC0064AD002068AD002078E802005CAD002088
:107C0C0007B500230DF107008DF80730FFF73EFC98
:107C1C00F1EE103A23F09F03E1EE103ABFF35F8FC1
:107C2C00094B4022C3F884219DF80700FFF752FC52
:107C3C0004F08CFE20B1FFF7CAFF03B05DF804FB23
:107C4C0020BF40BF20BFF8E700E100E083680022BE
:107C5C005A609A60C3E90422DA601A6070470B68B4
:107C6C004A684360934208BF0023016008BF436029
:107C7C007047436843B10268916852680B44934261
:107C8C00436004BF002343607047000010B50D49EA
:107C9C00A1F59472914201D800200FE08B1ADB10F1
:107CAC0003EBD3735B1002EBC30452F83330834203
:107CBC0005D802D204F10802ECE7606810BD214639
:107CCC00E8E700BFC8E9020008B5FFF7DFFF024B89
:107CDC00002808BF184608BD8DE802000648074A70
:107CEC0003780749D35C012213B1043002F02CB99C
:107CFC000C3001F0A1BE00BF4C8F002014AE002050
:107D0C0070AD002013B50478012C10D104238DF82C
:107D1C00003043681B788DF80430FFF7DFFF0B4B06
:107D2C001C700B4B68461B68984702B010BD022CA8
:107D3C0006D1C3688DF800400193FFF7CFFFF0E741
:107D4C00002CF2D103238DF80030EAE771AD00204E
:107D5C006CAD0020F0B51B4D064617469C460FCD6A
:107D6C0089B06C460FC495E80F0084E80F00736966
:107D7C000693337C8DF81CC0003318BF01238DF89B
:107D8C001430737C1048002B14BF0E2300238DF885
:107D9C001530F3680293B3680393336801937368E7
:107DAC0000930A4B1F600A4B00221A706946094A5D
:107DBC0001F010FA20B93368013301D0FFF78EFFC0
:107DCC0009B0F0BD84ED02004C8F00206CAD00209A
:107DDC0071AD0020117D0200054B1A782AB1054ABD
:107DEC00127802700020187070470520704700BF91
:107DFC0071AD002070AD002019B1012905D006200D
:107E0C00704702B111700020704712B1043010603D
:107E1C00F9E7072070478069704708B500F020FF2C
:107E2C000028FBD108BD0000F0B51B4B1B6883423A
:107E3C0085B007460C4603D01124204605B0F0BD92
:107E4C00856900F00DFF0028F6D194E8070005F1D4
:107E5C000C0686E80700A2882168A06800F084FA66
:107E6C00044640B9AB6833B9FFF7D7FF0B4B1B780F
:107E7C00002B18BF0D24AB68002BDED0002CDCD0FF
:107E8C004FF48172ADF80420AA690296039201A9FD
:107E9C0038469847D1E700BF74AD002078AD00207C
:107EAC00F0B51B4B1B68834285B007460C4603D0CC
:107EBC001124204605B0F0BD856900F0D1FE0028E4
:107ECC00F6D194E8070005F10C0686E80700A288B5
:107EDC002168A06800F016FA044640B9AB6833B9C3
:107EEC00FFF79BFF0B4B1B78002B18BF0D24AB68C7
:107EFC00002BDED0002CDCD04FF48172ADF80420C6
:107F0C00AA690296039201A938469847D1E700BFA7
:107F1C0074AD002078AD0020F0B5134F3B68834260
:107F2C0085B0054603D01124204605B0F0BD866906
:107F3C0000F096FE0028F6D100F0D8FA044600B9FD
:107F4C003860B368002BEFD001228DF80420221C7E
:107F5C0018BF01228DF8052000220292B26903920B
:107F6C0001A928469847DFE774AD00202DE9FF41B1
:107F7C000369B3F5007F0546884629D1164E336850
:107F8C0043BB87693060B960BA611449143000F0A2
:107F9C002DFA044640B9B8F1000F15D1FFF73DFF9B
:107FAC000F4B1B7883B10D2400233360B8F1000F05
:107FBC000AD04FF480720293BB690393ADF804208E
:107FCC00BB6801A928469847204604B0BDE8F0815B
:107FDC000624F9E71124F7E774AD0020F17F0200C5
:107FEC0078AD00202DE9FF41264A4378DFF89C80CC
:107FFC0013700278D8F80050012A0746AC6927D0D4
:10800C0056B23EB1022A37D01F4A81210320FEF717
:10801C0043FF1AE000F034FE036823604FF4007352
:10802C006360D8F800309B699B6873B17B788DF8DE
:10803C000460003318BF01238DF80530A369039346
:10804C000296A36801A92846984704B0BDE8F081C0
:10805C00A268002AF9D00221003318BF01238DF841
:10806C00053004F10C030293A3698DF804100393FB
:10807C0001A928469047E8E7A268002AE5D0032129
:10808C00EAE700BF78AD0020BCED020074AD002023
:10809C001F2886BF00F01F00044A4FF0A0420123A6
:1080AC0003FA00F0C2F80805704700BF0003005047
:1080BC007FB50F4C94F858401F2C86BF04F01F045A
:1080CC000C4E4FF0A046012505FA04F4CDE9000151
:1080DC00CDE90223C6F80C4500226946064802F099
:1080EC0027F918B1054AF021FEF7D6FE04B070BD91
:1080FC007CAD00200003005010EE02001CEE0200CC
:10810C00F8B5264B93F82340002C44D146B2002EF0
:10811C0033DB012583F823501D1900F07F0785F808
:10812C0028700F0E85F829700F0C85F82A704028DE
:10813C004FEA112785F82B7085F82C1027D048288A
:10814C000CBF8721FF211C44022A84F82D1001D07A
:10815C00032A1ED1052283F82420002EA8BF93F8F1
:10816C0024300F4AB8BF01230E33A2F11000DBB24A
:10817C000621FFF79DFF0020F8BD022483F8234061
:10818C0077249C624FF47F449C850624C4E7952198
:10819C00D9E70122DFE71120EEE700BF7CAD00201C
:1081AC00B4AD00202DE9F843534FFE8B40F2D914A7
:1081BC00A6423C4669D0B6F5ED7F08D2A6B140F296
:1081CC00C715AE4229D00023E383032043E0B6F564
:1081DC00F07F4FF0000109D0B6F5F67FF3D187F8A8
:1081EC0023101970F98330E0BD8AFD82E68AFF25E1
:1081FC005EB9424A84F8285002230121A2F11000F2
:10820C00FFF756FF4FF4F67369E0002684F8285008
:10821C0003252684268384F8235044F620674FF0E8
:10822C00040C2EE0268C0136B6B2BE4226840ED843
:10823C000646002956D010F8015BFF2D0DD0FE2DFF
:10824C000ED005221A700023E383022003E00220E3
:10825C0018700023E383BDE8F8830139C9B2E7E75E
:10826C000139C9B29142884684F823C028BF904690
:10827C004FF0000EF045E56817D84544A4F8188077
:10828C00E56094F82350032DCCD0258B954213D365
:10829C00E38A1A4A013BE38201210223A2F1100076
:1082AC00FFF706FF4FF4F07319E016F8019F05F87D
:1082BC000E900EF1010EDDE7551BADB2F02D28BF6F
:1082CC00F025EBB2E2680E480121FFF7F1FEE368FE
:1082DC002B44E360238B1D44258340F2D913E383A5
:1082EC000120B8E7054A10230121A2F11000FFF785
:1082FC00DFFE40F2C713F2E77CAD0020B4AD0020E6
:10830C00A4AD0020164B10B593F822400CB393F893
:10831C002240032C1FD102B3042483F822409C7A00
:10832C009A82240758BF4902012AC3E90301DA8261
:10833C004FF000048CBF5220512001229C83FFF788
:10834C00DFFE28B1074A40F20241FEF7A5FD2046A8
:10835C0010BD0820FCE71120FAE70720F8E700BF62
:10836C007CAD00201CEE020038B51E4B154693F870
:10837C002220002A30D093F82220032A2ED17DB35C
:10838C00052283F822209A7A9D82140758BF49024D
:10839C000024012DC3E90301DD829C830CD12A4604
:1083AC005820FFF7ADFE08B9002038BD0E4A40F248
:1083BC002D41FEF771FDF7E702F00702012A0FBF0E
:1083CC00592001222946D720FFF79AFE0028EBD02E
:1083DC00054A40F23C41ECE70820E6E71120E4E7CF
:1083EC000720E2E77CAD00201CEE020070B5384C93
:1083FC0094F8223088B005460E46002B63D1002934
:10840C0063D0C078FF2860D06B78FF2B5DD02B78C1
:10841C00FF2B5AD0AB78FF2B57D01F288ABF00F008
:10842C001F0303462B4A84F8580098BF4FF0A04214
:10843C0003F5E073032142F82310FFF729FEAB7814
:10844C008DF800302B788DF801306B788DF8023078
:10845C00FF238DF803304FF60673ADF804304FF060
:10846C00806302931C4A1D4800236946ADF80C300A
:10847C0002F006F820B11A4A40F26541FEF70CFDF5
:10848C00A37A1848266023F00F03A372FF2384F805
:10849C002830154B01220025CDE90432103384F825
:1084AC00222006932A460A2304A984F82350079312
:1084BC0001F03EFF28B10A4A40F27141FEF7ECFC94
:1084CC00284608B070BD0820FBE70720F9E700BF7D
:1084DC007CAD0020000300504D8502000CEE020024
:1084EC001CEE020010EE0200A4AD002010B5114CE1
:1084FC0094F82230CBB194F82230032B17D10E48CC
:10850C0001F0CCFE94F858301F2B86BF03F01F03EC
:10851C000A4A4FF0A04203F5E073002042F8230012
:10852C0084F8230084F8220010BD0820FCE71120F9
:10853C00FAE700BF7CAD002010EE020000030050F3
:10854C00F7B5AF4CC568E38A017C06461BB994F8B5
:10855C005800FFF79DFD94F823707B1E012B58D813
:10856C00706806788A1F4C2ED2B205F1060305D12D
:10857C00002A00F051830739CAB2EB1D1846114688
:10858C0001E00139C9B20346002900F043831A788F
:10859C00FF2A00F10100F4D0022F36D1012284F819
:1085AC0023201A7812F0FE0F2FD194F82430954A1C
:1085BC000E33DBB20621A2F10A00FFF779FD03B0FE
:1085CC00F0BD00238DF80430032384F82230FFF72C
:1085DC008DFF40B18C4A40F28331FEF75DFC02E026
:1085EC0002238DF8043094F85800FFF751FD032353
:1085FC0084F82230236801A89847E0E7824A4FF4B8
:10860C0063710320E9E70023C6E7002284F82320E6
:10861C001D4694F82230013B042B00F2F482DFE873
:10862C0013F005000A00F2029C01E701022384F812
:10863C0022300023A383A08B2B78B0F50E7F00F0A3
:10864C00E7802CD840F2132290427AD0B0F5057F07
:10865C0008D2002866D0B0F5047F55D00023A38340
:10866C00062174E040F21922904200F09A8040F208
:10867C0026229042F2D1590740F10181A37A0122BE
:10868C0062F30203A372238C01339BB2B3F5FA6F2E
:10869C00238440F2A7800023A383022157E040F2F9
:1086AC006122904200F0FF8015D840F24D2290429A
:1086BC0000F0E58040F253229042CFD113F0FC0F32
:1086CC0042D1D5F801301BBA5B0042BFA37A43F00C
:1086DC000803A372A2E040F26B22904200F0F880F3
:1086EC0040F271239842B9D101AB10222846FFF712
:1086FC0059FD01287FF663AF9DF80410002900F0A6
:10870C00F2800023A38322E0012200214020FFF706
:10871C00F7FC20B13C4A40F21221FEF7BDFB40F2BF
:10872C0013230CE0014601224020FFF7E9FC20B1A5
:10873C00354A40F20F21FEF7AFFB4FF40473A383CD
:10874C003DE713F0FC0F1DD00023A383042100236D
:10875C008DF8043094F858008DF80510032384F834
:10876C002230FFF795FC39B1FFF7C0FE20B1264A45
:10877C0040F2B731FEF790FB244B4FF08042C3F828
:10878C00242537E703224FF4D5714820FFF7B8FCB6
:10879C0020B11D4A4FF40671FEF77EFB40F21923FF
:1087AC00CDE7580707D4A27A032161F3020213F034
:1087BC00FC0FA272C8D100232384A37A03F0070311
:1087CC00032B0CBF4FF0804100210222E920FFF760
:1087DC0097FC20B10C4A40F22521FEF75DFB40F2DC
:1087EC002623ACE7022200214120FFF789FC20B1AF
:1087FC00054A40F23721FEF74FFB4FF40E739EE70C
:10880C007CAD0020B4AD00201CEE02000030004016
:10881C0013F0FC0F98D1DA073FF535AFA37A03F0CC
:10882C000703032B43D001224FF400715020FFF7B4
:10883C0067FC20B1BC4A4FF41871FEF72DFB40F2D7
:10884C0061237CE7238C01339BB2B3F5FA6F23844D
:10885C003FF621AFA37A03F00703032B0CBF4FF0B5
:10886C00804100210222E920FFF74AFC20B1AE4AE8
:10887C004FF41371FEF710FB40F24D235FE713F03A
:10888C00FC0F7FF461AF13F00101DBD102227A20DF
:10889C00FFF736FC20B1A44A40F25221FEF7FCFA55
:1088AC0040F253234BE713F0FC0F7FF44DAF9F4B7B
:1088BC00E360012200214920A282FFF721FC20B1B4
:1088CC00994A40F26A21FEF7E7FA40F26B2336E749
:1088DC0013F0FC0F7FF438AF013940F271230135EE
:1088EC00C9B2E36100E794F848309B09012B25D00D
:1088FC000BB1022B2FD194F84F3094F8502094F8F0
:10890C0052009B0003EB921394F84E20920202F457
:10891C0040620133134494F85120520002F00602D5
:10892C0002EBD01294F84D0000F00F00073802440F
:10893C00934063604FF400732381E2E694F8513066
:10894C0094F85020013303EB022394F84F2003EBEF
:10895C0002439B02EDE70B46EBE7A38B40F29A2216
:10896C0093421FD040F2A22083423AD0002B3BD13D
:10897C002B7813F0FC0F11D0042101238DF8043057
:10898C00032384F8223000238DF80510636184F8EA
:10899C00233094F85800FFF77BFB2BE601390135A7
:1089AC00C9B2E26101AB4FF400722846FFF7FAFB43
:1089BC0001287FF604AE9DF8041011B10023A383A7
:1089CC00DBE7A38A012B0CD901224C20FFF798FB83
:1089DC0020B1554A40F2A121FEF75EFA40F2A223E3
:1089EC00ADE60021A183C8E70023A3830621C4E7D9
:1089FC00A28BB2F5397F00F0AF800ED840F2C323C2
:108A0C009A4242D040F2D3239A4200F0A580002A29
:108A1C0043D00023A383062318E040F20A339A4282
:108A2C004FF0000300F0C8801DD8B2F53B7FF0D1A9
:108A3C0094F83A2002F01F02052A194600F0A08093
:108A4C000B2A01D00D2A24D1A18305238DF80530E2
:108A5C000323022284F8223000238DF8042084F8AA
:108A6C002330636195E7B2F5487F00F0B080B2F532
:108A7C004C7FCED18B42C0F0C08094F82330032BB6
:108A8C0000F0A9800023A383E0E72B7813F0FC0F00
:108A9C001DD00023A3830423D8E72B7813F0FC0FFD
:108AAC00F9D1A37A03F00703012B10D0A38A012B71
:108ABC000DD9012221695920FFF722FB20B11A4A56
:108ACC0040F2C221FEF7E8F940F2C32337E6A38A4D
:108ADC00E382E28AA38A72B9012BD3D9144A4FF6E6
:108AEC00FF53238502210323A2F11000FFF7E0FAC4
:108AFC004FF4487323E6002222830422012B84F8CE
:108B0C0023204FF0FF028CBFFC23FE2384F8282087
:108B1C00074A84F8293002231946A2F11000FFF706
:108B2C00C7FA40F2D3230AE61CEE0200C4AD0020C3
:108B3C00B4AD0020C6F50075ADB2F02D28BFF02500
:108B4C000123E9B2444A3044FFF7B2FA238B1D44A7
:108B5C0025834FF43973F2E5268BE068B6F5007F78
:108B6C00E8D33D4A00F500700323E0600121A2F137
:108B7C00100084F82330FFF79BFA4FF43B73DEE5CB
:108B8C00238494F82330032B1ED1238C01339BB206
:108B9C0044F620629342238403D90023A383022347
:108BAC0054E72D4A10230121A2F11000FFF780FA9F
:108BBC0040F20A33C3E501338B42E2D2EA5C002A6D
:108BCC00F9D0002384F82330E38A013B80E7238427
:108BDC00032384F82330238C01339BB244F62062A8
:108BEC0093422384D9D81C4A10230121A2F11000EE
:108BFC00FFF75EFA4FF44C73A1E5EA5C002A7FF4B0
:108C0C0041AF013336E7154A4FF476710320FEF776
:108C1C0043F9D4E44C2E04D1013B4FF001017FF415
:108C2C00BBAC94F82230012B3FF4EDAC94F822202D
:108C3C000123013A8DF80530042A3FF6DFAC01A17F
:108C4C0051F822F0CF850200CF8502000986020080
:108C5C00EF850200ED850200B4AD00201CEE020091
:108C6C00064B93F82220032A05D093F822000030FB
:108C7C0018BF012070470020704700BF7CAD00205A
:108C8C00044890F82230022B00F1040098BF002019
:108C9C00704700BF7CAD002029DF704728DF70478C
:108CAC0070B503689D6886B004460E466DB11422FB
:108CBC000021684605F058FBA368059323790196BB
:108CCC002BB1012B0DD06846A84706B070BD01230F
:108CDC008DF8003023690293E3680393636904936E
:108CEC00F1E702238DF80030E3681B030293F5E7EC
:108CFC00034B187A0122B0FA80F05A74400970477D
:108D0C00E8AD002070B5244D244E2B7A2C463BB98F
:108D1C0023492448FEF7F4FB306008B9686070BD45
:108D2C000223237233681A7972B1012A24D01846AF
:108D3C000321FFF7B5FF002323726360184919481C
:108D4C00BDE87040FEF707BCD3E90520121AB2F556
:108D5C00805F28BF4FF48052D3E903159208012A93
:108D6C00014438BF01222844FFF796FF50B1112867
:108D7C00DDD101232372D2E7D3E903021044FFF7BC
:108D8C008DFFF3E7237C002BC9D10146BDE8704071
:108D9C00022000F009B800BFE8AD002000AE0020B2
:108DAC00FCAD0020D8AD002038B5831E012B45D872
:108DBC00234C237A002B41D0022B09D1032830D02D
:108DCC00204B1B680022E2601A793AB1012A22D0AA
:108DDC00637C7BBBBDE83840FFF794BFD3E9051239
:108DEC008D1AB5F5805F94BF521902F580529A61C5
:108DFC009142EDD102284FF0000308BF19462372AF
:108E0C00104B18BF0D211868FFF74AFF0E490F4889
:108E1C00FEF7A1FBDCE71A6901321A615B699A4221
:108E2C00E7E7E3680133082B01D8E360D0E70023C0
:108E3C00E360DFE7BDE8384003F078BD38BD00BF24
:108E4C00E8AD002000AE0020FCAD0020D8AD002025
:108E5C0000F0FD03012B08D1044B00225A74421E72
:108E6C00504250411874FFF74DBF7047E8AD0020D9
:108E7C00054B1B68082B01BF044B1868B0FA80F037
:108E8C00400918BF00207047300100103401001059
:108E9C0008B54FF080430022C3F80C21C3F8102111
:108EAC00C3F838254FF0805203F54043D2F8041430
:108EBC00C3F82015D2F80814C3F82415D2F80C14F2
:108ECC00C3F82815D2F81014C3F82C15D2F81414C2
:108EDC00C3F83015D2F81814C3F83415D2F81C1492
:108EEC00C3F84015D2F82014C3F84415D2F8241452
:108EFC00C3F84815D2F82814C3F84C15D2F82C1422
:108F0C00C3F85015D2F83014C3F85415D2F83414F1
:108F1C00C3F86015D2F83814C3F86415D2F83C14B1
:108F2C00C3F86815D2F84014C3F86C15D2F8442471
:108F3C00C3F87025FFF79CFF10B1354B354A1A600A
:108F4C00FFF796FF48B13449344B0A681B6822F08E
:108F5C000F0203F00F0313430B60FFF789FF18B1E7
:108F6C002F4B4FF400721A604FF08043D3F800245B
:108F7C00D20744BF6FF00102C3F80024294AD2F88B
:108F8C00883043F47003C2F88830BFF34F8FBFF3BF
:108F9C006F8F4FF01023D3F80022002A03DBD3F895
:108FAC000432002B2FDA204B0122C3F80425D3F80E
:108FBC000024002AFBD04FF010221221C2F800121C
:108FCC00D3F80024002AFBD04FF010231222C3F850
:108FDC000422154B1A46D3F800140029FBD00021AB
:108FEC00C3F80415D2F80034002BFBD0BFF34F8F1D
:108FFC000C490E4BCA6802F4E0621343CB60BFF31A
:10900C004F8F00BFFDE70A4B0A4A1A6008BD00BF2C
:10901C008C56004048810300E40E004058020010BA
:10902C004096024000ED00E000E001400400FA052B
:10903C00608F00200090D003074B185C1F288ABF5C
:10904C00064B4FF0A04300F01F00D3F8043523FA71
:10905C0000F000F0010070476DEE020000030050BC
:10906C00074B1B5C1F2B86BF03F01F0305494FF0FA
:10907C00A041012202FA03F3C1F80835704700BF82
:10908C006DEE020000030050074B1B5C1F2B86BFCC
:10909C0003F01F0305494FF0A041012202FA03F32C
:1090AC00C1F80C35704700BF6DEE02000003005094
:1090BC0008B50020FFF7E8FF0120FFF7E5FF0220CD
:1090CC00FFF7E2FF0320BDE80840FFF7DDBF08B55E
:1090DC000020FFF7C5FF0120FFF7C2FF0220FFF7BA
:1090EC00BFFF0320BDE80840FFF7BABF0A4B185C6E
:1090FC001F288ABF094B4FF0A04300F01F00D3F884
:10910C0004250121814021EA02000A40C3F8080528
:10911C00C3F80C25704700BF6DEE02000003005031
:10912C00014B185C704700BF69EE0200C20710B516
:10913C0004460CD54FF0A0430322C3F83427C3F8E0
:10914C003827C3F83C27C3F84027FFF7B1FFA30724
:10915C000AD54FF0A0430C22C3F82C27C3F83027B4
:10916C00C3F86027C3F8642710BD00001FB503784F
:10917C008DF800304368019383688DF80830C3681C
:10918C000393054A054B684653F8213052F82110D9
:10919C00984705B05DF804FB04AE00200CAE00202F
:1091AC001FB503788DF800304368019383688DF800
:1091BC000830C3680393054A054B684653F82130C1
:1091CC0052F82110984705B05DF804FB04AE00205E
:1091DC000CAE0020F0B5194B0678DFF870E043F8C0
:1091EC002620174B94460A6943F826204B7F0EF82D
:1091FC0006300C4607460FCC89B06D460FC594E877
:10920C000F0085E80F001EF80630049653B1BCF130
:10921C00000F0C4A694608BF0022381D00F01EFDE5
:10922C0009B0F0BDBCF1000F074A694608BF002227
:10923C0007F10C0000F08CFAF2E700BF0CAE002036
:10924C0004AE002079910200AD91020014AE002012
:10925C0000F1804000F5C040002382B00360036839
:10926C000193019B02B0704703681F2B83BF03F06F
:10927C001F03036001484FF0A040704700030050EB
:10928C0007B5019001A8FFF7EFFF019B00EB8300EE
:10929C00D0F8002722F44032C0F80027D0F800376D
:1092AC0043EA0143C0F8003703B05DF804FB00004B
:1092BC0073B5224C2518064695F93020072A19DD7E
:1092CC00224492F858309B09032B0FD1019001A82E
:1092DC00FFF7CAFF019AD0F81035D340DB0707D44B
:1092EC0002213046FFF7CCFF02B070BD012BF7D046
:1092FC000321F6E7D3B2072BF6D8930003F1804392
:10930C0003F5C043D3F8100540F00100C3F8100575
:10931C0002F14000800080B2FFF79AFF0029E3D0F1
:10932C0095F9303054F82330002BDDD0012303FAAB
:10933C0002F2034BC3F80423D6E700BF18AE00209B
:10934C00006000402DE9F04F002489B0CDE90244C3
:10935C00624D4FF48072012102F1804303F5C0434A
:10936C0090B21B68012B06D1D5F804330B4202D006
:10937C00FFF76EFF0C430432B2F5907F4FEA4101C8
:10938C00EAD1574B1B68012B0ED14FF4BE70FFF77F
:10939C005FFF4FF0A04344F00044D3F81035029324
:1093AC00504BD3F81035039314F0FF0F1AD04E4FD7
:1093BC0000250126344210D0AB0003F1804303F5A5
:1093CC00C043D3F81005D3F8101557F8253023B146
:1093DC00C1F30141C0F3052098470135082D4FEA30
:1093EC004606E7D1002C75DA0DF110080023049322
:1093FC00C8F804304FF0FF33CDE90633DFF8E8A0AE
:10940C00DFF8E89000273D4619F9014B631C48D062
:10941C00E4B2012324F0C00604F0070203FA02F2BE
:10942C00F00808AB191811F8083C134239D00AEBB4
:10943C000603A40993F930305AF823B0BBF1000F9E
:10944C0008D1032C2DD118F800C04CEA020C08F8F6
:10945C0000C001E0032CF6D001A80196FFF704FF31
:10946C00019B11F8181C03F5E07C114250F82C00FC
:10947C00C0F3014005D0022813D1032C0BD1214697
:10948C0004E003280DD1032C05D102213046FFF74F
:10949C00F7FE0135EDB2BBF1000F02D0214630468C
:1094AC00D8470137042FAFD1A5B14FF0A043029993
:1094BC00D3F8102503F540739142D3F8103502D13F
:1094CC000399994206D002920393049A059B069243
:1094DC00079395E709B0BDE8F08F00BF006000402E
:1094EC007C6100400003005018AE002078AE0020D4
:1094FC00014B1B68184700BF84AE00200E4B9842EE
:10950C0037B50D4602D0002003B030BD00230DF15D
:10951C0007008DF80730FDF7B9FF084B1C7914B91B
:10952C0001221D601A719DF80700FDF7D3FF002C76
:10953C00E9D01120E8E700BF0020004084AE0020F5
:10954C00034B984201BF034B00221A601A717047FB
:10955C000020004084AE00200023435082B04358CA
:10956C000193019B02B070470A4610B54FF48E71FF
:10957C00FFF7F2FF136A9168C95C136A0133136237
:10958C00C0F81C1510BD024608B54FF49271006866
:10959C00FFF7E2FF4FF484711068FFF7DDFF1368EB
:1095AC0001221A6008BD8B690A4610B54FF484710C
:1095BC0023B9FFF7D1FFD0F8183510BDFFF7CCFF5A
:1095CC00536AD168D0F81805C854536A01335362F2
:1095DC00F3E700001FB501238DF80030044BCDE9F3
:1095EC000110D3E900126846904705B05DF804FB02
:1095FC008CAE002030B54C4AD2F8043313F4007F03
:10960C0085B015464FD0D2F82431002B4BD04FF4F7
:10961C0092711046FFF7A0FF4FF40173C2F80833A4
:10962C00424B93F8291009B9012151603E4902229D
:10963C008DF80020D1F88024C1F8802403929A6917
:10964C000292DA6801920022C3E906226846D3E945
:10965C00001290473448D0F81C315BB133490A6A88
:10966C004B699A420A464BD291F82830002B47D1CD
:10967C00FFF77AFF2C4AD2F8443193B14FF4A27120
:10968C001046FFF769FF294B93F8291009B1012106
:10969C0011609A692AB100229A61586AD968FFF759
:1096AC0099FF05B030BDD5F804335B07D2D5D5F89A
:1096BC000831002BCED01D4C1B482146FFF773FF01
:1096CC00636AA2699A422346C4D1E269E1684AB14D
:1096DC002369E3600023606AA261E3616362FFF7C0
:1096EC0079FFB7E794F829200AB901226A600E4A7B
:1096FC004FF40170C2F8080300229A61586AEEE731
:10970C004FF48E710848FFF727FF51690029B1D03B
:10971C000023029191688DF80030019153616846E5
:10972C00D2E900139847A5E7002000408CAE00203A
:10973C001F2886BF00F01F00044B4FF0A04300F51C
:10974C00E070022243F82020704700BF0003005055
:10975C002DE9F843624F047991462C2202FB0472E6
:10976C00064692F82A200D46002A40F0B3805D4947
:10977C000068FFF7C3FE8046002840F0AE802968E1
:10978C004A1C10D01F2987BF01F01F03564A0B46F5
:10979C004FF0A0420120984003F5E073C2F8080591
:1097AC00032042F823006868431C0DD01F288BBF90
:1097BC0000F01F0303464C4A4FF0A04203F5E07340
:1097CC004FF0000C42F823C03368AA6995F814C016
:1097DC00C3F824256A7DBCF1010F4CEA0202C3F8E0
:1097EC006C25C3F81405C3F80C152BD1A968481CBB
:1097FC000DD01F298BBF01F01F020A463A484FF0CB
:10980C00A04002F5E0724FF0000C40F822C0E8686E
:10981C00421C13D01F2887BF00F01F0C324A84460D
:10982C004FF0A0424FF0010E0EFA0CFE0CF5E07C4E
:10983C00C2F808E54FF0030E42F82CE0C3F8080517
:10984C00C3F810152C236343FA18C2F804902A6944
:10985C00FA50B9F1000F2AD04FF48E7130682D7F79
:10986C00FFF77AFE30684FF4A271FFF775FE32688D
:10987C001E4BC2F80433120B51B20029A8BF01F1E0
:10988C0060404FEA4513BABF194802F00F0500F5C6
:10989C006140DBB2B4BF435580F8003302F01F02C5
:1098AC00012303FA02F24909124B43F821203368D1
:1098BC000422C3F800252C2303FB04730022C3E904
:1098CC00062283F829205A61012283F82A20404677
:1098DC00BDE8F8834FF00808F9E74FF01108F6E7F8
:1098EC008CAE0020019602000003005080000200A4
:1098FC0014ED00E000E100E02DE9F041036804798B
:10990C00254D0022C3F800252C2202FB04520646EA
:10991C00526872B1214AC3F80823190B4AB20120CC
:10992C00520901F01F0100FA01F120321C4840F8E5
:10993C002210D3F80C05D3F81485D3F80815D3F8F6
:10994C0010754FF0FF329042C3F81425C3F80C2564
:10995C00C3F80825C3F8102501D0FFF7E9FEB8F1CC
:10996C00FF3F02D04046FFF7E3FE7A1C02D0384698
:10997C00FFF7DEFE4B1C02D00846FFF7D9FE30681D
:10998C00FFF7DEFD2C2303FB0454002384F82A305C
:10999C006360BDE8F08100BF8CAE00208402020041
:1099AC0000E100E02DE9F843224F06794FF02C0935
:1099BC0009FB067480466569002D37D16261A16090
:1099CC0025624FF48E71006884F82850FFF7C4FDAF
:1099DC00D8F80000012383602146FFF7C5FD6368BA
:1099EC00A1462BBBD8F80050226A63699A4212D365
:1099FC00D8F80030D3F81C21002AFBD00122DA6001
:109A0C0000202C2303FB067600237361BDE8F8834A
:109A1C0094F8283043B9D5F81C31002BF8D04946BE
:109A2C002846FFF7A1FDDFE70F20EAE71120EDE75D
:109A3C002846EBE78CAE00202DE9F843384E05792B
:109A4C002C2303FB056307465C6824B103684FF4C1
:109A5C000170C3F808032C2303FB0563986950B10C
:109A6C00D86900283ED024B13B684FF40172C3F88A
:109A7C000423112034E09A61D9605862D8612C23F8
:109A8C0003FB056393F829301BB910B93846FFF76F
:109A9C007AFD4FF02C0909FB05683868D8F80430BA
:109AAC00002B34D14FF4A271FFF756FDC146386834
:109ABC00D0F82431D0F80821D0F84441B2B90CB90F
:109ACC00002BF4D02C2202FB05650022AA611BBBE3
:109ADC0024BB95F829103B680122B1B11A60002013
:109AEC00BDE8F8831961DA610120C8E7002BE9D1E0
:109AFC00002CE7D14946FFF756FDD8F82430D8F8AA
:109B0C0018209A42D3D82346DCE75A60E7E74FF493
:109B1C000173C0F80433E2E70320E1E70F20DFE72D
:109B2C008CAE00200023435082B043580193019B1C
:109B3C0002B070471FB501238DF80030044BCDE9FE
:109B4C000110D3E900126846904705B05DF804FB9C
:109B5C00B8AE00207FB5374AD2F82461002E48D029
:109B6C0010464FF49271FFF7DDFF02238DF80030A1
:109B7C00D2F88034C2F880340393D2F83C35029387
:109B8C002D4BDA6801920022C3E906226846D3E91C
:109B9C0000129047274AD2F844317BB14FF4A2719E
:109BAC001046FFF7BFFF244B996939B10021C3E977
:109BBC000611D968D2F83C05FFF7BCFF1D4AD2F854
:109BCC002031A3B14FF490711046FFF7ABFF1A4B45
:109BDC00596961B1D2F84C150291002299688DF83F
:109BEC00002001915A616846D3E90012904704B0F5
:109BFC0070BDD2F81031002BCCD04FF488711046C8
:109C0C00FFF790FF0C4BD2F83C0599698842C1D103
:109C1C00DC69D96864B1D2F8005225F02005C2F88D
:109C2C0000521A699C61DA60DE61FFF783FFB1E7CD
:109C3C009C61FAE700200040B8AE00201F2886BFC8
:109C4C0000F01F00044B4FF0A04300F5E07002221F
:109C5C0043F82020704700BF000300502DE9F84363
:109C6C00664F06799146242202FB0672044692F84E
:109C7C0020200D46002A40F0BB8061490068FFF7A8
:109C8C003DFC8046002840F0B6802868421C10D06D
:109C9C001F2887BF00F01F035A4A03464FF0A0420B
:109CAC000121994003F5E073C2F80815032142F82D
:109CBC00231069684B1C0DD01F298BBF01F01F03AB
:109CCC000B46504A4FF0A04203F5E0734FF0000CE6
:109CDC0042F823C02368AA6995F814C0C3F8242558
:109CEC006A7DBCF1010F4CEA0202C3F86C25C3F883
:109CFC000C05C3F814152BD1A968481C0DD01F29CD
:109D0C008BBF01F01F020A463E484FF0A04002F5FF
:109D1C00E0724FF0000C40F822C0E868421C13D0EF
:109D2C001F2887BF00F01F0C364A84464FF0A04214
:109D3C004FF0010E0EFA0CFE0CF5E07CC2F808E5B3
:109D4C004FF0030E42F82CE0C3F80805C3F81015C9
:109D5C0024237343FA18C2F804902A69FA50B9F113
:109D6C00000F34D04FF4887120682D7FFFF7DAFE96
:109D7C004FF490712068FFF7D5FE4FF49271206874
:109D8C00FFF7D0FE20684FF4A271FFF7CBFE2268DC
:109D9C001D4BC2F80433120B51B20029A8BF01F1BC
:109DAC0060404FEA4513BABF184802F00F0500F5A2
:109DBC006140DBB2B4BF435580F8003302F01F02A0
:109DCC00012303FA02F24909114B43F821202368BD
:109DDC000822C3F80025242303FB06730022C3E9E1
:109DEC0006225A61012283F820204046BDE8F88300
:109DFC004FF00808F9E74FF01108F6E7B8AE00206D
:109E0C00619B0200000300501003020014ED00E0FF
:109E1C0000E100E02DE9F04103680479254D0022B2
:109E2C00C3F80025242202FB04520646526872B184
:109E3C00214AC3F80823190B4AB20120520901F038
:109E4C001F0100FA01F120321C4840F82210D3F80F
:109E5C000C05D3F81485D3F80815D3F810754FF00A
:109E6C00FF329042C3F80C25C3F81425C3F808251B
:109E7C00C3F8102501D0FFF7E1FEB8F1FF3F02D087
:109E8C004046FFF7DBFE7A1C02D03846FFF7D6FEC1
:109E9C004B1C02D00846FFF7D1FE3068FFF750FB91
:109EAC00242303FB0454002384F820306360BDE8B2
:109EBC00F08100BFB8AE00201003020000E100E00A
:109ECC0001F06043B3F1005F2DE9F041074632D158
:109EDC001C4B0679242505FB063598466C6964BB3A
:109EEC006A61A96000684FF49071FFF71BFE4FF494
:109EFC00AC713868FFF716FE3B686A69A968C3F84D
:109F0C004415C3F8482501229A606A68BAB9D3F897
:109F1C002011D3F8582149B9002AF8D00F20242356
:109F2C0003FB068600237361BDE8F081002A14BF91
:109F3C000F200020F3E71020F6E71120F4E720466D
:109F4C00F2E700BFB8AE0020F8B501F06043B3F102
:109F5C00005F04460F465FD10379304D242101FB8D
:109F6C000351486820B121684FF40476C1F80863A6
:109F7C00242101FB03539E6956B1D96900293AD0BB
:109F8C0020B123684FF40472C3F80423112031E08C
:109F9C009A61DF60DE614FF488712068FFF7C2FDC3
:109FAC004FF4A2712068FFF7BDFD2368C3F8347528
:109FBC00C3F838251EBB01221A602179242202FB2A
:109FCC000152526812BBD3F81001D3F84421D3F8D4
:109FDC002441104302D1002CF5D00246242303FB6C
:109FEC00015500239C4214BF032018469A42AB61D2
:109FFC0018BF0F20F8BD1F61DA610126CBE7D3F83B
:10A00C00002242F02002C3F80022D6E74FF404727B
:10A01C00C3F804230020EDE71020EBE7B8AE0020D6
:10A02C001F2886BF00F01F00044A4FF0A0420123F6
:10A03C0003FA00F0C2F80805704700BF0003005097
:10A04C001F2886BF00F01F00044A4FF0A0420123D6
:10A05C0003FA00F0C2F80C05704700BF0003005073
:10A06C00114BD3F8183107B5D3B1104B104900225E
:10A07C001A60C87F1B680193FF28019B03D08B7F5C
:10A08C005BB1FFF7DDFF00234B770B72D1E9003199
:10A09C00084803B05DF804EB1847FFF7C1FFF2E77F
:10A0AC0003B05DF804FB00BF0030004018310040E5
:10A0BC00DCAE0020E4AE00202DE9F74F0679724F9C
:10A0CC0001934FF0240909FB06F907EB090A9346A3
:10A0DC009AF81C2080460C46002A40F0D180056876
:10A0EC006A492846FFF70AFA0146002840F0CA8060
:10A0FC00019BCAF80430237B47F809B0012B207868
:10A10C0000F2AC80FFF79CFF23781F2B86BF03F077
:10A11C001F035F4A4FF0A04203F5E073012042F8A1
:10A12C00230094F80190B9F1FF0F00F09A80484693
:10A13C00FFF786FFB9F11F0F8BBF09F01F034B46CA
:10A14C00534A4FF0A04203F5E073032042F823007A
:10A15C00A378FF2B00F088801F2B8BBF03F01F020E
:10A16C001A464B484FF0A04002F5E0724FF0080C35
:10A17C0040F822C09A46242202FB067282F8203054
:10A18C00E078D077FF2816D02379002B6FD0FFF71B
:10A19C0057FFE3781F2B86BF03F01F033C4A4FF099
:10A1AC00A04203F5E073032042F82300242303FBB1
:10A1BC00067322799A772378C5F80835A368C5F811
:10A1CC000C95C5F810A5C5F82435637B227B0033AC
:10A1DC0018BF0123022A4DD0032A4ED0012A01D1E7
:10A1EC0043F00203C5F85435A379C5F8C0352423D0
:10A1FC007343FB5813B14022C5F804230722C5F85A
:10A20C00002503B3D8F8003062791B0B58B2002834
:10A21C00A8BF00F16044DBB2B8BF03F00F054FEAF2
:10A22C004212B4BF1B4C04F56144D2B2B4BF6255A8
:10A23C0084F8002303F01F03012202FA03F3400900
:10A24C00154A42F82030242303FB0676002373774B
:10A25C0001233377084603B0BDE8F08FFFF7E0FE2B
:10A26C0052E74FF0FF3973E74FF0FF3A83E7FFF700
:10A27C00D7FE8EE743F00403B4E743F00603B1E7DF
:10A28C000821E7E71121E5E7DCAE00206DA0020014
:10A29C000003005014ED00E000E100E0F8B5057992
:10A2AC001F4C006824236B43E618E358D3B1030B0F
:10A2BC005AB2520903F01F0301212032194F01FA3F
:10A2CC0003F347F82230184BC0F80833737F4BB1B7
:10A2DC004161D0F80431002BFBD0242303FB054350
:10A2EC0000225A77242303FB054393F82030FF2BDD
:10A2FC000BD01F2B8ABF03F01F034FF0A0420B4A59
:10A30C0003F5E073022142F823100026C0F8006523
:10A31C00FFF716F9242303FB05442677F8BD00BF8D
:10A32C00DCAE002000E100E0520108000003005008
:10A33C002DE9F3410579424E24236B431446F21860
:10A34C000F46517F8046002978D1F35823B114F081
:10A35C00140F04BF0123537797E80F004FF0240C20
:10A36C000CFB056C0CF10C0E8EE80F009CF81F001A
:10A37C00FF2804D09CF81E30C3B1FFF751FE39689A
:10A38C0021B101F06043B3F1005F06D1BA6882B12C
:10A39C0002F06043B3F1005F0BD0242303FB05658F
:10A3AC0000236B77102002B0BDE8F081FFF748FE68
:10A3BC00E5E7D8F800307868C3F84415C3F84805C9
:10A3CC00F968C3F834250022C3F83815C3F81821EE
:10A3DC00D3F818210192019A14F0010218BF01223E
:10A3EC00C3F8502514F0020218BF0122C3F840250F
:10A3FC0022075CBF01221A6124226A43B25892B927
:10A40C00D3F81821002AFBD0242303FB0565E87F31
:10A41C00FF2803D0AC7F1CB1FFF712FE0020C2E76F
:10A42C00FFF7FEFDFAE714F004004FF0400202D0F3
:10A43C00C3F80823F2E7C3F80423B4E71120B2E70A
:10A44C00DCAE00207FB503788DF8043043680293AE
:10A45C0083688DF80C30C368049303698DF814304D
:10A46C00054A064B01A853F8213052F821109847A1
:10A47C0007B05DF804FB00BF00AF002010AF002058
:10A48C00F0B50646944616F8047B134A42F827C0EA
:10A49C00124A42F82730124B0D460FCB85B06C4652
:10A4AC0084E80F002B6800932B798DF805306B79BD
:10A4BC008DF80630AB680293BCF1000FAB89ADF898
:10A4CC000C30084A3B4608BF002221463046FFF7B5
:10A4DC00F3FD05B0F0BD00BF10AF002000AF0020B1
:10A4EC008CEE020051A4020008B5094B1B7853B145
:10A4FC000020FEF7C9FD0120FEF7C6FD0320BDE8D4
:10A50C000840FEF7C1BDBDE80840FEF7D1BD00BF55
:10A51C0020AF0020F8B57B4C237805461BB10023F7
:10A52C002370FFF7E1FF172D00F28880DFE805F0BC
:10A53C000C17174354657680888D888D959A9A9A56
:10A54C009A9AC4C9D1D9E4E4FFF7CEFF6E48FCF760
:10A55C008DFF6E4B002204461A702046F8BD002079
:10A56C00FEF76AFDF8B10020FEF78EFD022D0CBF40
:10A57C004FF4E1614FF47A61644B1D704FF400406D
:10A58C004FF4FA740025E0FB01454FF47A72002376
:10A59C002046294603F017FD002201465A48BDE823
:10A5AC00F840FCF71DBFFEF75BFD022D0CBFC82168
:10A5BC004FF4C871E0E70020FEF73EFD40B10020EB
:10A5CC00FEF762FD4FF44871504B03221A70D5E729
:10A5DC00FEF746FDC821F7E70020FEF72DFD38B148
:10A5EC000020FEF751FD4FF47A61484B0422EDE751
:10A5FC00FEF736FD4FF4C871F7E70020FEF71CFD9F
:10A60C0048B10020FEF740FD404B05221A7041F680
:10A61C009A110022C2E7FEF723FDF5E70020FEF7B2
:10A62C0065FD3A4B06221A70002240F6CD41B5E783
:10A63C000020FEF715FD354B07221A7000248CE71D
:10A64C0001202070FEF752FDEEE701202070FEF78E
:10A65C004DFD00224FF48041A0E7FEF738FD2B4B57
:10A66C000C22EAE72A482B4EFCF700FFD5F1110526
:10A67C0004461CD0D8B9012D13D0C8235D434FF428
:10A68C0000474FF4FA7000214FF47A720023C7FB95
:10A69C00050103F098FC224601461D48FCF7A0FE7C
:10A6AC0004460220FEF7DCFC0123337055E7022040
:10A6BC00FEF7EAFC0023F8E7FFF716FF134B122214
:10A6CC00BBE7FFF711FF0020FEF7CAFC0F4B13226C
:10A6DC00B3E7FFF709FF0120FEF7C2FC0B4B142276
:10A6EC00ABE7FFF701FF0020FEF7BAFC0120FEF7F5
:10A6FC00B7FC064B1522A0E7FEF7E9FC034B1D70D7
:10A70C009CE700BF74AF002044AF002075AF002061
:10A71C0024AF002020AF0020002910B514BF032463
:10A72C000024FEF7FDFC1F288ABF0A4B4FF0A04304
:10A73C0000F01F0003EB8000D0F8002722F4403219
:10A74C00C0F80027D0F8003743EA0443C0F80037BC
:10A75C00002010BD00030050044B1B6813F00103D4
:10A76C0001D0FFF7D7BE1846704700BF70AF00206E
:10A77C00032813D8012A0BD1012908D100F10E02AC
:10A78C00D2B200EB40000C4B1A5400207047002250
:10A79C000129F6D04BB24BB1022901D007207047EA
:10A7AC00054B00EB400018444270EEE7024900EB09
:10A7BC00400008448270E8E764AF0020032802D808
:10A7CC000121FFF7A9BF0620704708B5012202211D
:10A7DC000020FFF7CDFF08B1072810D10722022176
:10A7EC000120FFF7C5FF08B1072808D100210A2274
:10A7FC000846FFF7BDFF10B1072808BF002008BDB1
:10A80C000388102B10B502D0112B1ED010BD1A4C82
:10A81C002168B1B901220846FFF7AAFF08B1072841
:10A82C0024D1072202210120FFF7A2FF08B107283B
:10A83C001CD1042202210020FFF79AFF08B107283F
:10A84C0014D1236801332360E0E70B4A1368013B02
:10A85C001360002BDAD1FFF7B8FF0028D6D0074BD6
:10A86C001B68002BD2D0BDE810401847034B1B6867
:10A87C00002BE6D09847E4E77CAF002078AF0020AF
:10A88C0008B50020FFF79AFF08B1062806D1012071
:10A89C00FFF794FF10B1062808BF002008BD75DF34
:10A8AC00704776DF70477FDF70478ADF70478CDF39
:10A8BC0070478FDF7047000008B50C480C4B0D49F2
:10A8CC000D4AC01AC008000440F00300FCF71CF944
:10A8DC000A490B48FFF7E9FF18B10A4AFD21FCF7BA
:10A8EC00DBFA0020BDE80840FEF7BABB64E50200C5
:10A8FC003CE5020039F00200FEEF0200CCA500207E
:10A90C00F0EF02005CF0020030B503881D2B87B01D
:10A91C00044678D061D8112B00F0C080132B00F0C6
:10A92C00B180102B5ED17A4B7A48A2887A49C01A32
:10A93C00C008000440F00300FCF7E6F8A388072BDE
:10A94C0005D9764A40F295110020FCF7A5FAA188AA
:10A95C007348002200EB011001F0E6FD20B16F4AB4
:10A96C004FF4CD71FCF798FA0022A1886D4801F0E4
:10A97C00FFFE20B1694A40F29D11FCF78DFA0720C9
:10A98C00FFF7EAFE20B1654A4FF4D071FCF784FA68
:10A99C00654D4FF4B3520021284603F0E5FCA18825
:10A9AC004FF4337000FB015001F0D6F8112805D09C
:10A9BC0020B15A4A40F2A711FCF76EFA0120FEF7BB
:10A9CC004FFB00F00DFF08284FF0000057D1FEF7A9
:10A9DC005BFB564BA2881A8004E0212B7ED003D857
:10A9EC001F2B70D007B030BD3B2B00F08580562B51
:10A9FC00F8D113218088FFF754FF0028F2D0474A82
:10AA0C0040F20A2138E0424B424D4949ED1AED081B
:10AA1C002D0445F003052846FCF772F8454AA18C35
:10AA2C00206A00F0CBFDF8B10123434A434904F1FD
:10AA3C000A00FFF73CFF0028D4D1FFF78DFE20B1B0
:10AA4C00364A40F26B11FCF727FA237C0393E37B25
:10AA5C000293A37B0193637B0093E27A237B3849B7
:10AA6C002846FCF774F8BDE73649FFF71EFF0028AF
:10AA7C00B8D02A4A40F27911FCF70EFAB2E7FEF789
:10AA8C00EFFAA6E700231A4685218088FFF70BFF13
:10AA9C000028A7D0214A4FF4E071EDE71C4B1D486C
:10AAAC00A2882949C01AC0080004237A40F0030088
:10AABC00FCF733F800F094FE10B90120FEF7E4FA2D
:10AACC00FFF7FAFE8EE700F108018088FFF7E7FE3A
:10AADC00002887D0114A4FF4F671CDE7002305A961
:10AAEC008088ADF81430FFF7E4FE00283FF47AAF0D
:10AAFC000A4A4FF4FC71BFE713218088FFF7D1FE9F
:10AB0C0000283FF46FAF054A40F20121B4E700BFC3
:10AB1C003CE5020064E50200EEEE02005CF002008F
:10AB2C00D8B000207CB000206A8F0020688F0020F5
:10AB3C00B4EE0200FEEF0200E8EF0200F0EF0200BC
:10AB4C00C0EE0200CCA5002022EF020010B5074B8E
:10AB5C0004464088214603EB001001F0F9FB214626
:10AB6C000348BDE8104001F0EFBC00BFD8B0002096
:10AB7C007CB0002008B500210A4801F08BF920B107
:10AB8C00094A40F26A31FCF787F9F721054801F0D0
:10AB9C009CF930B1044A40F26D31BDE80840FCF735
:10ABAC007BB908BD8CB000205CF002002DE9F047A9
:10ABBC0091F80090B9F1010F06460C4627D0B9F177
:10ABCC00000F04D0B9F1020F6ED0BDE8F0873B4BFB
:10ABDC003B4D3C49ED1AED082D0445F00305284684
:10ABEC00FBF78EFF04F10E026188304601F0C0FDC8
:10ABFC0020B1354A40F29121FCF74EF9304601F074
:10AC0C0057FD32492846BDE8F047FBF779BFDFF81E
:10AC1C00D0A02F4F9AF80030DFF8C8802D4E2E4D63
:10AC2C007BB341F21C020021384603F09DFB4FF030
:10AC3C000009A289A168A8F800903846A6F80090EF
:10AC4C0003F069FB3B797A798AF80090163303EBB1
:10AC5C000223A8F800303288A38913443380A289D8
:10AC6C00A1681B4803F057FB144B15481849C01A30
:10AC7C00C008000440F00300FBF742FF01232B70D7
:10AC8C00A3E730888A8989680138384403F043FB8C
:10AC9C003288A3891344B8F800209BB29A423380BF
:10ACAC0098BF85F80090DAE70548044B0B49C01AA9
:10ACBC00C008000440F00300A5E700BF3CE502001B
:10ACCC0064E5020054EF02005CF0020068EF020041
:10ACDC00CAB2002080AF002076B0002096EF0200B0
:10ACEC00648F0020C8B200200378012B70B5044695
:10ACFC003CD013B1022B27D070BD234C234D2088A0
:10AD0C002844FDF769F8238801339BB21D44238046
:10AD1C0015F8012C0A2A03D01D4A12889A42EBD846
:10AD2C001A4D1C4E22882946304601F0E3FC0828B7
:10AD3C0007D01328F6D020B1174A4FF41371FCF743
:10AD4C00ABF800232380D7E7144B15481549C01ADC
:10AD5C00C008000440F00100FBF7D2FE0E4A40F29E
:10AD6C0057216068BDE87040FCF796B80B4B0C4857
:10AD7C000D49C01AC008000440F00100FBF7C0FEEA
:10AD8C00054A4FF41771ECE778B0002082AF002031
:10AD9C00668F00207CB000205CF002003CE50200D5
:10ADAC0064E50200AFF00200E1F0020010B50446C9
:10ADBC000020FFF7D1FC20B1074A40F2AF31FCF77D
:10ADCC006BF83CB9FFF75CFD20B1034A40F2B63199
:10ADDC00FCF762F8012010BD5CF002000B78012B2F
:10ADEC0010B504461DD10F4B0F484A880F49C01AA5
:10ADFC00C008000440F00300FBF786FEFCF70AF8DD
:10AE0C0020B10B4A40F21511FCF746F8204601F030
:10AE1C005FFB30B1064A40F21911BDE81040FCF757
:10AE2C003BB810BD3CE5020064E50200B6EF020041
:10AE3C005CF002002DE9F0414FF400418AB0002093
:10AE4C00FBF79AFC20B1614A40F24B31FCF724F835
:10AE5C00FBF7BCFBFCF780FA20B15C4A40F25631A0
:10AE6C00FCF71AF80120FEF761F9FCF7B3FE20B1EC
:10AE7C00564A40F23531FCF70FF801F0E9FC20B1ED
:10AE8C00524A40F2E621FCF707F8002304A90120FE
:10AE9C00049301F0B1FD20B14C4A4FF43B71FBF728
:10AEAC00FBFF04A801F07AFE20B1484A4FF43C7134
:10AEBC00FBF7F2FF464DFFF75DFE0FCD04AC0FC460
:10AECC0095E80300434B444A00934FF4807384E8A5
:10AEDC000300CDE902230193404A0723694604A8E5
:10AEEC00FCF738FF3E4800F0FDFD20B1374A40F238
:10AEFC002B31FBF7D1FF3B4B3B4D344E04930024DD
:10AF0C0004A9284601F07CFA20B132464FF4367180
:10AF1C00FBF7C2FF0134082C05F11005F0D100F04D
:10AF2C005DFCFFF727FE314B3148049304A901F077
:10AF3C005BFB20B1254A40F2CA21FBF7ADFF2D4C3B
:10AF4C00322644F001044FF47A40A047013EFAD176
:10AF5C0000F020FA284C294B294D2A492A4FE41A93
:10AF6C00E408240444F003042046FBF7C9FDFFF772
:10AF7C00A3FC2E70254EDFF8A4802B78FBB10122A8
:10AF8C003188384600F00EF902224146308803F031
:10AF9C00C2F91F4B1F4901221A70204600232B7047
:10AFAC00FBF7AEFD1C4B13211888FFF77AFC30F031
:10AFBC00080304D0054A40F2FB31FBF76DFFFBF7A9
:10AFCC0035FC0028D9D1FCF71BFED4E75CF002005D
:10AFDC009CEE0200E6C20020E6C30020F5AC0200A5
:10AFEC0059AB0200E9AD0200D8B00020B9AB0200A9
:10AFFC007CB00020B0EF020064E502003CE50200EA
:10B00C0076B0002005F00200D0B20020C8B20020BB
:10B01C00648F002020F00200688F0020CEB2002048
:10B02C00438803F00F021B09027143807047000034
:10B03C002DE9F3410C46557946494FF4B463B0FB06
:10B04C00F3F3DEB201FB03032918107906EB460576
:10B05C003C2793FBF7F3DBB201EB4511A3EB031594
:10B06C000344D07801EB8501C9B20644DBB2F6B2D9
:10B07C003B2951711371D67006D901331371B1FB91
:10B08C00F7F307FB131151711179172907D9182000
:10B09C000136B1FBF0F300FB1313D67013719178EA
:10B0AC0050780C2901D91E230BE041F2AA53CB4056
:10B0BC00DD0748D40229F6D110F0030F14BF1C236E
:10B0CC001D23D5789D4206D901319170B5FBF3F162
:10B0DC0003FB1153D37093780C2B81BF01300123E8
:10B0EC00507093705378632B04D913780133137019
:10B0FC0000235370184FDFF86480561E002516F895
:10B10C00010F0A2201A903F001F93378092B9FBF23
:10B11C009DF804308DF8053030238DF80430AB1ECB
:10B12C00022B12D801224146204603F0D4F80135F7
:10B13C00022201A92046EDB203F0CDF8062DDED196
:10B14C0002B0BDE8F0811F23BBE7052DEFD1012232
:10B15C003946E9E760FAFFFF0FF102000DF102003A
:10B16C0084B007B50DF1100C8CE80F0033220B499D
:10B17C000B4802F0D7FC04A901AB31F8022B0848AC
:10B18C0002F0B3FD08B9ADF81000054802F0BAFEA4
:10B19C0003B05DF804EB04B0704700BFE6C40020B8
:10B1AC0034C500202DE9F04F4B00ADF22C4D073388
:10B1BC009146DB086A46A2EBC3037EAF9D46CB1DCE
:10B1CC006A46DB08A2EBC3030DF5FC7807F12C05EE
:10B1DC009D4682460C4640F2022200217EAE284655
:10B1EC0003F0C2F822465146304603F094F8B9F108
:10B1FC00000F20D010223146604803F08CF86049D3
:10B20C005E4803F024F8A4F1100282A9304603F042
:10B21C0001F8163C062231465A4803F07CF82246C7
:10B22C000DF5FF71304602F0F5FF301916220021A2
:10B23C0003F09AF8A4B24FF40072002107F12E002B
:10B24C0003F092F80023F21859085078F25C02339C
:10B25C009BB202EB00229C4228F81120F3D24FEA59
:10B26C00540ADFF820B1484CDFF824910026B3B221
:10B27C009A4514D807F12E0003F0CBF807F13C01E6
:10B28C0028804FF4F972684603F045F895E80F00F2
:10B29C00FFF766FF07F50D77BD46BDE8F08F38F870
:10B2AC0016204FF6FF718A4265D008F1020333F87D
:10B2BC0016308B425FD0344863802280FFF7B0FE9B
:10B2CC001422002107F1180003F04EF8594607F13B
:10B2DC00100003F07CF807F1100207F11801208828
:10B2EC00FFF7A6FE0A2207F10801608803F00EF8AA
:10B2FC000A22391D207903F009F807F1180107F12A
:10B30C002E0002F0A4FF494607F12E0002F09FFF29
:10B31C00391D07F12E0002F09AFF494607F12E0065
:10B32C0002F095FF042207F1080107F12E0002F04C
:10B33C00D2FF164907F12E0002F089FF07F12E000B
:10B34C0003F067F880B2B0F5F37F288013D94FF47F
:10B35C00F97207F13C01684602F0DDFF95E80F0039
:10B36C00FFF7FEFE4FF40072002107F12E0002F0F1
:10B37C00FBFF00232B80023679E700BFE6C40020D8
:10B38C0011F10200FAC4002002C5002039E70200C6
:10B39C0016F1020038B51648012101F099FD002084
:10B3AC0001F07CFC38B1002001F078FC18B10020D1
:10B3BC0001F074FCD0B90F4B0F485C69A0470E48E4
:10B3CC00A04701220D490E4802F086FB70B90D49C9
:10B3DC000D4802F0A4FD48B90C4C0B4D0B49284606
:10B3EC0002F0D0FD10B9637A002BF7D138BD00BF45
:10B3FC00D4A50020A4ED020018F102003AE70200E7
:10B40C0074C700200DF1020008C500205CC70020A5
:10B41C000369C1688B429DBF8268D21802F1FF326A
:10B42C0003F1FF3394BF501A581A70472DE9F041BD
:10B43C00D0E9027405463E1B40689642204488467B
:10B44C00144404D902F067FFEC60BDE8F081324689
:10B45C00E41B02F060FF224608EB06016868F1E786
:10B46C002DE9F843C5680646894617464FF0000893
:10B47C003469B3687068A54228BFE418013C621BAC
:10B48C005C1BBC4228BF3C46944228BF144649462C
:10B49C002844224602F03FFFB3682544AB4208BF64
:10B4AC0000253F1BA044A144F560E1D14046BDE816
:10B4BC00F883000010B5114C114AA2610223C4E9B3
:10B4CC000433104BE361A2644FF400730E4A236201
:10B4DC00E264002310220D49A362E01D6362E36263
:10B4EC00A3656365E365226502F071FF0849204698
:10B4FC0002F06DFF2023A37110BD00BFC0C9002056
:10B50C0044F1020048CA002038CA00204DF1020064
:10B51C0051F10200F8B5184C182300FB033503FB5E
:10B52C0000402544C46A012C0F46164611D024B1A4
:10B53C00022C1BD000242046F8BD2846FFF768FFDC
:10B54C00B042F8D3324639462846FFF76FFF3446EF
:10B55C00F1E72846FFF75CFF8642344628BF0446D5
:10B56C00224639462846FFF761FFE4E72846BDE846
:10B57C00F840FFF775BF00BFC0C90020FFF79ABFA6
:10B58C0064DF704770B5C0B14AB116880024B4426C
:10B59C0003D305196D789D4208D0A14201D8002033
:10B5AC000BE0055D01352C44A4B2F0E7A142F6D9BD
:10B5BC00A31C1380005D013880B270BDF7B5002369
:10B5CC000746ADF80630144612B9002003B0F0BDA2
:10B5DC0009230DF10602FFF7D5FFBDF8065006460C
:10B5EC00002DF2D00028F0D0204602F012FFB0421D
:10B5FC000246EAD17919204602F0D1FDB0FA80F06A
:10B60C004009E3E7F0B587B0002306460D46104627
:10B61C00ADF8063002AA10230DF105018DF80530A6
:10B62C00FFF7AEFF16B9002007B0F0BD0028FAD125
:10B63C009DF80530042B2CD0102B2DD0022BF3D1E0
:10B64C001C460323BDF806207AB90DF106022946E3
:10B65C003046FFF797FFBDF806302BB923460DF1A6
:10B66C0006023046FFF78EFF0546BDF80670002F28
:10B67C00D9D00024A542D6D9E0199DF8052002A9FD
:10B68C00304402F08CFD50B19DF805301C44A4B23E
:10B69C00F0E71C460523D5E706240723D2E7012053
:10B6AC00C2E7000078220021014802F05DBE00BF15
:10B6BC0048CC002073B50191019C06466CB1002565
:10B6CC002C46294601A8FBF769FF18B106EB440389
:10B6DC0001349D800135142DF3D13046346002B015
:10B6EC0070BD00002DE9F04703888488112B8CB0C5
:10B6FC0006463ED01A2B41D0102B19D1284DAB68E1
:10B70C00DB43009369686846FBF771FF009901A859
:10B71C00FFF7D0FF0DF108094FF00008019B984589
:10B72C0009D3132C15D91F4AE3210420FBF7B4FBD2
:10B73C000CB0BDE8F08739F802AB00270137514651
:10B74C0005EB8700FBF720FF1D2FF7D108F101084F
:10B75C00E4E721461448FBF70EFF21461348FBF79C
:10B76C000AFFF37B012BE3D011482146FBF703FFC3
:10B77C00DEE70D482146FBF707FFD9E7057A0D48B0
:10B78C002D09012D214606D9FBF7F5FE022D214688
:10B79C000948F0D0EAE7FBF7F7FE21460648EAE74E
:10B7AC0048CC002058F1020050CC00204CCC00209A
:10B7BC0054CC002058CC00205CCC002037B50024A1
:10B7CC0001902546214601A8FBF7E8FE00B10135A2
:10B7DC000134142CF6D1284603B030BDFFF762BFFC
:10B7EC0007B5064BDA680192996801A8FBF7FFFED2
:10B7FC000198FFF7E3FF03B05DF804FB48CC002091
:10B80C009BDF70479DDF70479EDF704730B50B4B59
:10B81C0019680B4B0022914201D1002009E09D7860
:10B82C008478A54206D11D880488A54202D1054B17
:10B83C00186830BD01320433EDE700BFC8CC0020DE
:10B84C00D0CF0020C0CC002070B590F8C632164680
:10B85C007622A0B002FB03000D46FFF7D7FF04468B
:10B86C0060B17C22002101A802F07EFD01238DF83D
:10B87C000430ADF80660029501A8A04720B070BD59
:10B88C002DE9F74F8B4690F8C6120192762380462D
:10B89C0001FB03000091FFF7B9FF814670B3194E0D
:10B8AC003568052D2AD8184C0099019A4FEAC51A0B
:10B8BC0004EB0A07762303FB01817A80381D1A46B4
:10B8CC0002F029FDBBF1000F14BF0023022304F882
:10B8DC000A300E4BC7F87C901A68013595423560DA
:10B8EC001D460BD10027E36F204698472B68013784
:10B8FC009F4204F18004F6D30023336003B0BDE80B
:10B90C00F08F00BFCCCF0020CCCC0020C8CC0020C6
:10B91C0037B590F8C53290F8C6220C46C3B1013B3E
:10B92C007621DBB25143122505FB031303445B8ADA
:10B93C0001339BB2ADF80430762303FB020201A95C
:10B94C001389ADF806302046FFF75CFF03B030BD1D
:10B95C00762303FB0203DB88ECE7000038B54FF4D9
:10B96C0033720D460021044602F0FEFC114AA4F885
:10B97C00CA5200231360104A84F8C932126822603C
:10B98C0084F8C63284F8C532224601212846FFF7D6
:10B99C0037FF112806D020B9012384F8C73284F868
:10B9AC00C80238BD012284F8C72284F8C822184680
:10B9BC00F7E700BFCCCF0020D0CF002070B50C46ED
:10B9CC0090F8C922174901320968D2B28A4203465B
:10B9DC0080F8C9224FF0000521D290F8C61280F8E9
:10B9EC00C5520131C9B280F8C612762011FB00F0A5
:10B9FC000D4E1A1856F821101950012115712046B8
:10BA0C00FFF7FEFE014648B183F8C752224618469E
:10BA1C00FFF71AFF054B03221A705C8070BD80F88B
:10BA2C00C752F7E7C8CC0020D0CF0020CCCC0020E8
:10BA3C002DE9F34790F8C65290F8C542762315FBD2
:10BA4C0003F54619122796F804E017FB045304F18A
:10BA5C00010C0A33F445034411D000F11C0A06F121
:10BA6C0022080EF1FF39AA44E5B2AE450BD9A14527
:10BA7C001D891AD133899D4226D100231DE01B89D3
:10BA8C003089834205D101230B70002002B0BDE840
:10BA9C00F0870133ADF80430ADF8060000230B70CD
:10BAAC00104601A9FFF7B0FEF0E707FB04F30135E0
:10BABC0038F803C065450DD1534490F8C552013593
:10BACC0080F8C5520134CFE70135ADF80450ADF81C
