:020000022000DC
:10600000000004205D630200456302004763020054
:10601000496302004B6302004D6302000000000070
:106020000000000000000000000000004F630200BC
:106030005163020000000000536302005563020038
:106040006D82020057630200B585020057630200AB
:10605000576302005763020009840200576302007D
:106060005763020057630200576302005763020040
:106070005763020057630200576302005763020030
:1060800057630200896F02005763020057630200E2
:106090002570020057630200E1AF0200576302005F
:1060A0005763020057630200576302005763020000
:1060B0005763020057630200000000000000000068
:1060C00057630200576302005763020057630200E0
:1060D00057630200576302005763020057630200D0
:1060E000576302005763020057630200000000007C
:1060F0000000000057630200000000005763020028
:10610000000000000000000000000000000000008F
:10611000000000000000000000000000000000007F
:10612000000000000000000000000000000000006F
:10613000000000000000000000000000000000005F
:10614000000000000000000000000000000000004F
:10615000000000000000000000000000000000003F
:10616000000000000000000000000000000000002F
:10617000000000000000000000000000000000001F
:10618000000000000000000000000000000000000F
:1061900000000000000000000000000000000000FF
:1061A00000000000000000000000000000000000EF
:1061B00000000000000000000000000000000000DF
:1061C00000000000000000000000000000000000CF
:1061D00000000000000000000000000000000000BF
:1061E00000000000000000000000000000000000AF
:1061F000000000000000000000000000000000009F
:10620000314932480A1A02D0072291438D4630495B
:1062100030480A1A06D00722914381F309880222E6
:1062200082F314882C482D492D4A00F03CF82D4863
:106230002D492E4A00F037F82D482E492E4A00F0FD
:1062400032F82E482E492F4A00F02DF82E482F49BB
:106250002F4A00F028F82F482F49304A00F023F841
:106260002F483049304A00F01EF8304830490022AB
:1062700000F024F82F483049002200F01FF82F4A80
:1062800090471F481F49884205D00268043003B474
:10629000904703BCF7E700208646EC46002000212B
:1062A000274A9047FEE7884207D0521A05D0037864
:1062B00001300B700131013AF9D17047884202D0A8
:1062C00002700130FAE770470000042000E003206C
:1062D00000000420000004207CC802000887002081
:1062E000BC9D0020BC630200BC6302006EB60200CD
:1062F0007CC802000887002008870020F8B7020049
:10630000F8B70200F8B70200F8B70200F8B70200C9
:10631000F8B70200F8B70200F8B702007CC8020024
:1063200030DF0200BC9D0020BC9D0020BC9D0020F1
:10633000A8B10020A8B10020A8B100208563020008
:1063400085980200FEE7FEE7FEE7FEE7FEE7FEE7D0
:10635000FEE7FEE7FEE7FEE7704700BF1048804714
:1063600010484FF00701884385460F4880470F4883
:10637000016841F470010160BFF34F8FBFF36F8F6D
:10638000FFF73EBF0A480B490B4A884207D0521A12
:1063900005D0037801300B700131013AF9D1704713
:1063A0005963020000000420357D020088ED00E002
:0C63B000F8B702000887002008870020D2
:1063BC007047000007B5044B0093044A402300F0DB
:1063CC0032F803B05DF804FBDD630200BD9D0020D4
:1063DC002DE9F84389461446B2B10F4B0F4E0325F5
:1063EC00002743F00108224609EB0701002003F0C7
:1063FC0081FB0744241A48B933782BB14FF47A4007
:10640C00C047013D02D13570BDE8F88301233370DC
:10641C00002CE8D1F8E700BF00B80200BC9D0020BA
:10642C00704703F09BBBF0B595B01C46164608466A
:10643C000D4601F010FB1A9B0D93CDE90864002466
:10644C002346082205A928460A948DF82C400C9462
:10645C0001F01EFB079B0293069B03939DF81430DF
:10646C008DF8114003F00302012A1DD1BDF8144030
:10647C00059EC3F3C203C4F383148DF81030A2003D
:10648C0008230EA9284601F003FBC6F3952608AB9A
:10649C000093224602AB0EA9304600F0D3FB2846EF
:1064AC0001F0DDFA15B0F0BD022AF8D1BDF81640A6
:1064BC00C3F3C203A4098DF810300827082C264614
:1064CC0028BF08263B4632460EA9284601F0E0FAC2
:1064DC00A41B08AB02AA31460EA8374400F016FCE8
:1064EC00002CEBD1DBE7704707B5044B0093044A53
:1064FC004023FFF798FF03B05DF804FB51650200E1
:10650C00FE9D002030B50C4D0FCD89B06C460FC4EC
:10651C0095E80F0084E80F0006230022694607481F
:10652C00009301F037FE08B100F07AFC044B002216
:10653C001A7009B030BD00BF14B8020008870020E3
:10654C00FD9D002038B50D4B0D4D002018700D48E9
:10655C0004782D5DD2B21C4665B1043002F00CFDFE
:10656C0008B100F05DFC084B1A7812B12378002BAF
:10657C00FBD038BD0C3002F071FAF1E73E9E0020E2
:10658C0060A5002008870020FD9D002008B5084864
:10659C00084A0378D35C33B1043002F097FCBDE8B1
:1065AC000840FFF7AFBF0C3002F002FAF7E700BF6C
:1065BC000887002060A50020FFF7A4BF38B50A4D5E
:1065CC00FFF72FFF0421284600F0AAFA074B0124FD
:1065DC005C71FFF7F1FF042105F1100000F0A0FA47
:1065EC00034B5C7138BD00BFD8B702001C8700207C
:1065FC0024870020037813F0040216D003F0030361
:10660C00012B03D0022B09D0012070470A680088A7
:10661C000232C0F3831002440A60F5E70B6842882B
:10662C00023303EB92130B60EEE710467047000049
:10663C002DE9F04F87B000230446851C0DF10700AF
:10664C000F4690468DF8073000F0C8FE45480668A6
:10665C003E60D0E90132134401339B1B824600F2A9
:10666C001C4600F5836900F21447AB421BD3002291
:10667C00B8F1000F70D0052363F3070264F389129D
:10668C00DAF80010DAF808309DF807000B400333F5
:10669C000D444AF82320CAF8005000F0C3FE012034
:1066AC0007B0BDE8F08F0121304600F018FF4846D6
:1066BC0000F02BFF384600F028FFDAF80400DAF877
:1066CC0008B0029000EA0B0003300AEB800002A92C
:1066DC00FFF790FF029B50BB0BEA03020AEB82020E
:1066EC0003F1020CD2680392013303EA0B0B0AEBA1
:1066FC008B0B02F00302012ACDF808C0DBF80C105A
:10670C0022D0022A16D08346384600F001FF10B181
:10671C00029BCAF804305946304600F0E0FEDAE934
:10672C0001231344DAF8002001339B1A9DE70BEA8E
:10673C000300C9E7BDF80E309B0903334FEA114B38
:10674C000CEB93030293DFE7BDF80C30C3F3831318
:10675C004FEA114B6344F5E7062363F3070264F336
:10676C009F528DE7109F00200B4B0C48FF2210B559
:10677C009A600022C3F81824C3E90022C3F8142439
:10678C00012283F8202401F01FF9044610B90448B3
:10679C0001F0C6F9204610BD109F0020ACB70200D6
:1067AC0064B8020030B50A4C71B10A4A0A49121B8E
:1067BC00D20800239A4201D1002030BD31F8235079
:1067CC00854202D00133F5E7034654F83300F4E771
:1067DC002CB70200ACB7020008870020094B013926
:1067EC0003EBC000032909D8DFE801F00A02040614
:1067FC00042070470079704740797047002070473B
:10680C00022070472CB70200034BD3E90030C31AA7
:10681C0058425841704700BF109F00202DE9F043AB
:10682C0087B0FFF7F1FF0646002840F0FB807E4D55
:10683C00C5F81804BFF34F8F6868AC68029020400D
:10684C00033005EB800002A9FFF7D4FE029B18B1C0
:10685C00D5F81824002A5FD004EA0302991C0133EE
:10686C0005EB8202234005EB8303D268DB680493BB
:10687C0002F00303022B0392029162D1BDF80E3099
:10688C006A484FEA9318B8F1500FC14628BF4FF031
:10689C00500969F38F1309F10801ADF80E3001F0BE
:1068AC00ABF80746002800F0A88001F0D4F803A943
:1068BC0000230822384601F0E1F8029924EA010687
:1068CC000136B600B14535D95FFA89F97EB3F6B217
:1068DC00A9EB0609214003315FFA89F4B146544E05
:1068EC0005EB810108234A46384601F0C7F836B15A
:1068FC0009F1080322463146384601F0BFF8029BE5
:10690C0008F1030803EB98030293D5F81834002B15
:10691C004BD1D5F810445BE02A689A4204D86A60DF
:10692C00304607B0BDE8F08304EA030088E740492D
:10693C003446D7E72140033108234A4605EB810151
:10694C00DAE7012B59D1BDF80C303848C3F3831169
:10695C00062928BF062161F3891302318900ADF89D
:10696C000C3001F049F80746002846D001F073F8C6
:10697C000023082203A9384601F080F80026BDF850
:10698C000C20C2F38312B300964203F10803BCD26D
:10699C0002994A1C21400331029205EB8101042229
:1069AC00384601F06BF80136E9E7384601F057F844
:1069BC00FFF72AFF80F00100C6B2B1E7E3685B790C
:1069CC0023B1236839461B6820469847E3681C6846
:1069DC00002CF3D1384601F042F80DF107008DF888
:1069EC00074000F0FBFCD5F818340BB9029B6B6028
:1069FC009DF8070000F016FDDAE7D5F8104454B9FD
:106A0C000C4B0D480D49C01AC008000440F00200A0
:106A1C0000F06EF8CCE7236820469B689847E36843
:106A2C001C68ECE700267BE7109F0020ACB7020047
:106A3C001C9F00202CB7020054B7020070B8020053
:106A4C002DE9F74F284C80460F46924601A90122AA
:106A5C0018469B46D4F80890FFF7EAFD80B3019DD9
:106A6C000026A91C5E4506EB010233D100211F480C
:106A7C0000F00AFD80F310006A1C02EA090204EB24
:106A8C008202000405EA0903033340EA1840D0608F
:106A9C0014F8232068F3C50204F8232034F82320CB
:106AAC0066F3891224F8232054F8232067F39F22DD
:106ABC0044F8232002F0F80242F0010204F82320EB
:106ACC0094F820341BB1FFF7A9FE0028FBD103B0CA
:106ADC00BDE8F08F09EA020204EB82025AF8263074
:106AEC00D3600136BEE700BF109F00202CA300200E
:106AFC0000231A46FFF7A4BF07B50123019201AA90
:106B0C00FFF79EFF03B05DF804FB07B5CDE900234A
:106B1C0002236A46FFF794FF03B05DF804FB000004
:106B2C0030B50F49D1F81024002314463CB9C46881
:106B3C00237152B9C1F810042260184630BDE468C4
:106B4C0025799D4206D02468F0E7D268116821604F
:106B5C001060F2E701330A2BE7D14FF0FF33ECE77B
:106B6C00109F0020094A38B50123D2F8104482F84E
:106B7C0020341D4604B938BDE3685D712368204696
:106B8C005B689847E3681C68F4E700BF109F00201F
:106B9C00037A052B10B50C460FD0437A23B1084A63
:106BAC000849204600F017FD0749204600F013FD68
:106BBC002046BDE8104000F003BD002AF8D0F3E7F2
:106BCC00BBB80200C0B80200E0B80200C38873B5BD
:106BDC0004460D4633B1144A00921449144A28460F
:106BEC0000F0F9FC217A05291CD0637A4BB1A088FE
:106BFC00FFF7F4FD0F4B104953F82020284600F006
:106C0C00EAFC227A0D4BA08853F822600021FFF792
:106C1C00C9FD0B4903463246284602B0BDE8704018
:106C2C0000F0D9BC02B070BDBBB80200CBB80200FA
:106C3C00C3B8020088B80200C0B80200F0B8020065
:106C4C00E3B802002DE9F04385B01F460C9D0023EC
:106C5C0006460C46904695F80C902B732946384600
:106C6C00FFF7B4FFB8F1060F09D8DFE808F00412FB
:106C7C00181F283340003146284600F0ACFC002297
:106C8C0029463846FFF784FF85F80C9005B0BDE81F
:106C9C00F08322683146284600F09DFCEFE7D4E9EA
:106CAC0000233146284600F096FCE8E7A3680093E1
:106CBC003146D4E90023284600F08DFCDFE7E36879
:106CCC000193A36800933146D4E90023284600F0D1
:106CDC0082FCD4E723690293E3680193A3680093D1
:106CEC003146D4E90023284600F075FCC7E76369F8
:106CFC00039323690293E3680193A36800933146DD
:106D0C00D4E90023284600F066FCB8E708292DE9F1
:106D1C00F84F80460E4617461C463AD8002593F885
:106D2C000C901D7319461046FFF750FFDFF884A036
:106D3C00DFF884B0AE422ED918F80520594620460B
:106D4C0000F049FC0135082DF4D11849DFF86CB07E
:106D5C00204600F040FC4FF0000A564520D918F8A8
:106D6C000A507E2D03D8284604F066FB00B92E2568
:106D7C002A465946204600F02EFC0AF1010ABAF1C7
:106D8C00080FEAD1012221463846FFF701FF84F8AB
:106D9C000C90BDE8F88F5146204600F01CFCD1E762
:106DAC000349204600F017FCE7E700BFB6B8020025
:106DBC00B4B80200B2B80200ACB80200B8B8020015
:106DCC0070B5084D084E00242B789C4201D300204E
:106DDC0070BD3368012113F8340001F0A3FA0134BB
:106DEC00F2E700BFCCA30020F0A3002070B5094D42
:106DFC00094E00242B789C4204D30848BDE870400F
:106E0C0000F0DCBA336813F8340001F0D5FA013421
:106E1C00F0E700BFCCA30020F0A30020D0A30020FB
:106E2C001FB50021039001AA44F20100CDE9011124
:106E3C0000F004F805B05DF804FB000010B572B664
:106E4C00FFF790FEFFF7EAFC0028FBD1104B114C2A
:106E5C001149E41AE408240444F00100FFF748FE49
:106E6C000E4B1B68DB0700D500BE0D4944F0020039
:106E7C00FFF73EFEBFF34F8F0A490B4BCA6802F473
:106E8C00E0621343CB60BFF34F8F00BFFDE700BF41
:106E9C002CB7020054B702004FB90200F0ED00E02D
:106EAC005BB9020000ED00E00400FA05094A5378D2
:106EBC0091780133DBB2994208BF002311789942D3
:106ECC001FBF03705078182303FB002014BF04303D
:106EDC0000207047F4A3002073B5054600240DF183
:106EEC0007000E468DF8074000F078FA0DF1060009
:106EFC00FFF7DCFF90B10670094B9DF8062045604A
:106F0C005A709DF8070000F08DFA24B9054B4FF428
:106F1C008012C3F80021204602B070BD0424F0E7B3
:106F2C00F4A3002000E100E0024B4FF43C6043F07E
:106F3C000103184770B9020038B50C4B0C4C4FF4D8
:106F4C000032C3F8802001254FF48033C4F8483355
:106F5C00C4F808336560FFF7E7FF064BA560002413
:106F6C001C60FFF7E1FF044B1C7038BD00E100E032
:106F7C000010014010A5002001A50020F8B51F4B02
:106F8C001F491B680025C1F84051C1F84451C1F894
:106F9C004851C1F84C51C1F80051C1F804514BB3E0
:106FAC00D1F8044517490968641A24F07F442F4628
:106FBC001A68A24209D8A41A15441A7CDE691AB1BF
:106FCC001F74D3E905209047AEB90F4A0F4B1178C7
:106FDC001B788B4205D10133DBB2022B08BF002397
:106FEC00137012780A4B43F822500A4B4FF480125C
:106FFC00C3F80021F8BD3346DAE700BF14A5002022
:10700C000010014010A500200DA500200CA50020AB
:10701C0004A5002000E100E02DE9F04FA14AA249AF
:10702C0013780978A14D994285B03CD00133DBB27D
:10703C00022B08BF002313709D4912789D4B0F68DB
:10704C0053F822003B1823F07F4300220B602B687F
:10705C0016461446944613B942B12B6006E01968E3
:10706C0081420ED902B12B60091A196001272B68D5
:10707C00DFF848A201934FF00008BEB9DFF844B224
:10708C0066E0401A0C44D968C3F800C0D3F81CE081
:10709C0031B13A1922F07F42C3E90121DE611E466B
:1070AC0001227346D7E700263746E0E73446F669F7
:1070BC007F4A63681268DFF810C2A068991A21F041
:1070CC007F41614500F2A6800144216001222274B7
:1070DC002A680023C4E90133E361002A40F0A3804D
:1070EC002C60CAE75A1C9BF80210D2B291428BF862
:1070FC00002004BF00228BF80020182202FB03B3EF
:10710C001A799C68022A1CD0032A12D0012A1FD19A
:10711C00207CE8B9D3E90312A2605A69E2609A694B
:10712C00654BA2611B78002B0CBF0B4603466360BA
:10713C00BEE700222B681146002B67D142B12B60B1
:10714C0006E029680A468946002A5AD1002323748E
:10715C009BF800309BF801209A42C3D12B68B8F100
:10716C00000F04D1019A9A4201D1002F43D0002B79
:10717C0073D0D3F800A0514D4D4BD5F804751C6855
:10718C00DFF848813E1B98F8003026F07F46033626
:10719C009BB94FF48033C5F84433C5F80433484BDE
:1071AC004FF400324FF00109C3F880211A60C5F882
:1071BC000090FFF7B9FE88F80090B2452CBF5444FC
:1071CC00A41924F07F44C5F84045D5F80435DB1BE1
:1071DC0023F07F43E41B033324F07F44A3420AD9FA
:1071EC00D5F80435C5F84035FFF79EFE344B4FF407
:1071FC000032C3F80021304B00221A7005B0BDE8F4
:10720C00F08F94422CD09146D2699DE719740122DB
:10721C00DB6991E7D31A23F07F43834234BFC31A4F
:10722C000023236052E721681368994213D8591A36
:10723C001160E26154E7091AD8691A4638B103465D
:10724C0018688842F7D3401A186018461346216014
:10725C00E061DC6111E71346F2E7FFF76DFECAE768
:10726C004C4511D1CB692B6073B9DFF844E0012098
:10727C00CDE90212CAF80800CEF800300E4B187097
:10728C00FFF752FEDDE902121368D269C9F81C201F
:10729C0012B11068034413602B68994218BF4FF069
:1072AC00010853E70CA500200DA5002014A5002013
:1072BC0010A5002004A5002000A50020001001400E
:1072CC0000E100E0F4A30020FEFF7F0001A50020F8
:1072DC0008B5FFF731FE104B00200B2218809A7076
:1072EC000E4B18600E4B18700E4B18700E4B4FF463
:1072FC008012C021C3F8802183F814131A6002F1A4
:10730C008042A2F56F22C2F8080583F81113074BCF
:10731C00D2F804251A6008BDF4A3002014A500209F
:10732C000CA500200DA5002000E100E010A5002018
:10733C002DE9F7431E4FBB7805460E469046A3B386
:10734C0098B304292FD943697BB3437C0024012BC8
:10735C000DF107000CBF8946A1468DF8074000F0DF
:10736C003DF80DF10600FFF7A1FDD0B1012303702C
:10737C00104B4560D3F80435C0E90498C0E90236D7
:10738C009DF806307B709DF8070000F04BF824B98F
:10739C00094B4FF48012C3F80021204603B0BDE81E
:1073AC00F0830424EFE70724F7E70824F5E700BF90
:1073BC00F4A300200010014000E100E0064A92789E
:1073CC003AB130B1426922B1002202740221FFF7B6
:1073DC0083BD0820704700BFF4A3002070B5EFF305
:1073EC00108672B60C4A946801239CB993600B4BBF
:1073FC000B4DD3F8801029401160C3F88050D3F89E
:10740C00841051604FF0FF32C3F88420047006B929
:10741C0062B670BD0370FAE718A5002000E100E029
:10742C00FC06FFBD084B9A6810B55AB150B9EFF382
:10743C00108172B6054A1C6814605C6854609860D0
:10744C0001B962B610BD00BF18A5002000E100E034
:10745C0001F01F024B090121914000EB830000F069
:10746C001DB801F01F0301229A404B0900EB830069
:10747C00D14300F029B84B0901F01F0150F823004B
:10748C00C84000F00100704750E8002F0B4640E860
:10749C00003C9CF0000FF7D11046704750E8003FBD
:1074AC0043EA010240E8002C9CF0000FF6D1104694
:1074BC00704750E8002F02EA010340E8003C9CF0C2
:1074CC00000FF6D11046704750E8003F03EA010266
:1074DC0040E8002C9CF0000FF6D11046704750E8A5
:1074EC00003F03EB010240E8002C9CF0000FF6D1AA
:1074FC001046704750E8003FA3EB010240E8002C17
:10750C009CF0000FF6D1104670470121FFF7C6BF63
:10751C000021FFF7CEBF10B590B1D0E9012301686F
:10752C009B1ADBB20A60013BDBB2FF2B026802D173
:10753C000020107110BD11684C1C14600B70F2E728
:10754C000E20F7E737B5054600240DF107008DF83E
:10755C000740FFF743FF2A686B68116899420ED900
:10756C00481E106011F8014CEB68298A01FB0434A9
:10757C00AB6811791B1ADBB2994238BF13719DF8B5
:10758C000700FFF74FFF204603B030BD37B5054667
:10759C0000230DF107000C468DF80730FFF71EFF96
:1075AC002A681368591C1160E968641A298AB4FBAB
:1075BC00F1F41C709DF80700FFF734FF03B030BDE9
:1075CC00826810B504462AB143690168006998477E
:1075DC000023A36010BD0EB403B5039921B104AB15
:1075EC0001AA019300F074F802B05DF804EB03B04B
:1075FC0070470A2938B504460D4602D10D21FFF714
:10760C00F8FFA3682268591CA160D554D4E9013253
:10761C009A4204D32046BDE83840FFF7D1BF38BDAD
:10762C002DE9F84F9946DDE90A431746824688460C
:10763C000A460126BA420FD24E4538BF4E4613F0C9
:10764C00010B01D164B900240125B9F1010F1AD93C
:10765C0009F1FF397D43F8E7B2FBF7F20136E9E7B0
:10766C009B070ED5B9F1000F0CBF30252025A64283
:10767C00EAD2013C29465046FFF7BBFF002CF6D15D
:10768C00E1E72025F3E7B8FBF5F39F42E2D9DFF8F9
:10769C003C90B8FBF5F3504619F8031005FB138822
:1076AC00FFF7A7FFB5FBF7F3BD4207D2BBF1000F05
:1076BC0002D00CB1A64203D3BDE8F88F1D46E8E713
:1076CC0020215046013CFFF794FFF2E776B9020007
:1076DC002DE9F74F054617468846002900F0308102
:1076EC0018F8011B49B92B7B002B00F02981284687
:1076FC0003B0BDE8F04FFFF763BF252940F0C08011
:10770C00002698F800302D2B424608F1010823D0B2
:10771C00302B24D02B2B25D000242A2B02F1010155
:10772C0023D13B681A1D1B683A601C440A46137827
:10773C002E2B26D101324FF00009104610F8011BF8
:10774C00A1F1300CBCF1090F1DD80A2303FB09135E
:10775C00A3F130090246F0E746F00106D1E746F006
:10776C000206CEE746F00406CBE711F8013CA3F184
:10777C0030000928DBD80A2202FB0434303C0A46CC
:10778C00CBE74FF0000912F8011B01F0FB00682851
:10779C009046F8D069290ED04AD8582964D006D81A
:1077AC0025296DD098F80030002B99D19BE76329DF
:1077BC0062D06429F6D13A68D2F800A0111D8AEA89
:1077CC00EA723960A2EBEA724FF0010B092A5BDC1A
:1077DC00CB4538BFCB462CB1BAF1000F01DB720799
:1077EC0000D5013CB30702D5B9F1000F04D0F00766
:1077FC0002D4002C4ED10024BAF1000F52DACAF197
:10780C00000A2D212846FFF7F4FE06F00302022A97
:10781C0005D1B9F1000F02D1002C47D10024CDE9DC
:10782C0000464B460A2251462846FFF7F9FEB9E7B7
:10783C0073294CD014D87029B4D13B681A1D3A6006
:10784C00302128461C68FFF7D4FE78212846FFF724
:10785C00D0FE00220823CDE9003221461022E3E7B6
:10786C0075292BD078299DD139680A1D3A60CDE94C
:10787C0000464B46102228E03B681A1D19783A60E6
:10788C002846FFF7B6FE8DE70A230BF1010BB2FB7E
:10789C00F3F29BE7A345AFD220212846013CFFF72A
:1078AC00A8FEA6E77107B0D52B21ABE7A345B6D24E
:1078BC0030212846013CFFF79CFEADE73968CDE945
:1078CC0000460A1D3A604B460A220968ACE73B6841
:1078DC001A1D3A6016F00106D3F800A020D1BAF1B7
:1078EC00000F03D0504603F08CFE0646B44200D97C
:1078FC00C4B90AF1FF3A1EE028460136FFF779FEBB
:10790C001AF806100029F7D1A642BFF44BAF002C91
:10791C003FF448AF20212846013CFFF76AFEF3E70D
:10792C000026EDE720212846013CFFF762FEDDE74B
:10793C002846FFF75EFE1AF8011F0029F8D131E73F
:10794C0003B0BDE8F08F2DE9F047B0F8069044790C
:10795C00D2F800A09DF8208009FB04F4043C0646F4
:10796C000AEB0300A0420F4688BFA4EB030A191DC3
:10797C00C2F800A0B1FBF9F509FB15114DB9A9EB43
:10798C000104544528BF5446BAF1000F04D1BDE898
:10799C00F0873668013DF1E704317B1970182246F7
:1079AC00B8F1000F0ED001461846AAEB040A03F0FA
:1079BC0083FDD145254436684C464FF0000128BF65
:1079CC005446E1E71946F0E7FFF7A5BDF8B546794F
:1079DC000146721E0546002393422D6803D30024F2
:1079EC00A64202D8F8BD0133F6E70F682846FFF728
:1079FC00CDFD01343946F3E72DE9F843068ACD1C59
:107A0C000746FFF79FFD043E35440446B5FBF6F5EB
:107A1C00F0B14FF48073EDB28380C680013D0760F6
:107A2C0081464FF00008A84512D23846FFF78AFD70
:107A3C00064648B163790133637108F10108C9F84E
:107A4C00000007608146EEE72046FFF7BFFF344693
:107A5C002046BDE8F88301210430FFF740BD10B586
:107A6C00012104460430FFF745FD10F0FF0F04D14F
:107A7C002046BDE81040FFF7A9BF10BD1FB503920B
:107A8C000022009203AAFFF75EFF05B05DF804FB2D
:107A9C001FB503920122009203AAFFF754FF05B011
:107AAC005DF804FB41DF7047064B10B500241C70D9
:107ABC00054B1C60BFF35F8F0449054800F039F893
:107ACC00204610BD2CA5002030A5002088B902004E
:107ADC0024A5002007B500230DF107008DF8073011
:107AEC00FFF77CFCF1EE103A23F09F03E1EE103A25
:107AFC00BFF35F8F094B4022C3F884219DF8070028
:107B0C00FFF790FC03F04CFA20B1FFF7CBFF03B06A
:107B1C005DF804FB20BF40BF20BFF8E700E100E0A8
:107B2C00836800225A609A60C3E90422DA601A6002
:107B3C0070470B684A684360934208BF002301609A
:107B4C0008BF43607047436843B10268916852684C
:107B5C000B449342436004BF002343607047000012
:107B6C0010B50D49A1F59472914201D800200FE097
:107B7C008B1ADB1003EBD3735B1002EBC30452F8CC
:107B8C003330834205D802D204F10802ECE7606876
:107B9C0010BD2146E8E700BFD8BA020008B5FFF7D0
:107BAC00DFFF024B002808BF184608BD9DB9020034
:107BBC000648074A03780749D35C012213B1043005
:107BCC0001F01CBA0C3000F091BF00BF2C870020D4
:107BDC0060A5002038A5002013B50478012C10D125
:107BEC0004238DF8003043681B788DF80430FFF7C0
:107BFC00DFFF0B4B1C700B4B68461B68984702B0A1
:107C0C0010BD022C06D1C3688DF800400193FFF71C
:107C1C00CFFFF0E7002CF2D103238DF80030EAE718
:107C2C0039A5002034A50020F0B51B4D064617469B
:107C3C009C460FCD89B06C460FC495E80F0084E8C4
:107C4C000F0073690693337C8DF81CC0003318BF8A
:107C5C0001238DF81430737C1048002B14BF0E23B5
:107C6C0000238DF81530F3680293B36803933368DF
:107C7C000193736800930A4B1F600A4B00221A7021
:107C8C006946094A00F086FA20B93368013301D0FD
:107C9C00FFF78EFF09B0F0BD94BE02002C870020C8
:107CAC0034A5002039A50020E57B0200054B1A788D
:107CBC002AB1054A1278027000201870704705200E
:107CCC00704700BF39A5002038A5002008B50B4926
:107CDC000B4A08700B480378D35C012243B1043083
:107CEC0001F04AF9112807D0002818BF032008BD5D
:107CFC000C3000F0B3FEF5E70420F8E73AA50020BD
:107D0C0060A500202C870020054B1B68082B01BFA9
:107D1C00044B1868B0FA80F0400918BF0020704777
:107D2C00300100103401001008B54FF080430022E0
:107D3C00C3F80C21C3F81021C3F838254FF080523A
:107D4C0003F54043D2F80414C3F82015D2F80814F4
:107D5C00C3F82415D2F80C14C3F82815D2F8101453
:107D6C00C3F82C15D2F81414C3F83015D2F8181423
:107D7C00C3F83415D2F81C14C3F84015D2F82014EB
:107D8C00C3F84415D2F82414C3F84815D2F82814B3
:107D9C00C3F84C15D2F82C14C3F85015D2F8301483
:107DAC00C3F85415D2F83414C3F86015D2F838144B
:107DBC00C3F86415D2F83C14C3F86815D2F8401413
:107DCC00C3F86C15D2F84424C3F87025FFF79CFF58
:107DDC0010B1384B384A1A60FFF796FF18B1374B81
:107DEC00FB22C3F81825FFF78FFF48B13449354BF8
:107DFC000A681B6822F00F0203F00F0313430B6099
:107E0C00FFF782FF18B1304B4FF400721A604FF03D
:107E1C008043D3F80024D20744BF6FF00102C3F8AB
:107E2C0000242A4AD2F8883043F47003C2F8883010
:107E3C00BFF34F8FBFF36F8F4FF01023D3F8002297
:107E4C00002A03DBD3F80432002B2FDA204B01225B
:107E5C00C3F80425D3F80024002AFBD04FF01022DD
:107E6C001221C2F80012D3F80024002AFBD04FF0E4
:107E7C0010231222C3F80422154B1A46D3F800140F
:107E8C000029FBD00021C3F80415D2F80034002BD4
:107E9C00FBD0BFF34F8F0D490E4BCA6802F4E06262
:107EAC001343CB60BFF34F8F00BFFDE70A4B0B4A68
:107EBC001A6008BD8C5600404881030000F0004059
:107ECC00E40E0040580200104096024000ED00E025
:107EDC0000E001400400FA05408700200090D00328
:107EEC00074B185C1F288ABF064B4FF0A04300F0CD
:107EFC001F00D3F8043523FA00F000F0010070479E
:107F0C00B8BE020000030050074B1B5C1F2B86BF42
:107F1C0003F01F0305494FF0A041012202FA03F3BD
:107F2C00C1F80835704700BFB8BE0200000300500E
:107F3C00074B1B5C1F2B86BF03F01F0305494FF03B
:107F4C00A041012202FA03F3C1F80C35704700BFBF
:107F5C00B8BE02000003005008B50020FFF7E8FF90
:107F6C000120FFF7E5FF0220FFF7E2FF0320BDE849
:107F7C000840FFF7DDBF08B50020FFF7C5FF012063
:107F8C00FFF7C2FF0220FFF7BFFF0320BDE8084048
:107F9C00FFF7BABF0A4B185C1F288ABF094B4FF07A
:107FAC00A04300F01F00D3F804250121814021EAF1
:107FBC0002000A40C3F80805C3F80C25704700BF3F
:107FCC00B8BE020000030050014B185C704700BFA4
:107FDC00B4BE0200C20710B504460CD54FF0A04346
:107FEC000322C3F83427C3F83827C3F83C27C3F857
:107FFC004027FFF7B1FFA3070AD54FF0A0430C228F
:10800C00C3F82C27C3F83027C3F86027C3F86427BC
:10801C0010BD000038B5074C051E04F1080318BF4D
:10802C001C4623682BB11A6822605B682846984767
:10803C00F7E738BD44A5002020B9054B01225A7042
:10804C00FFF7E8BF012802D1014A9070F8E77047AA
:10805C003CA5002020B9034B01225A70FFF7DABF70
:10806C00704700BF3CA5002038B50B4C237883B972
:10807C000A486360A3602361E36000F0C7F805461B
:10808C0002F08EFF08B900F0CDF8012323702846CA
:10809C0038BD8525FBE700BF3CA5002045800200CC
:1080AC0037B50B4C00230DF107008DF80730FFF7A7
:1080BC0095F9E368013BE360E56815B900F0C4F895
:1080CC00A5709DF80700FFF7ADF903B030BD00BFF8
:1080DC003CA50020012813B509D018B103281CD0E9
:1080EC0002B010BD0F4B0122C3F88020F8E70E4CF4
:1080FC0000230DF107008DF80730FFF76FF9237897
:10810C000BB9FFF7B1FFE3689DF807000133E3609B
:10811C000123A370FFF786F9E2E700F083F8FFF77D
:10812C00BFFFDDE700E100E03CA500201FB50378B0
:10813C008DF800304368019383688DF80830C3686C
:10814C000393054A054B684653F8213052F8211029
:10815C00984705B05DF804FB50A5002058A50020F9
:10816C001FB503788DF800304368019383688DF850
:10817C000830C3680393054A054B684653F8213011
:10818C0052F82110984705B05DF804FB50A500206B
:10819C0058A50020F0B5184B0778DFF86CE043F8D1
:1081AC002720164B16460A6943F827204B7F0EF8FA
:1081BC0007300C4684460FCC89B06D460FC594E849
:1081CC000F0085E80F001EF80730049753B1002EFE
:1081DC000B4A694608BF32460CF1040000F09AFDC8
:1081EC0009B0F0BD002E074A694608BF32460CF1B3
:1081FC000C0000F009FBF3E758A5002050A5002067
:10820C00398102006D81020060A50020044A1379B7
:10821C0023B9012110609180184670478520704762
:10822C0064A50020074B1A68D2075FBFC02283F8F1
:10823C00002301221A604FF080430122C3F8182555
:10824C00704700BF00E100E0044B01221A604FF0C0
:10825C008042D2F81834DB03FBD470470C0000408A
:10826C00154B07B51A687AB100221A601B68009387
:10827C00009B4FF080430122C3F808230F4B587921
:10828C0010B95A711B6898470D4B1A6882B10022BD
:10829C001A601B680193019B4FF080430222C3F8C4
:1082AC000823064B1B68012003B05DF804EB18474C
:1082BC0003B05DF804FB00BF0001004064A5002082
:1082CC000401004000F1804000F5C040002382B062
:1082DC00036003680193019B02B0704703681F2B76
:1082EC0083BF03F01F03036001484FF0A0407047A9
:1082FC000003005007B5019001A8FFF7EFFF019BA9
:10830C0000EB8300D0F8002722F44032C0F800279D
:10831C00D0F8003743EA0143C0F8003703B05DF8EA
:10832C0004FB000073B5224C2518064695F9302045
:10833C00072A19DD224492F858309B09032B0FD1E0
:10834C00019001A8FFF7CAFF019AD0F81035D3406D
:10835C00DB0707D402213046FFF7CCFF02B070BD1B
:10836C00012BF7D00321F6E7D3B2072BF6D89300F5
:10837C0003F1804303F5C043D3F8100540F001002E
:10838C00C3F8100502F14000800080B2FFF79AFF9D
:10839C000029E3D095F9303054F82330002BDDD090
:1083AC00012303FA02F2034BC3F80423D6E700BF00
:1083BC006CA50020006000400E4B034493F9302064
:1083CC00072A02DD0021FFF795BFD3B2072B10D887
:1083DC00930003F1804303F5C043D3F8101521F04B
:1083EC000101C3F81015012303FA02F2024BC3F882
:1083FC00082370476CA50020006000402DE9F04F69
:10840C00002489B0CDE90244624D4FF48072012101
:10841C0002F1804303F5C04390B21B68012B06D1D7
:10842C00D5F804330B4202D0FFF74CFF0C43043257
:10843C00B2F5907F4FEA4101EAD1574B1B68012BF3
:10844C000ED14FF4BE70FFF73DFF4FF0A04344F048
:10845C000044D3F810350293504BD3F810350393E6
:10846C0014F0FF0F1AD04E4F00250126344210D0C5
:10847C00AB0003F1804303F5C043D3F81005D3F8E8
:10848C00101557F8253023B1C1F30141C0F3052075
:10849C0098470135082D4FEA4606E7D1002C75DACE
:1084AC000DF1100800230493C8F804304FF0FF338B
:1084BC00CDE90633DFF8E8A0DFF8E89000273D4669
:1084CC0019F9014B631C48D0E4B2012324F0C00617
:1084DC0004F0070203FA02F2F00808AB191811F8BD
:1084EC00083C134239D00AEB0603A40993F9303047
:1084FC005AF823B0BBF1000F08D1032C2DD118F87A
:10850C0000C04CEA020C08F800C001E0032CF6D0C5
:10851C0001A80196FFF7E2FE019B11F8181C03F568
:10852C00E07C114250F82C00C0F3014005D0022829
:10853C0013D1032C0BD1214604E003280DD1032CBD
:10854C0005D102213046FFF7D5FE0135EDB2BBF166
:10855C00000F02D021463046D8470137042FAFD147
:10856C00A5B14FF0A0430299D3F8102503F5407341
:10857C009142D3F8103502D10399994206D0029258
:10858C000393049A059B0692079395E709B0BDE8FF
:10859C00F08F00BF006000407C6100400003005081
:1085AC006CA50020CCA50020014B1B68184700BF10
:1085BC00D8A500200E4B984237B50D4602D00020AE
:1085CC0003B030BD00230DF107008DF80730FEF726
:1085DC0005FF084B1C7914B901221D601A719DF816
:1085EC000700FEF71FFF002CE9D01120E8E700BFC1
:1085FC0000200040D8A50020034B984201BF034B3C
:10860C0000221A601A71704700200040D8A5002083
:10861C000023435082B043580193019B02B0704732
:10862C000A4610B54FF48E71FFF7F2FF136A91688A
:10863C00C95C136A01331362C0F81C1510BD0246E5
:10864C0008B54FF492710068FFF7E2FF4FF48471A4
:10865C001068FFF7DDFF136801221A6008BD8B69F3
:10866C000A4610B54FF4847123B9FFF7D1FFD0F847
:10867C00183510BDFFF7CCFF536AD168D0F8180538
:10868C00C854536A01335362F3E700001FB501234A
:10869C008DF80030044BCDE90110D3E90012684687
:1086AC00904705B05DF804FBE0A5002030B54C4ABE
:1086BC00D2F8043313F4007F85B015464FD0D2F8AE
:1086CC002431002B4BD04FF492711046FFF7A0FFD2
:1086DC004FF40173C2F80833424B93F8291009B9CF
:1086EC00012151603E4902228DF80020D1F88024EE
:1086FC00C1F8802403929A690292DA6801920022EE
:10870C00C3E906226846D3E9001290473448D0F8F2
:10871C001C315BB133490A6A4B699A420A464BD207
:10872C0091F82830002B47D1FFF77AFF2C4AD2F86A
:10873C00443193B14FF4A2711046FFF769FF294BF6
:10874C0093F8291009B1012111609A692AB100220C
:10875C009A61586AD968FFF799FF05B030BDD5F812
:10876C0004335B07D2D5D5F80831002BCED01D4C85
:10877C001B482146FFF773FF636AA2699A4223469E
:10878C00C4D1E269E1684AB12369E3600023606AFD
:10879C00A261E3616362FFF779FFB7E794F82920E0
:1087AC000AB901226A600E4A4FF40170C2F808033C
:1087BC0000229A61586AEEE74FF48E710848FFF771
:1087CC0027FF51690029B1D00023029191688DF8DF
:1087DC000030019153616846D2E900139847A5E730
:1087EC0000200040E0A500201F2886BF00F01F00DD
:1087FC00044B4FF0A04300F5E070022243F8202018
:10880C00704700BF000300502DE9F843624F047914
:10881C0091462C2202FB0472064692F82A200D4641
:10882C00002A40F0B3805D490068FFF7C3FE804624
:10883C00002840F0AE8029684A1C10D01F2987BF41
:10884C0001F01F03564A0B464FF0A04201209840FE
:10885C0003F5E073C2F80805032042F823006868AA
:10886C00431C0DD01F288BBF00F01F0303464C4A3E
:10887C004FF0A04203F5E0734FF0000C42F823C018
:10888C003368AA6995F814C0C3F824256A7DBCF135
:10889C00010F4CEA0202C3F86C25C3F81405C3F8A7
:1088AC000C152BD1A968481C0DD01F298BBF01F0CA
:1088BC001F020A463A484FF0A04002F5E0724FF012
:1088CC00000C40F822C0E868421C13D01F2887BF58
:1088DC0000F01F0C324A84464FF0A0424FF0010EBC
:1088EC000EFA0CFE0CF5E07CC2F808E54FF0030E16
:1088FC0042F82CE0C3F80805C3F810152C23634389
:10890C00FA18C2F804902A69FA50B9F1000F2AD06B
:10891C004FF48E7130682D7FFFF77AFE30684FF47C
:10892C00A271FFF775FE32681E4BC2F80433120BAE
:10893C0051B20029A8BF01F160404FEA4513BABFFC
:10894C00194802F00F0500F56140DBB2B4BF435586
:10895C0080F8003302F01F02012303FA02F24909E6
:10896C00124B43F8212033680422C3F800252C2332
:10897C0003FB04730022C3E9062283F829205A6101
:10898C00012283F82A204046BDE8F8834FF00808FE
:10899C00F9E74FF01108F6E7E0A50020B9860200D0
:1089AC00000300508000020014ED00E000E100E044
:1089BC002DE9F04103680479254D0022C3F8002508
:1089CC002C2202FB04520646526872B1214AC3F8AB
:1089DC000823190B4AB20120520901F01F0100FAB9
:1089EC0001F120321C4840F82210D3F80C05D3F8C2
:1089FC001485D3F80815D3F810754FF0FF32904258
:108A0C00C3F81425C3F80C25C3F80825C3F81025A2
:108A1C0001D0FFF7E9FEB8F1FF3F02D04046FFF767
:108A2C00E3FE7A1C02D03846FFF7DEFE4B1C02D068
:108A3C000846FFF7D9FE3068FFF7DEFD2C2303FB59
:108A4C000454002384F82A306360BDE8F08100BF31
:108A5C00E0A500208402020000E100E02DE9F047CF
:108A6C00214F06794FF02C0909FB06748046656985
:108A7C00002D37D16261A16025624FF48E710068C0
:108A8C0084F82850FFF7C4FDD8F800000123836058
:108A9C002146FFF7C5FD6368A14693B9D8F800A03D
:108AAC00226A63699A4212D3D8F80030D3F81C2199
:108ABC00002AFBD00122DA602C2303FB067600236C
:108ACC0073612846BDE8F08794F8283043B9DAF88A
:108ADC001C31002BF8D049465046FFF7A1FDDFE7CB
:108AEC000F25E9E71125ECE7E0A500202DE9F84377
:108AFC00394E05792C2303FB056307465C6824B1CA
:108B0C0003684FF40170C3F808032C2303FB0563BF
:108B1C00986950B1D86900283ED024B13B684FF415
:108B2C000172C3F80423112433E09A61D9605862AE
:108B3C00D8612C2303FB056393F829301BB910B9BA
:108B4C003846FFF77CFD4FF02C0909FB05683868A7
:108B5C00D8F80430002B34D14FF4A271FFF758FD34
:108B6C00C1463868D0F82431D0F80821D0F84441F7
:108B7C00B2B90CB9002BF4D02C2202FB05650022F3
:108B8C00AA6123BB2CBB95F829103B680122B1B11B
:108B9C001A602046BDE8F8831961DA610120C8E744
:108BAC00002BE9D1002CE7D14946FFF758FDD8F846
:108BBC002430D8F818209A42D3D82346DCE75A60E0
:108BCC00E7E74FF40173C0F804330024E1E7032412
:108BDC00DFE70F24DDE700BFE0A5002000234350B2
:108BEC0082B043580193019B02B070471FB501231B
:108BFC008DF80030044BCDE90110D3E90012684622
:108C0C00904705B05DF804FB0CA600207FB5374AF1
:108C1C00D2F82461002E48D010464FF49271FFF721
:108C2C00DDFF02238DF80030D2F88034C2F8803496
:108C3C000393D2F83C3502932D4BDA680192002253
:108C4C00C3E906226846D3E900129047274AD2F8B6
:108C5C0044317BB14FF4A2711046FFF7BFFF244B98
:108C6C00996939B10021C3E90611D968D2F83C05DC
:108C7C00FFF7BCFF1D4AD2F82031A3B14FF490711D
:108C8C001046FFF7ABFF1A4B596961B1D2F84C157E
:108C9C000291002299688DF8002001915A61684672
:108CAC00D3E90012904704B070BDD2F81031002BFC
:108CBC00CCD04FF488711046FFF790FF0C4BD2F8D4
:108CCC003C0599698842C1D1DC69D96864B1D2F894
:108CDC00005225F02005C2F800521A699C61DA6036
:108CEC00DE61FFF783FFB1E79C61FAE700200040EB
:108CFC000CA600201F2886BF00F01F00044B4FF06D
:108D0C00A04300F5E070022243F82020704700BF1A
:108D1C00000300502DE9F843664F06799146242252
:108D2C0002FB0672044692F820200D46002A40F001
:108D3C00BB8061490068FFF73DFC8046002840F08D
:108D4C00B6802868421C10D01F2887BF00F01F0374
:108D5C005A4A03464FF0A0420121994003F5E073B3
:108D6C00C2F80815032142F8231069684B1C0DD07A
:108D7C001F298BBF01F01F030B46504A4FF0A04236
:108D8C0003F5E0734FF0000C42F823C02368AA6986
:108D9C0095F814C0C3F824256A7DBCF1010F4CEA88
:108DAC000202C3F86C25C3F80C05C3F814152BD1BB
:108DBC00A968481C0DD01F298BBF01F01F020A4661
:108DCC003E484FF0A04002F5E0724FF0000C40F826
:108DDC0022C0E868421C13D01F2887BF00F01F0C6C
:108DEC00364A84464FF0A0424FF0010E0EFA0CFEAC
:108DFC000CF5E07CC2F808E54FF0030E42F82CE0CD
:108E0C00C3F80805C3F8101524237343FA18C2F8E5
:108E1C0004902A69FA50B9F1000F34D04FF48871DC
:108E2C0020682D7FFFF7DAFE4FF490712068FFF772
:108E3C00D5FE4FF492712068FFF7D0FE20684FF4F6
:108E4C00A271FFF7CBFE22681D4BC2F80433120B44
:108E5C0051B20029A8BF01F160404FEA4513BABFD7
:108E6C00184802F00F0500F56140DBB2B4BF435562
:108E7C0080F8003302F01F02012303FA02F24909C1
:108E8C00114B43F8212023680822C3F80025242322
:108E9C0003FB06730022C3E906225A61012283F800
:108EAC0020204046BDE8F8834FF00808F9E74FF062
:108EBC001108F6E70CA60020198C020000030050E4
:108ECC001003020014ED00E000E100E02DE9F04198
:108EDC0003680479254D0022C3F80025242202FBE7
:108EEC0004520646526872B1214AC3F80823190B82
:108EFC004AB20120520901F01F0100FA01F120329F
:108F0C001C4840F82210D3F80C05D3F81485D3F87C
:108F1C000815D3F810754FF0FF329042C3F80C25AA
:108F2C00C3F81425C3F80825C3F8102501D0FFF7A2
:108F3C00E1FEB8F1FF3F02D04046FFF7DBFE7A1CA2
:108F4C0002D03846FFF7D6FE4B1C02D00846FFF77E
:108F5C00D1FE3068FFF750FB242303FB045400239D
:108F6C0084F820306360BDE8F08100BF0CA60020BF
:108F7C001003020000E100E001F06043B3F1005F78
:108F8C002DE9F041074632D11B4B0679242505FB10
:108F9C00063598466C6964BB6A61A96000684FF439
:108FAC009071FFF71BFE4FF4AC713868FFF716FE9B
:108FBC003B686A69A968C3F84415C3F848250122BF
:108FCC009A606A6862B9D3F82021D3F8584152B933
:108FDC00002CF8D00F24242303FB06860023736196
:108FEC002046BDE8F081002C18BF0F24F3E71024B5
:108FFC00F6E71124F4E700BF0CA60020F8B501F049
:10900C006043B3F1005F04460F465ED10379304DE7
:10901C00242101FB0351486820B121684FF40476E8
:10902C00C1F80863242101FB03539E6956B1D96929
:10903C00002939D020B123684FF40472C3F80423FB
:10904C00112030E09A61DF60DE614FF48871206896
:10905C00FFF7C4FD4FF4A2712068FFF7BFFD236832
:10906C00C3F83475C3F8382516BB01221A60217970
:10907C00242202FB015252680ABBD3F81041D3F8E8
:10908C004421D3F82401144302D10028F5D0224600
:10909C00242303FB01550023984218BF03209A4256
:1090AC00AB6118BF0F20F8BD1F61DA610126CCE758
:1090BC00D3F8002242F02002C3F80022D7E74FF485
:1090CC000472C3F804230020EDE71020EBE700BF87
:1090DC000CA6002008B5094B1B7853B10020FEF7F5
:1090EC0027FF0120FEF724FF0320BDE80840FEF710
:1090FC001FBFBDE80840FEF72FBF00BF30A6002001
:10910C00F8B57B4C237805461BB100232370FFF781
:10911C00E1FF172D00F28880DFE805F00C171743EC
:10912C0054657680888D888D959A9A9A9A9AC4C936
:10913C00D1D9E4E4FFF7CEFF6E48FEF73FF96E4B52
:10914C00002204461A702046F8BD0020FEF7C8FE27
:10915C00F8B10020FEF7ECFE022D0CBF4FF4E161DC
:10916C004FF47A61644B1D704FF400404FF4FA7465
:10917C000025E0FB01454FF47A7200232046294676
:10918C0002F09AF8002201465A48BDE8F840FEF772
:10919C00CFB8FEF7B9FE022D0CBFC8214FF4C87131
:1091AC00E0E70020FEF79CFE40B10020FEF7C0FE79
:1091BC004FF44871504B03221A70D5E7FEF7A4FE0A
:1091CC00C821F7E70020FEF78BFE38B10020FEF730
:1091DC00AFFE4FF47A61484B0422EDE7FEF794FEA4
:1091EC004FF4C871F7E70020FEF77AFE48B1002073
:1091FC00FEF79EFE404B05221A7041F69A11002292
:10920C00C2E7FEF781FEF5E70020FEF7C3FE3A4BFE
:10921C0006221A70002240F6CD41B5E70020FEF779
:10922C0073FE354B07221A7000248CE70120207046
:10923C00FEF7B0FEEEE701202070FEF7ABFE002239
:10924C004FF48041A0E7FEF796FE2B4B0C22EAE789
:10925C002A482B4EFEF7B2F8D5F1110504461CD066
:10926C00D8B9012D13D0C8235D434FF400474FF4F8
:10927C00FA7000214FF47A720023C7FB050102F04B
:10928C001BF8224601461D48FEF752F80446022000
:10929C00FEF73AFE0123337055E70220FEF748FE35
:1092AC000023F8E7FFF716FF134B1222BBE7FFF77B
:1092BC0011FF0020FEF728FE0F4B1322B3E7FFF738
:1092CC0009FF0120FEF720FE0B4B1422ABE7FFF742
:1092DC0001FF0020FEF718FE0120FEF715FE064BDD
:1092EC001522A0E7FEF747FE034B1D709CE700BF5D
:1092FC0084A6002054A6002085A6002034A60020B9
:10930C0030A60020002910B514BF03240024FEF75A
:10931C005BFE1F288ABF0A4B4FF0A04300F01F00D2
:10932C0003EB8000D0F8002722F44032C0F800276D
:10933C00D0F8003743EA0443C0F80037002010BDD2
:10934C0000030050044B1B6813F0010301D0FFF71E
:10935C00D7BE1846704700BF80A60020032813D83C
:10936C00012A0BD1012908D100F10E02D2B200EB77
:10937C0040000C4B1A540020704700220129F6D0F3
:10938C004BB24BB1022901D007207047054B00EBC3
:10939C00400018444270EEE7024900EB40000844DC
:1093AC008270E8E774A60020032802D80121FFF799
:1093BC00A9BF0620704708B5012202210020FFF743
:1093CC00CDFF08B1072810D1072202210120FFF799
:1093DC00C5FF08B1072808D100210A220846FFF76B
:1093EC00BDFF10B1072808BF002008BD0388102B53
:1093FC0010B502D0112B1ED010BD1A4C2168B1B97A
:10940C0001220846FFF7AAFF08B1072824D107223A
:10941C0002210120FFF7A2FF08B107281CD104226A
:10942C0002210020FFF79AFF08B1072814D1236806
:10943C0001332360E0E70B4A1368013B1360002BF8
:10944C00DAD1FFF7B8FF0028D6D0074B1B68002BEA
:10945C00D2D0BDE810401847034B1B68002BE6D058
:10946C009847E4E78CA6002088A6002008B50020C9
:10947C00FFF79AFF08B1062806D10120FFF794FFE9
:10948C0010B1062808BF002008BD75DF704776DFD5
:10949C0070477FDF70478FDF704700000146034B3A
:1094AC00408803EB001001F025BB00BFE4A70020AF
:1094BC0008B50021074800F0D7FF08B1FDF7B0FC54
:1094CC00F721044800F0EBFF18B1BDE80840FDF7A8
:1094DC00A7BC08BD98A7002008B50B480B4B0C4A3D
:1094EC000C49C01AC008000440F00300FDF704FB4F
:1094FC00094801F0A3F908B1FDF792FC0020BDE882
:10950C000840FEF701BD00BF54B702002CB70200A3
:10951C002FC0020050C0020064A8002003881F2B3B
:10952C0013B5044676D03AD8112B56D0132B49D00C
:10953C00102B32D13D4B3E48A2883E49C01AC00880
:10954C00000440F00300FDF7D7FAA388072B02D9DB
:10955C000020FDF765FCA1883748002200EB0110C4
:10956C0001F0B4FB08B1FDF75BFCA188334B4FF461
:10957C00337000FB013000F0D9FD112802D008B186
:10958C00FDF74EFC0120FEF7BFFC00F013FC082891
:10959C004FF0000011D1FEF7CBFC02B010BD3B2BFD
:1095AC003ED0562B3CD0212BF7D1002301A980882B
:1095BC00ADF80430FFF76FFF0AE0FEF7A5FCFFF7EC
:1095CC008BFFEAE700231A4685218088FFF761FFAD
:1095DC000028E2D0FDF724FCDFE7144B1448A288E6
:1095EC001749C01AC0080004237A40F00300FDF7A5
:1095FC008CFA00F0DFFB38B9FDF7F8FB08B1FDF78A
:10960C000FFC0120FEF794FCFFF766FF0020FEF72D
:10961C007BFCC2E700F108018088FFF736FFD7E733
:10962C001321A088FFF733FFD2E700BF2CB702004D
:10963C0054B70200F8BE0200E4A7002046870020C1
:10964C002CBF02000378062B03D1406808B1FDF74C
:10965C00E7BB70470378012B70B5044636D013B1C5
:10966C00022B24D070BD1D4C1D4D20882844FEF7C4
:10967C001DFB238801339BB21D44238015F8012C5C
:10968C000A2A03D0174A12889A42EBD8144D164E68
:10969C0022882946304601F0AFFB082804D0132855
:1096AC00F6D008B1FDF7BCFB00232380DAE70F48A6
:1096BC000F4B1049C01AC008000440F00100FDF720
:1096CC0017FA6068BDE87040FDF7AABB0748084B65
:1096DC000949C01AC0080004EFE700BF84A70020A6
:1096EC0090A600204487002088A7002054B70200D1
:1096FC002CB7020073C00200A5C0020010B50446CE
:10970C000020FFF71FFE08B1FDF78AFB24B9FFF715
:10971C00ADFE08B1FDF784FB012010BD0B78012BC9
:10972C0010B5044617D10C4B0C484A880C49C01A8A
:10973C00C008000440F00300FDF7DEF9FDF740FB24
:10974C0008B1FDF76DFB204601F094FA18B1BDE8A5
:10975C001040FDF765BB10BD2CB7020054B70200DA
:10976C00FDBF02002DE9F8430B78012B06460D4690
:10977C0024D01BB1022B60D0BDE8F883364B374C9C
:10978C003749E41AE408240444F003042046FDF7A6
:10979C00AFF905F10E026988304601F06BFB08B198
:1097AC00FDF73EFB304601F005FB08B1FDF738FB39
:1097BC0020462C49BDE8F843FDF79AB9274C264BB7
:1097CC008E688F89DFF8A890E41AE408240444F02A
:1097DC0001040025BD421AD3F31913F8013C0D2BDB
:1097EC0026D0DFF890803A463146404601F004FB23
:1097FC0005460028C0D01128F5D002461A4920464B
:10980C00FDF77AF92846BDE8F843FDF709BB705D12
:10981C00FEF75CFA804648B11128F8D020462A465B
:10982C004946FDF769F94046FDF7FAFA0135D1E7EB
:10983C000A20FEF74BFA1128D2E7074B07480B49D1
:10984C00C01AC008000440F00300FDF751F9BDE850
:10985C00F843FFF741BE00BF2CB7020054B702001B
:10986C005EBF020072BF0200C6BF0200EFBF020063
:10987C00A0BF020088A7002000B54FF400418BB0B8
:10988C000020FCF771FF08B1FDF7CAFAFCF796FE51
:10989C00FDF71EFD08B1FDF7C3FA0120FEF79AFB98
:1098AC00FEF702F908B1FDF7BBFA01F03BFB08B17A
:1098BC00FDF7B6FA002304A90120049301F0C0FBC4
:1098CC0008B1FDF7ADFA04A801F08CFC08B1FDF766
:1098DC00A7FA384DFFF7ECFD0FCD04AC0FC495E89B
:1098EC000300354B354A00934FF4807384E8030032
:1098FC00CDE902230193324A0723694604A8FEF7F7
:10990C0093F9304800F0D8FB08B1FDF789FA2E4BDB
:10991C002E4D0493002404A9284601F043F908B104
:10992C00FDF77EFA0134082C05F11005F3D100F097
:10993C003FFAFFF7BDFD264B2648049304A901F01E
:10994C00D5F908B1FDF76CFA102200210DEB0200DD
:10995C0001F0DBFD0123204A20488DF8143004A9C6
:10996C008DF81C3000F014FF08B1FDF759FA1C4AB1
:10997C001A48002100F0ADFE08B1FDF751FA0022A3
:10998C000121164800F0E4FE08B1FDF749FA154B29
:10999C0015481649C01AC008000440F00300FDF732
:1099AC00A7F8FFF799FDFCF739FF0028FBD1FEF76C
:1099BC0091F8F8E7E0BE0200D4A80020D4A900205A
:1099CC0061960200A994020029970200E4A70020E6
:1099DC007197020088A700205196020064A800200D
:1099EC002FC002002CB7020054B7020035C0020091
:1099FC000369C1688B429DBF8268D21802F1FF32A5
:109A0C0003F1FF3394BF501A581A70472DE9F041F7
:109A1C00D0E9027405463E1B4068964220448846B5
:109A2C00144404D901F048FDEC60BDE8F0813246E5
:109A3C00E41B01F041FD224608EB06016868F1E7E2
:109A4C002DE9F843C5680646894617464FF00008CD
:109A5C003469B3687068A54228BFE418013C621BE6
:109A6C005C1BBC4228BF3C46944228BF1446494666
:109A7C002844224601F020FDB3682544AB4208BFC0
:109A8C0000253F1BA044A144F560E1D14046BDE850
:109A9C00F883000010B5114C114AA2610223C4E9ED
:109AAC000433104BE361A2644FF400730E4A23623B
:109ABC00E264002310220D49A362E01D6362E3629D
:109ACC00A3656365E365226501F052FD08492046F4
:109ADC0001F04EFD2023A37110BD00BFD4AA0020BD
:109AEC00D1C002005CAB00204CAB0020DAC00200FD
:109AFC00DEC00200F8B5184C182300FB033503FB3D
:109B0C0000402544C46A012C0F46164611D024B1DE
:109B1C00022C1BD000242046F8BD2846FFF768FF16
:109B2C00B042F8D3324639462846FFF76FFF344629
:109B3C00F1E72846FFF75CFF8642344628BF04460F
:109B4C00224639462846FFF761FFE4E72846BDE880
:109B5C00F840FFF775BF00BFD4AA0020FFF79ABFEB
:109B6C0064DF704770B5C0B14AB116880024B442A6
:109B7C0003D305196D789D4208D0A14201D800206D
:109B8C000BE0055D01352C44A4B2F0E7A142F6D9F7
:109B9C00A31C1380005D013880B270BDF7B50023A3
:109BAC000746ADF80630144612B9002003B0F0BDDC
:109BBC0009230DF10602FFF7D5FFBDF80650064646
:109BCC00002DF2D00028F0D0204601F01AFDB04252
:109BDC000246EAD17919204601F033FCB0FA80F044
:109BEC004009E3E7F0B587B0002306460D46104662
:109BFC00ADF8063002AA10230DF105018DF80530E1
:109C0C00FFF7AEFF16B9002007B0F0BD0028FAD15F
:109C1C009DF80540042C2BD0102C2BD0022CF3D10A
:109C2C000323BDF806207AB90DF106022946304609
:109C3C00FFF798FFBDF806302BB923460DF106024D
:109C4C003046FFF78FFF0546BDF80670002FDAD0BF
:109C5C000024A542D7D9E0199DF8052002A930446B
:109C6C0001F0EFFB48B19DF805301C44A4B2F0E7BD
:109C7C000523D6E706240723D3E70120C4E7000019
:109C8C0078220021014801F040BC00BF5CAD0020EF
:109C9C0073B50191019C06466CB100252C462946F2
:109CAC0001A8FDF7E8FB18B106EB440301349D80D5
:109CBC000135142DF3D13046346002B070BD000074
:109CCC002DE9F04703888488112B8CB006463CD0D4
:109CDC001A2B3FD0102B17D1274DAB68DB430093C9
:109CEC0069686846FDF7F0FB009901A8FFF7D0FF03
:109CFC000DF108094FF00008019B984507D3132C70
:109D0C0013D90420FDF78CF80CB0BDE8F08739F8B6
:109D1C0002AB00270137514605EB8700FDF7A1FB8D
:109D2C001D2FF7D108F10108E6E721461348FDF78E
:109D3C008FFB21461248FDF78BFBF37B012BE3D005
:109D4C0010482146FDF784FBDEE70C482146FDF761
:109D5C0088FBD9E7057A0C482D09012D214606D937
:109D6C00FDF776FB022D21460848F0D0EAE7FDF717
:109D7C0078FB21460548EAE75CAD002064AD002085
:109D8C0060AD002068AD00206CAD002070AD0020EF
:109D9C0037B5002401902546214601A8FDF76BFB41
:109DAC0000B101350134142CF6D1284603B030BD76
:109DBC00FFF766BF07B5064BDA680192996801A8F0
:109DCC00FDF782FB0198FFF7E3FF03B05DF804FB9E
:109DDC005CAD00209BDF70479DDF70479EDF7047B6
:109DEC0030B50B4B19680B4B0022914201D100206E
:109DFC0009E09D788478A54206D11D880488A54287
:109E0C0002D1054B186830BD01320433EDE700BFB9
:109E1C00DCAD0020E4B00020D4AD002070B590F88B
:109E2C00C63216467622A0B002FB03000D46FFF7A1
:109E3C00D7FF044660B17C22002101A801F065FB2C
:109E4C0001238DF80430ADF80660029501A8A047F7
:109E5C0020B070BD2DE9F74F8B4690F8C6120192D9
:109E6C007623804601FB03000091FFF7B9FF814682
:109E7C0070B3194E3568052D2AD8184C0099019AE3
:109E8C004FEAC51A04EB0A07762303FB01817A809B
:109E9C00381D1A4601F010FBBBF1000F14BF002354
:109EAC00022304F80A300E4BC7F87C901A6801356F
:109EBC00954235601D460BD10027E36F204698472D
:109ECC002B6801379F4204F18004F6D300233360E2
:109EDC0003B0BDE8F08F00BFE0B00020E0AD002083
:109EEC00DCAD002037B590F8C53290F8C6220C4690
:109EFC00C3B1013B7621DBB25143122505FB0313A1
:109F0C0003445B8A01339BB2ADF80430762303FB28
:109F1C00020201A91389ADF806302046FFF75CFF59
:109F2C0003B030BD762303FB0203DB88ECE70000B3
:109F3C0070B54FF433720E460021044601F0E5FA79
:109F4C00114BA4F8CA6200251D60104B84F8C9524D
:109F5C001B6884F8C65284F8C5522360224601213E
:109F6C003046FFF737FF112806D020B9012384F8BB
:109F7C00C73284F8C80270BD012384F8C73284F854
:109F8C00C8322846F7E700BFE0B00020E4B000205C
:109F9C0070B5194A90F8C93212680133DBB293429A
:109FAC0004460D4680F8C9324FF0000621D290F8D5
:109FBC00C63280F8C5620133DBB2762113FB01F1A6
:109FCC0080F8C63242180D4850F8233063502846AA
:109FDC0001211671FFF7FEFE014648B184F8C762F5
:109FEC002A462046FFF71AFF054B03221A705D80A4
:109FFC0070BD80F8C762F7E7DCAD0020E4B000204C
:10A00C00E0AD00202DE9F34790F8C64290F8C55218
:10A01C00762314FB03F4071905EBC50397F804C06A
:10A02C0004EB43036E1C0A336645034413D000F162
:10A03C001C0A07F1220E0CF1FF384FF01209A24452
:10A04C00ECB2A4450BD9A8451C891AD13B89A34273
:10A05C0026D100231DE01B893889834205D10123B9
:10A06C000B70002002B0BDE8F0870133ADF804306E
:10A07C00ADF8060000230B70104601A9FFF7AEFEE9
:10A08C00F0E709FB05F301343EF80360B4420DD14F
:10A09C00534490F8C542013480F8C5420135CFE7EE
:10A0AC000134ADF80440ADF80630E3E7013EADF8FD
:10A0BC000440ADF80660DDE758B1074A0023136091
:10A0CC00064A01211170064A1360064A10601846B0
:10A0DC0070470E20704700BFDCAD0020D8AD0020CB
:10A0EC00E0B00020D4AD002010B5044680B10C4B7C
:10A0FC001B787BB1FFF774FE70B90A4A1368052B05
:10A10C000CD80949246841F823400133136010BD71
:10A11C000E20FCE70820FAE70020F8E70420F6E719
:10A12C00D8AD0020DCAD0020E4B0002050B1084ACE
:10A13C0012784AB1074A126832B190F8C7322BB97B
:10A14C00FFF7F6BE0E2070470820704711207047AD
:10A15C00D8AD0020DCAD00202DE9F7430C460546B8
:10A16C00C8B1C1B1974B1B78ABB10388302B35D03C
:10A17C0014D8112B00F0158194F8C8325BB12B88E0
:10A18C00303B1F2B07D8B4F8CA32A988994202D1A8
:10A19C002046FFF7CDFE03B0BDE8F083322B3FD055
:10A1AC00332BE9D18288B1F8CA329342E4D1C68804
:10A1BC0091F8C6C291F8C572002E00F0BC807621D1
:10A1CC0001FB0C4C7B1C9CF8041000268B428DF878
:10A1DC00076000F0E08084F8C5329DE08388B1F818
:10A1EC00CA229A42C8D1C6888EB991F8C632762155
:10A1FC0001FB03430169C3F8061020461146FFF723
:10A20C0071FE01460028B7D084F8C7624CE00021EB
:10A21C002046FFF71FFEA9882046FFF7B9FEABE7E3
:10A22C008288B1F8CA329A42A6D1C388002B6FD16A
:10A23C0091F8C662762316FB03F701EB0709837AC4
:10A24C0099F804603344062B38DC89F8043006EBAB
:10A25C00C60307EB430305F10C0C2344002299F8C9
:10A26C00040086420CF10A0C03F112033DD31223B5
:10A27C00013E03FB064694F8C632762202FB0343EA
:10A28C003E441B89728A9A4242D2062840D0A98841
:10A29C0084F8C5022046FFF725FE014600283FF44E
:10A2AC006BAF002384F8C732AA882046FFF7B6FDAF
:10A2BC00454B03221A70AA885A805DE7062389F859
:10A2CC000430424A424BA3EB02084FEAD8084FEA4B
:10A2DC00084848F00208CA5B3E494046FCF70CFCB3
:10A2EC003D494046FCF704FCB1E76046A3F1080188
:10A2FC0050F80AED43F808ECD0F804E043F804EC0D
:10A30C000089088101365A809A80DA801A81A6E782
:10A31C00002684F8C562AA880DF107012046FFF7D4
:10A32C0071FE014600287FF46FAF9DF80730002BBB
:10A33C003FF422AF32E0762303FB0CF1122303FB34
:10A34C000713B0F80AE023447645BFF438AFC1894F
:10A35C00A1F52451082908D8DFE801F014170507E6
:10A36C00070707071A0081899982998A39B1D98A16
:10A37C0029B1198B19B1598B00297FF420AF013603
:10A38C000630E1E78189D982EFE781891983ECE70F
:10A39C0081895983E9E701238DF80730AA880121C7
:10A3AC0036E78288B1F8CA329A427FF4E5AE0023D0
:10A3BC0081F8C73281F8C8324FF6FF73A1F8CA3260
:10A3CC00DAE600BFD8AD0020E0AD00202CB70200CB
:10A3DC005CB70200E5C002002BC1020090DF7047A1
:10A3EC00A5DF7047B5DF70477FB50023ADF80810C7
:10A3FC00ADF80A106A4602A9064603930093ADF81D
:10A40C000430FFF7EBFF054600B3124B124CE41A75
:10A41C00E408FDF7C3FB240444F001040346324670
:10A42C000E492046FCF771FBBDF80020BDF8023048
:10A43C0052EA030103D00A492046FCF766FBBDF83B
:10A44C0004201AB107492046FCF756FB284604B0F5
:10A45C0070BD00BF2CB7020084B7020091C102008E
:10A46C00DBC102001AC2020070B5B0B14FF0F71395
:10A47C000360FB238164037100F14001F72617256B
:10A48C0000221B24C68005818272C272037344733E
:10A49C0008308842F6D1002070BD0E20FCE730B1A8
:10A4AC00A1F11703E02B04D84180002070470E2047
:10A4BC007047072070470000F7B58588072D0C46BC
:10A4CC0017D80388232B4FEAC50700F0B88012D8A1
:10A4DC00102B28D0112B58D03C44A37A4BB1E188D7
:10A4EC002846FFF77DFF002840F0B0800123A072C2
:10A4FC00E37203B0F0BD3A2B52D0552B6DD0242B08
:10A50C00EAD1CB19027A5A738B6C002BE4D0002160
:10A51C00ADF804104DF67A21ADF80010ADF80250EC
:10A52C008DF8042087E0CE190B793373C37B012B94
:10A53C0013D0022B14D0F18833898B4205D22846D4
:10A54C00FFF74EFF70B90123F372317B737B8B42A3
:10A55C00C2D22846FFF748FFBEE70B88F380EAE734
:10A56C004B88FBE7112802D10123B372EDE7FDF70D
:10A57C0015FB3F4A3F4B40499B1ADB081B04024624
:10A58C0043F00100FCF7B8FADFE7CB19F722DA80C9
:10A59C0017221A8100225A8141F6FB329A819BE7DD
:10A5AC00CE194389F288934228BF1346172B8A6C25
:10A5BC0038BF1723338162B1F17A51B140F677215C
:10A5CC00ADF80010ADF80250ADF8043069462046E5
:10A5DC0090470023F372B3727EE7C388CE19172B12
:10A5EC00F18838BF17238B4228BF0B4633810023D9
:10A5FC00B3722846FFF7F6FE60B1FDF7CFFA1C4A9E
:10A60C001C4B1E499B1ADB081B04024643F001003D
:10A61C00FCF772FAF37A002B7FF45EAFA36C002B7D
:10A62C003FF45AAF40F67722ADF800203289ADF8EE
:10A63C000250ADF804206946204698474CE7CB19E8
:10A64C00017A1B7B994228BF194682E711283FF4F7
:10A65C0050AFFDF7A3FA064A064B07499B1ADB08D5
:10A66C001B04024643F00100FCF746FA41E700BF29
:10A67C002CB7020084B7020070C20200A1C2020013
:10A68C008ADF70478BDF70478CDF704770B590F8AE
:10A69C002A3086B004460D46CBB190F83460FFF7F3
:10A6AC00F1FF1422002101A800F02FFF334604F122
:10A6BC002C0204F13601A81CFFF7E6FF06238DF8E7
:10A6CC000430029018B1636C0BB101A8984706B026
:10A6DC0070BD70B516460546B0B3AAB319B10329BF
:10A6EC0023D0072070BD104600F08BFF0138C0B29C
:10A6FC001F282BD895F820400CB10420F2E73146E6
:10A70C00284600F057FF70B195F82000431C85F8DF
:10A71C00203005EB4015304600F073FF3146024601
:10A72C00284600F0C9FE0020DCE790F8260000283F
:10A73C00E3D16A8C33889A42F5D0012385F8263010
:10A74C003368C5F82230CDE70E20CBE70C20C9E7E3
:10A75C00A0B1CB0614D0002380F8213080F827302C
:10A76C00CB0744BF012380F821304B0744BF0123A2
:10A77C0080F8273080F82820002070470E20704782
:10A78C000720704790F83600C0F3C00070470000F7
:10A79C0038B50D460446002849D0426400212A22CF
:10A7AC0000F0B3FE95B32B7984F82A302B7B84F818
:10A7BC0034302B68D3B104F1360203F10C0153F899
:10A7CC00040B42F8040B8B42F9D11B881380AA6846
:10A7DC00B2B11068516804F12C0303C304F14803AF
:10A7EC00A3661F23A4F86C30002038BDE28EA3872B
:10A7FC0002F0E30242F48272E2860E4AA263E6E7BA
:10A80C000D494FF0C873C4E90B13E7E7E38E0A4A0E
:10A81C00A58703F0E30343F48273E386054BA3633C
:10A82C004FF0C873C4E90B2384F82A50D6E70E20E6
:10A83C00DBE700BFA00050000600180010B504466E
:10A84C0086B048B31422002101A800F05EFEFFF789
:10A85C0019FF2046FFF796FF30B1636C23B101223C
:10A86C008DF8042001A8984704F1680104F1360022
:10A87C00FFF706FF044630F008000BD0074B0848E2
:10A88C000849C01AC008000440F001002246FCF739
:10A89C0033F9204606B010BD0E20FBE72CB70200A2
:10A8AC0074B70200DDC202002DE9F04F05468FB0EF
:10A8BC0035F8083B1B2B81460C4600F0C68005D8AA
:10A8CC00102B00F0DA800FB0BDE8F08F1D2B17D0E5
:10A8DC00202BF8D11422002109A800F016FE626C7E
:10A8EC00002AF0D02868696805238DF824300AAB5B
:10A8FC0003C33634297A0D94197009A89047E2E7FE
:10A90C001422002109A800F000FE04F136032046B1
:10A91C000D93FFF737FF04F16803049378B102231A
:10A92C008DF8243009A8636C0A9598470499002087
:10A93C00FFF7A6FE29462046FFF7A8FEC3E794F8CA
:10A94C00283094F82160019394F827300293002E5C
:10A95C003CD094F82080B9F824A0274604EB481882
:10A96C00474521D1002637464FF00108029B002BAA
:10A97C004AD094F826200392B9F824200592039A21
:10A98C0094F8283008F1010804EB82025FFA88F889
:10A99C00A34606924FF0000A069A5A4519D13BB3CA
:10A9AC00039B534530D126E03A465146D9F8200056
:10A9BC00FFF7F4F8203706460028D1D09DF82C304C
:10A9CC0043F001038DF82C300127CDE73746B04614
:10A9DC00CCE70BF122020599D9F820000793FFF779
:10A9EC0001F9079B28B30AF1010A5FFA8AFA13BB33
:10A9FC00BAF1000F08D09DF82C30029E013743F0BD
:10AA0C000403FFB28DF82C30019B0A95B3B1B84505
:10AA1C0017D10023294620468DF82430FFF736FE47
:10AA2C00636C0BB109A8984704990020FFF728FE26
:10AA3C0049E7002BB4D10BF1040BADE70EB1019B30
:10AA4C00E8E703238DF82430EAE71422002109A853
:10AA5C0000F05BFD99F80820012A7FF434AF636C99
:10AA6C00002B3FF430AF042136348DF824100D94B4
:10AA7C008DF8282009A8984725E71422002109A859
:10AA8C0000F043FD07238DF82430B9F80430ADF8FD
:10AA9C002C3004F136030D93636C0A95002BE9D12D
:10AAAC0011E7A1DF7047A3DF704762DF704700003A
:10AABC0070B50D4B0D4D1B682C689C420ED00C498B
:10AACC0014236343CE18C85AB27842B9B188FFF741
:10AADC00E8FF18B9013404F007042C6070BD08338A
:10AAEC001944FFF7E0FFF4E7A0B100209CB100206F
:10AAFC00FCB000202DE9FF470B780246002B3DD11E
:10AB0C008C8841F22350844238D18C79107B84425A
:10AB1C0034D101208DF8040091F808804888BDF8E4
:10AB2C000C70BDF80A50BDF80840ADF806001E4682
:10AB3C009C46184641F2245941F2255A804520D8AA
:10AB4C00BCF1000F01D0ADF80C700EB1ADF80A508D
:10AB5C000BB1ADF8084011884FF6FF73994209D03C
:10AB6C0053683BB953882BB90298BDF80C30C2F826
:10AB7C000200D380936801A91046984704B0BDE841
:10AB8C00F087B1F80EE0CE4507D0D64502D1CF8A7A
:10AB9C004FF0010C01301231D0E70123CD8A0C8B20
:10ABAC001E46F7E7F0B5174B87B002AA04460E46CF
:10ABBC0003F1100C174618685968154603C508337D
:10ABCC0063452A46F7D1D4B1CEB13368BBB14FF649
:10ABDC00FF710022C4E90012A36004F10C01384695
:10ABEC00FFF763FF48B9237B8DF8063001A841F2CB
:10ABFC002353ADF80430FFF777FA07B0F0BD0E2001
:10AC0C00FBE700BF0AC302001FB50B4641B338B3C4
:10AC1C000288382A26D0392A0BD0112A20D18188D3
:10AC2C001A88914202BF4FF6FF710022C3E900124D
:10AC3C0016E0098882888A4212D1448999888C420C
:10AC4C000ED1C18901290BD10221ADF80620027C5D
:10AC5C008DF804108DF8082001A99A6818469047C1
:10AC6C0004B010BD0A8883889A42F9D1FFF720FFFF
:10AC7C00F6E7000038B508B305884FF6FF739D4220
:10AC8C001ED0104A448811680F484B1C03F0070370
:10AC9C00136014224A4383180221D981111D0144E7
:10ACAC005C8119610024012185529C8119721971F2
:10ACBC005C719970FFF7FCFE204638BD0E20FCE756
:10ACCC000820FAE7A0B10020FCB0002040B10180C0
:10ACDC0022B11368C0F802309388C38000207047FB
:10ACEC000E207047A3DF704762DF7047F0B5154B3D
:10ACFC0087B002AA04460E4603F1100C17461868DA
:10AD0C005968154603C5083363452A46F7D1BCB1CB
:10AD1C00B6B121463846FFF7E7FF78B923788DF8AE
:10AD2C0006300123ADF804304FF6FF7363803368AF
:10AD3C00E360A080208101A8FFF7D6F907B0F0BD31
:10AD4C000E20FBE724C302007FB503460846F9B189
:10AD5C00F3B14A884FF6FF718A4202D0998891422A
:10AD6C0016D11988112916D0392911D182887AB1B6
:10AD7C00598991420CD1C26852B101218DF804104D
:10AD8C0003F11001DB890391ADF8103001A9904754
:10AD9C0007B05DF804FB9B889342F9D1C368002B84
:10ADAC00F6D002228DF804204FF6FF72428001A9E2
:10ADBC009847EDE71FB50346D0B140884FF6FF72B8
:10ADCC00904217D0DB88ABB10122ADF80020ADF872
:10ADDC00063040F201124FF4003301A9ADF8042003
:10ADEC000293CDF80CD0FFF77DFF05B05DF804FBA6
:10ADFC000E20FAE70820F8E71FB5034680B3F42AC3
:10AE0C000CD9184B18481949C01AC008000440F056
:10AE1C000200FBF76DFE072004B010BD40884FF612
:10AE2C00FF74A0420BD10F4B0F481149C01AC00838
:10AE3C00000440F00200FBF75BFE0820ECE71B89E6
:10AE4C00ADF806304FF481740023039101A9ADF8DD
:10AE5C000440ADF80830ADF80A20FFF743FFDBE7FC
:10AE6C000E20D9E72CB702006CB7020034C30200E5
:10AE7C0046C3020048B141802AB15388C38013886D
:10AE8C00838093880381002070470E20704710DF69
:10AE9C007047000013B5044609496846FCF749FEA3
:10AEAC00019808B902B010BDD0E90031204698478E
:10AEBC0018B16846FCF747FEF2E71120F2E700BF35
:10AECC0070C3020013B5044607496846FCF731FE0F
:10AEDC00019B0BB902B010BD2046D3E9002190476D
:10AEEC006846FCF730FEF3E788C302000B4991F883
:10AEFC0016335A09EC231341DB0706D5084B9A6825
:10AF0C003AB94FF480030B60704742F20200FBF732
:10AF1C0087BF1A6842F480021A60704700E100E0B3
:10AF2C0018A50020F7B5194F3C7864BB184E0125C5
:10AF3C0020463570FFF7AEFF112821D02046FFF7D1
:10AF4C00C1FF144B8DF80340186801900DF10300FC
:10AF5C00FCF744FA104901A8FFF799FF0446B0FA30
:10AF6C0080F0400938709DF80300FCF75BFA3CB99F
:10AF7C000A4B34701C70FFF7B9FF2846FFF7A2FF8D
:10AF8C00204603B0F0BD0824FAE700BFA5B10020AD
:10AF9C00A4B100206BC30200496E0200A6B10020D0
:10AFAC00014B1878704700BFA5B1002007B50849C0
:10AFBC006846FCF7BEFD019B13B903B05DF804FBBA
:10AFCC00D3E9002090476846FCF7BDFDF3E700BFCE
:10AFDC007CC30200FFF7EABF60DF704769DF704790
:10AFEC0061DF704730B5114DADF5017D4FF4FA744A
:10AFFC000DF1020103A8ADF80240FFF7F1FF70B9A3
:10B00C00294601A8FCF795FD029B002BF0D003A864
:10B01C00D3E90021904701A8FCF795FDF4E705283A
:10B02C0001D0FBF7FDFE0DF5017D30BD0CC6020015
:10B03C00024B1B780BB1FFF7D5BF7047A7B10020AF
:10B04C0030B5054685B00C46002900F0B7805C4B46
:10B05C000B600C22002101A800F057FA08238DF890
:10B06C00063022688DF80450062301A92020ADF883
:10B07C000830FFF7B3FF60B1FCF790FD514A524B1B
:10B08C0052499B1ADB081B04024643F00100FBF7F4
:10B09C0033FD0C22002101A800F037FA00238DF8B3
:10B0AC00053022684FF4847301A94020ADF80630B6
:10B0BC00FFF794FF60B1FCF771FD424A424B4449E3
:10B0CC009B1ADB081B04024643F00100FBF714FD3E
:10B0DC000C22002101A800F018FAF72322688DF841
:10B0EC00045001A92320ADF80630FFF777FF60B1BB
:10B0FC00FCF754FD334A344B36499B1ADB081B04CE
:10B10C00024643F00100FBF7F7FC0C22002101A8DA
:10B11C0000F0FBF9022322688DF8043001A901200C
:10B12C00FFF75CFF60B1FCF739FD264A264B2A4934
:10B13C009B1ADB081B04024643F00100FBF7DCFC06
:10B14C000C22002101A800F0E0F94FF4B063226852
:10B15C00019301A9A120FFF741FF60B1FCF71EFD8F
:10B16C00184A194B1D499B1ADB081B04024643F075
:10B17C000100FBF7C1FC0C22002101A800F0C5F96D
:10B18C009DF8043022686FF3000301A9A0208DF80C
:10B19C000430FFF723FF034668B1FCF7FFFC094AB4
:10B1AC00094B0F499B1ADB081B04024643F00100B4
:10B1BC00FBF7A2FC0023184605B030BD0E23FAE7BE
:10B1CC00088700202CB7020094B702009CC3020031
:10B1DC00E2C302002EC4020075C40200C1C4020006
:10B1EC0012C50200F8B506460768FFF7F5FE33688E
:10B1FC00BB4205461DD9194B194C1A49E41AE408EF
:10B20C00240444F002042046FBF772FC3368164910
:10B21C003A462046FBF779FC4FF080533268D3F85E
:10B22C000C3112499B0203F100539A1A2046FBF78A
:10B23C0063FC25B90E4B01221A702846F8BD28462E
:10B24C00FCF7ACFC054A064B0A499B1ADB081B04AD
:10B25C00024643F00100FBF74FFCEEE72CB702006F
:10B26C0094B7020065C5020094C50200C5C5020072
:10B27C00A7B10020EFC502004BDF70471FB50D4C86
:10B28C0001A8FFF7F9FF70B9214602A8FCF751FCA1
:10B29C00039B002BF4D00198D3E90021904702A81E
:10B2AC00FCF751FCF4E7052801D0FBF7B9FD04B01D
:10B2BC0010BD00BF24C6020053EA020C61D02DE978
:10B2CC00F04BB3FA83F51E0007BFB2FA82F502FA0F
:10B2DC0005F403FA05F41646C5F120051EBF22FA43
:10B2EC0005F73C43203556EA044C4FEA144418BF8A
:10B2FC000134A3464FF00009C846904271EB030C91
:10B30C0039D3094207BFB0FA80F700FA07F6B1FA51
:10B31C0081F701FA07F6C7F120071EBF20FA07FCD8
:10B32C0046EA0C062037B6FBFBFC7F1B103F07F0F0
:10B33C001F04C4F120060CFA04F42CFA06F644BFE0
:10B34C0034460026202FA4BF2646002454EA060CBF
:10B35C0008BF012418EB040849EB0609A4FB027C86
:10B36C00C01B06FB02CC04FB03CC71EB0C0190421E
:10B37C0071EB030CC5D20B46024649464046BDE86C
:10B38C00F08BB2FBF3F200007F2805D8034B185C5E
:10B39C00034B5B5C18407047002070473CC60200B2
:10B3AC00BCC60200A0F16103192B98BF203870476E
:10B3BC00A0F14103192B98BF203070477F2805D886
:10B3CC00034B185C034B5B5C1840704700207047C4
:10B3DC003CC60200BCC60200A0F16103192B98BF49
:10B3EC0020387047A0F14103192B98BF20307047CB
:10B3FC007F299ABF017001206FF02E0070475AB15F
:10B40C000A787F2A0AD800B10260002119605960BD
:10B41C00501A18BF01207047002070476FF02E00A3
:10B42C007047000008B5034B5B689B681B68984726
:10B43C0008BD00BFA89D002008B50921FFF7F2FF49
:10B44C0008BD002A36D070B413460F2A1AD940EA28
:10B45C00010212F0030F01D05A1E15E004680A68AD
:10B46C009442F9D1043B041D0A1D114620460434B4
:10B47C00043206680D68AE42EED120461146043BFC
:10B48C00042BF2D85A1E10D004780B789C420CD1A5
:10B49C00431C4C1C024418462146934205D00133F0
:10B4AC00013406780D78AE42F5D000780B78C01ACE
:10B4BC0070BC704700207047844640EA010313F0CB
:10B4CC00030F18D18446202A0BD32DE9F007B1E8DD
:10B4DC00F807A0E8F807A2F12002202AF7D2BDE86D
:10B4EC00F007042A07D351F8043B40F8043BA2F1BF
:10B4FC000402042AF7D2002A05D011F8013B00F807
:10B50C00013B013AF9D1604670478446002A2DD0A0
:10B51C0010F0030F04D000F8011B013A26D0F7E716
:10B52C00C9B241EA012141EA0141202A12D3A2F118
:10B53C0020022DE9F0030B460C460D460E460F4635
:10B54C0088468946A0E8FA03203AFBD2BDE8F0030E
:10B55C0020320BD0042A05D340F8041B043A05D042
:10B56C00042AF9D200F8011B013AFBD1604670475E
:10B57C00024610F0030F16D111F0030F13D12DE971
:10B58C00F0004FF001374FF0803351F8044BA4EB2F
:10B59C00070525EA04051D4002D142F8044BF4E7E7
:10B5AC00A1F10401F0BC11F8013B02F8013B002BA6
:10B5BC00F9D1704710F0030F19D111F0030F16D108
:10B5CC002DE970004FF001364FF0803350F8044BEA
:10B5DC0051F8045BAC4205D1A4EB060525EA040541
:10B5EC001D40F3D0A0F10400A1F1040170BC10F8CF
:10B5FC00012B11F8013BD21A01D1002BF7D11046C7
:10B60C00704700F1010110F0030F11D010F8012B5D
:10B61C00002A23D010F0030F0AD010F8012B002AB7
:10B62C001CD010F0030F03D010F8012B002A15D0FA
:10B63C002DE970004FF001324FF0803350F8044B7D
:10B64C00A4EB020525EA04051D4000D1F6E7A0F1A4
:10B65C00040070BC10F8012B002AFBD1A0EB0100F8
:02B66C00704725
:08B670006180020000000000EF
:04B67800099702002C
:10B67C00CD9C020000000000F993020000000000C5
:10B68C00B5A8020064A8002065A10200468700202E
:10B69C0065A10200128A002065A10200DE8C002048
:10B6AC0065A10200AA8F002065A1020076920020FD
:10B6BC0065A102004295002065A102000E980020B1
:10B6CC0065A10200DA9A0020C5A4020098A7002008
:10B6DC0055AD020088A7002015AC0200E4A700209D
:10B6EC0015AC0200F4A7002015AC020004A8002041
:10B6FC0015AC020014A8002015AC020024A80020F0
:10B70C0015AC020034A8002015AC020044A800209F
:10B71C0015AC020054A8002029950200000000007E
:10B72C00C2BE020000000000C8BE02000000000003
:10B73C00CFBE020000000000D3BE020000000000DB
:10B74C00D8BE02000000000081B802000000030314
:10B75C0085C10200000003031AC3020000000303AA
:10B76C0061C302000000030301C3020000000303D5
:10B77C00BCBE020000000000D0C2020000000303A7
:10B78C0094C302000000030318C602000000030368
:10B79C0030C602000000030394B902000000000050
:10B7AC00409E0020089F0020109F0020489E0020F3
:04B7BC001800000071
:08B7C000E1800200000000001E
:10B7C8003DB002000000000089B202000000000045
:10B7D80008B802000000000051B802001C870020D1
:10B7E80034B802000000000040B80200248700209E
:10B7F80000000000000000000338FDD8704700007A
:10B80800C16302002D640200BD630200FFFFFFFF59
:10B81800FFFFFFFFFFFFFFFFFFFFFFFF000000002C
:10B82800000000000000D60106010000F5640200D7
:10B8380099650200F3640200756172745F6C6F674A
:10B848005F6261636B656E64007274745F6C6F67CE
:10B858005F6261636B656E640000000034A30020C2
:10B868007F000000B4A300204261636B656E6473BF
:10B8780020666C7573686564006170700000000074
:10B88800BBB8020004B90200C3B802000CB9020038
:10B8980014B902001CB9020024B902002CB9020034
:10B8A80034B90200202530327800202020007C00A6
:10B8B8002563001B5B306D002573001B5B313B3338
:10B8C800316D0025734C6F67732064726F707065FB
:10B8D80064202825642925730D0A003C25733E2021
:10B8E80025733A20000000000000000055B902004E
:10B8F8003CB9020044B9020049B902001B5B313B64
:10B9080033306D001B5B313B33326D001B5B313BC9
:10B9180033336D001B5B313B33346D001B5B313BB4
:10B9280033356D001B5B313B33366D001B5B313BA0
:10B9380033376D007761726E696E6700696E666F86
:10B9480000646562756700466174616C2065727297
:10B958006F720053797374656D2072657365740036
:10B9680000000000000000000338FDD870473031A7
:10B97800323334353637383941424344454600007E
:10B9880078B602007CB60200040000007077725F8F
:10B998006D676D7400556E6B6E6F776E2065727291
:10B9A8006F7220636F64650000000000D8BA02005F
:10B9B80001000000E4BA02000200000002BB02001D
:10B9C8000300000023BB02000400000036BB020095
:10B9D8000500000047BB0200060000005BBB020038
:10B9E8000700000073BB0200080000008BBB0200C8
:10B9F80009000000A3BB02000A000000BCBB020053
:10BA08000B000000D4BB02000C000000EBBB0200DE
:10BA18000D000000FFBB02000E00000011BC020078
:10BA28000F00000020BC02001000000034BC02001F
:10BA3800110000004BBC0200120000005ABC0200BA
:10BA4800130000006FBC02008000000083BC0200ED
:10BA580081000000A4BC020082000000C0BC0200FB
:10BA680083000000DCBC020084000000FABC020075
:10BA7800850000001BBD02008600000040BD0200DA
:10BA88009000000057BD02009100000075BD020043
:10BA98009200000093BD020000820000A8BD0200D1
:10BAA80001820000C6BD020002820000E2BD020061
:10BAB80000840000FEBD02000184000022BE0200D6
