:020000022000DC
:10600000000004205D630200456302004763020054
:10601000496302004B6302004D6302000000000070
:106020000000000000000000000000004F630200BC
:106030005163020000000000536302005563020038
:10604000576302005763020031930200B59C0200BF
:1060500057630200576302008591020057630200F4
:106060005763020057630200576302005763020040
:106070005763020057630200576302005763020030
:106080005763020015700200576302005763020055
:10609000B17002005763020099C102005763020009
:1060A0005763020057630200576302005763020000
:1060B0005763020057630200000000000000000068
:1060C00057630200576302005763020057630200E0
:1060D00057630200576302005763020057630200D0
:1060E000576302005763020057630200000000007C
:1060F0000000000057630200000000005763020028
:10610000000000000000000000000000000000008F
:10611000000000000000000000000000000000007F
:10612000000000000000000000000000000000006F
:10613000000000000000000000000000000000005F
:10614000000000000000000000000000000000004F
:10615000000000000000000000000000000000003F
:10616000000000000000000000000000000000002F
:10617000000000000000000000000000000000001F
:10618000000000000000000000000000000000000F
:1061900000000000000000000000000000000000FF
:1061A00000000000000000000000000000000000EF
:1061B00000000000000000000000000000000000DF
:1061C00000000000000000000000000000000000CF
:1061D00000000000000000000000000000000000BF
:1061E00000000000000000000000000000000000AF
:1061F000000000000000000000000000000000009F
:10620000314932480A1A02D0072291438D4630495B
:1062100030480A1A06D00722914381F309880222E6
:1062200082F314882C482D492D4A00F03CF82D4863
:106230002D492E4A00F037F82D482E492E4A00F0FD
:1062400032F82E482E492F4A00F02DF82E482F49BB
:106250002F4A00F028F82F482F49304A00F023F841
:106260002F483049304A00F01EF8304830490022AB
:1062700000F024F82F483049002200F01FF82F4A80
:1062800090471F481F49884205D00268043003B474
:10629000904703BCF7E700208646EC46002000212B
:1062A000274A9047FEE7884207D0521A05D0037864
:1062B00001300B700131013AF9D17047884202D0A8
:1062C00002700130FAE770470000042000E003206C
:1062D0000000042000000420C4F10200288F0020E8
:1062E0004C920020BC630200BC6302009EDC0200F2
:1062F000C4F10200288F0020288F0020B8DD0200A2
:10630000B8DD0200B8DD0200B8DD0200B8DD020031
:10631000B8DD0200B8DD0200B8DD0200C4F1020001
:10632000E8F402004C9200204C9200204C92002095
:10633000C9B80020CCB80020CCB80020856302008A
:1063400075A90200FEE7FEE7FEE7FEE7FEE7FEE7CF
:10635000FEE7FEE7FEE7FEE7704700BF1048804714
:1063600010484FF00701884385460F4880470F4883
:10637000016841F470010160BFF34F8FBFF36F8F6D
:10638000FFF73EBF0A480B490B4A884207D0521A12
:1063900005D0037801300B700131013AF9D1704713
:1063A0005963020000000420698D020088ED00E0BE
:0C63B000B8DD0200288F0020288F00209C
:1063BC007047000007B5044B0093044A402300F0DB
:1063CC0032F803B05DF804FBDD6302004D9200204F
:1063DC002DE9F84389461446B2B10F4B0F4E0325F5
:1063EC00002743F00108224609EB0701002004F0C6
:1063FC00F7FD0744241A48B933782BB14FF47A408F
:10640C00C047013D02D13570BDE8F88301233370DC
:10641C00002CE8D1F8E700BFC0DD02004C92002050
:10642C00704704F011BEF0B595B01C4616460846F0
:10643C000D4601F0A4FB1A9B0D93CDE908640024D2
:10644C002346082205A928460A948DF82C400C9462
:10645C0001F0B2FB079B0293069B03939DF814304B
:10646C008DF8114003F00302012A1DD1BDF8144030
:10647C00059EC3F3C203C4F383148DF81030A2003D
:10648C0008230EA9284601F097FBC6F3952608AB06
:10649C000093224602AB0EA9304600F0FDFB2846C5
:1064AC0001F071FB15B0F0BD022AF8D1BDF8164011
:1064BC00C3F3C203A4098DF810300827082C264614
:1064CC0028BF08263B4632460EA9284601F074FB2D
:1064DC00A41B08AB02AA31460EA8374400F040FCBE
:1064EC00002CEBD1DBE7704707B5044B0093044A53
:1064FC004023FFF798FF03B05DF804FB59650200D9
:10650C008E92002030B50D4D0FCD89B06C460FC466
:10651C0095E80F0084E80F0006230022694608481E
:10652C00009302F0BDFD18B1064A432100F09EFC19
:10653C00054B00221A7009B030BD00BFD4DD02003B
:10654C00288F002000DE02008D92002038B50E4B03
:10655C000E4D002018700E4804782D5DD2B21C46EA
:10656C0075B1043003F03EFB18B10A4A532100F018
:10657C007DFC094B1A7812B12378002BFBD038BD67
:10658C000C3003F019F9EFE7CE9200205C9A002052
:10659C00288F002000DE02008D92002008B50848EC
:1065AC00084A0378D35C33B1043003F0C5FABDE874
:1065BC000840FFF7A7BF0C3003F0A8F8F7E700BFBF
:1065CC00288F00205C9A0020FFF79CBF38B50A4D3D
:1065DC00FFF727FF0421284600F0CCFA074B0124D3
:1065EC005C71FFF7F1FF042105F1100000F0C2FA15
:1065FC00034B5C7138BD00BF98DD02003C8F00205E
:10660C00448F0020037813F0040216D003F0030328
:10661C00012B03D0022B09D0012070470A68008897
:10662C000232C0F3831002440A60F5E70B6842881B
:10663C00023303EB92130B60EEE710467047000039
:10664C002DE9F04F87B000230446851C0DF107009F
:10665C000F4690468DF8073000F018FF4548066845
:10666C003E60D0E90132134401339B1B824600F299
:10667C001C4600F5836900F21447AB421BD3002281
:10668C00B8F1000F70D0052363F3070264F389128D
:10669C00DAF80010DAF808309DF807000B400333E5
:1066AC000D444AF82320CAF8005000F013FF0120D3
:1066BC0007B0BDE8F08F0121304600F0A3FF48463B
:1066CC0000F0B6FF384600F0B3FFDAF80400DAF851
:1066DC0008B0029000EA0B0003300AEB800002A91C
:1066EC00FFF790FF029B50BB0BEA03020AEB8202FE
:1066FC0003F1020CD2680392013303EA0B0B0AEB91
:10670C008B0B02F00302012ACDF808C0DBF80C1049
:10671C0022D0022A16D08346384600F08CFF10B1E6
:10672C00029BCAF804305946304600F06BFFDAE998
:10673C0001231344DAF8002001339B1A9DE70BEA7E
:10674C000300C9E7BDF80E309B0903334FEA114B28
:10675C000CEB93030293DFE7BDF80C30C3F3831308
:10676C004FEA114B6344F5E7062363F3070264F326
:10677C009F528DE7A09300200B4B0C48FF2210B5C5
:10678C009A600022C3F81824C3E90022C3F8142429
:10679C00012283F8202401F0ABF9044610B9044817
:1067AC0001F052FA204610BDA093002064DD0200D7
:1067BC008CDE020030B50A4C71B10A4A0A49121B30
:1067CC00D20800239A4201D1002030BD31F8235069
:1067DC00854202D00133F5E7034654F83300F4E761
:1067EC00E4DC020064DD0200288F0020094B013933
:1067FC0003EBC000032909D8DFE801F00A02040604
:10680C00042070470079704740797047002070472A
:10681C0002207047E4DC0200034BD3E90030C31ABA
:10682C0058425841704700BFA09300202DE9F04317
:10683C0087B0FFF7F1FF0646002840F0FB807E4D45
:10684C00C5F81804BFF34F8F6868AC6802902040FD
:10685C00033005EB800002A9FFF7D4FE029B18B1B0
:10686C00D5F81824002A5FD004EA0302991C0133DE
:10687C0005EB8202234005EB8303D268DB680493AB
:10688C0002F00303022B0392029162D1BDF80E3089
:10689C006A484FEA9318B8F1500FC14628BF4FF021
:1068AC00500969F38F1309F10801ADF80E3001F0AE
:1068BC0037F90746002800F0A88001F060F903A919
:1068CC0000230822384601F06DF9029924EA0106EA
:1068DC000136B600B14535D95FFA89F97EB3F6B207
:1068EC00A9EB0609214003315FFA89F4B146544EF5
:1068FC0005EB810108234A46384601F053F936B1BD
:10690C0009F1080322463146384601F04BF9029B47
:10691C0008F1030803EB98030293D5F81834002B05
:10692C004BD1D5F810445BE02A689A4204D86A60CF
:10693C00304607B0BDE8F08304EA030088E740491D
:10694C003446D7E72140033108234A4605EB810141
:10695C00DAE7012B59D1BDF80C303848C3F3831159
:10696C00062928BF062161F3891302318900ADF88D
:10697C000C3001F0D5F80746002846D001F0FFF89E
:10698C000023082203A9384601F00CF90026BDF8B3
:10699C000C20C2F38312B300964203F10803BCD25D
:1069AC0002994A1C21400331029205EB8101042219
:1069BC00384601F0F7F80136E9E7384601F0E3F81C
:1069CC00FFF72AFF80F00100C6B2B1E7E3685B79FC
:1069DC0023B1236839461B6820469847E3681C6836
:1069EC00002CF3D1384601F0CEF80DF107008DF8EC
:1069FC00074000F04BFDD5F818340BB9029B6B60C7
:106A0C009DF8070000F066FDDAE7D5F8104454B99C
:106A1C000C4B0D480D49C01AC008000440F0020090
:106A2C0000F06EF8CCE7236820469B689847E36833
:106A3C001C68ECE700267BE7A093002064DD0200D5
:106A4C00AC930020E4DC02000CDD020098DE0200B6
:106A5C002DE9F74F284C80460F46924601A901229A
:106A6C0018469B46D4F80890FFF7EAFD80B3019DC9
:106A7C000026A91C5E4506EB010233D100211F48FC
:106A8C0000F095FD80F310006A1C02EA090204EB89
:106A9C008202000405EA0903033340EA1840D0607F
:106AAC0014F8232068F3C50204F8232034F82320BB
:106ABC0066F3891224F8232054F8232067F39F22CD
:106ACC0044F8232002F0F80242F0010204F82320DB
:106ADC0094F820341BB1FFF7A9FE0028FBD103B0BA
:106AEC00BDE8F08F09EA020204EB82025AF8263064
:106AFC00D3600136BEE700BFA0930020BC970020F6
:106B0C0000231A46FFF7A4BF07B50123019201AA7F
:106B1C00FFF79EFF03B05DF804FB07B5CDE900233A
:106B2C0002236A46FFF794FF03B05DF804FB7FB5C0
:106B3C00CDE90123089B0393099B04930A9B0593BE
:106B4C0001AA0523FFF784FF07B05DF804FB7FB5AE
:106B5C00CDE90023089B0293099B03930A9B0493A2
:106B6C000B9B05936A460623FFF772FF07B05DF88F
:106B7C0004FB000030B50F49D1F810240023144653
:106B8C003CB9C468237152B9C1F81004226018468C
:106B9C0030BDE46825799D4206D02468F0E7D268C0
:106BAC00116821601060F2E701330A2BE7D14FF036
:106BBC00FF33ECE7A0930020094A38B50123D2F843
:106BCC00104482F820341D4604B938BDE3685D7169
:106BDC00236820465B689847E3681C68F4E700BFAD
:106BEC00A0930020037A052B10B50C460FD0437AE6
:106BFC0023B1084A0849204600F080FD0749204689
:106C0C0000F07CFD2046BDE8104000F06CBD002A71
:106C1C00F8D0F3E7E3DE0200E8DE020008DF020052
:106C2C00C38873B504460D4633B1144A0092144917
:106C3C00144A284600F062FD217A05291CD0637A9B
:106C4C004BB1A088FFF7D2FD0F4B104953F8202011
:106C5C00284600F053FD227A0D4BA08853F8226091
:106C6C000021FFF7A7FD0B4903463246284602B028
:106C7C00BDE8704000F042BD02B070BDE3DE020022
:106C8C00F3DE0200EBDE0200B0DE0200E8DE020002
:106C9C0018DF02000BDF02002DE9F04385B01F4620
:106CAC000C9D002306460C46904695F80C902B73D1
:106CBC0029463846FFF7B4FFB8F1060F09D8DFE8CC
:106CCC0008F00412181F283340003146284600F003
:106CDC0015FD002229463846FFF784FF85F80C90F5
:106CEC0005B0BDE8F08322683146284600F006FD69
:106CFC00EFE7D4E900233146284600F0FFFCE8E733
:106D0C00A36800933146D4E90023284600F0F6FC32
:106D1C00DFE7E3680193A36800933146D4E90023CD
:106D2C00284600F0EBFCD4E723690293E368019357
:106D3C00A36800933146D4E90023284600F0DEFC1A
:106D4C00C7E76369039323690293E3680193A3681C
:106D5C0000933146D4E90023284600F0CFFCB8E775
:106D6C0008292DE9F84F80460E4617461C463AD89E
:106D7C00002593F80C901D7319461046FFF750FF31
:106D8C00DFF884A0DFF884B0AE422ED918F80520C5
:106D9C005946204600F0B2FC0135082DF4D11849B3
:106DAC00DFF86CB0204600F0A9FC4FF0000A564505
:106DBC0020D918F80A507E2D03D8284606F0FAFD83
:106DCC0000B92E252A465946204600F097FC0AF1B8
:106DDC00010ABAF1080FEAD1012221463846FFF721
:106DEC0001FF84F80C90BDE8F88F5146204600F066
:106DFC0085FCD1E70349204600F080FCE7E700BFA3
:106E0C00DEDE0200DCDE0200DADE0200D4DE02008E
:106E1C00E0DE020082B001238DF807309DF80730C8
:106E2C00114B1860596044F2010188429A6012D0EB
:106E3C0044F20201884206D1DA60DA6812889A615B
:106E4C00DA685268DA6172B69DF80730002BFBD114
:106E5C0062B602B070471A611A6992685A611A696F
:106E6C0012689A611A69ECE75C98002000B583B04F
:106E7C0002900091019244F2010071466A4600F0C2
:106E8C0003F803B000BD00002DE9FF41D2F80880E3
:106E9C00314B324C1546E41A064640460F46E40880
:106EAC0000F010FF2B680297019324046B68009389
:106EBC0044F001040346424620462949FFF737FEB9
:106ECC0028492046FFF71CFE72B6FFF775FEFFF748
:106EDC00ADFC0028FBD141F201039E4228D007D81B
:106EEC00012E14D03A4620492046FFF70DFE12E041
:106EFC0044F201039E421DD044F202039E42F1D1A2
:106F0C002B886A6819492046FFF707FE03E01849E9
:106F1C002046FFF7F5FD174B1B68DB0700D500BEBD
:106F2C002A463946304604B0BDE8F041FFF772BF3F
:106F3C001149EDE7D5F80880404600F0C3FE2B68F8
:106F4C00029701936B68009305490346424620461D
:106F5C00FFF7EDFD0349DBE7E4DC02000CDD02008A
:106F6C007DDF0200A3DF020010E00200F6DF02006A
:106F7C00B7DF0200F0ED00E0D4DF0200094A5378DD
:106F8C0091780133DBB2994208BF00231178994202
:106F9C001FBF03705078182303FB002014BF04306C
:106FAC00002070477C98002073B5054600240DF135
:106FBC0007000E468DF8074000F068FA0DF1060048
:106FCC00FFF7DCFF90B10670094B9DF80620456079
:106FDC005A709DF8070000F07DFA24B9054B4FF468
:106FEC008012C3F80021204602B070BD0424F0E7E3
:106FFC007C98002000E100E0024B4FF43C6043F031
:10700C000103184730E00200F8B51F4B1F491B68FD
:10701C000025C1F84051C1F84451C1F84851C1F89C
:10702C004C51C1F80051C1F804514BB3D1F804458F
:10703C0017490968641A24F07F442F461A68A24243
:10704C0009D8A41A15441A7CDE691AB11F74D3E945
:10705C0005209047AEB90F4A0F4B11781B788B4225
:10706C0005D10133DBB2022B08BF00231370127859
:10707C000A4B43F822500A4B4FF48012C3F80021FC
:10708C00F8BD3346DAE700BF9C99002000100140A0
:10709C009899002095990020949900208C990020B3
:1070AC0000E100E02DE9F04FA04AA14913780978DE
:1070BC00A04D994285B03CD00133DBB2022B08BF06
:1070CC00002313709C4912789C4B0F6853F82200D4
:1070DC003B1823F07F4300220B602B6816461446A6
:1070EC00944613B942B12B6006E0196881420ED95F
:1070FC0002B12B60091A196001272B68DFF844A232
:10710C0001934FF00008BEB9DFF840B266E0401AB8
:10711C000C44D968C3F800C0D3F81CE031B13A195B
:10712C0022F07F42C3E90121DE611E460122734633
:10713C00D7E700263746E0E73446F6697E4A6368AF
:10714C001268DFF80CC2A068991A21F07F416145E2
:10715C0000F2A68001442160012222742A680023D7
:10716C00C4E90133E361002A40F0A3802C60CAE734
:10717C005A1C9BF80210D2B291428BF8002004BF2B
:10718C0000228BF80020182202FB03B31A799C68AA
:10719C00022A1CD0032A12D0012A1FD1207CE8B964
:1071AC00D3E90312A2605A69E2609A69644BA26146
:1071BC001B78002B0CBF0B4603466360BEE7002216
:1071CC002B681146002B67D142B12B6006E0296871
:1071DC000A468946002A5AD1002323749BF80030B2
:1071EC009BF801209A42C3D12B68B8F1000F04D14F
:1071FC00019A9A4201D1002F43D0002B41D0D3F8F1
:10720C0000A0504D4C4BD5F804751C68DFF8448138
:10721C003E1B98F8003026F07F4603369BB94FF49E
:10722C008033C5F84433C5F80433474B4FF4003270
:10723C004FF00109C3F880211A60C5F80090FFF7E0
:10724C00DBFE88F80090B2452CBF5444A41924F0FE
:10725C007F44C5F84045D5F80435DB1B23F07F434C
:10726C00E41B033324F07F44A3420AD9D5F8043538
:10727C00C5F84035FFF7C0FE334B4FF40032C3F86E
:10728C0000212F4B00221A7005B0BDE8F08F9442FC
:10729C0029D09146D2699DE719740122DB6991E7E7
:1072AC00D31A23F07F43834234BFC31A00232360D5
:1072BC0052E721681368994213D8591A1160E26198
:1072CC0054E7091AD8691A4638B103461868884237
:1072DC00F7D3401A1860184613462160E061DC6150
:1072EC0011E71346F2E74C4511D1CB692B6073B90A
:1072FC00DFF844E00120CDE90212CAF80800CEF80C
:10730C0000300F4B1870FFF777FEDDE9021213689F
:10731C00D269C9F81C2012B11068034413602B68A1
:10732C00994218BF4FF0010856E700BF949900200E
:10733C00959900209C990020989900208C99002008
:10734C00889900200010014000E100E07C980020AA
:10735C00FEFF7F0089990020F8B5194E194D1A4F80
:10736C004FF40033C6F8803001244FF48033C5F855
:10737C004833C5F808336C60FFF73EFEAC60002460
:10738C003C60FFF739FE114B1C70114B0B221C801B
:10739C009A70104B1C60104B1C70104B4FF48012E9
:1073AC001C70C023C6F8802186F814333260C5F8EF
:1073BC00084586F81133D5F804353B602046F8BDF6
:1073CC0000E100E00010014098990020899900200C
:1073DC007C9800209C99002094990020959900207D
:1073EC002DE9F7431E4FBB7805460E469046A3B3D6
:1073FC0098B304292FD943697BB3437C0024012B18
:10740C000DF107000CBF8946A1468DF8074000F02E
:10741C003DF80DF10600FFF7B1FDD0B1012303706B
:10742C00104B4560D3F80435C0E90498C0E9023626
:10743C009DF806307B709DF8070000F04BF824B9DE
:10744C00094B4FF48012C3F80021204603B0BDE86D
:10745C00F0830424EFE70724F7E70824F5E700BFDF
:10746C007C9800200010014000E100E0064A927870
:10747C003AB130B1426922B1002202740221FFF705
:10748C0093BD0820704700BF7C98002070B5EFF3C7
:10749C00108672B60C4A946801239CB993600B4B0E
:1074AC000B4DD3F8801029401160C3F88050D3F8ED
:1074BC00841051604FF0FF32C3F88420047006B979
:1074CC0062B670BD0370FAE7A099002000E100E0FD
:1074DC00FC06FFBD084B9A6810B55AB150B9EFF3D2
:1074EC00108172B6054A1C6814605C685460986020
:1074FC0001B962B610BD00BFA099002000E100E008
:10750C0037B550E8023F1FFAA3F5C488A54202BF65
:10751C00BFF32F8F00220DE0C48925448489A54236
:10752C0028BF2D1BC3EA054540E80254002CE8D1C6
:10753C004FF001028DF803200193019B9DF803206D
:10754C000B6002F0FF0322B14B880068184403B0B3
:10755C0030BD1846FBE70A884B889A4209D150E89F
:10756C00022FC2EA224240E80223002BF7D101206D
:10757C0070470020704701F01F024B090121914018
:10758C0000EB830000F01DB801F01F0301229A40AC
:10759C004B0900EB8300D14300F029B84B0901F0F3
:1075AC001F0150F82300C84000F00100704750E85C
:1075BC00002F0B4640E8003C9CF0000FF7D1104622
:1075CC00704750E8003F43EA010240E8002C9CF071
:1075DC00000FF6D11046704750E8002F02EA010365
:1075EC0040E8003C9CF0000FF6D11046704750E884
:1075FC00003F03EA010240E8002C9CF0000FF6D19A
:10760C001046704750E8003F03EB010240E8002CA5
:10761C009CF0000FF6D11046704750E8003FA3EBEA
:10762C00010240E8002C9CF0000FF6D11046704788
:10763C000121FFF7C6BF0021FFF7CEBF10B590B1F7
:10764C00D0E9012301689B1ADBB20A60013BDBB273
:10765C00FF2B026802D10020107110BD11684C1C68
:10766C0014600B70F2E70E20F7E737B505460024DF
:10767C000DF107008DF80740FFF708FF2A686B68CB
:10768C00116899420ED9481E106011F8014CEB6834
:10769C00298A01FB0434AB6811791B1ADBB29942BD
:1076AC0038BF13719DF80700FFF714FF204603B095
:1076BC0030BD37B5054600230DF107000C468DF89B
:1076CC000730FFF7E3FE2A681368591C1160E9685C
:1076DC00641A298AB4FBF1F41C709DF80700FFF7BB
:1076EC00F9FE03B030BD826810B504462AB1436977
:1076FC000168006998470023A36010BD0EB403B560
:10770C00039921B104AB01AA019300F075F802B002
:10771C005DF804EB03B070470A2938B504460D46F2
:10772C0002D10D21FFF7F8FFA3682268591CA16054
:10773C00D554D4E901329A4204D32046BDE83840EE
:10774C00FFF7D1BF38BD00002DE9F84F9946DDE9B0
:10775C000A431746824688460A460126BA420FD289
:10776C004E4538BF4E4613F0010B01D164B90024CD
:10777C000125B9F1010F1AD909F1FF397D43F8E759
:10778C00B2FBF7F20136E9E79B070ED5B9F1000F12
:10779C000CBF30252025A642EAD2013C2946504692
:1077AC00FFF7BAFF002CF6D1E1E72025F3E7B8FB91
:1077BC00F5F39F42E2D9DFF83C90B8FBF5F3504665
:1077CC0019F8031005FB1388FFF7A6FFB5FBF7F3B9
:1077DC00BD4207D2BBF1000F02D00CB1A64203D3BD
:1077EC00BDE8F88F1D46E8E720215046013CFFF725
:1077FC0093FFF2E736E002002DE9F74F05461746F6
:10780C008846002900F0308118F8011B49B92B7B00
:10781C00002B00F02981284603B0BDE8F04FFFF79C
:10782C0062BF252940F0C080002698F800302D2B2F
:10783C00424608F1010823D0302B24D02B2B25D025
:10784C0000242A2B02F1010123D13B681A1D1B686D
:10785C003A601C440A4613782E2B26D101324FF085
:10786C000009104610F8011BA1F1300CBCF1090FF6
:10787C001DD80A2303FB0913A3F130090246F0E7D4
:10788C0046F00106D1E746F00206CEE746F00406C4
:10789C00CBE711F8013CA3F130000928DBD80A2210
:1078AC0002FB0434303C0A46CBE74FF0000912F8D7
:1078BC00011B01F0FB0068289046F8D069290ED016
:1078CC004AD8582964D006D825296DD098F80030AC
:1078DC00002B99D19BE7632962D06429F6D13A68D1
:1078EC00D2F800A0111D8AEAEA723960A2EBEA72A2
:1078FC004FF0010B092A5BDCCB4538BFCB462CB1D2
:10790C00BAF1000F01DB720700D5013CB30702D5B9
:10791C00B9F1000F04D0F00702D4002C4ED1002492
:10792C00BAF1000F52DACAF1000A2D212846FFF7EE
:10793C00F3FE06F00302022A05D1B9F1000F02D1C1
:10794C00002C47D10024CDE900464B460A22514673
:10795C002846FFF7F9FEB9E773294CD014D87029E3
:10796C00B4D13B681A1D3A60302128461C68FFF7D9
:10797C00D3FE78212846FFF7CFFE00220823CDE95D
:10798C00003221461022E3E775292BD078299DD1AE
:10799C0039680A1D3A60CDE900464B46102228E0B2
:1079AC003B681A1D19783A602846FFF7B5FE8DE73B
:1079BC000A230BF1010BB2FBF3F29BE7A345AFD209
:1079CC0020212846013CFFF7A7FEA6E77107B0D59A
:1079DC002B21ABE7A345B6D230212846013CFFF75B
:1079EC009BFEADE73968CDE900460A1D3A604B466F
:1079FC000A220968ACE73B681A1D3A6016F00106CA
:107A0C00D3F800A020D1BAF1000F03D0504606F0F5
:107A1C0010F90646B44200D9C4B90AF1FF3A1EE087
:107A2C0028460136FFF778FE1AF806100029F7D120
:107A3C00A642BFF44BAF002C3FF448AF20212846A0
:107A4C00013CFFF769FEF3E70026EDE7202128460D
:107A5C00013CFFF761FEDDE72846FFF75DFE1AF8F3
:107A6C00011F0029F8D131E703B0BDE8F08F2DE9F3
:107A7C00F047B0F806904479D2F800A09DF8208029
:107A8C0009FB04F4043C06460AEB0300A0420F4633
:107A9C0088BFA4EB030A191DC2F800A0B1FBF9F5CD
:107AAC0009FB15114DB9A9EB0104544528BF5446E7
:107ABC00BAF1000F04D1BDE8F0873668013DF1E75B
:107ACC0004317B1970182246B8F1000F0ED0014614
:107ADC001846AAEB040A06F02EF8D1452544366860
:107AEC004C464FF0000128BF5446E1E71946F0E739
:107AFC00FFF7A4BDF8B546790146721E0546002372
:107B0C0093422D6803D30024A64202D8F8BD01335A
:107B1C00F6E70F682846FFF7CCFD01343946F3E74A
:107B2C002DE9F843068ACD1C0746FFF79EFD043E5F
:107B3C0035440446B5FBF6F5F0B14FF48073EDB265
:107B4C008380C680013D076081464FF00008A84540
:107B5C0012D23846FFF789FD064648B163790133E6
:107B6C00637108F10108C9F8000007608146EEE76F
:107B7C002046FFF7BFFF34462046BDE8F8830121BD
:107B8C000430FFF73FBD10B5012104460430FFF768
:107B9C0044FD10F0FF0F04D12046BDE81040FFF764
:107BAC00A9BF10BD1FB503920022009203AAFFF7D4
:107BBC005EFF05B05DF804FB1FB503920122009235
:107BCC0003AAFFF754FF05B05DF804FB41DF7047D3
:107BDC00064B10B500241C70054B1C60BFF35F8F67
:107BEC000449054800F039F8204610BDB49900202E
:107BFC00B899002048E00200AC99002007B500239A
:107C0C000DF107008DF80730FFF740FCF1EE103A4C
:107C1C0023F09F03E1EE103ABFF35F8F094B402234
:107C2C00C3F884219DF80700FFF754FC04F094FA84
:107C3C0020B1FFF7CBFF03B05DF804FB20BF40BFC2
:107C4C0020BFF8E700E100E0836800225A609A60E8
:107C5C00C3E90422DA601A6070470B684A68436013
:107C6C00934208BF0023016008BF4360704743681C
:107C7C0043B10268916852680B449342436004BF5D
:107C8C00002343607047000010B50D49A1F59472B4
:107C9C00914201D800200FE08B1ADB1003EBD37359
:107CAC005B1002EBC30452F83330834205D802D286
:107CBC0004F10802ECE7606810BD2146E8E700BF5C
:107CCC0098E1020008B5FFF7DFFF024B002808BF60
:107CDC00184608BD5DE0020019B1012905D0062047
:107CEC00704702B111700020704712B1043010605F
:107CFC00F9E7072070478069704708B500F016FF58
:107D0C000028FBD108BD0000F0B51B4B1B6883425B
:107D1C0085B007460C4603D01124204605B0F0BDB3
:107D2C00856900F003FF0028F6D194E8070005F1FF
:107D3C000C0686E80700A2882168A06800F086FA85
:107D4C00044640B9AB6833B9FFF7D7FF0B4B1B7830
:107D5C00002B18BF0D24AB68002BDED0002CDCD020
:107D6C004FF48172ADF80420AA690296039201A91E
:107D7C0038469847D1E700BFBC990020C099002035
:107D8C00F0B51B4B1B68834285B007460C4603D0ED
:107D9C001124204605B0F0BD856900F0C7FE00280F
:107DAC00F6D194E8070005F10C0686E80700A288D6
:107DBC002168A06800F016FA044640B9AB6833B9E4
:107DCC00FFF79BFF0B4B1B78002B18BF0D24AB68E8
:107DDC00002BDED0002CDCD04FF48172ADF80420E7
:107DEC00AA690296039201A938469847D1E700BFC9
:107DFC00BC990020C0990020F0B5134F3B6883421A
:107E0C0085B0054603D01124204605B0F0BD866927
:107E1C0000F08CFE0028F6D100F0DCFA044600B924
:107E2C003860B368002BEFD001228DF80420221C9F
:107E3C0018BF01228DF8052000220292B26903922C
:107E4C0001A928469847DFE7BC9900202DE9FF419E
:107E5C000369B3F5007F0546884629D1164E336871
:107E6C0043BB87693060B960BA611449143000F0C3
:107E7C002FFA044640B9B8F1000F15D1FFF73DFFBA
:107E8C000F4B1B7883B10D2400233360B8F1000F26
:107E9C000AD04FF480720293BB690393ADF80420AF
:107EAC00BB6801A928469847204604B0BDE8F0817C
:107EBC000624F9E71124F7E7BC990020D17E0200D3
:107ECC00C09900202DE9FF41264A4378DFF89C80B9
:107EDC0013700278D8F80050012A0746AC6927D0F5
:107EEC0056B23EB1022A37D01F4A81210320FEF739
:107EFC00BDFF1AE000F02AFE036823604FF4007304
:107F0C006360D8F800309B699B6873B17B788DF8FF
:107F1C000460003318BF01238DF80530A369039367
:107F2C000296A36801A92846984704B0BDE8F081E1
:107F3C00A268002AF9D00221003318BF01238DF862
:107F4C00053004F10C030293A3698DF8041003931C
:107F5C0001A928469047E8E7A268002AE5D003214A
:107F6C00EAE700BFC09900206CE50200BC99002034
:107F7C001F2886BF00F01F00044A4FF0A0420123C7
:107F8C0003FA00F0C2F80805704700BF0003005068
:107F9C007FB50F4C94F858401F2C86BF04F01F047B
:107FAC000C4E4FF0A046012505FA04F4CDE9000172
:107FBC00CDE90223C6F80C4500226946064801F0BB
:107FCC00DBFF18B1054AF021FEF750FF04B070BD7D
:107FDC00C499002000030050E0E50200ECE502002B
:107FEC00F8B5264B93F82350002D44D146B2002E01
:107FFC0033DB012483F823405C1900F07F0784F8FD
:10800C0028700F0E84F829700F0C84F82A70402801
:10801C004FEA112784F82B7084F82C1027D04828AD
:10802C000CBF8721FF211D44022A85F82D1001D099
:10803C00032A1ED1052283F82420002EA8BF93F812
:10804C0024300F4AB8BF01230E33A2F11000DBB26B
:10805C000621FFF79DFF0020F8BD022483F8234082
:10806C0077249C624FF47F449C850625C4E79521B8
:10807C00D9E70122DFE71120EEE700BFC499002009
:10808C00FC9900202DE9F843534FFE8B40F2D91494
:10809C00A6423C4669D0B6F5ED7F08D2A6B140F2B7
:1080AC00C715AE4229D00023E383032043E0B6F585
:1080BC00F07F4FF0000109D0B6F5F67FF3D187F8C9
:1080CC0023101970F98330E0BD8AFD82E68AFF2502
:1080DC005EB9424A84F8285002230121A2F1100013
:1080EC00FFF756FF4FF4F67369E0002684F828502A
:1080FC0003252684268384F8235044F620674FF00A
:10810C00040C2EE0268C0136B6B2BE4226840ED864
:10811C000646002956D010F8015BFF2D0DD0FE2D20
:10812C000ED005221A700023E383022003E0022004
:10813C0018700023E383BDE8F8830139C9B2E7E77F
:10814C000139C9B29142884684F823C028BF9046B1
:10815C004FF0000EF045E56817D84544A4F8188098
:10816C00E56094F82350032DCCD0258B954213D386
:10817C00E38A1A4A013BE38201210223A2F1100097
:10818C00FFF706FF4FF4F07319E016F8019F05F89E
:10819C000E900EF1010EDDE7551BADB2F02D28BF90
:1081AC00F025EBB2E2680E480121FFF7F1FEE3681F
:1081BC002B44E360238B1D44258340F2D913E383C6
:1081CC000120B8E7054A10230121A2F11000FFF7A6
:1081DC00DFFE40F2C713F2E7C4990020FC9900209F
:1081EC00EC990020174B10B593F8224024B393F868
:1081FC002240032C22D11AB3042483F822409C7A07
:10820C009A82240758BF4902012AC3E90301DA8282
:10821C004FF000044FF001028CBF522051209C8380
:10822C00FFF7DEFE034628B1074A40F20241FEF793
:10823C001DFE2346184610BD0823FBE71123F9E762
:10824C000723F7E7C4990020ECE5020038B51E4B74
:10825C00154693F82220002A30D093F82220032AC6
:10826C002ED17DB3052283F822209A7A9D821407A1
:10827C0058BF49020024012DC3E90301DD829C8310
:10828C000CD12A465820FFF7ABFE08B9002038BDA8
:10829C000E4A40F22D41FEF7E9FDF7E702F0070226
:1082AC00012A0FBF592001222946D720FFF798FE3B
:1082BC000028EBD0054A40F23C41ECE70820E6E709
:1082CC001120E4E70720E2E7C4990020ECE5020066
:1082DC0070B5394C94F8223088B005460E46002B08
:1082EC0065D1002965D0C078FF2862D06B78FF2B50
:1082FC005FD02B78FF2B5CD0AB78FF2B59D01F288D
:10830C008ABF00F01F0303462C4A84F8580098BF1C
:10831C004FF0A04203F5E073032142F82310FFF75E
:10832C0027FEAB788DF800302B788DF801306B7808
:10833C008DF80230FF238DF803304FF60673ADF83D
:10834C0004304FF0806302931D4A1E480023694697
:10835C00ADF80C3001F0B8FE20B11B4A40F265417B
:10836C00FEF784FDA37A1948266023F00F03A3724D
:10837C00FF2384F82830164B0122CDE90432002566
:10838C00103384F8222006932A460A2304A9079363
:10839C0084F8235001F0F0FD034628B10A4A40F25C
:1083AC007141FEF763FD2B46184608B070BD0823DB
:1083BC00FAE70723F8E700BFC49900200003005038
:1083CC0035840200DCE50200ECE50200E0E5020089
:1083DC00EC99002010B5114C94F82230CBB194F8E4
:1083EC002230032B17D10E4801F07CFD94F8583045
:1083FC001F2B86BF03F01F030A4A4FF0A04203F560
:10840C00E073002042F8230084F8230084F8220053
:10841C0010BD0820FCE71120FAE700BFC49900202A
:10842C00E0E5020000030050F7B5B24CC668E38AE1
:10843C00057C07461BB994F85800FFF799FD94F892
:10844C002300431E012B6BD87A681778A91F4C2F79
:10845C00C9B206F1060303D159B1E91FC9B2F31D24
:10846C001A460D4601E0013DEDB21346B5B94C2F4D
:10847C0003D1013B4FF0010515D194F82230012BAB
:10848C0048D094F822200123013A8DF80530042AB3
:10849C003BD8DFE802F01D1D3A2D2C001978FF297E
:1084AC0002F10102DFD0022836D1012284F8232008
:1084BC001A7812F0FE0F2FD194F824308E4A0E3316
:1084CC00DBB20621A2F10A00FFF762FD03B0F0BD9A
:1084DC0000238DF80430032384F82230FFF77AFF51
:1084EC0040B1864A40F28331FEF7C0FC02E0022321
:1084FC008DF8043094F85800FFF73AFD032384F804
:10850C002230236801A89847E0E77C4A4FF4637156
:10851C000320E9E70023C6E7002284F823201E4647
:10852C0094F82210C9B24B1E042B00F2F382DFE840
:10853C0013F005000A00F1029C01E601022384F805
:10854C0022300023A383A18B3378B1F50E7F00F08A
:10855C00E7802CD840F2132291427AD0B1F5057FF6
:10856C0008D2002967D0B1F5047F56D00023A3832D
:10857C00062174E040F21922914200F09A8040F2F8
:10858C0026229142F2D1590740F10181A37A0122AE
:10859C0062F30203A372238C01339BB2B3F5FA6F1F
:1085AC00238440F2AF800023A383022157E040F2E2
:1085BC006122914200F0FF8015D840F24D22914289
:1085CC0000F0E58040F253229142CFD113F0FC0F22
:1085DC0042D1D6F801301BBA5B0042BFA37A43F0FC
:1085EC000803A372A2E040F26B22914200F0F880E3
:1085FC0040F271239942B9D101AB10222946304681
:10860C00FFF740FD01287FF661AF9DF804100029AB
:10861C0000F0F1800023A38321E0012200214020FF
:10862C00FFF7DEFC20B1354A40F21221FEF71EFCAA
:10863C0040F213230BE001224020FFF7D1FC20B1C4
:10864C002E4A40F20F21FEF711FC4FF40473A38362
:10865C003CE713F0FC0F1DD00023A383042100235F
:10866C008DF8043094F858008DF80510032384F825
:10867C002230FFF77DFC39B1FFF7ACFE20B11F4A69
:10868C0040F2B731FEF7F2FB1D4B4FF08042C3F8BE
:10869C00242536E703224FF4D5714820FFF7A0FCC0
:1086AC0020B1164A4FF40671FEF7E0FB40F2192395
:1086BC00CDE7580707D4A27A032161F3020213F025
:1086CC00FC0FA272C8D100232384A37A03F0070302
:1086DC00032B0CBF4FF0804100210222E920FFF751
:1086EC007FFC20B1054A40F22521FEF7BFFB40F28A
:1086FC002623ACE7C4990020FC990020ECE502008D
:10870C0000300040022200214120FFF769FC20B11B
:10871C00BC4A40F23721FEF7A9FB4FF40E7396E7E3
:10872C0013F0FC0F98D1DA073FF535AFA37A03F0BD
:10873C000703032B43D001224FF400715020FFF7A5
:10874C004FFC20B1AF4A4FF41871FEF78FFB40F28B
:10875C0061237CE7238C01339BB2B3F5FA6F23843E
:10876C003FF621AFA37A03F00703032B0CBF4FF0A6
:10877C00804100210222E920FFF732FC20B1A14AFE
:10878C004FF41371FEF772FB40F24D235FE713F0C9
:10879C00FC0F7FF461AF13F00101DBD102227A20D0
:1087AC00FFF71EFC20B1974A40F25221FEF75EFB08
:1087BC0040F253234BE713F0FC0F7FF44DAF924B79
:1087CC00E360012200214920A282FFF709FC20B1BD
:1087DC008C4A40F26A21FEF749FB40F26B2336E7E4
:1087EC0013F0FC0F7FF438AF013D40F271230136DA
:1087FC00EDB2E36100E794F848309B09012B25D0DA
:10880C000BB1022B2FD194F84F3094F8502094F8E0
:10881C0052009B0003EB921394F84E20920202F448
:10882C0040620133134494F85120520002F00602C6
:10883C0002EBD01294F84D0000F00F000738024400
:10884C00934063604FF400732381E3E694F8513056
:10885C0094F85020013303EB022394F84F2003EBE0
:10886C0002439B02EDE70B46EBE7A38B40F29A2207
:10887C0093420DD040F2A220834239D0002B3AD142
:10888C00337813F0FC0F12D1013D0136EDB2E261E9
:10889C0001AB4FF4007229463046FFF7F3FB012879
:1088AC007FF614AE9DF8041091B10023A38301232D
:1088BC008DF80430032384F8223000238DF8051042
:1088CC00636184F8233094F85800FFF751FB18E6E5
:1088DC00A38A012B0CD901224C20FFF781FB20B17C
:1088EC00484A40F2A121FEF7C1FA40F2A223AEE6BB
:1088FC000021A183DBE70023A3830621D7E7A28B0A
:10890C00B2F5397F00F0AF800ED840F2C3239A4203
:10891C0041D040F2D3239A4200F0A580002A42D0E5
:10892C000023A383062117E040F20A339A424FF04A
:10893C00000300F0C8801CD8B2F53B7FF0D194F84E
:10894C003A2002F01F02052A184600F0A0800B2ADC
:10895C0001D00D2A23D1A08302238DF804300323E8
:10896C0084F8223000238DF8051084F823306361DD
:10897C00A9E7B2F5487F00F0B180B2F54C7FCFD1BA
:10898C00AB42C0F0C18094F82330032B00F0AA80D6
:10899C000021A183E0E7337813F0FC0F1DD00023F6
:1089AC00A3830421D8E7337813F0FC0FF9D1A37A11
:1089BC0003F00703012B10D0A38A012B0DD9012240
:1089CC0021695920FFF70CFB20B10E4A40F2C2215D
:1089DC00FEF74CFA40F2C32339E6A38AE382E28A1B
:1089EC00A38AAAB9012BD3D9084A4FF6FF53238582
:1089FC0002210323A2F11000FFF7CAFA4FF44873C7
:108A0C0025E600BFECE502000C9A0020FC99002042
:108A1C00002222830422012B84F823204FF0FF0232
:108A2C008CBFFC23FE2384F828203E4A84F829308E
:108A3C0002231946A2F11000FFF7AAFA40F2D32341
:108A4C0005E6C6F50075ADB2F02D28BFF025012363
:108A5C00E9B2344A3044FFF79BFA238B1D4425833B
:108A6C004FF43973F3E5268BE068B6F5007FE8D355
:108A7C002C4A00F500700323E0600121A2F11000E4
:108A8C0084F82330FFF784FA4FF43B73DFE523843B
:108A9C0094F82330032B1ED1238C01339BB244F664
:108AAC0020629342238403D90023A383022153E73A
:108ABC001C4A10230121A2F11000FFF769FA40F2C1
:108ACC000A33C4E50133AB42E2D2F25C002AF9D09E
:108ADC00002384F82330E38A013B7FE723840323BC
:108AEC0084F82330238C01339BB244F620629342EA
:108AFC002384D9D80B4A10230121A2F11000FFF7CF
:108B0C0047FA4FF44C73A2E5F25C002A7FF440AFB5
:108B1C00013335E7044A4FF476710320FEF7A6F9CA
:108B2C00D4E400BFFC990020ECE50200064B93F85E
:108B3C002220032A05D093F82200003018BF012010
:108B4C0070470020704700BFC4990020044890F87B
:108B5C002230022B00F1040098BF0020704700BFA8
:108B6C00C499002029DF704728DF704770B503686F
:108B7C009D6886B004460E466DB1142200216846ED
:108B8C0005F002F8A3680593237901962BB1012B0C
:108B9C000DD06846A84706B070BD01238DF8003093
:108BAC0023690293E368039363690493F1E7022357
:108BBC008DF80030E3681B030293F5E7034B187A3A
:108BCC000122B0FA80F05A7440097047309A0020A4
:108BDC0070B5244C244E237A25463BB923492448AE
:108BEC00FEF78EFC306008B9606070BD34680223FB
:108BFC002B72237973B1012B24D020460321FFF76C
:108C0C00B5FF00232B726B6018491948BDE8704002
:108C1C00FEF7A1BCD4E90523D21AB2F5805F28BFB8
:108C2C004FF48052D4E903109208012A38BF012274
:108C3C0019441844FFF796FF50B11128DDD10123D8
:108C4C002B72D2E7D4E903031844FFF78DFFF3E747
:108C5C002B7C002BC9D10146BDE87040022000F0EE
:108C6C0009B800BF309A0020489A0020449A00208E
:108C7C00209A002038B5831E012B45D8234C237A2B
:108C8C00002B41D0022B09D1032830D0204B1B687C
:108C9C000022E2601A793AB1012A22D0637C7BBBB4
:108CAC00BDE83840FFF794BFD3E905128D1AB5F52E
:108CBC00805F94BF521902F580529A619142EDD1B6
:108CCC0002284FF0000308BF19462372104B18BF3F
:108CDC000D211868FFF74AFF0E490F48FEF73BFCC1
:108CEC00DCE71A6901321A615B699A42E7E7E368CB
:108CFC000133082B01D8E360D0E70023E360DFE702
:108D0C00BDE8384003F018BA38BD00BF309A0020D7
:108D1C00489A0020449A0020209A002000F0FD037D
:108D2C00012B08D1044B00225A74421E5042504170
:108D3C001874FFF74DBF7047309A0020054B1B6825
:108D4C00082B01BF044B1868B0FA80F0400918BF1B
:108D5C0000207047300100103401001008B54FF0AE
:108D6C0080430022C3F80C21C3F81021C3F8382526
:108D7C004FF0805203F54043D2F80414C3F8201589
:108D8C00D2F80814C3F82415D2F80C14C3F828151B
:108D9C00D2F81014C3F82C15D2F81414C3F83015EB
:108DAC00D2F81814C3F83415D2F81C14C3F84015B3
:108DBC00D2F82014C3F84415D2F82414C3F848157B
:108DCC00D2F82814C3F84C15D2F82C14C3F850154B
:108DDC00D2F83014C3F85415D2F83414C3F8601513
:108DEC00D2F83814C3F86415D2F83C14C3F86815DB
:108DFC00D2F84014C3F86C15D2F84424C3F870258B
:108E0C00FFF79CFF10B1354B354A1A60FFF796FF00
:108E1C0048B13449344B0A681B6822F00F0203F046
:108E2C000F0313430B60FFF789FF18B12F4B4FF45F
:108E3C0000721A604FF08043D3F80024D20744BF6D
:108E4C006FF00102C3F80024294AD2F8883043F4A9
:108E5C007003C2F88830BFF34F8FBFF36F8F4FF0A2
:108E6C001023D3F80022002A03DBD3F80432002BA2
:108E7C002FDA204B0122C3F80425D3F80024002A52
:108E8C00FBD04FF010221221C2F80012D3F80024AC
:108E9C00002AFBD04FF010231222C3F80422154BEA
:108EAC001A46D3F800140029FBD00021C3F804158E
:108EBC00D2F80034002BFBD0BFF34F8F0C490E4B74
:108ECC00CA6802F4E0621343CB60BFF34F8F00BF5C
:108EDC00FDE70A4B0A4A1A6008BD00BF8C560040D9
:108EEC0048810300E40E00405802001040960240F6
:108EFC0000ED00E000E001400400FA054C8F00207A
:108F0C000090D003074B185C1F288ABF064B4FF00C
:108F1C00A04300F01F00D3F8043523FA00F000F052
:108F2C00010070475CE6020000030050074B1B5C1D
:108F3C001F2B86BF03F01F0305494FF0A0410122F0
:108F4C0002FA03F3C1F80835704700BF5CE6020073
:108F5C0000030050074B1B5C1F2B86BF03F01F0345
:108F6C0005494FF0A041012202FA03F3C1F80C3578
:108F7C00704700BF5CE602000003005008B50020FB
:108F8C00FFF7E8FF0120FFF7E5FF0220FFF7E2FF04
:108F9C000320BDE80840FFF7DDBF08B50020FFF750
:108FAC00C5FF0120FFF7C2FF0220FFF7BFFF032020
:108FBC00BDE80840FFF7BABF0A4B185C1F288ABFF0
:108FCC00094B4FF0A04300F01F00D3F804250121FA
:108FDC00814021EA02000A40C3F80805C3F80C25B9
:108FEC00704700BF5CE6020000030050014B185CA8
:108FFC00704700BF58E60200C20710B504460CD5F6
:10900C004FF0A0430322C3F83427C3F83827C3F822
:10901C003C27C3F84027FFF7B1FFA3070AD54FF051
:10902C00A0430C22C3F82C27C3F83027C3F86027C1
:10903C00C3F8642710BD00001FB503788DF800300D
:10904C004368019383688DF80830C3680393054A1D
:10905C00054B684653F8213052F82110984705B05B
:10906C005DF804FB4C9A0020549A00201FB503783D
:10907C008DF800304368019383688DF80830C3681D
:10908C000393054A054B684653F8213052F82110DA
:10909C00984705B05DF804FB4C9A0020549A0020C8
:1090AC00F0B5184B0778DFF86CE043F82720164B27
:1090BC0016460A6943F827204B7F0EF807300C46FA
:1090CC0084460FCC89B06D460FC594E80F0085E837
:1090DC000F001EF80730049753B1002E0B4A694657
:1090EC0008BF32460CF1040000F04AFC09B0F0BD98
:1090FC00002E074A694608BF32460CF10C0000F0FE
:10910C0031FAF3E7549A00204C9A00204590020063
:10911C00799002005C9A002000F1804000F5C0407C
:10912C00002382B0036003680193019B02B0704777
:10913C0003681F2B83BF03F01F03036001484FF02C
:10914C00A04070470003005007B5019001A8FFF73D
:10915C00EFFF019B00EB8300D0F8002722F4403294
:10916C00C0F80027D0F8003743EA0143C0F80037B5
:10917C0003B05DF804FB00002DE9F04F002489B02A
:10918C00CDE90244624D4FF48072012102F180431B
:10919C0003F5C04390B21B68012B06D1D5F80433FC
:1091AC000B4202D0FFF7B8FF0C430432B2F5907FAC
:1091BC004FEA4101EAD1574B1B68012B0ED14FF4FA
:1091CC00BE70FFF7A9FF4FF0A04344F00044D3F862
:1091DC0010350293504BD3F81035039314F0FF0F56
:1091EC001AD04E4F00250126344210D0AB0003F1AB
:1091FC00804303F5C043D3F81005D3F8101557F886
:10920C00253023B1C1F30141C0F305209847013546
:10921C00082D4FEA4606E7D1002C75DA0DF110083F
:10922C0000230493C8F804304FF0FF33CDE9063324
:10923C00DFF8E8A0DFF8E89000273D4619F9014B6C
:10924C00631C48D0E4B2012324F0C00604F00702EA
:10925C0003FA02F2F00808AB191811F8083C134293
:10926C0039D00AEB0603A40993F930305AF823B02D
:10927C00BBF1000F08D1032C2DD118F800C04CEA1B
:10928C00020C08F800C001E0032CF6D001A80196EE
:10929C00FFF74EFF019B11F8181C03F5E07C1142FF
:1092AC0050F82C00C0F3014005D0022813D1032C38
:1092BC000BD1214604E003280DD1032C05D102214A
:1092CC003046FFF741FF0135EDB2BBF1000F02D084
:1092DC0021463046D8470137042FAFD1A5B14FF006
:1092EC00A0430299D3F8102503F540739142D3F8AB
:1092FC00103502D10399994206D002920393049A35
:10930C00059B0692079395E709B0BDE8F08F00BF67
:10931C00006000407C61004000030050609A002017
:10932C00C09A0020014B1B68184700BFCC9A002044
:10933C000E4B984237B50D4602D0002003B030BD1D
:10934C0000230DF107008DF80730FEF79FF8084B4E
:10935C001C7914B901221D601A719DF80700FEF7E3
:10936C00B9F8002CE9D01120E8E700BF002000403C
:10937C00CC9A0020034B984201BF034B00221A6089
:10938C001A71704700200040CC9A002000234350F3
:10939C0082B043580193019B02B070470A4610B546
:1093AC004FF48E71FFF7F2FF136A9168C95C136A70
:1093BC0001331362C0F81C1510BD8B690A4610B539
:1093CC004FF4847123B9FFF7E1FFD0F8183510BDC5
:1093DC00FFF7DCFF536AD168D0F81805C854536AFC
:1093EC0001335362F3E700001FB501238DF8003001
:1093FC00044BCDE90110D3E900126846904705B043
:10940C005DF804FBD49A002030B54C4AD2F80433F2
:10941C0013F4007F85B015464FD0D2F82431002BC1
:10942C004BD04FF492711046FFF7B0FF4FF401731D
:10943C00C2F80833424B93F8291009B90121516045
:10944C003E4902228DF80020D1F88024C1F88024F6
:10945C0003929A690292DA6801920022C3E9062209
:10946C006846D3E9001290473448D0F81C315BB100
:10947C0033490A6A4B699A420A464BD291F8283012
:10948C00002B47D1FFF78AFF2C4AD2F8443193B115
:10949C004FF4A2711046FFF779FF294B93F829106E
:1094AC0009B1012111609A692AB100229A61586AA6
:1094BC00D968FFF799FF05B030BDD5F804335B07C9
:1094CC00D2D5D5F80831002BCED01D4C1B482146E7
:1094DC00FFF773FF636AA2699A422346C4D1E2691B
:1094EC00E1684AB12369E3600023606AA261E36129
:1094FC006362FFF779FFB7E794F829200AB90122D4
:10950C006A600E4A4FF40170C2F8080300229A6197
:10951C00586AEEE74FF48E710848FFF737FF516930
:10952C000029B1D00023029191688DF8003001918F
:10953C0053616846D2E900139847A5E70020004024
:10954C00D49A00201F2886BF00F01F00044B4FF058
:10955C00A04300F5E070022243F82020704700BFC2
:10956C00000300502DE9F843624F047991462C22F8
:10957C0002FB0472064692F82A200D46002A40F09F
:10958C00B3805D490068FFF7D3FE8046002840F0A9
:10959C00AE8029684A1C10D01F2987BF01F01F0319
:1095AC00564A0B464FF0A0420120984003F5E07359
:1095BC00C2F80805032042F823006868431C0DD04C
:1095CC001F288BBF00F01F0303464C4A4FF0A042EC
:1095DC0003F5E0734FF0000C42F823C03368AA691E
:1095EC0095F814C0C3F824256A7DBCF1010F4CEA30
:1095FC000202C3F86C25C3F81405C3F80C152BD163
:10960C00A968481C0DD01F298BBF01F01F020A4608
:10961C003A484FF0A04002F5E0724FF0000C40F8D1
:10962C0022C0E868421C13D01F2887BF00F01F0C13
:10963C00324A84464FF0A0424FF0010E0EFA0CFE57
:10964C000CF5E07CC2F808E54FF0030E42F82CE074
:10965C00C3F80805C3F810152C236343FA18C2F895
:10966C0004902A69FA50B9F1000F2AD04FF48E7188
:10967C0030682D7FFFF78AFE30684FF4A271FFF738
:10968C0085FE32681E4BC2F80433120B51B200290E
:10969C00A8BF01F160404FEA4513BABF194802F068
:1096AC000F0500F56140DBB2B4BF435580F80033C1
:1096BC0002F01F02012303FA02F24909124B43F88C
:1096CC00212033680422C3F800252C2303FB0473E8
:1096DC000022C3E9062283F829205A61012283F86B
:1096EC002A204046BDE8F8834FF00808F9E74FF010
:1096FC001108F6E7D49A00201594020000030050DC
:10970C008000020014ED00E000E100E02DE9F041E2
:10971C0003680479254D0022C3F800252C2202FB96
:10972C0004520646526872B1214AC3F80823190B39
:10973C004AB20120520901F01F0100FA01F1203256
:10974C001C4840F82210D3F80C05D3F81485D3F834
:10975C000815D3F810754FF0FF329042C3F814255A
:10976C00C3F80C25C3F80825C3F8102501D0FFF762
:10977C00E9FEB8F1FF3F02D04046FFF7E3FE7A1C4A
:10978C0002D03846FFF7DEFE4B1C02D00846FFF72E
:10979C00D9FE3068FFF7EEFD2C2303FB04540023A5
:1097AC0084F82A306360BDE8F08100BFD49A0020B1
:1097BC008402020000E100E02DE9F047214F067918
:1097CC004FF02C0909FB067480466569002D37D1D2
:1097DC006261A16025624FF48E71006884F8285094
:1097EC00FFF7D4FDD8F80000012383602146FFF772
:1097FC00D5FD6368A14693B9D8F800A0226A6369C5
:10980C009A4212D3D8F80030D3F81C21002AFBD08E
:10981C000122DA602C2303FB0676002373612846B1
:10982C00BDE8F08794F8283043B9DAF81C31002BE6
:10983C00F8D049465046FFF7B1FDDFE70F25E9E7C1
:10984C001125ECE7D49A00200023435082B04358F2
:10985C000193019B02B070471FB501238DF80030B6
:10986C00044BCDE90110D3E900126846904705B0CE
:10987C005DF804FB009B00207FB5374AD2F82461C9
:10988C00002E48D010464FF49271FFF7DDFF0223F3
:10989C008DF80030D2F88034C2F880340393D2F8BB
:1098AC003C3502932D4BDA6801920022C3E9062263
:1098BC006846D3E900129047274AD2F844317BB16D
:1098CC004FF4A2711046FFF7BFFF244B996939B1D1
:1098DC000021C3E90611D968D2F83C05FFF7BCFF9B
:1098EC001D4AD2F82031A3B14FF490711046FFF706
:1098FC00ABFF1A4B596961B1D2F84C150291002299
:10990C0099688DF8002001915A616846D3E90012DC
:10991C00904704B070BDD2F81031002BCCD04FF46E
:10992C0088711046FFF790FF0C4BD2F83C059969F3
:10993C008842C1D1DC69D96864B1D2F8005225F0F3
:10994C002005C2F800521A699C61DA60DE61FFF7EB
:10995C0083FFB1E79C61FAE700200040009B0020E8
:10996C001F2886BF00F01F00044B4FF0A04300F5EA
:10997C00E070022243F82020704700BF0003005023
:10998C002DE9F843664F06799146242202FB0672B4
:10999C00044692F820200D46002A40F0BB80614915
:1099AC000068FFF7C5FC8046002840F0B6802868A8
:1099BC00421C10D01F2887BF00F01F035A4A0346D1
:1099CC004FF0A0420121994003F5E073C2F808154D
:1099DC00032142F8231069684B1C0DD01F298BBF43
:1099EC0001F01F030B46504A4FF0A04203F5E07301
:1099FC004FF0000C42F823C02368AA6995F814C0F4
:109A0C00C3F824256A7DBCF1010F4CEA0202C3F8AD
:109A1C006C25C3F80C05C3F814152BD1A968481C88
:109A2C000DD01F298BBF01F01F020A463E484FF094
:109A3C00A04002F5E0724FF0000C40F822C0E8683C
:109A4C00421C13D01F2887BF00F01F0C364A8446D7
:109A5C004FF0A0424FF0010E0EFA0CFE0CF5E07C1C
:109A6C00C2F808E54FF0030E42F82CE0C3F80805E5
:109A7C00C3F8101524237343FA18C2F804902A690A
:109A8C00FA50B9F1000F34D04FF4887120682D7F53
:109A9C00FFF7DAFE4FF490712068FFF7D5FE4FF414
:109AAC0092712068FFF7D0FE20684FF4A271FFF787
:109ABC00CBFE22681D4BC2F80433120B51B20029A5
:109ACC00A8BF01F160404FEA4513BABF184802F035
:109ADC000F0500F56140DBB2B4BF435580F800338D
:109AEC0002F01F02012303FA02F24909114B43F859
:109AFC00212023680822C3F80025242303FB0673C6
:109B0C000022C3E906225A61012283F82020404634
:109B1C00BDE8F8834FF00808F9E74FF01108F6E7B5
:109B2C00009B0020859802000003005010030200E7
:109B3C0014ED00E000E100E02DE9F0410368047948
:109B4C00254D0022C3F80025242202FB04520646B0
:109B5C00526872B1214AC3F80823190B4AB201208A
:109B6C00520901F01F0100FA01F120321C4840F8A3
:109B7C002210D3F80C05D3F81485D3F80815D3F8B4
:109B8C0010754FF0FF329042C3F80C25C3F8142522
:109B9C00C3F80825C3F8102501D0FFF7E1FEB8F192
:109BAC00FF3F02D04046FFF7DBFE7A1C02D038465E
:109BBC00FFF7D6FE4B1C02D00846FFF7D1FE3068EB
:109BCC00FFF7D8FB242303FB0454002384F8203034
:109BDC006360BDE8F08100BF009B00201003020011
:109BEC0000E100E001F06043B3F1005F2DE9F041CA
:109BFC00074632D11B4B0679242505FB06359846C2
:109C0C006C6964BB6A61A96000684FF49071FFF7DE
:109C1C001BFE4FF4AC713868FFF716FE3B686A699F
:109C2C00A968C3F84415C3F8482501229A606A68EC
:109C3C0062B9D3F82021D3F8584152B9002CF8D08E
:109C4C000F24242303FB0686002373612046BDE802
:109C5C00F081002C18BF0F24F3E71024F6E7112431
:109C6C00F4E700BF009B00201F2886BF00F01F00F8
:109C7C00044A4FF0A042012303FA00F0C2F8080591
:109C8C00704700BF000300501F2886BF00F01F0064
:109C9C00044A4FF0A042012303FA00F0C2F80C056D
:109CAC00704700BF00030050114BD3F8183107B5B3
:109CBC00D3B1104B104900221A60C87F1B68019366
:109CCC00FF28019B03D08B7F5BB1FFF7DDFF0023E7
:109CDC004B770B72D1E90031084803B05DF804EB07
:109CEC001847FFF7C1FFF2E703B05DF804FB00BFB4
:109CFC000030004018310040249B00202C9B002099
:109D0C002DE9F74F0679724F01934FF0240909FBA7
:109D1C0006F907EB090A93469AF81C2080460C4674
:109D2C00002A40F0D18005686A492846FFF700FBFD
:109D3C000146002840F0CA80019BCAF80430237BFE
:109D4C0047F809B0012B207800F2AC80FFF79CFF9C
:109D5C0023781F2B86BF03F01F035F4A4FF0A042EE
:109D6C0003F5E073012042F8230094F80190B9F157
:109D7C00FF0F00F09A804846FFF786FFB9F11F0FDE
:109D8C008BBF09F01F034B46534A4FF0A04203F51B
:109D9C00E073032042F82300A378FF2B00F08880A7
:109DAC001F2B8BBF03F01F021A464B484FF0A040ED
:109DBC0002F5E0724FF0080C40F822C09A462422BB
:109DCC0002FB067282F82030E078D077FF2816D09C
:109DDC002379002B6FD0FFF757FFE3781F2B86BF3B
:109DEC0003F01F033C4A4FF0A04203F5E07303203D
:109DFC0042F82300242303FB067322799A772378F5
:109E0C00C5F80835A368C5F80C95C5F810A5C5F8B4
:109E1C002435637B227B003318BF0123022A4DD0EB
:109E2C00032A4ED0012A01D143F00203C5F8543560
:109E3C00A379C5F8C03524237343FB5813B14022D2
:109E4C00C5F804230722C5F8002503B3D8F8003061
:109E5C0062791B0B58B20028A8BF00F16044DBB23A
:109E6C00B8BF03F00F054FEA4212B4BF1B4C04F508
:109E7C006144D2B2B4BF625584F8002303F01F03CF
:109E8C00012202FA03F34009154A42F82030242338
:109E9C0003FB06760023737701233377084603B060
:109EAC00BDE8F08FFFF7E0FE52E74FF0FF3973E7A4
:109EBC004FF0FF3A83E7FFF7D7FE8EE743F004033A
:109ECC00B4E743F00603B1E70821E7E71121E5E722
:109EDC00249B0020B59C02000003005014ED00E010
:109EEC0000E100E0F8B505791F4C006824236B43B2
:109EFC00E618E358D3B1030B5AB2520903F01F030F
:109F0C0001212032194F01FA03F347F82230184B84
:109F1C00C0F80833737F4BB14161D0F80431002B8A
:109F2C00FBD0242303FB054300225A77242303FB95
:109F3C00054393F82030FF2B0BD01F2B8ABF03F067
:109F4C001F034FF0A0420B4A03F5E073022142F8C5
:109F5C0023100026C0F80065FFF70CFA242303FB3E
:109F6C0005442677F8BD00BF249B002000E100E0EB
:109F7C0052010800000300502DE9F3410579424ECF
:109F8C0024236B431446F2180F46517F8046002958
:109F9C0078D1F35823B114F0140F04BF0123537775
:109FAC0097E80F004FF0240C0CFB056C0CF10C0E19
:109FBC008EE80F009CF81F00FF2804D09CF81E3080
:109FCC00C3B1FFF751FE396821B101F06043B3F121
:109FDC00005F06D1BA6882B102F06043B3F1005F52
:109FEC000BD0242303FB056500236B77102002B0F4
:109FFC00BDE8F081FFF748FEE5E7D8F80030786857
:10A00C00C3F84415C3F84805F968C3F83425002291
:10A01C00C3F83815C3F81821D3F818210192019A06
:10A02C0014F0010218BF0122C3F8502514F00202EB
:10A03C0018BF0122C3F8402522075CBF01221A6118
:10A04C0024226A43B25892B9D3F81821002AFBD0C3
:10A05C00242303FB0565E87FFF2803D0AC7F1CB1EC
:10A06C00FFF712FE0020C2E7FFF7FEFDFAE714F03F
:10A07C0004004FF0400202D0C3F80823F2E7C3F803
:10A08C000423B4E71120B2E7249B00207FB50378AA
:10A09C008DF804304368029383688DF80C30C368E4
:10A0AC00049303698DF81430054A064B01A853F844
:10A0BC00213052F82110984707B05DF804FB00BF1F
:10A0CC00489B0020589B0020F0B50646174616F812
:10A0DC0004CB124A42F82C70114A42F82C30114B26
:10A0EC000D460FCB85B06C4684E80F002B680093AF
:10A0FC002B798DF805306B798DF80630AB680293AF
:10A10C00002FAB89ADF80C30074A634608BF3A46BE
:10A11C0021463046FFF7F4FD05B0F0BD589B0020FA
:10A12C00489B00207CE6020099A0020008B5094B70
:10A13C001B7853B10020FEF70DFF0120FEF70AFF3C
:10A14C000320BDE80840FEF705BFBDE80840FEF758
:10A15C0015BF00BF689B0020F8B57B4C23780546E3
:10A16C001BB100232370FFF7E1FF172D00F288804D
:10A17C00DFE805F00C17174354657680888D888DC1
:10A18C00959A9A9A9A9AC4C9D1D9E4E4FFF7CEFF6A
:10A19C006E48FDF76BF96E4B002204461A70204690
:10A1AC00F8BD0020FEF7AEFEF8B10020FEF7D2FE9F
:10A1BC00022D0CBF4FF4E1614FF47A61644B1D70BA
:10A1CC004FF400404FF4FA740025E0FB01454FF4C6
:10A1DC007A7200232046294603F004FB0022014634
:10A1EC005A48BDE8F840FDF7FBB8FEF79FFE022D7C
:10A1FC000CBFC8214FF4C871E0E70020FEF782FEC7
:10A20C0040B10020FEF7A6FE4FF44871504B0322DC
:10A21C001A70D5E7FEF78AFEC821F7E70020FEF793
:10A22C0071FE38B10020FEF795FE4FF47A61484B71
:10A23C000422EDE7FEF77AFE4FF4C871F7E7002031
:10A24C00FEF760FE48B10020FEF784FE404B05226D
:10A25C001A7041F69A110022C2E7FEF767FEF5E785
:10A26C000020FEF7A9FE3A4B06221A70002240F697
:10A27C00CD41B5E70020FEF759FE354B07221A7089
:10A28C0000248CE701202070FEF796FEEEE70120FB
:10A29C002070FEF791FE00224FF48041A0E7FEF7FC
:10A2AC007CFE2B4B0C22EAE72A482B4EFDF7DEF8FE
:10A2BC00D5F1110504461CD0D8B9012D13D0C823F3
:10A2CC005D434FF400474FF4FA7000214FF47A725B
:10A2DC000023C7FB050103F085FA224601461D4801
:10A2EC00FDF77EF804460220FEF720FE01233370B2
:10A2FC0055E70220FEF72EFE0023F8E7FFF716FFC6
:10A30C00134B1222BBE7FFF711FF0020FEF70EFEE6
:10A31C000F4B1322B3E7FFF709FF0120FEF706FEF0
:10A32C000B4B1422ABE7FFF701FF0020FEF7FEFDFD
:10A33C000120FEF7FBFD064B1522A0E7FEF72DFED4
:10A34C00034B1D709CE700BFBC9B00208C9B002026
:10A35C00BD9B00206C9B0020689B0020002910B541
:10A36C0014BF03240024FEF741FE1F288ABF0A4BAA
:10A37C004FF0A04300F01F0003EB8000D0F8002743
:10A38C0022F44032C0F80027D0F8003743EA0443E7
:10A39C00C0F80037002010BD00030050044B1B68B0
:10A3AC0013F0010301D0FFF7D7BE1846704700BF6A
:10A3BC00B89B0020032813D8012A0BD1012908D1FE
:10A3CC0000F10E02D2B200EB40000C4B1A540020EC
:10A3DC00704700220129F6D04BB24BB1022901D0B3
:10A3EC0007207047054B00EB400018444270EEE725
:10A3FC00024900EB400008448270E8E7AC9B002067
:10A40C00032802D80121FFF7A9BF0620704708B521
:10A41C00012202210020FFF7CDFF08B1072810D13F
:10A42C00072202210120FFF7C5FF08B1072808D138
:10A43C0000210A220846FFF7BDFF10B1072808BF0C
:10A44C00002008BD0388102B10B502D0112B1ED094
:10A45C0010BD1A4C2168B1B901220846FFF7AAFFBA
:10A46C0008B1072824D1072202210120FFF7A2FFFF
:10A47C0008B107281CD1042202210020FFF79AFF03
:10A48C0008B1072814D1236801332360E0E70B4A95
:10A49C001368013B1360002BDAD1FFF7B8FF0028DB
:10A4AC00D6D0074B1B68002BD2D0BDE81040184704
:10A4BC00034B1B68002BE6D09847E4E7C49B0020B5
:10A4CC00C09B002008B50020FFF79AFF08B10628B2
:10A4DC0006D10120FFF794FF10B1062808BF002019
:10A4EC0008BD75DF704776DF70477FDF70478ADF06
:10A4FC0070478CDF70478FDF7047000008B50C4841
:10A50C000C4B0D490D4AC01AC008000440F0030062
:10A51C00FCF7FAFA0A490B48FFF7E9FF18B10A4AA7
:10A52C00FE21FCF7A3FC0020BDE80840FEF7FEBCB2
:10A53C000CDD0200E4DC02001CE80200E0E7020093
:10A54C0024920020D2E702003FE8020030B50388D5
:10A55C001D2B87B0044666D050D8112B00F0AE806E
:10A56C00132B00F09F80102B4DD16D4B6D48A288A2
:10A57C006D49C01AC008000440F00300FCF7C4FA8F
:10A58C00A388072B05D9694A4FF4CB710020FCF73F
:10A59C006DFC0022A188664801F0F0FC20B1634AF2
:10A5AC004FF4CF71FCF762FC0720FFF7F7FE20B1E8
:10A5BC005E4A40F2A111FCF759FC4FF433720021B2
:10A5CC005C4803F0E1FAA1885A4801F029F81128F7
:10A5DC0005D020B1554A4FF4D471FCF747FC01204B
:10A5EC00FEF7A4FC00F060FE08284FF0000056D1E6
:10A5FC00FEF7B0FC504BA2881A8004E0212B77D0D8
:10A60C0003D81F2B69D007B030BD3B2B7DD0562B08
:10A61C00F9D113218088FFF766FF0028F3D0434A55
:10A62C0040F20B2138E03E4B3E4D4449ED1AED080B
:10A63C002D0445F003052846FCF762FA404AA18C2C
:10A64C00206A00F021FDF8B101233E4A3E4904F195
:10A65C000A00FFF74EFF0028D5D1FFF79FFE20B16F
:10A66C00324A4FF4B671FCF701FC237C0393E37B75
:10A67C000293A37B0193637B0093E27A237B3349A0
:10A68C002846FCF764FABEE73149FFF730FF002893
:10A69C00B9D0264A4FF4BD71FCF7E8FBB3E7FEF7DF
:10A6AC0045FCA7E700231A4685218088FFF71DFF8C
:10A6BC000028A8D01D4A40F2C111EDE7184B1948EB
:10A6CC00A2882449C01AC0080004237A40F0030071
:10A6DC00FCF723FAFFF712FF95E700F108018088D9
:10A6EC00FFF7FFFE00288ED0104A40F2ED11D3E7A1
:10A6FC00002305A98088ADF81430FFF7FCFE002874
:10A70C0081D00A4A40F2F911C6E713218088FFF77D
:10A71C00EAFE00283FF477AF044A40F20221BBE77F
:10A72C00E4DC02000CDD0200C6E602003FE8020099
:10A73C00CC9B0020568F0020548F00208CE602000A
:10A74C00E0E70200CAE70200D2E7020098E6020046
:10A75C0024920020FAE602000146014801F039BBC0
:10A76C00CC9B002008B50B490B4801F0F7F820B141
:10A77C000A4A40F26B31FCF779FBF721064801F0ED
:10A78C0008F930B1054A40F26E31BDE80840FCF7DB
:10A79C006DBB08BDF1A80200DC9B00203FE8020065
:10A7AC002DE9F04791F80090B9F1010F06460C46DF
:10A7BC002DD0B9F1000F04D0B9F1020F73D0BDE860
:10A7CC00F0873D4B3D4D3E49ED1AED082D0445F00B
:10A7DC0003052846FCF794F904F10E026188304613
:10A7EC0001F0CCFB20B1374A40F29221FCF73EFB42
:10A7FC00304601F0A1FB20B1324A40F29521FCF722
:10A80C0035FB31492846BDE8F047FCF779B9DFF84C
:10A81C00CCA02E4F9AF80030DFF8C4802C4E2D4D72
:10A82C0073B341F21C020021384603F0ADF94FF02E
:10A83C000009A289A168A8F800903846A6F80090F3
:10A84C0003F079F97A793B798AF8009003EB0223CB
:10A85C00A8F800303288A38913443380A289A168F8
:10A86C001A4803F068F9144B14481849C01AC00868
:10A87C00000440F00300FCF743F901232B709EE722
:10A88C0030888A8989680138384403F054F9328851
:10A89C00A3891344B8F800209BB29A42338098BF26
:10A8AC0085F80090DAE70548034B0B49C01AC0083D
:10A8BC00000440F00300A6E7E4DC02000CDD02001B
:10A8CC002CE702003FE8020040E702009A9D0020BE
:10A8DC00C89B0020CA9B00206EE70200508F00200E
:10A8EC00989D00200A8840F677239A4270B50D4651
:10A8FC0016D10C4B0C4C0D49E41AE408240444F01A
:10A90C0003042046FCF7FCF8AB88094A0949033BD1
:10A91C009BB2138020461A46BDE87040FCF7FDB888
:10A92C0070BD00BFE4DC02000CDD020086E7020013
:10A93C00528F0020A2E7020010B504460020FFF75A
:10A94C002DFD20B1074A4FF46C71FCF78FFA3CB91E
:10A95C00FFF7B8FD20B1034A40F2B731FCF786FA95
:10A96C00012010BD3FE802002DE9F3414FF40041F6
:10A97C000020FBF701FF20B14D4A4FF45371FCF757
:10A98C0075FAFBF723FEFCF7E7FC20B1484A40F2CE
:10A99C005731FCF76BFA0120FEF72EFBFDF718F987
:10A9AC0020B1434A40F23631FCF760FA01F056FB15
:10A9BC0020B13F4A40F2E721FCF758FA002301A9E5
:10A9CC000120019301F01EFC20B1394A40F2ED2127
:10A9DC00FCF74CFA01A801F0E9FC20B1344A40F232
:10A9EC00F121FCF743FAFFF7BDFE324800F0DEFD23
:10A9FC0020B12F4A4FF44B71FCF738FA00F052FC9F
:10AA0C00FFF7B0FE2C4B2D48019301A901F030FA51
:10AA1C0020B1274A40F2CB21FCF728FA284C3226E9
:10AA2C0044F001044FF47A40A047013EFAD100F003
:10AA3C0017FA244C244B254D2549264FE41AE408DB
:10AA4C00240444F003042046FCF75AF8FFF756FDA3
:10AA5C002E70214EDFF890802B7813B301223188B1
:10AA6C00384600F005F902224146308803F063F8BD
:10AA7C001A4B1B4901221A70204600232B70FCF73D
:10AA8C003FF8184B13211888FFF72DFD30F0080301
:10AA9C0004D0074A4FF47F71FCF7E8F90120FEF768
:10AAAC0059FAFBF7C3FE0028D6D1FDF7A7F8D1E77A
:10AABC003FE8020065A70200ADA70200CC9B002076
:10AACC0080E702000CDD0200E4DC0200CA9B0020DF
:10AADC00E8E70200A09D0020989D0020508F0020E8
:10AAEC0003E80200548F00209E9D0020438803F051
:10AAFC000F021B0902714380704700002DE9F341DE
:10AB0C000C46557946494FF4B463B0FBF3F3DEB20F
:10AB1C0001FB03032918107906EB46053C2793FB30
:10AB2C00F7F3DBB201EB4511A3EB03150344D0782B
:10AB3C0001EB8501C9B20644DBB2F6B23B29517177
:10AB4C001371D67006D901331371B1FBF7F307FB00
:10AB5C00131151711179172907D918200136B1FB3E
:10AB6C00F0F300FB1313D6701371917850780C2905
:10AB7C0001D91E230BE041F2AA53CB40DD0748D488
:10AB8C000229F6D110F0030F14BF1C231D23D57816
:10AB9C009D4206D901319170B5FBF3F103FB1153C2
:10ABAC00D37093780C2B81BF0130012350709370BC
:10ABBC005378632B04D9137801331370002353702B
:10ABCC00184FDFF86480561E002516F8010F0A2274
:10ABDC0001A902F0ABFF3378092B9FBF9DF804301D
:10ABEC008DF8053030238DF80430AB1E022B12D8B3
:10ABFC0001224146204602F07EFF0135022201A9C6
:10AC0C002046EDB202F077FF062DDED102B0BDE892
:10AC1C00F0811F23BBE7052DEFD101223946E9E76F
:10AC2C0060FAFFFFB3E80200B1E8020084B007B598
:10AC3C000DF1100C8CE80F0033220B490B4802F07D
:10AC4C0047FA04A901AB31F8022B084802F023FBA8
:10AC5C0008B9ADF81000054802F02BFC03B05DF804
:10AC6C0004EB04B0704700BFB6AD002004AE00206A
:10AC7C002DE9F04F4B00ADF22C4D07339146DB081C
:10AC8C006A46A2EBC3037EAF9D46CB1D6A46DB082A
:10AC9C00A2EBC3030DF5FC7807F12C059D4682460B
:10ACAC000C4640F2022200217EAE284602F06CFFD8
:10ACBC0022465146304602F03EFFB9F1000F20D03B
:10ACCC0010223146604802F036FF60495E4802F0BF
:10ACDC00CEFEA4F1100282A9304602F0ABFE163C67
:10ACEC00062231465A4802F026FF22460DF5FF7126
:10ACFC00304602F09FFE30191622002102F044FF6C
:10AD0C00A4B24FF40072002107F12E0002F03CFFB8
:10AD1C000023F21859085078F25C02339BB202EB14
:10AD2C0000229C4228F81120F3D24FEA540ADFF893
:10AD3C0020B1484CDFF824910026B3B29A4514D8C0
:10AD4C0007F12E0002F075FF07F13C0128804FF44B
:10AD5C00F972684602F0EFFE95E80F00FFF766FF08
:10AD6C0007F50D77BD46BDE8F08F38F816204FF685
:10AD7C00FF718A4265D008F1020333F816308B421A
:10AD8C005FD0344863802280FFF7B0FE142200218C
:10AD9C0007F1180002F0F8FE594607F1100002F016
:10ADAC0026FF07F1100207F118012088FFF7A6FE15
:10ADBC000A2207F10801608802F0B8FE0A22391D48
:10ADCC00207902F0B3FE07F1180107F12E0002F012
:10ADDC004EFE494607F12E0002F049FE391D07F1DF
:10ADEC002E0002F044FE494607F12E0002F03FFE11
:10ADFC00042207F1080107F12E0002F07CFE16492F
:10AE0C0007F12E0002F033FE07F12E0002F011FFC5
:10AE1C0080B2B0F5F37F288013D94FF4F97207F1A3
:10AE2C003C01684602F087FE95E80F00FFF7FEFE36
:10AE3C004FF40072002107F12E0002F0A5FE002352
:10AE4C002B80023679E700BFB6AD0020B5E80200D2
:10AE5C00CAAD0020D2AD002009DF0200BAE8020022
:10AE6C0038B51648012102F0B3FC002002F094FB27
:10AE7C0038B1002002F090FB18B1002002F08CFBDE
:10AE8C00D0B90F4B0F485C69A0470E48A047012270
:10AE9C000D490E4802F0F6F870B90D490D4802F054
:10AEAC0015FB48B90C4C0B4D0B49284602F041FBE5
:10AEBC0010B9637A002BF7D138BD00BF2C9200205B
:10AECC0054E50200BCE802000ADF020044B0002096
:10AEDC00B1E80200D8AD00202CB000200369C16895
:10AEEC008B429DBF8268D21802F1FF3203F1FF330F
:10AEFC0094BF501A581A70472DE9F041D0E90274EA
:10AF0C0005463E1B4068964220448846144404D9AA
:10AF1C0002F011FEEC60BDE8F0813246E41B02F059
:10AF2C000AFE224608EB06016868F1E72DE9F843B2
:10AF3C00C5680646894617464FF000083469B36861
:10AF4C007068A54228BFE418013C621B5C1BBC4224
:10AF5C0028BF3C46944228BF144649462844224602
:10AF6C0002F0E9FDB3682544AB4208BF00253F1B46
:10AF7C00A044A144F560E1D14046BDE8F88300004F
:10AF8C0010B5114C114AA2610223C4E90433104BD1
:10AF9C00E361A2644FF400730E4A2362E26400235F
:10AFAC0010220D49A362E01D6362E362A365636531
:10AFBC00E365226502F01BFE0849204602F017FEED
:10AFCC002023A37110BD00BF90B20020E8E802005E
:10AFDC0018B3002008B30020F1E80200F5E80200E5
:10AFEC00F8B5184C182300FB033503FB004025442F
:10AFFC00C46A012C0F46164611D024B1022C1BD06A
:10B00C0000242046F8BD2846FFF768FFB042F8D36D
:10B01C00324639462846FFF76FFF3446F1E728469B
:10B02C00FFF75CFF8642344628BF04462246394669
:10B03C002846FFF761FFE4E72846BDE8F840FFF734
:10B04C0075BF00BF90B20020FFF79ABF64DF704756
:10B05C0070B5C0B14AB116880024B44203D30519A7
:10B06C006D789D4208D0A14201D800200BE0055D0F
:10B07C0001352C44A4B2F0E7A142F6D9A31C1380ED
:10B08C00005D013880B270BDF7B500230746ADF8FE
:10B09C000630144612B9002003B0F0BD09230DF19F
:10B0AC000602FFF7D5FFBDF806500646002DF2D07C
:10B0BC000028F0D0204602F0BCFDB0420246EAD196
:10B0CC007919204602F07BFCB0FA80F04009E3E7E6
:10B0DC00F0B587B0002306460D461046ADF8063095
:10B0EC0002AA10230DF105018DF80530FFF7AEFF14
:10B0FC0016B9002007B0F0BD0028FAD19DF8054024
:10B10C00042C2BD0102C2BD0022CF3D10323BDF804
:10B11C0006207AB90DF1060229463046FFF798FF52
:10B12C00BDF806302BB923460DF106023046FFF769
:10B13C008FFF0546BDF80670002FDAD00024A5421B
:10B14C00D7D9E0199DF8052002A9304402F037FC4C
:10B15C0048B19DF805301C44A4B2F0E70523D6E7AE
:10B16C0006240723D3E70120C4E70000782200213E
:10B17C00014802F009BD00BF18B5002073B501915C
:10B18C00019C06466CB100252C46294601A8FCF70B
:10B19C0005FA18B106EB440301349D800135142DDA
:10B1AC00F3D13046346002B070BD00002DE9F04799
:10B1BC0003888488112B8CB006463ED01A2B41D0C4
:10B1CC00102B19D1284DAB68DB4300936968684696
:10B1DC00FCF70DFA009901A8FFF7D0FF0DF1080953
:10B1EC004FF00008019B984509D3132C15D91F4A21
:10B1FC00E3210420FBF73AFE0CB0BDE8F08739F8E8
:10B20C0002AB00270137514605EB8700FCF7BCF970
:10B21C001D2FF7D108F10108E4E721461448FCF78B
:10B22C00AAF921461348FCF7A6F9F37B012BE3D0CE
:10B23C0011482146FCF79FF9DEE70D482146FCF743
:10B24C00A3F9D9E7057A0D482D09012D214606D918
:10B25C00FCF791F9022D21460948F0D0EAE7FCF7FA
:10B26C0093F921460648EAE718B50020FCE80200ED
:10B27C0020B500201CB5002024B5002028B50020E6
:10B28C002CB5002037B5002401902546214601A895
:10B29C00FCF784F900B101350134142CF6D12846A1
:10B2AC0003B030BDFFF762BF07B5064BDA680192F9
:10B2BC00996801A8FCF79BF90198FFF7E3FF03B02D
:10B2CC005DF804FB18B500209BDF70479DDF7047CD
:10B2DC009EDF704730B50B4B19680B4B0022914227
:10B2EC0001D1002009E09D788478A54206D11D8803
:10B2FC000488A54202D1054B186830BD01320433D5
:10B30C00EDE700BF98B50020A0B8002090B5002054
:10B31C0070B590F8C63216467622A0B002FB030038
:10B32C000D46FFF7D7FF044660B17C22002101A82F
:10B33C0002F02AFC01238DF80430ADF8066002956A
:10B34C0001A8A04720B070BD2DE9F74F8B4690F8AF
:10B35C00C61201927623804601FB03000091FFF791
:10B36C00B9FF814670B3194E3568052D2AD8184C93
:10B37C000099019A4FEAC51A04EB0A07762303FBDE
:10B38C0001817A80381D1A4602F0D5FBBBF1000F03
:10B39C0014BF0023022304F80A300E4BC7F87C902C
:10B3AC001A680135954235601D460BD10027E36FB5
:10B3BC00204698472B6801379F4204F18004F6D34E
:10B3CC000023336003B0BDE8F08F00BF9CB80020B1
:10B3DC009CB5002098B5002037B590F8C53290F890
:10B3EC00C6220C46C3B1013B7621DBB25143122578
:10B3FC0005FB031303445B8A01339BB2ADF80430A5
:10B40C00762303FB020201A91389ADF8063020460E
:10B41C00FFF75CFF03B030BD762303FB0203DB8830
:10B42C00ECE7000070B54FF433720E460021044671
:10B43C0002F0AAFB114BA4F8CA6200251D60104B48
:10B44C0084F8C9521B6884F8C65284F8C55223602C
:10B45C00224601213046FFF737FF112806D020B9CC
:10B46C00012384F8C73284F8C80270BD012384F824
:10B47C00C73284F8C8322846F7E700BF9CB80020D2
:10B48C00A0B8002070B5194A90F8C932126801337F
:10B49C00DBB2934204460D4680F8C9324FF00006E9
:10B4AC0021D290F8C63280F8C5620133DBB2762126
:10B4BC0013FB01F180F8C63242180D4850F82330C6
:10B4CC006350284601211671FFF7FEFE014648B174
:10B4DC0084F8C7622A462046FFF71AFF054B032261
:10B4EC001A705D8070BD80F8C762F7E798B50020D0
:10B4FC00A0B800209CB500202DE9F34790F8C64277
:10B50C0090F8C552762314FB03F4071905EBC50319
:10B51C0097F804C004EB43036E1C0A3366450344DE
:10B52C0013D000F11C0A07F1220E0CF1FF384FF07A
:10B53C001209A244ECB2A4450BD9A8451C891AD116
:10B54C003B89A34226D100231DE01B893889834205
:10B55C0005D101230B70002002B0BDE8F087013348
:10B56C00ADF80430ADF8060000230B70104601A9AD
:10B57C00FFF7AEFEF0E709FB05F301343EF803607C
:10B58C00B4420DD1534490F8C542013480F8C54201
:10B59C000135CFE70134ADF80440ADF80630E3E7F0
:10B5AC00013EADF80440ADF80660DDE758B1074A3E
:10B5BC0000231360064A01211170064A1360064AE3
:10B5CC001060184670470E20704700BF98B50020D9
:10B5DC0094B500209CB8002090B5002010B504460E
:10B5EC0080B10C4B1B787BB1FFF774FE70B90A4A23
:10B5FC001368052B0CD80949246841F82340013302
:10B60C00136010BD0E20FCE70820FAE70020F8E7D5
:10B61C000420F6E794B5002098B50020A0B80020CF
:10B62C0050B1084A12784AB1074A126832B190F800
:10B63C00C7322BB9FFF7F6BE0E20704708207047B3
:10B64C001120704794B5002098B500202DE9F743E0
:10B65C000C460546C8B1C1B1974B1B78ABB10388FA
:10B66C00302B35D014D8112B00F0158194F8C8323A
:10B67C005BB12B88303B1F2B07D8B4F8CA32A98892
:10B68C00994202D12046FFF7CDFE03B0BDE8F0830E
:10B69C00322B3FD0332BE9D18288B1F8CA32934296
:10B6AC00E4D1C68891F8C6C291F8C572002E00F09C
:10B6BC00BC80762101FB0C4C7B1C9CF804100026F2
:10B6CC008B428DF8076000F0E08084F8C5329DE075
:10B6DC008388B1F8CA229A42C8D1C6888EB991F82B
:10B6EC00C632762101FB03430169C3F806102046DC
:10B6FC001146FFF771FE01460028B7D084F8C762E7
:10B70C004CE000212046FFF71FFEA9882046FFF7DA
:10B71C00B9FEABE78288B1F8CA329A42A6D1C38887
:10B72C00002B6FD191F8C662762316FB03F701EB61
:10B73C000709837A99F804603344062B38DC89F8BE
:10B74C00043006EBC60307EB430305F10C0C234452
:10B75C00002299F8040086420CF10A0C03F1120342
:10B76C003DD31223013E03FB064694F8C6327622E3
:10B77C0002FB03433E441B89728A9A4242D206283A
:10B78C0040D0A98884F8C5022046FFF725FE014663
:10B79C0000283FF46BAF002384F8C732AA882046F8
:10B7AC00FFF7B6FD454B03221A70AA885A805DE755
:10B7BC00062389F80430424A424BA3EB02084FEAB5
:10B7CC00D8084FEA084848F00208CA5B3E49404690
:10B7DC00FBF79AF93D494046FBF792F9B1E7604611
:10B7EC00A3F1080150F80AED43F808ECD0F804E096
:10B7FC0043F804EC0089088101365A809A80DA807B
:10B80C001A81A6E7002684F8C562AA880DF1070103
:10B81C002046FFF771FE014600287FF46FAF9DF8BC
:10B82C000730002B3FF422AF32E0762303FB0CF100
:10B83C00122303FB0713B0F80AE023447645BFF448
:10B84C0038AFC189A1F52451082908D8DFE801F0E7
:10B85C0014170507070707071A0081899982998A27
:10B86C0039B1D98A29B1198B19B1598B00297FF4B7
:10B87C0020AF01360630E1E78189D982EFE7818973
:10B88C001983ECE781895983E9E701238DF80730A7
:10B89C00AA88012136E78288B1F8CA329A427FF42D
:10B8AC00E5AE002381F8C73281F8C8324FF6FF733A
:10B8BC00A1F8CA32DAE600BF94B500209CB500208E
:10B8CC00E4DC020014DD020059E902009FE90200E9
:10B8DC0090DF7047A5DF7047B5DF70477FB5002359
:10B8EC00ADF80810ADF80A106A4602A90646039393
:10B8FC000093ADF80430FFF7EBFF054600B3124B95
:10B90C00124CE41AE408FCF7DDF9240444F00104B9
:10B91C00034632460E492046FBF7FFF8BDF80020DF
:10B92C00BDF8023052EA030103D00A492046FBF766
:10B93C00F4F8BDF804201AB107492046FBF7E4F8E7
:10B94C00284604B070BD00BFE4DC020034DD020008
:10B95C0005EA02004FEA02008EEA020070B5B0B1AF
:10B96C004FF0F7130360FB238164037100F1400176
:10B97C00F726172500221B24C68005818272C2720D
:10B98C000373447308308842F6D1002070BD0E203A
:10B99C00FCE730B1A1F11703E02B04D84180002063
:10B9AC0070470E207047072070470000F7B5858858
:10B9BC00072D0C4617D80388232B4FEAC50700F038
:10B9CC00B88012D8102B28D0112B58D03C44A37A15
:10B9DC004BB1E1882846FFF77DFF002840F0B0808E
:10B9EC000123A072E37203B0F0BD3A2B52D0552B59
:10B9FC006DD0242BEAD1CB19027A5A738B6C002BA5
:10BA0C00E4D00021ADF804104DF67A21ADF8001009
:10BA1C00ADF802508DF8042087E0CE190B79337302
:10BA2C00C37B012B13D0022B14D0F18833898B42AA
:10BA3C0005D22846FFF74EFF70B90123F372317B14
:10BA4C00737B8B42C2D22846FFF748FFBEE70B88B8
:10BA5C00F380EAE74B88FBE7112802D10123B3728C
:10BA6C00EDE7FCF72FF93F4A3F4B40499B1ADB08A7
:10BA7C001B04024643F00100FBF746F8DFE7CB1945
:10BA8C00F722DA8017221A8100225A8141F6FB3202
:10BA9C009A819BE7CE194389F288934228BF1346BB
:10BAAC00172B8A6C38BF1723338162B1F17A51B1ED
:10BABC0040F67721ADF80010ADF80250ADF8043027
:10BACC006946204690470023F372B3727EE7C38821
