:020000022000DC
:10600000000004205D630200456302004763020054
:10601000496302004B6302004D6302000000000070
:106020000000000000000000000000004F630200BC
:106030005163020000000000536302005563020038
:106040008592020057630200CD95020039A102003B
:106050005763020057630200219402005763020055
:106060005763020057630200576302005763020040
:106070005763020057630200576302005763020030
:1060800057630200B16F02005763020057630200BA
:106090004D70020057630200F1CA0200576302000C
:1060A0005763020057630200576302005763020000
:1060B0005763020057630200000000000000000068
:1060C00057630200576302005763020057630200E0
:1060D00057630200576302005763020057630200D0
:1060E000576302005763020057630200000000007C
:1060F0000000000057630200000000005763020028
:10610000000000000000000000000000000000008F
:10611000000000000000000000000000000000007F
:10612000000000000000000000000000000000006F
:10613000000000000000000000000000000000005F
:10614000000000000000000000000000000000004F
:10615000000000000000000000000000000000003F
:10616000000000000000000000000000000000002F
:10617000000000000000000000000000000000001F
:10618000000000000000000000000000000000000F
:1061900000000000000000000000000000000000FF
:1061A00000000000000000000000000000000000EF
:1061B00000000000000000000000000000000000DF
:1061C00000000000000000000000000000000000CF
:1061D00000000000000000000000000000000000BF
:1061E00000000000000000000000000000000000AF
:1061F000000000000000000000000000000000009F
:10620000314932480A1A02D0072291438D4630495B
:1062100030480A1A06D00722914381F309880222E6
:1062200082F314882C482D492D4A00F03CF82D4863
:106230002D492E4A00F037F82D482E492E4A00F0FD
:1062400032F82E482E492F4A00F02DF82E482F49BB
:106250002F4A00F028F82F482F49304A00F023F841
:106260002F483049304A00F01EF8304830490022AB
:1062700000F024F82F483049002200F01FF82F4A80
:1062800090471F481F49884205D00268043003B474
:10629000904703BCF7E700208646EC46002000212B
:1062A000274A9047FEE7884207D0521A05D0037864
:1062B00001300B700131013AF9D17047884202D0A8
:1062C00002700130FAE770470000042000E003206C
:1062D000000004200000042084030300288F002015
:1062E000E8A50020BC630200BC63020090EE02003F
:1062F00084030300288F0020288F002040F0020034
:1063000040F0020040F0020040F0020040F00200C5
:1063100040F0020040F0020040F00200840303005D
:10632000441A0300E8A50020E8A50020E8A5002005
:106330009CC000209CC000209CC0002085630200FF
:10634000E1AD0200FEE7FEE7FEE7FEE7FEE7FEE75F
:10635000FEE7FEE7FEE7FEE7704700BF1048804714
:1063600010484FF00701884385460F4880470F4883
:10637000016841F470010160BFF34F8FBFF36F8F6D
:10638000FFF73EBF0A480B490B4A884207D0521A12
:1063900005D0037801300B700131013AF9D1704713
:1063A00059630200000004204D8D020088ED00E0DA
:0C63B00040F00200288F0020288F002001
:1063BC0008F0A0B97047000007B5044B0093044ADD
:1063CC00402300F032F803B05DF804FBE1630200F7
:1063DC00E9A500202DE9F84389461446B2B10F4BCC
:1063EC000F4E0325002743F00108224609EB070155
:1063FC00002005F063F80744241A48B933782BB110
:10640C004FF47A40C047013D02D13570BDE8F883A6
:10641C0001233370002CE8D1F8E700BF40F00200F4
:10642C00E8A50020704705F07DB8F0B595B01C4686
:10643C00164608460D4601F05EFB1A9B0D93CDE9FE
:10644C00086400242346082205A928460A948DF8DE
:10645C002C400C9401F06CFB079B0293069B03935E
:10646C009DF814308DF8114003F00302012A1DD160
:10647C00BDF81440059EC3F3C203C4F383148DF816
:10648C001030A20008230EA9284601F051FBC6F3D8
:10649C00952608AB0093224602AB0EA9304600F0BD
:1064AC00E5FB284601F02BFB15B0F0BD022AF8D114
:1064BC00BDF81640C3F3C203A4098DF810300827A9
:1064CC00082C264628BF08263B4632460EA92846ED
:1064DC0001F02EFBA41B08AB02AA31460EA83744D0
:1064EC0000F028FC002CEBD1DBE7704707B5044B20
:1064FC000093044A4023FFF798FF03B05DF804FBB8
:10650C00556502002AA6002030B50C4D0FCD89B080
:10651C006C460FC495E80F0084E80F000623002298
:10652C0069460748009302F041FE08B100F08CFC6C
:10653C00044B00221A7009B030BD00BF54F00200A9
:10654C00288F002029A6002038B50D4B0D4D0020BA
:10655C0018700D4804782D5DD2B21C4665B104301C
:10656C0003F016FD08B100F06FFC084B1A7812B15D
:10657C002378002BFBD038BD0C3003F07BFAF1E70D
:10658C006AA600201CAE0020288F002029A600201F
:10659C0008B50848084A0378D35C33B1043003F0DB
:1065AC00A1FCBDE80840FFF7AFBF0C3003F00CFABC
:1065BC00F7E700BF288F00201CAE0020FFF7A4BF18
:1065CC0038B50A4DFFF72FFF0421284600F0BCFA1E
:1065DC00074B01245C71FFF7F1FF042105F110005A
:1065EC0000F0B2FA034B5C7138BD00BF20F0020022
:1065FC003C8F0020448F0020037813F0040216D047
:10660C0003F00303012B03D0022B09D001207047A8
:10661C000A6800880232C0F3831002440A60F5E76E
:10662C000B684288023303EB92130B60EEE71046C3
:10663C00704700002DE9F04F87B000230446851CFD
:10664C000DF107000F4690468DF8073000F0DAFE8A
:10665C00454806683E60D0E90132134401339B1B68
:10666C00824600F21C4600F5836900F21447AB42E7
:10667C001BD30022B8F1000F70D0052363F307027F
:10668C0064F38912DAF80010DAF808309DF8070084
:10669C000B4003330D444AF82320CAF8005000F095
:1066AC00D5FE012007B0BDE8F08F0121304600F087
:1066BC0065FF484600F078FF384600F075FFDAF8C1
:1066CC000400DAF808B0029000EA0B0003300AEB81
:1066DC00800002A9FFF790FF029B50BB0BEA03025C
:1066EC000AEB820203F1020CD2680392013303EA33
:1066FC000B0B0AEB8B0B02F00302012ACDF808C03E
:10670C00DBF80C1022D0022A16D08346384600F053
:10671C004EFF10B1029BCAF804305946304600F0C7
:10672C002DFFDAE901231344DAF8002001339B1A18
:10673C009DE70BEA0300C9E7BDF80E309B09033354
:10674C004FEA114B0CEB93030293DFE7BDF80C30CF
:10675C00C3F383134FEA114B6344F5E7062363F34A
:10676C00070264F39F528DE73CA700200B4B0C48AB
:10677C00FF2210B59A600022C3F81824C3E9002246
:10678C00C3F81424012283F8202401F06DF9044687
:10679C0010B9044801F014FA204610BD3CA70020A3
:1067AC00E4EF0200A4F0020030B50A4C71B10A4AC1
:1067BC000A49121BD20800239A4201D1002030BD95
:1067CC0031F82350854202D00133F5E7034654F8E3
:1067DC003300F4E754EF0200E4EF0200288F0020AE
:1067EC00094B013903EBC000032909D8DFE801F09C
:1067FC000A020406042070470079704740797047FC
:10680C00002070470220704754EF0200034BD3E97D
:10681C000030C31A58425841704700BF3CA70020B3
:10682C002DE9F04387B0FFF7F1FF0646002840F052
:10683C00FB807E4DC5F81804BFF34F8F6868AC68B9
:10684C0002902040033005EB800002A9FFF7D4FE34
:10685C00029B18B1D5F81824002A5FD004EA030271
:10686C00991C013305EB8202234005EB8303D268AC
:10687C00DB68049302F00303022B0392029162D1B2
:10688C00BDF80E306A484FEA9318B8F1500FC14664
:10689C0028BF4FF0500969F38F1309F10801ADF8C7
:1068AC000E3001F0F9F80746002800F0A88001F03E
:1068BC0022F903A900230822384601F02FF9029986
:1068CC0024EA01060136B600B14535D95FFA89F9DB
:1068DC007EB3F6B2A9EB0609214003315FFA89F4C5
:1068EC00B146544E05EB810108234A46384601F067
:1068FC0015F936B109F1080322463146384601F044
:10690C000DF9029B08F1030803EB98030293D5F8E9
:10691C001834002B4BD1D5F810445BE02A689A420E
:10692C0004D86A60304607B0BDE8F08304EA03007F
:10693C0088E740493446D7E72140033108234A46CB
:10694C0005EB8101DAE7012B59D1BDF80C30384841
:10695C00C3F38311062928BF062161F38913023181
:10696C008900ADF80C3001F097F80746002846D0A6
:10697C0001F0C1F80023082203A9384601F0CEF833
:10698C000026BDF80C20C2F38312B300964203F12B
:10699C000803BCD202994A1C21400331029205EB38
:1069AC0081010422384601F0B9F80136E9E738468E
:1069BC0001F0A5F8FFF72AFF80F00100C6B2B1E79D
:1069CC00E3685B7923B1236839461B6820469847F6
:1069DC00E3681C68002CF3D1384601F090F80DF1F7
:1069EC0007008DF8074000F00DFDD5F818340BB9F1
:1069FC00029B6B609DF8070000F028FDDAE7D5F8E4
:106A0C00104454B90C4B0D480D49C01AC008000471
:106A1C0040F0020000F06EF8CCE7236820469B683B
:106A2C009847E3681C68ECE700267BE73CA700204E
:106A3C00E4EF020048A7002054EF020084EF0200AC
:106A4C00B0F002002DE9F74F284C80460F469246D5
:106A5C0001A9012218469B46D4F80890FFF7EAFDDD
:106A6C0080B3019D0026A91C5E4506EB010233D1C3
:106A7C0000211F4800F057FD80F310006A1C02EA49
:106A8C00090204EB8202000405EA0903033340EA1D
:106A9C001840D06014F8232068F3C50204F82320B2
:106AAC0034F8232066F3891224F8232054F8232089
:106ABC0067F39F2244F8232002F0F80242F001020F
:106ACC0004F8232094F820341BB1FFF7A9FE00280A
:106ADC00FBD103B0BDE8F08F09EA020204EB82029D
:106AEC005AF82630D3600136BEE700BF3CA7002021
:106AFC0058AB002000231A46FFF7A4BF07B50123AB
:106B0C00019201AAFFF79EFF03B05DF804FB07B5E5
:106B1C00CDE9002302236A46FFF794FF03B05DF82A
:106B2C0004FB7FB5CDE90023089B0293099B0393DB
:106B3C000A9B04930B9B05936A460623FFF782FF7F
:106B4C0007B05DF804FB000030B50F49D1F81024F4
:106B5C00002314463CB9C468237152B9C1F810041F
:106B6C002260184630BDE46825799D4206D0246821
:106B7C00F0E7D268116821601060F2E701330A2B4C
:106B8C00E7D14FF0FF33ECE73CA70020094A38B5BA
:106B9C000123D2F8104482F820341D4604B938BDC4
:106BAC00E3685D71236820465B689847E3681C685E
:106BBC00F4E700BF3CA70020037A052B10B50C4668
:106BCC000FD0437A23B1084A0849204600F052FD01
:106BDC000749204600F04EFD2046BDE8104000F06D
:106BEC003EBD002AF8D0F3E7FBF0020000F10200F2
:106BFC0020F10200C38873B504460D4633B1144A24
:106C0C0000921449144A284600F034FD217A0529D3
:106C1C001CD0637A4BB1A088FFF7E2FD0F4B1049F3
:106C2C0053F82020284600F025FD227A0D4BA08831
:106C3C0053F822600021FFF7B7FD0B49034632469B
:106C4C00284602B0BDE8704000F014BD02B070BD23
:106C5C00FBF002000BF1020003F10200C8F002008D
:106C6C0000F1020030F1020023F102002DE9F043A3
:106C7C0085B01F460C9D002306460C46904695F8A1
:106C8C000C902B7329463846FFF7B4FFB8F1060F6A
:106C9C0009D8DFE808F00412181F283340003146E9
:106CAC00284600F0E7FC002229463846FFF784FF0F
:106CBC0085F80C9005B0BDE8F08322683146284673
:106CCC0000F0D8FCEFE7D4E900233146284600F069
:106CDC00D1FCE8E7A36800933146D4E900232846A9
:106CEC0000F0C8FCDFE7E3680193A368009331462A
:106CFC00D4E90023284600F0BDFCD4E723690293B5
:106D0C00E3680193A36800933146D4E90023284635
:106D1C0000F0B0FCC7E76369039323690293E3684F
:106D2C000193A36800933146D4E90023284600F070
:106D3C00A1FCB8E708292DE9F84F80460E46174606
:106D4C001C463AD8002593F80C901D731946104632
:106D5C00FFF750FFDFF884A0DFF884B0AE422ED9E5
:106D6C0018F805205946204600F084FC0135082D02
:106D7C00F4D11849DFF86CB0204600F07BFC4FF0E2
:106D8C00000A564520D918F80A507E2D03D82846FB
:106D9C0007F0E6FA00B92E252A465946204600F09F
:106DAC0069FC0AF1010ABAF1080FEAD10122214665
:106DBC003846FFF701FF84F80C90BDE8F88F514678
:106DCC00204600F057FCD1E70349204600F052FC66
:106DDC00E7E700BFF6F00200F4F00200F2F0020068
:106DEC00ECF00200F8F0020070B5084D084E0024DB
:106DFC002B789C4201D3002070BD3368012113F81D
:106E0C00340002F09BFA0134F2E700BFF8AB00202B
:106E1C001CAC002070B5094D094E00242B789C4207
:106E2C0004D30848BDE8704000F0DCBA336813F8AE
:106E3C00340002F0CDFA0134F0E700BFF8AB0020CB
:106E4C001CAC0020FCAB00201FB50021039001AA54
:106E5C0044F20100CDE9011100F004F805B05DF831
:106E6C0004FB000010B572B6FFF790FEFFF7D8FCDC
:106E7C000028FBD1104B114C1149E41AE4082404EE
:106E8C0044F00100FFF736FE0E4B1B68DB0700D504
:106E9C0000BE0D4944F00200FFF72CFEBFF34F8FEC
:106EAC000A490B4BCA6802F4E0621343CB60BFF390
:106EBC004F8F00BFFDE700BF54EF020084EF0200CC
:106ECC008FF10200F0ED00E09BF1020000ED00E01C
:106EDC000400FA05094A537891780133DBB29942E0
:106EEC0008BF0023117899421FBF037050781823F4
:106EFC0003FB002014BF04300020704720AC00209E
:106F0C0073B5054600240DF107000E468DF80740B9
:106F1C0000F078FA0DF10600FFF7DCFF90B1067077
:106F2C00094B9DF8062045605A709DF8070000F04B
:106F3C008DFA24B9054B4FF48012C3F8002120467A
:106F4C0002B070BD0424F0E720AC002000E100E0AA
:106F5C00024B4FF43C6043F001031847B0F10200C0
:106F6C0038B50C4B0C4C4FF40032C3F88020012583
:106F7C004FF48033C4F84833C4F808336560FFF726
:106F8C00E7FF064BA56000241C60FFF7E1FF044BF4
:106F9C001C7038BD00E100E0001001403CAD002049
:106FAC002DAD0020F8B51F4B1F491B680025C1F8FB
:106FBC004051C1F84451C1F84851C1F84C51C1F885
:106FCC000051C1F804514BB3D1F804451749096875
:106FDC00641A24F07F442F461A68A24209D8A41AD6
:106FEC0015441A7CDE691AB11F74D3E90520904749
:106FFC00AEB90F4A0F4B11781B788B4205D1013378
:10700C00DBB2022B08BF0023137012780A4B43F833
:10701C0022500A4B4FF48012C3F80021F8BD3346BE
:10702C00DAE700BF40AD0020001001403CAD00206D
:10703C0039AD002038AD002030AD002000E100E07B
:10704C002DE9F04FA14AA24913780978A14D994234
:10705C0085B03CD00133DBB2022B08BF0023137088
:10706C009D4912789D4B0F6853F822003B1823F072
:10707C007F4300220B602B6816461446944613B9C6
:10708C0042B12B6006E0196881420ED902B12B6027
:10709C00091A196001272B68DFF848A201934FF0F9
:1070AC000008BEB9DFF844B266E0401A0C44D96857
:1070BC00C3F800C0D3F81CE031B13A1922F07F427A
:1070CC00C3E90121DE611E4601227346D7E7002683
:1070DC003746E0E73446F6697F4A63681268DFF8A2
:1070EC0010C2A068991A21F07F41614500F2A68078
:1070FC0001442160012222742A680023C4E901336F
:10710C00E361002A40F0A3802C60CAE75A1C9BF86C
:10711C000210D2B291428BF8002004BF00228BF8EF
:10712C000020182202FB03B31A799C68022A1CD097
:10713C00032A12D0012A1FD1207CE8B9D3E903120B
:10714C00A2605A69E2609A69654BA2611B78002BB8
:10715C000CBF0B4603466360BEE700222B6811464A
:10716C00002B67D142B12B6006E029680A4689469C
:10717C00002A5AD1002323749BF800309BF801207D
:10718C009A42C3D12B68B8F1000F04D1019A9A42EC
:10719C0001D1002F43D0002B73D0D3F800A0514D58
:1071AC004D4BD5F804751C68DFF848813E1B98F8E8
:1071BC00003026F07F4603369BB94FF48033C5F878
:1071CC004433C5F80433484B4FF400324FF00109F7
:1071DC00C3F880211A60C5F80090FFF7B9FE88F853
:1071EC000090B2452CBF5444A41924F07F44C5F838
:1071FC004045D5F80435DB1B23F07F43E41B0333F8
:10720C0024F07F44A3420AD9D5F80435C5F840359B
:10721C00FFF79EFE344B4FF40032C3F80021304B85
:10722C0000221A7005B0BDE8F08F94422CD0914624
:10723C00D2699DE719740122DB6991E7D31A23F017
:10724C007F43834234BFC31A0023236052E7216873
:10725C001368994213D8591A1160E26154E7091A5C
:10726C00D8691A4638B1034618688842F7D3401AD1
:10727C001860184613462160E061DC6111E7134683
:10728C00F2E7FFF76DFECAE74C4511D1CB692B60D5
:10729C0073B9DFF844E00120CDE90212CAF8080006
:1072AC00CEF800300E4B1870FFF752FEDDE90212DB
:1072BC001368D269C9F81C2012B11068034413601A
:1072CC002B68994218BF4FF0010853E738AD0020E6
:1072DC0039AD002040AD00203CAD002030AD002089
:1072EC002CAD00200010014000E100E020AC00209B
:1072FC00FEFF7F002DAD002008B5FFF731FE104BCF
:10730C0000200B2218809A700E4B18600E4B1870D0
:10731C000E4B18700E4B4FF48012C021C3F8802115
:10732C0083F814131A6002F18042A2F56F22C2F89E
:10733C00080583F81113074BD2F804251A6008BD11
:10734C0020AC002040AD002038AD002039AD00202D
:10735C0000E100E03CAD00202DE9F7431E4FBB7867
:10736C0005460E469046A3B398B304292FD943691A
:10737C007BB3437C0024012B0DF107000CBF894625
:10738C00A1468DF8074000F03DF80DF10600FFF71F
:10739C00A1FDD0B101230370104B4560D3F8043527
:1073AC00C0E90498C0E902369DF806307B709DF860
:1073BC00070000F04BF824B9094B4FF48012C3F8C6
:1073CC000021204603B0BDE8F0830424EFE7072436
:1073DC00F7E70824F5E700BF20AC002000100140BF
:1073EC0000E100E0064A92783AB130B1426922B12C
:1073FC00002202740221FFF783BD0820704700BFF2
:10740C0020AC002070B5EFF3108672B60C4A94686D
:10741C0001239CB993600B4B0B4DD3F88010294082
:10742C001160C3F88050D3F8841051604FF0FF32D4
:10743C00C3F88420047006B962B670BD0370FAE715
:10744C0044AD002000E100E0FC06FFBD084B9A684B
:10745C0010B55AB150B9EFF3108172B6054A1C68D9
:10746C0014605C685460986001B962B610BD00BFCE
:10747C0044AD002000E100E037B550E8023F1FFAB0
:10748C00A3F5C488A54202BFBFF32F8F00220DE0E5
:10749C00C48925448489A54228BF2D1BC3EA054510
:1074AC0040E80254002CE8D14FF001028DF8032083
:1074BC000193019B9DF803200B6002F0FF0322B1A6
:1074CC004B880068184403B030BD1846FBE70A88A7
:1074DC004B889A4209D150E8022FC2EA224240E876
:1074EC000223002BF7D1012070470020704701F0D8
:1074FC001F024B090121914000EB830000F01DB8E5
:10750C0001F01F0301229A404B0900EB8300D14389
:10751C0000F029B84B0901F01F0150F82300C840B6
:10752C0000F00100704750E8002F0B4640E8003C8B
:10753C009CF0000FF7D11046704750E8003F43EA2B
:10754C00010240E8002C9CF0000FF6D11046704769
:10755C0050E8002F02EA010340E8003C9CF0000FC9
:10756C00F6D11046704750E8003F03EA010240E8AC
:10757C00002C9CF0000FF6D11046704750E8003FED
:10758C0003EB010240E8002C9CF0000FF6D11046F2
:10759C00704750E8003FA3EB010240E8002C9CF040
:1075AC00000FF6D1104670470121FFF7C6BF00212E
:1075BC00FFF7CEBF10B590B1D0E9012301689B1A3B
:1075CC00DBB20A60013BDBB2FF2B026802D1002068
:1075DC00107110BD11684C1C14600B70F2E70E207A
:1075EC00F7E737B5054600240DF107008DF8074085
:1075FC00FFF708FF2A686B68116899420ED9481E7C
:10760C00106011F8014CEB68298A01FB0434AB685B
:10761C0011791B1ADBB2994238BF13719DF8070020
:10762C00FFF714FF204603B030BD37B505460023E5
:10763C000DF107000C468DF80730FFF7E3FE2A68C2
:10764C001368591C1160E968641A298AB4FBF1F4B7
:10765C001C709DF80700FFF7F9FE03B030BD82687F
:10766C0010B504462AB143690168006998470023A4
:10767C00A36010BD0EB403B5039921B104AB01AAEC
:10768C00019300F075F802B05DF804EB03B070479D
:10769C000A2938B504460D4602D10D21FFF7F8FF33
:1076AC00A3682268591CA160D554D4E901329A42CE
:1076BC0004D32046BDE83840FFF7D1BF38BD0000E9
:1076CC002DE9F84F9946DDE90A431746824688466C
:1076DC000A460126BA420FD24E4538BF4E4613F029
:1076EC00010B01D164B900240125B9F1010F1AD99C
:1076FC0009F1FF397D43F8E7B2FBF7F20136E9E710
:10770C009B070ED5B9F1000F0CBF30252025A642E2
:10771C00EAD2013C29465046FFF7BAFF002CF6D1BD
:10772C00E1E72025F3E7B8FBF5F39F42E2D9DFF858
:10773C003C90B8FBF5F3504619F8031005FB138881
:10774C00FFF7A6FFB5FBF7F3BD4207D2BBF1000F65
:10775C0002D00CB1A64203D3BDE8F88F1D46E8E772
:10776C0020215046013CFFF793FFF2E7B6F10200EF
:10777C002DE9F74F054617468846002900F0308161
:10778C0018F8011B49B92B7B002B00F029812846E6
:10779C0003B0BDE8F04FFFF762BF252940F0C08071
:1077AC00002698F800302D2B424608F1010823D012
:1077BC00302B24D02B2B25D000242A2B02F10101B5
:1077CC0023D13B681A1D1B683A601C440A46137887
:1077DC002E2B26D101324FF00009104610F8011B58
:1077EC00A1F1300CBCF1090F1DD80A2303FB0913BE
:1077FC00A3F130090246F0E746F00106D1E746F066
:10780C000206CEE746F00406CBE711F8013CA3F1E3
:10781C0030000928DBD80A2202FB0434303C0A462B
:10782C00CBE74FF0000912F8011B01F0FB006828B0
:10783C009046F8D069290ED04AD8582964D006D879
:10784C0025296DD098F80030002B99D19BE763293E
:10785C0062D06429F6D13A68D2F800A0111D8AEAE8
:10786C00EA723960A2EBEA724FF0010B092A5BDC79
:10787C00CB4538BFCB462CB1BAF1000F01DB7207F8
:10788C0000D5013CB30702D5B9F1000F04D0F007C5
:10789C0002D4002C4ED10024BAF1000F52DACAF1F6
:1078AC00000A2D212846FFF7F3FE06F00302022AF8
:1078BC0005D1B9F1000F02D1002C47D10024CDE93C
:1078CC0000464B460A2251462846FFF7F9FEB9E717
:1078DC0073294CD014D87029B4D13B681A1D3A6066
:1078EC00302128461C68FFF7D3FE78212846FFF785
:1078FC00CFFE00220823CDE9003221461022E3E717
:10790C0075292BD078299DD139680A1D3A60CDE9AB
:10791C0000464B46102228E03B681A1D19783A6045
:10792C002846FFF7B5FE8DE70A230BF1010BB2FBDE
:10793C00F3F29BE7A345AFD220212846013CFFF789
:10794C00A7FEA6E77107B0D52B21ABE7A345B6D2AE
:10795C0030212846013CFFF79BFEADE73968CDE9A5
:10796C0000460A1D3A604B460A220968ACE73B68A0
:10797C001A1D3A6016F00106D3F800A020D1BAF116
:10798C00000F03D0504606F083FE0646B44200D9E1
:10799C00C4B90AF1FF3A1EE028460136FFF778FE1B
:1079AC001AF806100029F7D1A642BFF44BAF002CF1
:1079BC003FF448AF20212846013CFFF769FEF3E76E
:1079CC000026EDE720212846013CFFF761FEDDE7AC
:1079DC002846FFF75DFE1AF8011F0029F8D131E7A0
:1079EC0003B0BDE8F08F2DE9F047B0F8069044796C
:1079FC00D2F800A09DF8208009FB04F4043C064654
:107A0C000AEB0300A0420F4688BFA4EB030A191D22
:107A1C00C2F800A0B1FBF9F509FB15114DB9A9EBA2
:107A2C000104544528BF5446BAF1000F04D1BDE8F7
:107A3C00F0873668013DF1E704317B197018224656
:107A4C00B8F1000F0ED001461846AAEB040A06F056
:107A5C007AFDD145254436684C464FF0000128BFCD
:107A6C005446E1E71946F0E7FFF7A4BDF8B54679AF
:107A7C000146721E0546002393422D6803D3002451
:107A8C00A64202D8F8BD0133F6E70F682846FFF787
:107A9C00CCFD01343946F3E72DE9F843068ACD1CB9
:107AAC000746FFF79EFD043E35440446B5FBF6F54C
:107ABC00F0B14FF48073EDB28380C680013D076056
:107ACC0081464FF00008A84512D23846FFF789FDD1
:107ADC00064648B163790133637108F10108C9F8AE
:107AEC00000007608146EEE72046FFF7BFFF3446F3
:107AFC002046BDE8F88301210430FFF73FBD10B5E7
:107B0C00012104460430FFF744FD10F0FF0F04D1AF
:107B1C002046BDE81040FFF7A9BF10BD1FB503926A
:107B2C000022009203AAFFF75EFF05B05DF804FB8C
:107B3C001FB503920122009203AAFFF754FF05B070
:107B4C005DF804FB41DF7047064B10B500241C7038
:107B5C00054B1C60BFF35F8F0449054800F039F8F2
:107B6C00204610BD58AD00205CAD0020C8F10200CD
:107B7C0050AD002007B500230DF107008DF807303C
:107B8C00FFF740FCF1EE103A23F09F03E1EE103AC0
:107B9C00BFF35F8F094B4022C3F884219DF8070087
:107BAC00FFF754FC04F084FF20B1FFF7CBFF03B0C8
:107BBC005DF804FB20BF40BF20BFF8E700E100E008
:107BCC00836800225A609A60C3E90422DA601A6062
:107BDC0070470B684A684360934208BF00230160FA
:107BEC0008BF43607047436843B1026891685268AC
:107BFC000B449342436004BF002343607047000072
:107C0C0010B50D49A1F59472914201D800200FE0F6
:107C1C008B1ADB1003EBD3735B1002EBC30452F82B
:107C2C003330834205D802D204F10802ECE76068D5
:107C3C0010BD2146E8E700BF18F3020008B5FFF7B6
:107C4C00DFFF024B002808BF184608BDDDF102001B
:107C5C000648074A03780749D35C012213B1043064
:107C6C0002F0D8B90C3001F04DBF00BF4C8F002092
:107C7C001CAE002064AD002013B50478012C10D18B
:107C8C0004238DF8003043681B788DF80430FFF71F
:107C9C00DFFF0B4B1C700B4B68461B68984702B000
:107CAC0010BD022C06D1C3688DF800400193FFF77C
:107CBC00CFFFF0E7002CF2D103238DF80030EAE778
:107CCC0065AD002060AD0020F0B51B4D0646174693
:107CDC009C460FCD89B06C460FC495E80F0084E824
:107CEC000F0073690693337C8DF81CC0003318BFEA
:107CFC0001238DF81430737C1048002B14BF0E2315
:107D0C0000238DF81530F3680293B368039333683E
:107D1C000193736800930A4B1F600A4B00221A7080
:107D2C006946094A01F042FA20B93368013301D09F
:107D3C00FFF78EFF09B0F0BDD4F602004C8F002087
:107D4C0060AD002065AD0020857C0200054B1A78E3
:107D5C002AB1054A1278027000201870704705206D
:107D6C00704700BF65AD002064AD002019B101293A
:107D7C0005D00620704702B111700020704712B177
:107D8C0004301060F9E7072070478069704708B528
:107D9C0000F0BEFE0028FBD108BD0000F0B51B4B67
:107DAC001B68834285B007460C4603D0112420463D
:107DBC0005B0F0BD856900F0ABFE0028F6D194E863
:107DCC00070005F10C0686E80700A2882168A06868
:107DDC0000F07AFA044640B9AB6833B9FFF7D7FF25
:107DEC000B4B1B78002B18BF0D24AB68002BDED07F
:107DFC00002CDCD04FF48172ADF80420AA690296F5
:107E0C00039201A938469847D1E700BF68AD00201E
:107E1C006CAD0020F0B51B4B1B68834285B0074648
:107E2C000C4603D01124204605B0F0BD856900F046
:107E3C006FFE0028F6D194E8070005F10C0686E8E1
:107E4C000700A2882168A06800F00EFA044640B929
:107E5C00AB6833B9FFF79BFF0B4B1B78002B18BF9C
:107E6C000D24AB68002BDED0002CDCD04FF48172DB
:107E7C00ADF80420AA690296039201A938469847E6
:107E8C00D1E700BF68AD00206CAD0020F0B5134FFA
:107E9C003B68834285B0054603D01124204605B0CB
:107EAC00F0BD866900F034FE0028F6D100F0BAFA75
:107EBC00044600B93860B368002BEFD001228DF86E
:107ECC000420221C18BF01228DF8052000220292EA
:107EDC00B269039201A928469847DFE768AD0020F4
:107EEC002DE9FF410369B3F5007F0546884629D18A
:107EFC00164E336843BB87693060B960BA61144968
:107F0C00143000F015FA044640B9B8F1000F15D141
:107F1C00FFF73DFF0F4B1B7883B10D24002333601B
:107F2C00B8F1000F0AD04FF480720293BB6903932F
:107F3C00ADF80420BB6801A928469847204604B038
:107F4C00BDE8F0810624F9E71124F7E768AD0020BD
:107F5C00657F02006CAD00202DE9FF41254A437876
:107F6C00DFF8948013700278D8F80050012A074685
:107F7C00AC6925D056B22EB1022A35D00320FEF7BB
:107F8C0063FF1AE000F0D4FD036823604FF4007324
:107F9C006360D8F800309B699B6873B17B788DF86F
:107FAC000460003318BF01238DF80530A3690393D7
:107FBC000296A36801A92846984704B0BDE8F08151
:107FCC00A268002AF9D00221003318BF01238DF8D2
:107FDC00053004F10C030293A3698DF8041003938C
:107FEC0001A928469047E8E7A268002AE5D00321BA
:107FFC00EAE700BF6CAD002068AD00201F2886BFEB
:10800C0000F01F00044A4FF0A042012303FA00F0D5
:10801C00C2F80805704700BF000300507FB50E4C36
:10802C0094F858401F2C86BF04F01F040B4E4FF0E1
:10803C00A046012505FA04F4CDE90001CDE902239F
:10804C00C6F80C4500226946054802F0D7F908B17C
:10805C00FEF7FAFE04B070BD70AD002000030050B6
:10806C0010F70200F8B5264B93F82350002D44D19D
:10807C0046B2002E33DB012483F823405C1900F058
:10808C007F0784F828700F0E84F829700F0C84F881
:10809C002A7040284FEA112784F82B7084F82C1092
:1080AC0027D048280CBF8721FF211D44022A85F8C0
:1080BC002D1001D0032A1ED1052283F82420002E76
:1080CC00A8BF93F824300F4AB8BF01230E33A2F196
:1080DC001000DBB20621FFF7A1FF0020F8BD02243F
:1080EC0083F8234077249C624FF47F449C850625BB
:1080FC00C4E79521D9E70122DFE71120EEE700BFA5
:10810C0070AD0020A8AD00202DE9F843534FFE8B35
:10811C0040F2D914A6423C4669D0B6F5ED7F08D2A0
:10812C00A6B140F2C715AE4229D00023E383032049
:10813C0043E0B6F5F07F4FF0000109D0B6F5F67FBD
:10814C00F3D187F823101970F98330E0BD8AFD82D2
:10815C00E68AFF255EB9424A84F8285002230121A1
:10816C00A2F11000FFF75AFF4FF4F67369E00026F6
:10817C0084F8285003252684268384F8235044F65B
:10818C0020674FF0040C2EE0268C0136B6B2BE42AE
:10819C0026840ED80646002956D010F8015BFF2D18
:1081AC000DD0FE2D0ED005221A700023E383022081
:1081BC0003E0022018700023E383BDE8F883013943
:1081CC00C9B2E7E70139C9B29142884684F823C0A5
:1081DC0028BF90464FF0000EF045E56817D845448F
:1081EC00A4F81880E56094F82350032DCCD0258B8F
:1081FC00954213D3E38A1A4A013BE38201210223FD
:10820C00A2F11000FFF70AFF4FF4F07319E016F813
:10821C00019F05F80E900EF1010EDDE7551BADB276
:10822C00F02D28BFF025EBB2E2680E480121FFF7D4
:10823C00F5FEE3682B44E360238B1D44258340F259
:10824C00D913E3830120B8E7054A10230121A2F1D9
:10825C001000FFF7E3FE40F2C713F2E770AD002009
:10826C00A8AD002098AD0020164B10B593F8224015
:10827C000CB393F82240032C1FD102B3042483F8CF
:10828C0022409C7A9A82240758BF4902012AC3E9EA
:10829C000301DA824FF000044FF001028CBF522030
:1082AC0051209C83FFF7DEFE034610B1FEF7CCFD98
:1082BC002346184610BD0823FBE71123F9E70723D3
:1082CC00F7E700BF70AD002038B5184B154693F892
:1082DC0022202AB393F82220032A23D125B3052286
:1082EC0083F822209A7A9D82140758BF49020024F1
:1082FC00012DC3E90301DD829C8308D12A46582055
:10830C00FFF7B0FE08B1FEF79FFD002038BD02F06C
:10831C000702012A0FBF592001222946D720EFE777
:10832C000820F3E71120F1E70720EFE770AD0020FC
:10833C0070B5364C94F8223088B005460E46002BAA
:10834C005FD100295FD0C078FF285CD06B78FF2B01
:10835C0059D02B78FF2B56D0AB78FF2B53D01F283E
:10836C008ABF00F01F030346294A84F8580098BFBF
:10837C004FF0A04203F5E073032142F82310FFF7FE
:10838C003DFEAB788DF800302B788DF801306B7892
:10839C008DF80230FF238DF803304FF60673ADF8DD
:1083AC0004304FF0806302931A4A1B48002369463D
:1083BC00ADF80C3002F0CAF808B1FEF745FDA37A0F
:1083CC001648266023F00F03A372FF2384F828308D
:1083DC00134B0122CDE904320025103384F82220FE
:1083EC0006932A460A2304A9079384F8235002F023
:1083FC0005F8034610B1FEF727FD2B46184608B0CA
:10840C0070BD0823FAE70723F8E700BF70AD002022
:10841C0000030050858402000CF7020010F70200E4
:10842C0098AD002010B5114C94F82230CBB194F8D3
:10843C002230032B17D10E4801F096FF94F85830D8
:10844C001F2B86BF03F01F030A4A4FF0A04203F50F
:10845C00E073002042F8230084F8230084F8220003
:10846C0010BD0820FCE71120FAE700BF70AD00201A
:10847C0010F7020000030050F7B5AD4CC668E38A54
:10848C00057C07461BB994F85800FFF7B7FD94F824
:10849C002300431E012B65D87A681778A91F4C2F2F
:1084AC00C9B206F1060303D159B1E91FC9B2F31DD4
:1084BC001A460D4601E0013DEDB21346B5B94C2FFD
:1084CC0003D1013B4FF0010515D194F82230012B5B
:1084DC0042D094F822200123013A8DF80530042A69
:1084EC0038D8DFE802F01D1D372A29001978FF293A
:1084FC0002F10102DFD0022830D1012284F82320BE
:10850C001A7812F0FE0F29D194F82430894A0E33D0
:10851C00DBB20621A2F10A00FFF780FD03B0F0BD2B
:10852C0000238DF80430032384F82230FFF77AFF00
:10853C0028B1FEF789FC02E002238DF8043094F890
:10854C005800FFF75BFD032384F82230236801A851
:10855C009847E3E70320ECE70023CCE7002284F8FC
:10856C0023201E4694F82210C9B24B1E042B00F295
:10857C00C982DFE813F005000A00C7027C01C201C2
:10858C00022384F822300023A383A18B3378B1F526
:10859C000E7F00F0D3802CD840F21322914274D07D
:1085AC00B1F5057F08D2002964D0B1F5047F56D00F
:1085BC000023A38306216EE040F21922914200F0C1
:1085CC008E8040F226229142F2D1590740F1E78089
:1085DC00A37A012262F30203A372238C01339BB2B0
:1085EC00B3F5FA6F238440F298800023A383022111
:1085FC0051E040F26122914200F0E28015D840F245
:10860C004D22914200F0CB8040F253229142CFD1C7
:10861C0013F0FC0F3CD1D6F801301BBA5B0042BF03
:10862C00A37A43F00803A3728EE040F26B229142CE
:10863C0000F0D88040F271239942B9D101AB1022DD
:10864C0029463046FFF760FD01287FF667AF9DF89D
:10865C000410002900F0D1800023A3831BE0012229
:10866C0000214020FFF7FEFC08B1FEF7EDFB40F2C5
:10867C00132308E001224020FFF7F4FC08B1FEF7B9
:10868C00E3FB4FF40473A38348E713F0FC0F1AD0F9
:10869C000023A383042100238DF8043094F85800A0
:1086AC008DF80510032384F82230FFF7A7FC21B1C5
:1086BC00FFF7B8FE08B1FEF7C7FB1F4B4FF0804227
:1086CC00C3F8242542E703224FF4D5714820FFF765
:1086DC00C9FC08B1FEF7B8FB40F21923D3E75807E1
:1086EC0007D4A27A032161F3020213F0FC0FA272E9
:1086FC00CED100232384A37A03F00703032B0CBFF2
:10870C004FF0804100210222E920FFF7ABFC08B1B9
:10871C00FEF79AFB40F22623B5E702220021412006
:10872C00FFF7A0FC08B1FEF78FFB4FF40E73AAE71E
:10873C0070AD0020A8AD00200030004013F0FC0FFD
:10874C00A6D1DA073FF549AFA37A03F00703032B51
:10875C003AD001224FF400715020FFF783FC08B18E
:10876C00FEF772FB40F261238DE7238C01339BB241
:10877C00B3F5FA6F23843FF638AFA37A03F00703FF
:10878C00032B0CBF4FF0804100210222E920FFF7A0
:10879C0069FC08B1FEF758FB40F24D2373E713F068
:1087AC00FC0F7FF475AF13F00101DED102227A20A9
:1087BC00FFF758FC08B1FEF747FB40F2532362E782
:1087CC0013F0FC0F7FF464AFBE4BE3600122002179
:1087DC004920A282FFF746FC08B1FEF735FB40F2B8
:1087EC006B2350E713F0FC0F7FF452AF013D40F2C6
:1087FC0071230136EDB2E36120E794F848309B0910
:10880C00012B25D00BB1022B2FD194F84F3094F8BB
:10881C00502094F852009B0003EB921394F84E20D6
:10882C00920202F440620133134494F85120520036
:10883C0002F0060202EBD01294F84D0000F00F008B
:10884C0007380244934063604FF40073238103E7BD
:10885C0094F8513094F85020013303EB022394F830
:10886C004F2003EB02439B02EDE70B46EBE7A38B98
:10887C0040F29A2293420CD040F2A220834235D08F
:10888C00BBBB337813F0FC0F12D1013D0136EDB2B6
:10889C00E26101AB4FF4007229463046FFF734FC1D
:1088AC0001287FF63BAE9DF8041091B10023A38301
:1088BC0001238DF80430032384F8223000238DF833
:1088CC000510636184F8233094F85800FFF796FB89
:1088DC003CE6A38A012B09D901224C20FFF7C2FBED
:1088EC0008B1FEF7B1FA40F2A223CCE60021A18335
:1088FC00DEE70023A3830621DAE7A28BB2F5397FEA
:10890C0000F0A5800ED840F2C3239A4241D040F229
:10891C00D3239A4200F09B80002A42D00023A383E9
:10892C00062117E040F20A339A424FF0000300F0A0
:10893C00BE801CD8B2F53B7FF0D194F83A2002F0FF
:10894C001F02052A184600F096800B2A01D00D2A2A
:10895C0023D1A08302238DF80430032384F8223022
:10896C0000238DF8051084F823306361ACE7B2F571
:10897C00487F00F0AB80B2F54C7FCFD1AB42C0F05A
:10898C00BB8094F82330032B00F0A4800021A1833A
:10899C00E0E7337813F0FC0F1AD00023A3830421F3
:1089AC00D8E7337813F0FC0FF9D1A37A03F007035F
:1089BC00012B0DD0A38A012B0AD901222169592040
:1089CC00FFF750FB08B1FEF73FFA40F2C3235AE61B
:1089DC00A38AE382E28AA38A72B9012BD6D93A4AD6
:1089EC004FF6FF53238502210323A2F11000FFF75A
:1089FC0015FB4FF4487346E6002222830422012B18
:108A0C0084F823204FF0FF028CBFFC23FE2384F854
:108A1C0028202D4A84F8293002231946A2F110008F
:108A2C00FFF7FCFA40F2D3232DE6C6F50075ADB284
:108A3C00F02D28BFF0250123E9B2234A3044FFF77B
:108A4C00EDFA238B1D4425834FF439731BE6268BDB
:108A5C00E068B6F5007FE8D31B4A00F500700323ED
:108A6C00E0600121A2F1100084F82330FFF7D6FA60
:108A7C004FF43B7307E6238494F82330032B1ED169
:108A8C00238C01339BB244F620629342238403D996
:108A9C000023A38302215DE70B4A10230121A2F1DD
:108AAC001000FFF7BBFA40F20A33ECE50133AB429E
:108ABC00E2D2F25C002AF9D0002384F82330E38A56
:108ACC00013B86E7B8AD0020A8AD0020238403232A
:108ADC0084F82330238C01339BB244F620629342FA
:108AEC002384D5D8094A10230121A2F11000FFF7E5
:108AFC0095FA4FF44C73C6E5F25C002A7FF446AF4E
:108B0C0001333BE70320FEF79FF907E5A8AD0020F2
:108B1C00064B93F82220032A05D093F8220000304C
:108B2C0018BF012070470020704700BF70AD0020B7
:108B3C00044890F82230022B00F1040098BF00206A
:108B4C00704700BF70AD002029DF704728DF7047E9
:108B5C0070B503689D6886B004460E466DB114224C
:108B6C000021684605F018FDA3680593237901964A
:108B7C002BB1012B0DD06846A84706B070BD012360
:108B8C008DF8003023690293E368039363690493BF
:108B9C00F1E702238DF80030E3681B030293F5E73D
:108BAC00034B187A0122B0FA80F05A7440097047CE
:108BBC00DCAD002070B5244C244E237A25463BB9FD
:108BCC0023492448FEF758FC306008B9606070BD3A
:108BDC00346802232B72237973B1012B24D02046E5
:108BEC000321FFF7B5FF00232B726B60184919485E
:108BFC00BDE87040FEF76BBCD4E90523D21AB2F580
:108C0C00805F28BF4FF48052D4E903109208012AE8
:108C1C0038BF012219441844FFF796FF50B11128B0
:108C2C00DDD101232B72D2E7D4E903031844FFF7FB
:108C3C008DFFF3E72B7C002BC9D10146BDE87040BA
:108C4C00022000F009B800BFDCAD0020F4AD00201C
:108C5C00F0AD0020CCAD002038B5831E012B45D8DB
:108C6C00234C237A002B41D0022B09D1032830D07E
:108C7C00204B1B680022E2601A793AB1012A22D0FB
:108C8C00637C7BBBBDE83840FFF794BFD3E905128A
:108C9C008D1AB5F5805F94BF521902F580529A6116
:108CAC009142EDD102284FF0000308BF1946237200
:108CBC00104B18BF0D211868FFF74AFF0E490F48DB
:108CCC00FEF705FCDCE71A6901321A615B699A420E
:108CDC00E7E7E3680133082B01D8E360D0E7002312
:108CEC00E360DFE7BDE8384003F0D2BE38BD00BF1B
:108CFC00DCAD0020F4AD0020F0AD0020CCAD0020A8
:108D0C0000F0FD03012B08D1044B00225A74421EC3
:108D1C00504250411874FFF74DBF7047DCAD002036
:108D2C00054B1B68082B01BF044B1868B0FA80F088
:108D3C00400918BF002070473001001034010010AA
:108D4C0008B54FF080430022C3F80C21C3F8102162
:108D5C00C3F838254FF0805203F54043D2F8041481
:108D6C00C3F82015D2F80814C3F82415D2F80C1443
:108D7C00C3F82815D2F81014C3F82C15D2F8141413
:108D8C00C3F83015D2F81814C3F83415D2F81C14E3
:108D9C00C3F84015D2F82014C3F84415D2F82414A3
:108DAC00C3F84815D2F82814C3F84C15D2F82C1473
:108DBC00C3F85015D2F83014C3F85415D2F8341443
:108DCC00C3F86015D2F83814C3F86415D2F83C1403
:108DDC00C3F86815D2F84014C3F86C15D2F84424C3
:108DEC00C3F87025FFF79CFF10B1384B384A1A6056
:108DFC00FFF796FF18B1374BFB22C3F81825FFF786
:108E0C008FFF48B13449354B0A681B6822F00F02BA
:108E1C0003F00F0313430B60FFF782FF18B1304BC5
:108E2C004FF400721A604FF08043D3F80024D2073D
:108E3C0044BF6FF00102C3F800242A4AD2F88830EC
:108E4C0043F47003C2F88830BFF34F8FBFF36F8FBA
:108E5C004FF01023D3F80022002A03DBD3F804329E
:108E6C00002B2FDA204B0122C3F80425D3F8002461
:108E7C00002AFBD04FF010221221C2F80012D3F8B6
:108E8C000024002AFBD04FF010231222C3F8042236
:108E9C00154B1A46D3F800140029FBD00021C3F857
:108EAC000415D2F80034002BFBD0BFF34F8F0D49C3
:108EBC000E4BCA6802F4E0621343CB60BFF34F8FD2
:108ECC0000BFFDE70A4B0B4A1A6008BD8C560040E8
:108EDC004881030000F00040E40E004058020010EE
:108EEC004096024000ED00E000E001400400FA056D
:108EFC00608F00200090D003074B185C1F288ABF9E
:108F0C00064B4FF0A04300F01F00D3F8043523FAB2
:108F1C0000F000F0010070472DF702000003005034
:108F2C00074B1B5C1F2B86BF03F01F0305494FF03B
:108F3C00A041012202FA03F3C1F80835704700BFC3
:108F4C002DF7020000030050074B1B5C1F2B86BF44
:108F5C0003F01F0305494FF0A041012202FA03F36D
:108F6C00C1F80C35704700BF2DF70200000300500C
:108F7C0008B50020FFF7E8FF0120FFF7E5FF02200E
:108F8C00FFF7E2FF0320BDE80840FFF7DDBF08B59F
:108F9C000020FFF7C5FF0120FFF7C2FF0220FFF7FB
:108FAC00BFFF0320BDE80840FFF7BABF0A4B185CAF
:108FBC001F288ABF094B4FF0A04300F01F00D3F8C5
:108FCC0004250121814021EA02000A40C3F808056A
:108FDC00C3F80C25704700BF2DF7020000030050AA
:108FEC00014B185C704700BF29F70200C20710B58F
:108FFC0004460CD54FF0A0430322C3F83427C3F822
:10900C003827C3F83C27C3F84027FFF7B1FFA30765
:10901C000AD54FF0A0430C22C3F82C27C3F83027F5
:10902C00C3F86027C3F8642710BD000038B5074C9F
:10903C00051E04F1080318BF1C4623682BB11A68DF
:10904C0022605B6828469847F7E738BD00AE0020E1
:10905C0020B9054B01225A70FFF7E8BF012802D155
:10906C00014A9070F8E77047F8AD002020B9034B27
:10907C0001225A70FFF7DABF704700BFF8AD00202D
:10908C0038B50B4C237883B90A486360A36023611D
:10909C00E36000F0C7F8054603F00AFD08B900F0DC
:1090AC00CDF801232370284638BD8525FBE700BF8A
:1090BC00F8AD00205D90020037B50B4C00230DF18C
:1090CC0007008DF80730FEF79DF9E368013BE3607C
:1090DC00E56815B900F0C4F8A5709DF80700FEF717
:1090EC00B5F903B030BD00BFF8AD0020012813B5B1
:1090FC0009D018B103281CD002B010BD0F4B0122AF
:10910C00C3F88020F8E70E4C00230DF107008DF812
:10911C000730FEF777F923780BB9FFF7B1FFE36857
:10912C009DF807000133E3600123A370FEF78EF96D
:10913C00E2E700F083F8FFF7BFFFDDE700E100E0B6
:10914C00F8AD00201FB503788DF80030436801930B
:10915C0083688DF80830C3680393054A054B68464D
:10916C0053F8213052F82110984705B05DF804FBF4
:10917C000CAE002014AE00201FB503788DF8003023
:10918C004368019383688DF80830C3680393054ADC
:10919C00054B684653F8213052F82110984705B01A
:1091AC005DF804FB0CAE002014AE0020F0B5184B9B
:1091BC000778DFF86CE043F82720164B16460A694F
:1091CC0043F827204B7F0EF807300C4684460FCC13
:1091DC0089B06D460FC594E80F0085E80F001EF8A6
:1091EC000730049753B1002E0B4A694608BF32462C
:1091FC000CF1040000F09AFD09B0F0BD002E074AF6
:10920C00694608BF32460CF10C0000F009FBF3E78D
:10921C0014AE00200CAE002051910200859102008A
:10922C001CAE0020044A137923B9012110609180EF
:10923C00184670478520704720AE0020074B1A68EF
:10924C00D2075FBFC02283F8002301221A604FF0BF
:10925C0080430122C3F81825704700BF00E100E0ED
:10926C00044B01221A604FF08042D2F81834DB0311
:10927C00FBD470470C000040154B07B51A687AB147
:10928C0000221A601B680093009B4FF08043012260
:10929C00C3F808230F4B587910B95A711B689847BB
:1092AC000D4B1A6882B100221A601B680193019B56
:1092BC004FF080430222C3F80823064B1B680120A1
:1092CC0003B05DF804EB184703B05DF804FB00BF76
:1092DC000001004020AE00200401004000F180405D
:1092EC0000F5C040002382B0036003680193019B2A
:1092FC0002B0704703681F2B83BF03F01F0303608A
:10930C0001484FF0A04070470003005007B5019092
:10931C0001A8FFF7EFFF019B00EB8300D0F80027BB
:10932C0022F44032C0F80027D0F8003743EA01435A
:10933C00C0F8003703B05DF804FB000073B5224C95
:10934C002518064695F93020072A19DD224492F893
:10935C0058309B09032B0FD1019001A8FFF7CAFFCE
:10936C00019AD0F81035D340DB0707D402213046E0
:10937C00FFF7CCFF02B070BD012BF7D00321F6E74D
:10938C00D3B2072BF6D8930003F1804303F5C04307
:10939C00D3F8100540F00100C3F8100502F14000AD
:1093AC00800080B2FFF79AFF0029E3D095F93030A6
:1093BC0054F82330002BDDD0012303FA02F2034BC7
:1093CC00C3F80423D6E700BF28AE0020006000409D
:1093DC000E4B034493F93020072A02DD0021FFF7DE
:1093EC0095BFD3B2072B10D8930003F1804303F53C
:1093FC00C043D3F8101521F00101C3F81015012357
:10940C0003FA02F2024BC3F80823704728AE00207F
:10941C00006000402DE9F04F002489B0CDE90244F2
:10942C00624D4FF48072012102F1804303F5C04379
:10943C0090B21B68012B06D1D5F804330B4202D035
:10944C00FFF74CFF0C430432B2F5907F4FEA410119
:10945C00EAD1574B1B68012B0ED14FF4BE70FFF7AE
:10946C003DFF4FF0A04344F00044D3F81035029375
:10947C00504BD3F81035039314F0FF0F1AD04E4F06
:10948C0000250126344210D0AB0003F1804303F5D4
:10949C00C043D3F81005D3F8101557F8253023B175
:1094AC00C1F30141C0F3052098470135082D4FEA5F
:1094BC004606E7D1002C75DA0DF110080023049351
:1094CC00C8F804304FF0FF33CDE90633DFF8E8A0DD
:1094DC00DFF8E89000273D4619F9014B631C48D092
:1094EC00E4B2012324F0C00604F0070203FA02F2EE
:1094FC00F00808AB191811F8083C134239D00AEBE4
:10950C000603A40993F930305AF823B0BBF1000FCD
:10951C0008D1032C2DD118F800C04CEA020C08F825
:10952C0000C001E0032CF6D001A80196FFF7E2FE83
:10953C00019B11F8181C03F5E07C114250F82C002B
:10954C00C0F3014005D0022813D1032C0BD12146C6
:10955C0004E003280DD1032C05D102213046FFF77E
:10956C00D5FE0135EDB2BBF1000F02D021463046DD
:10957C00D8470137042FAFD1A5B14FF0A0430299C2
:10958C00D3F8102503F540739142D3F8103502D16E
:10959C000399994206D002920393049A059B069272
:1095AC00079395E709B0BDE8F08F00BF006000405D
:1095BC007C6100400003005028AE002088AE0020E3
:1095CC00014B1B68184700BF94AE00200E4B98420D
:1095DC0037B50D4602D0002003B030BD00230DF18D
:1095EC0007008DF80730FDF70DFF084B1C7914B9F7
:1095FC0001221D601A719DF80700FDF727FF002C52
:10960C00E9D01120E8E700BF0020004094AE002014
:10961C00034B984201BF034B00221A601A7170472A
:10962C000020004094AE00200023435082B04358E9
:10963C000193019B02B070470A4610B54FF48E712E
:10964C00FFF7F2FF136A9168C95C136A0133136266
:10965C00C0F81C1510BD024608B54FF49271006895
:10966C00FFF7E2FF4FF484711068FFF7DDFF13681A
:10967C0001221A6008BD8B690A4610B54FF484713B
:10968C0023B9FFF7D1FFD0F8183510BDFFF7CCFF89
:10969C00536AD168D0F81805C854536A0133536221
:1096AC00F3E700001FB501238DF80030044BCDE922
:1096BC000110D3E900126846904705B05DF804FB31
:1096CC009CAE002030B54C4AD2F8043313F4007F22
:1096DC0085B015464FD0D2F82431002B4BD04FF427
:1096EC0092711046FFF7A0FF4FF40173C2F80833D4
:1096FC00424B93F8291009B9012151603E490222CD
:10970C008DF80020D1F88024C1F8802403929A6946
:10971C000292DA6801920022C3E906226846D3E974
:10972C00001290473448D0F81C315BB133490A6AB7
:10973C004B699A420A464BD291F82830002B47D1FC
:10974C00FFF77AFF2C4AD2F8443193B14FF4A2714F
:10975C001046FFF769FF294B93F8291009B1012135
:10976C0011609A692AB100229A61586AD968FFF788
:10977C0099FF05B030BDD5F804335B07D2D5D5F8C9
:10978C000831002BCED01D4C1B482146FFF773FF30
:10979C00636AA2699A422346C4D1E269E1684AB17C
:1097AC002369E3600023606AA261E3616362FFF7EF
:1097BC0079FFB7E794F829200AB901226A600E4AAA
:1097CC004FF40170C2F8080300229A61586AEEE760
:1097DC004FF48E710848FFF727FF51690029B1D06B
:1097EC000023029191688DF8003001915361684615
:1097FC00D2E900139847A5E7002000409CAE00205A
:10980C001F2886BF00F01F00044B4FF0A04300F54B
:10981C00E070022243F82020704700BF0003005084
:10982C002DE9F843624F047991462C2202FB047215
:10983C00064692F82A200D46002A40F0B3805D4976
:10984C000068FFF7C3FE8046002840F0AE80296810
:10985C004A1C10D01F2987BF01F01F03564A0B4624
:10986C004FF0A0420120984003F5E073C2F80805C0
:10987C00032042F823006868431C0DD01F288BBFBF
:10988C0000F01F0303464C4A4FF0A04203F5E0736F
:10989C004FF0000C42F823C03368AA6995F814C045
:1098AC00C3F824256A7DBCF1010F4CEA0202C3F80F
:1098BC006C25C3F81405C3F80C152BD1A968481CEA
:1098CC000DD01F298BBF01F01F020A463A484FF0FA
:1098DC00A04002F5E0724FF0000C40F822C0E8689E
:1098EC00421C13D01F2887BF00F01F0C324A84463D
:1098FC004FF0A0424FF0010E0EFA0CFE0CF5E07C7E
:10990C00C2F808E54FF0030E42F82CE0C3F8080546
:10991C00C3F810152C236343FA18C2F804902A6973
:10992C00FA50B9F1000F2AD04FF48E7130682D7FA8
:10993C00FFF77AFE30684FF4A271FFF775FE3268BC
:10994C001E4BC2F80433120B51B20029A8BF01F10F
:10995C0060404FEA4513BABF194802F00F0500F5F5
:10996C006140DBB2B4BF435580F8003302F01F02F4
:10997C00012303FA02F24909124B43F82120336800
:10998C000422C3F800252C2303FB04730022C3E933
:10999C00062283F829205A61012283F82A204046A6
:1099AC00BDE8F8834FF00808F9E74FF01108F6E727
:1099BC009CAE0020D19602000003005080000200F3
:1099CC0014ED00E000E100E02DE9F04103680479BA
:1099DC00254D0022C3F800252C2202FB045206461A
:1099EC00526872B1214AC3F80823190B4AB20120FC
:1099FC00520901F01F0100FA01F120321C4840F815
:109A0C002210D3F80C05D3F81485D3F80815D3F825
:109A1C0010754FF0FF329042C3F81425C3F80C2593
:109A2C00C3F80825C3F8102501D0FFF7E9FEB8F1FB
:109A3C00FF3F02D04046FFF7E3FE7A1C02D03846C7
:109A4C00FFF7DEFE4B1C02D00846FFF7D9FE30684C
:109A5C00FFF7DEFD2C2303FB0454002384F82A308B
:109A6C006360BDE8F08100BF9CAE00208402020060
:109A7C0000E100E02DE9F047214F06794FF02C0969
:109A8C0009FB067480466569002D37D16261A160BF
:109A9C0025624FF48E71006884F82850FFF7C4FDDE
:109AAC00D8F80000012383602146FFF7C5FD6368E9
:109ABC00A14693B9D8F800A0226A63699A4212D3DE
:109ACC00D8F80030D3F81C21002AFBD00122DA6030
:109ADC002C2303FB0676002373612846BDE8F08730
:109AEC0094F8283043B9DAF81C31002BF8D04946E9
:109AFC005046FFF7A1FDDFE70F25E9E71125ECE75D
:109B0C009CAE00202DE9F843394E05792C2303FB3C
:109B1C00056307465C6824B103684FF40170C3F811
:109B2C0008032C2303FB0563986950B1D8690028FE
:109B3C003ED024B13B684FF40172C3F804231124C6
:109B4C0033E09A61D9605862D8612C2303FB05631A
:109B5C0093F829301BB910B93846FFF77CFD4FF04C
:109B6C002C0909FB05683868D8F80430002B34D16F
:109B7C004FF4A271FFF758FDC1463868D0F8243174
:109B8C00D0F80821D0F84441B2B90CB9002BF4D06C
:109B9C002C2202FB05650022AA6123BB2CBB95F885
:109BAC0029103B680122B1B11A602046BDE8F88348
:109BBC001961DA610120C8E7002BE9D1002CE7D14B
:109BCC004946FFF758FDD8F82430D8F818209A42A7
:109BDC00D3D82346DCE75A60E7E74FF40173C0F8AB
:109BEC0004330024E1E70324DFE70F24DDE700BFA3
:109BFC009CAE00200023435082B043580193019B3C
:109C0C0002B070471FB501238DF80030044BCDE92D
:109C1C000110D3E900126846904705B05DF804FBCB
:109C2C00C8AE00207FB5374AD2F82461002E48D048
:109C3C0010464FF49271FFF7DDFF02238DF80030D0
:109C4C00D2F88034C2F880340393D2F83C350293B6
:109C5C002D4BDA6801920022C3E906226846D3E94B
:109C6C0000129047274AD2F844317BB14FF4A271CD
:109C7C001046FFF7BFFF244B996939B10021C3E9A6
:109C8C000611D968D2F83C05FFF7BCFF1D4AD2F883
:109C9C002031A3B14FF490711046FFF7ABFF1A4B74
:109CAC00596961B1D2F84C150291002299688DF86E
:109CBC00002001915A616846D3E90012904704B024
:109CCC0070BDD2F81031002BCCD04FF488711046F7
:109CDC00FFF790FF0C4BD2F83C0599698842C1D133
:109CEC00DC69D96864B1D2F8005225F02005C2F8BD
:109CFC0000521A699C61DA60DE61FFF783FFB1E7FD
:109D0C009C61FAE700200040C8AE00201F2886BFE7
:109D1C0000F01F00044B4FF0A04300F5E07002224E
:109D2C0043F82020704700BF000300502DE9F84392
:109D3C00664F06799146242202FB0672044692F87D
:109D4C0020200D46002A40F0BB8061490068FFF7D7
:109D5C003DFC8046002840F0B6802868421C10D09C
:109D6C001F2887BF00F01F035A4A03464FF0A0423A
:109D7C000121994003F5E073C2F80815032142F85C
:109D8C00231069684B1C0DD01F298BBF01F01F03DA
:109D9C000B46504A4FF0A04203F5E0734FF0000C15
:109DAC0042F823C02368AA6995F814C0C3F8242587
:109DBC006A7DBCF1010F4CEA0202C3F86C25C3F8B2
:109DCC000C05C3F814152BD1A968481C0DD01F29FC
:109DDC008BBF01F01F020A463E484FF0A04002F52F
:109DEC00E0724FF0000C40F822C0E868421C13D01F
:109DFC001F2887BF00F01F0C364A84464FF0A04244
:109E0C004FF0010E0EFA0CFE0CF5E07CC2F808E5E2
:109E1C004FF0030E42F82CE0C3F80805C3F81015F8
:109E2C0024237343FA18C2F804902A69FA50B9F142
:109E3C00000F34D04FF4887120682D7FFFF7DAFEC5
:109E4C004FF490712068FFF7D5FE4FF492712068A3
:109E5C00FFF7D0FE20684FF4A271FFF7CBFE22680B
:109E6C001D4BC2F80433120B51B20029A8BF01F1EB
:109E7C0060404FEA4513BABF184802F00F0500F5D1
:109E8C006140DBB2B4BF435580F8003302F01F02CF
:109E9C00012303FA02F24909114B43F821202368EC
:109EAC000822C3F80025242303FB06730022C3E910
:109EBC0006225A61012283F820204046BDE8F8832F
:109ECC004FF00808F9E74FF01108F6E7C8AE00208C
:109EDC00319C0200000300501003020014ED00E05E
:109EEC0000E100E02DE9F04103680479254D0022E2
:109EFC00C3F80025242202FB04520646526872B1B4
:109F0C00214AC3F80823190B4AB20120520901F067
:109F1C001F0100FA01F120321C4840F82210D3F83E
:109F2C000C05D3F81485D3F80815D3F810754FF039
:109F3C00FF329042C3F80C25C3F81425C3F808254A
:109F4C00C3F8102501D0FFF7E1FEB8F1FF3F02D0B6
:109F5C004046FFF7DBFE7A1C02D03846FFF7D6FEF0
:109F6C004B1C02D00846FFF7D1FE3068FFF750FBC0
:109F7C00242303FB0454002384F820306360BDE8E1
:109F8C00F08100BFC8AE00201003020000E100E029
:109F9C0001F06043B3F1005F2DE9F041074632D187
:109FAC001B4B0679242505FB063598466C6964BB6A
:109FBC006A61A96000684FF49071FFF71BFE4FF4C3
:109FCC00AC713868FFF716FE3B686A69A968C3F87C
:109FDC004415C3F8482501229A606A6862B9D3F81F
:109FEC002021D3F8584152B9002CF8D00F24242347
:109FFC0003FB0686002373612046BDE8F081002C2C
:10A00C0018BF0F24F3E71024F6E71124F4E700BF80
:10A01C00C8AE0020F8B501F06043B3F1005F044610
:10A02C000F465ED10379304D242101FB0351486862
:10A03C0020B121684FF40476C1F80863242101FB98
:10A04C0003539E6956B1D969002939D020B12368D0
:10A05C004FF40472C3F80423112030E09A61DF60DE
:10A06C00DE614FF488712068FFF7C4FD4FF4A271D4
:10A07C002068FFF7BFFD2368C3F83475C3F8382593
:10A08C0016BB01221A602179242202FB015252686C
:10A09C000ABBD3F81041D3F84421D3F8240114435C
:10A0AC0002D10028F5D02246242303FB01550023BE
:10A0BC00984218BF03209A42AB6118BF0F20F8BD1D
:10A0CC001F61DA610126CCE7D3F8002242F02002AE
:10A0DC00C3F80022D7E74FF40472C3F8042300201E
:10A0EC00EDE71020EBE700BFC8AE00201F2886BFAD
:10A0FC0000F01F00044A4FF0A042012303FA00F0C5
:10A10C00C2F80805704700BF000300501F2886BF27
:10A11C0000F01F00044A4FF0A042012303FA00F0A4
:10A12C00C2F80C05704700BF00030050114BD3F868
:10A13C00183107B5D3B1104B104900221A60C87FF3
:10A14C001B680193FF28019B03D08B7F5BB1FFF74A
:10A15C00DDFF00234B770B72D1E90031084803B0C7
:10A16C005DF804EB1847FFF7C1FFF2E703B05DF8A9
:10A17C0004FB00BF0030004018310040ECAE002062
:10A18C00F4AE00202DE9F74F0679724F01934FF092
:10A19C00240909FB06F907EB090A93469AF81C20D7
:10A1AC0080460C46002A40F0D18005686A49284652
:10A1BC00FFF70CFA0146002840F0CA80019BCAF850
:10A1CC000430237B47F809B0012B207800F2AC80D7
:10A1DC00FFF79CFF23781F2B86BF03F01F035F4AFA
:10A1EC004FF0A04203F5E073012042F8230094F8ED
:10A1FC000190B9F1FF0F00F09A804846FFF786FFF7
:10A20C00B9F11F0F8BBF09F01F034B46534A4FF098
:10A21C00A04203F5E073032042F82300A378FF2B40
:10A22C0000F088801F2B8BBF03F01F021A464B488F
:10A23C004FF0A04002F5E0724FF0080C40F822C03D
:10A24C009A46242202FB067282F82030E078D077FE
:10A25C00FF2816D02379002B6FD0FFF757FFE37838
:10A26C001F2B86BF03F01F033C4A4FF0A04203F59F
:10A27C00E073032042F82300242303FB06732279A6
:10A28C009A772378C5F80835A368C5F80C95C5F8F6
:10A29C0010A5C5F82435637B227B003318BF01233E
:10A2AC00022A4DD0032A4ED0012A01D143F00203D9
:10A2BC00C5F85435A379C5F8C03524237343FB582E
:10A2CC0013B14022C5F804230722C5F8002503B3B7
:10A2DC00D8F8003062791B0B58B20028A8BF00F1E7
:10A2EC006044DBB2B8BF03F00F054FEA4212B4BFB3
:10A2FC001B4C04F56144D2B2B4BF625584F8002300
:10A30C0003F01F03012202FA03F34009154A42F835
:10A31C002030242303FB0676002373770123337745
:10A32C00084603B0BDE8F08FFFF7E0FE52E74FF0B0
:10A33C00FF3973E74FF0FF3A83E7FFF7D7FE8EE75D
:10A34C0043F00403B4E743F00603B1E70821E7E761
:10A35C001121E5E7ECAE002039A10200000300500A
:10A36C0014ED00E000E100E0F8B505791F4C006841
:10A37C0024236B43E618E358D3B1030B5AB25209AA
:10A38C0003F01F0301212032194F01FA03F347F8A0
:10A39C002230184BC0F80833737F4BB14161D0F8B1
:10A3AC000431002BFBD0242303FB054300225A77F6
:10A3BC00242303FB054393F82030FF2B0BD01F2BDA
:10A3CC008ABF03F01F034FF0A0420B4A03F5E07362
:10A3DC00022142F823100026C0F80065FFF718F997
:10A3EC00242303FB05442677F8BD00BFECAE002008
:10A3FC0000E100E052010800000300502DE9F34198
:10A40C000579424E24236B431446F2180F46517FB4
:10A41C008046002978D1F35823B114F0140F04BFEF
:10A42C000123537797E80F004FF0240C0CFB056CBD
:10A43C000CF10C0E8EE80F009CF81F00FF2804D0C6
:10A44C009CF81E30C3B1FFF751FE396821B101F001
:10A45C006043B3F1005F06D1BA6882B102F0604389
:10A46C00B3F1005F0BD0242303FB056500236B774E
:10A47C00102002B0BDE8F081FFF748FEE5E7D8F800
:10A48C0000307868C3F84415C3F84805F968C3F878
:10A49C0034250022C3F83815C3F81821D3F8182135
:10A4AC000192019A14F0010218BF0122C3F8502541
:10A4BC0014F0020218BF0122C3F8402522075CBF2A
:10A4CC0001221A6124226A43B25892B9D3F8182196
:10A4DC00002AFBD0242303FB0565E87FFF2803D06B
:10A4EC00AC7F1CB1FFF712FE0020C2E7FFF7FEFDA8
:10A4FC00FAE714F004004FF0400202D0C3F808232E
:10A50C00F2E7C3F80423B4E71120B2E7ECAE002065
:10A51C007FB503788DF804304368029383688DF817
:10A52C000C30C368049303698DF81430054A064B4C
:10A53C0001A853F8213052F82110984707B05DF864
:10A54C0004FB00BF10AF002020AF0020F0B5064682
:10A55C00174616F804CB124A42F82C70114A42F8EE
:10A56C002C30114B0D460FCB85B06C4684E80F0098
:10A57C002B6800932B798DF805306B798DF80630AC
:10A58C00AB680293002FAB89ADF80C30074A6346D9
:10A59C0008BF3A4621463046FFF7F4FD05B0F0BD42
:10A5AC0020AF002010AF002058F702001DA50200BC
:10A5BC0008B5094B1B7853B10020FEF7C5FC0120F0
:10A5CC00FEF7C2FC0320BDE80840FEF7BDBCBDE8A9
:10A5DC000840FEF7CDBC00BF30AF0020F8B57B4C77
:10A5EC00237805461BB100232370FFF7E1FF172DDD
:10A5FC0000F28880DFE805F00C171743546576806D
:10A60C00888D888D959A9A9A9A9AC4C9D1D9E4E47E
:10A61C00FFF7CEFF6E48FCF7E5FE6E4B00220446BA
:10A62C001A702046F8BD0020FEF766FCF8B1002039
:10A63C00FEF78AFC022D0CBF4FF4E1614FF47A61F6
:10A64C00644B1D704FF400404FF4FA740025E0FB8E
:10A65C0001454FF47A7200232046294603F062FD2F
:10A66C00002201465A48BDE8F840FCF775BEFEF7DB
:10A67C0057FC022D0CBFC8214FF4C871E0E7002035
:10A68C00FEF73AFC40B10020FEF75EFC4FF4487137
:10A69C00504B03221A70D5E7FEF742FCC821F7E7AE
:10A6AC000020FEF729FC38B10020FEF74DFC4FF4DA
:10A6BC007A61484B0422EDE7FEF732FC4FF4C87187
:10A6CC00F7E70020FEF718FC48B10020FEF73CFC31
:10A6DC00404B05221A7041F69A110022C2E7FEF790
:10A6EC001FFCF5E70020FEF761FC3A4B06221A70BE
:10A6FC00002240F6CD41B5E70020FEF711FC354BAA
:10A70C0007221A7000248CE701202070FEF74EFC03
:10A71C00EEE701202070FEF749FC00224FF4804147
:10A72C00A0E7FEF734FC2B4B0C22EAE72A482B4E11
:10A73C00FCF758FED5F1110504461CD0D8B9012DF3
:10A74C0013D0C8235D434FF400474FF4FA70002137
:10A75C004FF47A720023C7FB050103F0E3FC224699
:10A76C0001461D48FCF7F8FD04460220FEF7D8FB15
:10A77C000123337055E70220FEF7E6FB0023F8E7D0
:10A78C00FFF716FF134B1222BBE7FFF711FF002058
:10A79C00FEF7C6FB0F4B1322B3E7FFF709FF0120AF
:10A7AC00FEF7BEFB0B4B1422ABE7FFF701FF0020BB
:10A7BC00FEF7B6FB0120FEF7B3FB064B1522A0E714
:10A7CC00FEF7E5FB034B1D709CE700BF84AF002038
:10A7DC0054AF002085AF002034AF002030AF0020F4
:10A7EC00002910B514BF03240024FEF7F9FB1F2821
:10A7FC008ABF0A4B4FF0A04300F01F0003EB800010
:10A80C00D0F8002722F44032C0F80027D0F80037E7
:10A81C0043EA0443C0F80037002010BD0003005089
:10A82C00044B1B6813F0010301D0FFF7D7BE184689
:10A83C00704700BF80AF0020032813D8012A0BD12A
:10A84C00012908D100F10E02D2B200EB40000C4BF2
:10A85C001A540020704700220129F6D04BB24BB19C
:10A86C00022901D007207047054B00EB400018442B
:10A87C004270EEE7024900EB400008448270E8E7C2
:10A88C0074AF0020032802D80121FFF7A9BF0620CE
:10A89C00704708B5012202210020FFF7CDFF08B157
:10A8AC00072810D1072202210120FFF7C5FF08B1AC
:10A8BC00072808D100210A220846FFF7BDFF10B176
:10A8CC00072808BF002008BD0388102B10B502D044
:10A8DC00112B1ED010BD1A4C2168B1B901220846AB
:10A8EC00FFF7AAFF08B1072824D107220221012073
:10A8FC00FFF7A2FF08B107281CD104220221002077
:10A90C00FFF79AFF08B1072814D12368013323609D
:10A91C00E0E70B4A1368013B1360002BDAD1FFF719
:10A92C00B8FF0028D6D0074B1B68002BD2D0BDE84F
:10A93C0010401847034B1B68002BE6D09847E4E700
:10A94C008CAF002088AF002008B50020FFF79AFFDD
:10A95C0008B1062806D10120FFF794FF10B1062894
:10A96C0008BF002008BD75DF704776DF70477FDFBA
:10A97C0070478FDF7047000008B50B480B4B0C4A33
:10A98C000C49C01AC008000440F00300FCF7B6F8EC
:10A99C00094801F039FC08B1FCF756FA0020BDE873
:10A9AC000840FEF7BDBA00BF84EF020054EF02006E
:10A9BC0088F90200E7F9020064B1002003881F2B1C
:10A9CC0037B5044600F085804DD8112B6AD0132B77
:10A9DC005DD0102B59D1444B4448A2884449C01A2D
:10A9EC00C008000440F00300FCF788F8A388072B8C
:10A9FC0002D90020FCF728FAA1883E48002200EB7F
:10AA0C00011001F047FE08B1FCF71EFA0022A188E4
:10AA1C00394801F063FF08B1FCF716FA0720FFF77D
:10AA2C00FFFE08B1FCF710FA344D4FF4B35200217D
:10AA3C00284603F0B1FDA1884FF4337000FB0150A0
:10AA4C0001F05AF8112802D008B1FCF7FDF90120E9
:10AA5C00FEF766FA00F094FE08284FF0000010D1C3
:10AA6C00FEF772FA11E03B2B39D0562B37D0212B45
:10AA7C000BD1002301A98088ADF80430FFF779FFD2
:10AA8C000BE0FEF74DFAFFF777FF03B030BD002364
:10AA9C001A4685218088FFF76AFF0028F5D0FCF75D
:10AAAC00D3F9F2E7104B1148A2881549C01AC00817
:10AABC000004237A40F00300FCF729F800F060FE54
:10AACC000028E2D1FCF7A6F908B1FCF7BDF901208A
:10AADC00C6E700F108018088FFF745FFDDE7132189
:10AAEC00A088FFF742FFD8E754EF020084EF020082
:10AAFC007EF80200E4B0002088B00020668F0020B1
:10AB0C00B2F8020010B5074B04464088214603EB0F
:10AB1C00001001F0D3FC21460348BDE8104001F0C1
:10AB2C00C9BD00BFE4B0002088B0002008B50021EA
:10AB3C00074801F07FF908B1FCF786F9F7210448C2
:10AB4C0001F093F918B1BDE80840FCF77DB908BDD8
:10AB5C0098B00020F8B50F78012F06460D4620D08E
:10AB6C0017B1022F51D0F8BD2F4B304C3049E41A9D
:10AB7C00E408240444F003042046FBF7BBFF05F172
:10AB8C000E026988304601F0A9FE08B1FCF75CF9A9
:10AB9C00304601F043FE20462649BDE8F840FBF75D
:10ABAC00A9BF214B2148244E2449254CC01AC0086A
:10ABBC00000440F00300FBF79DFFAA89A96830460A
:10ABCC0003F0C1FC3378232B14D17378232B11D1D0
:10ABDC00B378232B0ED1F11C0222204603F0B3FCD8
:10ABEC002188053989B221803A46701DBDE8F840AC
:10ABFC0000F0A2BA21880029B5D000220E4800F03E
:10AC0C009BFA2388FF3B2380ADE7074B07480D4990
:10AC1C00C01AC008000440F00300FBF76BFFBDE84E
:10AC2C00F840FFF7A9BE00BF54EF020084EF02000A
:10AC3C00E4F80200F8F80200D6B1002026F9020070
:10AC4C00D4B1002035F902000378012B70B504460D
:10AC5C0036D013B1022B24D070BD1D4C1D4D208855
:10AC6C002844FDF773F8238801339BB21D442380DD
:10AC7C0015F8012C0A2A03D0174A12889A42EBD8ED
:10AC8C00144D164E22882946304601F0E9FD08285D
:10AC9C0004D01328F6D008B1FCF7D6F80023238093
:10ACAC00DAE70F480F4B1049C01AC008000440F0F7
:10ACBC000100FBF71FFF6068BDE87040FCF7C4B8EB
:10ACCC000748084B0949C01AC0080004EFE700BF49
:10ACDC0084B0002090AF0020648F002088B000204A
:10ACEC0084EF020054EF02000AFA02003CFA020060
:10ACFC0010B504460020FFF793FD08B1FCF7A4F84B
:10AD0C0024B9FFF721FE08B1FCF79EF8012010BD15
:10AD1C000B78012B10B5044617D10C4B0C484A8804
:10AD2C000C49C01AC008000440F00300FBF7E6FE13
:10AD3C00FCF75AF808B1FCF787F8204601F07EFCC6
:10AD4C0018B1BDE81040FCF77FB810BD54EF0200FD
:10AD5C0084EF020056F902001FB50378062B12D0BF
:10AD6C00072B17D0042B2AD1164B17481749C01A9A
:10AD7C00C008000440F00300FBF7BCFE04B0BDE8C3
:10AD8C001040FFF7F9BD4068C8B104B0BDE81040F1
:10AD9C00FCF75AB841680B4C0B488B784A78001B6F
:10ADAC008C7903944C7902940C790194C008C9787D
:10ADBC0000910004064940F00300FBF7B2FE04B01A
:10ADCC0010BD00BF54EF020084EF0200D7F902005F
:10ADDC00A9F9020030B54FF40041C5B00020FBF7D3
:10ADEC00C5FC08B1FCF730F8FBF7EAFBFCF784FA7A
:10ADFC0008B1FCF729F80120FEF7F8F8FCF7A4FEDF
:10AE0C0008B1FCF721F801F0D5FD08B1FCF71CF8EE
:10AE1C00002304A90120049301F09AFE08B1FCF769
:10AE2C0013F804A801F066FF08B1FCF70DF8424DC9
:10AE3C00FFF77CFE0FCD04AC0FC495E803003F4B2D
:10AE4C003F4A00934FF4807384E80300CDE902235A
:10AE5C0001933C4A0723694604A8FCF735FF3A489E
:10AE6C0000F010FE08B1FBF7EFFF384B384D0493A0
:10AE7C00002404A9284601F079FB08B1FBF7E4FF94
:10AE8C000134082C05F11005F3D100F077FCFFF725
:10AE9C004DFE304B3048049304A901F05BFC08B123
:10AEAC00FBF7D2FF102200210DEB020003F074FB24
:10AEBC0001232A4A2A488DF8143004A98DF81C3035
:10AECC0001F04CF908B1FBF7BFFF264A24480021DA
:10AEDC0001F0E5F808B1FBF7B7FF0022012120488B
:10AEEC0001F01CF908B1FBF7AFFF1F4D322445F000
:10AEFC0001054FF47A40A847013CFAD100F008FA5A
:10AF0C00FE221A4904A803F01EFB194B19481A49D2
:10AF1C00C01AC008000440F00300FBF7EBFD22460A
:10AF2C00FE2104A800F008F9FBF77AFC0028FBD1FD
:10AF3C00FCF720FEF8E700BF68F70200D5B200204E
:10AF4C00D5B3002055AC020011AB02001DAD0200C0
:10AF5C00E4B0002061AB020088B0002065AD0200B7
:10AF6C0064B1002088F9020050F9020080F7020059
:10AF7C0054EF020084EF02008EF90200438803F0C4
:10AF8C000F021B0902714380704700002DE9F34149
:10AF9C000C46557946494FF4B463B0FBF3F3DEB27B
:10AFAC0001FB03032918107906EB46053C2793FB9C
:10AFBC00F7F3DBB201EB4511A3EB03150344D07897
:10AFCC0001EB8501C9B20644DBB2F6B23B295171E3
:10AFDC001371D67006D901331371B1FBF7F307FB6C
:10AFEC00131151711179172907D918200136B1FBAA
:10AFFC00F0F300FB1313D6701371917850780C2971
:10B00C0001D91E230BE041F2AA53CB40DD0748D4F3
:10B01C000229F6D110F0030F14BF1C231D23D57881
:10B02C009D4206D901319170B5FBF3F103FB11532D
:10B03C00D37093780C2B81BF013001235070937027
:10B04C005378632B04D91378013313700023537096
:10B05C00184FDFF86480561E002516F8010F0A22DF
:10B06C0001A903F06BFA3378092B9FBF9DF80430CC
:10B07C008DF8053030238DF80430AB1E022B12D81E
:10B08C0001224146204603F02DFA0135022201A986
:10B09C002046EDB203F026FA062DDED102B0BDE853
:10B0AC00F0811F23BBE7052DEFD101223946E9E7DB
:10B0BC0060FAFFFF6AFA020068FA020084B013B566
:10B0CC0004AC84E80F00154803F0A8F933221449A6
:10B0DC00144802F0D5FD10B1134803F09FF9134842
:10B0EC0003F09CF904A901AB31F8022B0D4802F0D6
:10B0FC00AAFE044650B10E4803F090F9094802F03C
:10B10C00B0FF02B0BDE8104004B070470199094887
:10B11C0003F084F9ADF81040F0E700BFECFA020040
:10B12C00D5B4002020B5002007FB020031FB020043
:10B13C004EFB02005EFB02002DE9F04F4B00ADF21E
:10B14C002C4D07336A467EAFDB08A2EBC30307F135
:10B15C002C049D4606460D4640F202220021204654
:10B16C0003F01AFA10223146624803F0ECF96249F6
:10B17C00604803F073F9A5F1100206F11001304696
:10B18C0003F02EF9163D062231465C4803F0AAF96D
:10B19C002A46B11D304603F023F9162200217019FE
:10B1AC0003F0FAF94FF40072002107F12E0003F0BE
:10B1BC00F3F90DF5FC78ADB20023F2185908F05CE8
:10B1CC00527802339BB202EB00229D4228F81120E8
:10B1DC00F3D2DFF82C91DFF824B1DFF830A16D0841
:10B1EC000026B3B29D4214D807F12E0003F050FA9A
:10B1FC0007F13C0120804FF4F972684603F0A3F983
:10B20C0094E80F00FFF75AFF07F50D77BD46BDE830
:10B21C00F08F38F81630A9F8003008F102033848DE
:10B22C0033F81630A9F80230FFF7A8FE14220021DB
:10B23C0007F1180003F0B0F9594607F1100003F0BC
:10B24C00DEF907F1100207F11801B9F80000FFF759
:10B25C009DFE0A2207F10801B9F8020003F06EF90D
:10B26C000A22391D99F8040003F068F907F1180156
:10B27C0007F12E0003F0F2F8514607F12E0003F00F
:10B28C00EDF8391D07F12E0003F0E8F8514607F1EF
:10B29C002E0003F0E3F8042207F1080107F12E0059
:10B2AC0003F020F9174907F12E0003F0D7F807F146
:10B2BC002E0003F0EDF931462080134803F0AEF870
:10B2CC002388B3F5F37F13D94FF4F97207F13C01DE
:10B2DC00684603F038F994E80F00FFF7EFFE4FF4DF
:10B2EC000072002107F12E0003F056F90023238091
:10B2FC00023676E7D5B400206CFA0200E5B40020E3
:10B30C00EEB4002021F1020073FA020071FA02007F
:10B31C0038B51C48012101F085FE002001F066FDC6
:10B32C0060B1002001F062FD40B1002001F05EFD33
:10B33C0020B11548BDE8384003F070B8134B1448E1
:10B34C005C69A0471248A04701221249124802F03A
:10B35C0071FC08B11148EDE71149124802F08EFE5C
:10B36C0040B9114C0F4D1049284602F0BAFE18B1E5
:10B37C000E48DFE70E48DDE7637A002BF3D10D486A
:10B38C00D8E700BFC8A5002078FA0200F4F6020046
:10B39C0074FB020022F1020060B7002095FA020053
:10B3AC0068FA0200F4B4002048B70020BFFA02008B
:10B3BC00A4FA0200D7FA02000369C1688B429DBF50
:10B3CC008268D21802F1FF3203F1FF3394BF501A96
:10B3DC00581A70472DE9F041D0E9027405463E1B1E
:10B3EC004068964220448846144404D903F0ABF8D4
:10B3FC00EC60BDE8F0813246E41B03F0A4F8224671
:10B40C0008EB06016868F1E72DE9F843C5680646C4
:10B41C00894617464FF000083469B3687068A54236
:10B42C0028BFE418013C621B5C1BBC4228BF3C4695
:10B43C00944228BF144649462844224603F083F818
:10B44C00B3682544AB4208BF00253F1BA044A14470
:10B45C00F560E1D14046BDE8F883000010B5114C11
:10B46C00114AA2610223C4E90433104BE361A264C4
:10B47C004FF400730E4A2362E264002310220D493C
:10B48C00A362E01D6362E362A3656365E365226505
:10B49C0003F0B5F80849204603F0B1F82023A37156
:10B4AC0010BD00BFACB90020A0FB020034BA0020D4
:10B4BC0024BA0020A9FB0200ADFB0200F8B5184C21
:10B4CC00182300FB033503FB00402544C46A012C00
:10B4DC000F46164611D024B1022C1BD00024204656
:10B4EC00F8BD2846FFF768FFB042F8D3324639461C
:10B4FC002846FFF76FFF3446F1E72846FFF75CFF5D
:10B50C008642344628BF0446224639462846FFF771
:10B51C0061FFE4E72846BDE8F840FFF775BF00BFC0
:10B52C00ACB90020FFF79ABF64DF704770B5C0B1AB
:10B53C004AB116880024B44203D305196D789D4294
:10B54C0008D0A14201D800200BE0055D01352C4448
:10B55C00A4B2F0E7A142F6D9A31C1380005D013818
:10B56C0080B270BDF7B500230746ADF8063014461F
:10B57C0012B9002003B0F0BD09230DF10602FFF74C
:10B58C00D5FFBDF806500646002DF2D00028F0D0AD
:10B59C00204603F07DF8B0420246EAD179192046E4
:10B5AC0002F0E3FEB0FA80F04009E3E7F0B587B0B3
:10B5BC00002306460D461046ADF8063002AA1023AD
:10B5CC000DF105018DF80530FFF7AEFF16B900201F
:10B5DC0007B0F0BD0028FAD19DF80530042B2CD013
:10B5EC00102B2DD0022BF3D11C460323BDF80620C3
:10B5FC007AB90DF1060229463046FFF797FFBDF8E0
:10B60C0006302BB923460DF106023046FFF78EFFAC
:10B61C000546BDF80670002FD9D00024A542D6D916
:10B62C00E0199DF8052002A9304402F09EFE50B1AD
:10B63C009DF805301C44A4B2F0E71C460523D5E761
:10B64C0006240723D2E70120C2E70000782200215C
:10B65C00014802F0A1BF00BF34BC002073B50191BA
:10B66C00019C06466CB100252C46294601A8FBF727
:10B67C0051FF18B106EB440301349D800135142DA4
:10B68C00F3D13046346002B070BD00002DE9F047B4
:10B69C0003888488112B8CB006463CD01A2B3FD0E3
:10B6AC00102B17D1274DAB68DB43009369686846B4
:10B6BC00FBF759FF009901A8FFF7D0FF0DF108091E
:10B6CC004FF00008019B984507D3132C13D9042085
:10B6DC00FBF7BAFB0CB0BDE8F08739F802AB0027DA
:10B6EC000137514605EB8700FBF70AFF1D2FF7D1F9
:10B6FC0008F10108E6E721461348FBF7F8FE21465E
:10B70C001248FBF7F4FEF37B012BE3D010482146E3
:10B71C00FBF7EDFEDEE70C482146FBF7F1FED9E71F
:10B72C00057A0C482D09012D214606D9FBF7DFFEC1
:10B73C00022D21460848F0D0EAE7FBF7E1FE21464E
:10B74C000548EAE734BC00203CBC002038BC002093
:10B75C0040BC002044BC002048BC002037B500246D
:10B76C0001902546214601A8FBF7D4FE00B1013516
:10B77C000134142CF6D1284603B030BDFFF766BF58
:10B78C0007B5064BDA680192996801A8FBF7EBFE46
:10B79C000198FFF7E3FF03B05DF804FB34BC002015
:10B7AC009BDF70479DDF70479EDF704730B50B4BBA
:10B7BC0019680B4B0022914201D1002009E09D78C1
:10B7CC008478A54206D11D880488A54202D1054B78
:10B7DC00186830BD01320433EDE700BFB4BC002063
:10B7EC00BCBF0020ACBC002070B590F8C632164629
:10B7FC007622A0B002FB03000D46FFF7D7FF0446EC
:10B80C0060B17C22002101A802F0C6FE01238DF854
:10B81C000430ADF80660029501A8A04720B070BDB9
:10B82C002DE9F74F8B4690F8C6120192762380468D
:10B83C0001FB03000091FFF7B9FF814670B3194E6D
:10B84C003568052D2AD8184C0099019A4FEAC51A6B
:10B85C0004EB0A07762303FB01817A80381D1A4614
:10B86C0002F071FEBBF1000F14BF0023022304F899
:10B87C000A300E4BC7F87C901A680135954235603A
:10B88C001D460BD10027E36F204698472B680137E4
:10B89C009F4204F18004F6D30023336003B0BDE86B
:10B8AC00F08F00BFB8BF0020B8BC0020B4BC002093
:10B8BC0037B590F8C53290F8C6220C46C3B1013B9F
:10B8CC007621DBB25143122505FB031303445B8A3B
:10B8DC0001339BB2ADF80430762303FB020201A9BD
:10B8EC001389ADF806302046FFF75CFF03B030BD7E
:10B8FC00762303FB0203DB88ECE7000038B54FF43A
:10B90C0033720D460021044602F046FE114AA4F89B
:10B91C00CA5200231360104A84F8C932126822609C
:10B92C0084F8C63284F8C532224601212846FFF736
:10B93C0037FF112806D020B9012384F8C73284F8C8
:10B94C00C80238BD012284F8C72284F8C8221846E0
:10B95C00F7E700BFB8BF0020BCBF002070B50C4695
:10B96C0090F8C922174901320968D2B28A420346BB
:10B97C0080F8C9224FF0000521D290F8C61280F849
:10B98C00C5520131C9B280F8C612762011FB00F005
:10B99C000D4E1A1856F82110195001211571204618
:10B9AC00FFF7FEFE014648B183F8C75222461846FF
:10B9BC00FFF71AFF054B03221A705C8070BD80F8EC
:10B9CC00C752F7E7B4BC0020BCBF0020B8BC0020B5
:10B9DC002DE9F34790F8C65290F8C542762315FB33
:10B9EC0003F54619122796F804E017FB045304F1EB
:10B9FC00010C0A33F445034411D000F11C0A06F182
:10BA0C0022080EF1FF39AA44E5B2AE450BD9A14587
:10BA1C001D891AD133899D4226D100231DE01B8933
:10BA2C003089834205D101230B70002002B0BDE8A0
:10BA3C00F0870133ADF80430ADF8060000230B702D
:10BA4C00104601A9FFF7B0FEF0E707FB04F3013540
:10BA5C0038F803C065450DD1534490F8C5520135F3
:10BA6C0080F8C5520134CFE70135ADF80450ADF87C
:10BA7C000630E3E70CF1FF3CADF80450ADF806C01E
:10BA8C00DCE7000058B1074A00231360064A012185
:10BA9C001170064A1360064A1060184670470E2053
:10BAAC00704700BFB4BC0020B0BC0020B8BF002061
:10BABC00ACBC002010B5044680B10C4B1B787BB19C
:10BACC00FFF774FE70B90A4A1368052B0CD80949A4
